:020000040000FA
:0600000033EF27F01200AF
:0600080004EF08F01200F5
:060018000CEF08F01200DD
:0610000033EF27F012009F
:021006001200D6
:061008002EEF24F012009F
:01100E00FFE2
:0610180081EF24F012003C
:02101E000100CF
:0C1020000E100000F700000001000000AE
:04102C00D9CFE6FF33
:10103000E1CFD9FF050EE12672BA24D0E66AE66A4E
:10104000E66AE66A060EE66EFDDAEECF14F0EECF43
:1010500015F0EECF16F0EECF17F0EECF18F0196EB8
:10106000050EE15E195014C0DFFF010E15C0DBFF55
:10107000020E16C0DBFF030E17C0DBFF040E18C004
:10108000DBFF23D0E66AE66AE66AE66A060EE66EEB
:1010900054D8EECF14F0EECF15F0EECF16F0EECF21
:1010A00017F0EECF18F0196E050EE15E195014C05E
:1010B000DFFF010E15C0DBFF020E16C0DBFF030EC3
:1010C00017C0DBFF040E18C0DBFFD9CFE9FFDACF72
:1010D000EAFFEE50ED100AE029EC11F00001E651B4
:1010E00003E1010E05D004D0000E02D0010E00D0A5
:1010F000146E050EE15C02E2E16AE552E16E145005
:10110000E552E7CFD9FF1200E3C0F3FFE4C0F4FFDC
:1011100000D01200DFC006F0E0C007F0E1C008F028
:10112000E2C009F000D012008180939012005BECC5
:1011300010F08180000E00D01200D9CFE6FFE1CF81
:10114000D9FF0E0EE126080EDE6EDD6A8190DA0E02
:10115000146E4D0E156E000E166EFE0EDBCF17F0E0
:10116000186A196A020ED890173618361936E8062A
:10117000FAE114501724F36E15501820F46E16502F
:101180001920F86EF4CFF7FFF3CFF6FF08000D0E2D
:10119000F5CFDBFFD950FA0FE96EFF0EDA20EA6EC9
:1011A000090EEECFDBFF0A0EEECFDBFF0B0EEECF0C
:1011B000DBFF0C0EEECFDBFFDA0E146E4D0E156E5C
:1011C000000E166EFE0EDBCF17F0186A196A020EBB
:1011D000D890173618361936E806FAE11450172455
:1011E000F36E15501820F46E16501920F86EF4CFD7
:1011F000F7FFF3CFF6FFF62A000EF722F8220800D9
:10120000080EF5CFDBFF0D0EDB8CDBCFE6FF5DECD0
:1012100010F0E5520C0EDBCFE6FF5DEC10F0E5526E
:101220000B0EDBCFE6FF5DEC10F0E5520A0EDBCFD4
:10123000E6FF5DEC10F0E552090EDBCFE6FF5DEC5A
:1012400010F0E552080EDBCFE6FF5DEC10F0E55242
:10125000DA0E146E4D0E156E000E166EFE0EDBCFFE
:1012600017F0186A196A020ED89017361836193610
:10127000E806FAE114501724F36E15501820F46EA6
:1012800016501920F86EF4CFF7FFF3CFF6FF020ED9
:10129000F626000EF722F8220800F55050E0DA0E8C
:1012A0001A6E4D0E1B6E000E1C6EFE0EDBCF1DF077
:1012B0001E6A1F6A020ED8901D361E361F36E806BB
:1012C000FAE11A501D24F36E1B501E20F46E1C50C0
:1012D0001F20F86EF4CFF7FFF3CFF6FF020EF626CD
:1012E000000EF722F8220800F550010828E0DA0E77
:1012F000206E4D0E216E000E226EFE0EDBCF23F00F
:10130000246A256A020ED890233624362536E8064C
:10131000FAE120502324F36E21502420F46E225051
:101320002520F86EF4CFF7FFF3CFF6FF020EF62676
:10133000000EF722F8220800F550040816E176ECBA
:1013400010F0E76E030EE7CFDBFFDF06010E01E2D0
:10135000DB06030EDB50FF0807E1D9CFE9FFDACF48
:10136000EAFFEE50ED10EBE136D0DA0E146E4D0EC2
:10137000156E000E166EFE0EDBCF17F0186A196A96
:10138000020ED890173618361936E806FAE11450CE
:101390001724F36E15501820F46E16501920F86EAD
:1013A000F4CFF7FFF3CFF6FF020EF626000EF7227A
:1013B000F8220800F55002080EE176EC10F076EC09
:1013C00010F0E76E040EE7CFDBFF76EC10F0E76E6F
:1013D000030EE7CFDBFFDA0E146E4D0E156E000E16
:1013E000166EFE0EDBCF17F0186A196A020ED8903F
:1013F000173618361936E806FAE114501724F36E3A
:1014000015501820F46E16501920F86EF4CFF7FF1F
:10141000F3CFF6FF020EF626000EF722F8220800A0
:10142000F550010828E1030EDB6A020EDB6AFF0EAD
:10143000F36E020EDBCFF4FFF350F45C1CE2030EFC
:10144000DB5019E1DE68DD6876EC10F0E76E030E24
:10145000E7CFDBFFDF06010E01E2DB06030EDB5008
:1014600007E1D9CFE9FFDACFEAFFEE50ED10ECE16A
:10147000020EDB2ADCD7DA0E146E4D0E156E000E4E
:10148000166EFE0EDBCF17F0186A196A020ED8909E
:10149000173618361936E806FAE114501724F36E99
:1014A00015501820F46E16501920F86EF4CFF7FF7F
:1014B000F3CFF6FF020EF626000EF722F822080000
:1014C000F550040869E176EC10F0146E156A166A9E
:1014D000176A180E1F0B07E0D8901436153616360B
:1014E0001736E806F9E1040E14C0DBFF050E15C03F
:1014F000DBFF060E16C0DBFF070E17C0DBFF76EC26
:1015000010F0146E156A166A176A100E1F0B07E0AA
:10151000D8901436153616361736E806F9E1D95044
:10152000040FE96EDACFEAFF1450EE261550EE22D2
:101530001650EE221750EE2276EC10F0146E156A5B
:10154000166A176A080E1F0B07E0D8901436153676
:1015500016361736E806F9E1D950040FE96EDACFEE
:10156000EAFF1450EE261550EE221650EE221750C8
:10157000EE2276EC10F0146E156A166A176AD950CE
:10158000040FE96EDACFEAFF1450EE261550EE2272
:101590001650EE221750EE22E6685DEC10F0E55290
:1015A000DA0E146E4D0E156E000E166EFE0EDBCFAB
:1015B00017F0186A196A020ED890173618361936BD
:1015C000E806FAE114501724F36E15501820F46E53
:1015D00016501920F86EF4CFF7FFF3CFF6FF030E85
:1015E000F626000EF722F8220800F55001E181806E
:1015F000030EDBCF14F0040EDBCF15F0050EDBCFAE
:1016000016F0060EDBCF17F0070EDBCF18F0D9CFA0
:10161000E9FFDACFEAFFED50ED5018C0EDFF17C03B
:10162000EDFF16C0EDFF15C0EDFF14C0EFFF0E0E6D
:10163000E15C03E200D0E16AE552E16EE552E7CFFA
:10164000D9FF1200D9CFE6FFE1CFD9FF0E0EE12678
:10165000080EDE6EDD6A8190DA0E146E4D0E156E88
:10166000000E166EFE0EDBCF17F0186A196A020E16
:10167000D890173618361936E806FAE114501724B0
:10168000F36E15501820F46E16501920F86EF4CF32
:10169000F7FFF3CFF6FF08000D0EF5CFDBFFD950B3
:1016A000FA0FE96EFF0EDA20EA6E090EEECFDBFFCD
:1016B0000A0EEECFDBFF0B0EEECFDBFF0C0EEECFF4
:1016C000DBFFDA0E146E4D0E156E000E166EFE0E5A
:1016D000DBCF17F0186A196A020ED8901736183641
:1016E0001936E806FAE114501724F36E1550182045
:1016F000F46E16501920F86EF4CFF7FFF3CFF6FF13
:10170000F62A000EF722F8220800080EF5CFDBFFBC
:101710000D0EDB8CDBCFE6FF9BEC10F0E5520C0EE0
:10172000DBCFE6FF9BEC10F0E5520B0EDBCFE6FFC4
:101730009BEC10F0E5520A0EDBCFE6FF9BEC10F0BD
:10174000E552090EDBCFE6FF9BEC10F0E552080EE8
:10175000DBCFE6FF9BEC10F0E552DA0E146E4D0E77
:10176000156E000E166EFE0EDBCF17F0186A196AA2
:10177000020ED890173618361936E806FAE11450DA
:101780001724F36E15501820F46E16501920F86EB9
:10179000F4CFF7FFF3CFF6FF020EF626000EF72286
:1017A000F8220800F55050E0DA0E1A6E4D0E1B6E4E
:1017B000000E1C6EFE0EDBCF1DF01E6A1F6A020EAD
:1017C000D8901D361E361F36E806FAE11A501D2441
:1017D000F36E1B501E20F46E1C501F20F86EF4CFC9
:1017E000F7FFF3CFF6FF020EF626000EF722F822DF
:1017F0000800F550010828E0DA0E206E4D0E216E2B
:10180000000E226EFE0EDBCF23F0246A256A020E44
:10181000D890233624362536E806FAE120502324D2
:10182000F36E21502420F46E22502520F86EF4CF60
:10183000F7FFF3CFF6FF020EF626000EF722F8228E
:101840000800F550040816E1DDEC10F0E76E030E19
:10185000E7CFDBFFDF06010E01E2DB06030EDB5004
:10186000FF0807E1D9CFE9FFDACFEAFFEE50ED102C
:10187000EBE136D0DA0E146E4D0E156E000E166EBC
:10188000FE0EDBCF17F0186A196A020ED8901736D1
:1018900018361936E806FAE114501724F36E15507D
:1018A0001820F46E16501920F86EF4CFF7FFF3CF1E
:1018B000F6FF020EF626000EF722F8220800F55079
:1018C00002080EE1DDEC10F0DDEC10F0E76E040E26
:1018D000E7CFDBFFDDEC10F0E76E030EE7CFDBFFB9
:1018E000DA0E146E4D0E156E000E166EFE0EDBCF68
:1018F00017F0186A196A020ED8901736183619367A
:10190000E806FAE114501724F36E15501820F46E0F
:1019100016501920F86EF4CFF7FFF3CFF6FF020E42
:10192000F626000EF722F8220800F550010828E1FB
:10193000030EDB6A020EDB6AFF0EF36E020EDBCFD4
:10194000F4FFF350F45C1CE2030EDB5019E1DE6897
:10195000DD68DDEC10F0E76E030EE7CFDBFFDF069E
:10196000010E01E2DB06030EDB5007E1D9CFE9FFF0
:10197000DACFEAFFEE50ED10ECE1020EDB2ADCD705
:10198000DA0E146E4D0E156E000E166EFE0EDBCFC7
:1019900017F0186A196A020ED890173618361936D9
:1019A000E806FAE114501724F36E15501820F46E6F
:1019B00016501920F86EF4CFF7FFF3CFF6FF020EA2
:1019C000F626000EF722F8220800F550040865E11B
:1019D000F4DB146E156A166A176A180E1F0B07E0FF
:1019E000D8901436153616361736E806F9E1040E87
:1019F00014C0DBFF050E15C0DBFF060E16C0DBFFB3
:101A0000070E17C0DBFFD9DB146E156A166A176A5A
:101A1000100E1F0B07E0D890143615361636173601
:101A2000E806F9E1D950040FE96EDACFEAFF145065
:101A3000EE261550EE221650EE221750EE22BDDB98
:101A4000146E156A166A176A080E1F0B07E0D89005
:101A50001436153616361736E806F9E1D950040F54
:101A6000E96EDACFEAFF1450EE261550EE2216503A
:101A7000EE221750EE22A1DB146E156A166A176A61
:101A8000D950040FE96EDACFEAFF1450EE26155054
:101A9000EE221650EE221750EE22E6684CDBE5529D
:101AA000DA0E146E4D0E156E000E166EFE0EDBCFA6
:101AB00017F0186A196A020ED890173618361936B8
:101AC000E806FAE114501724F36E15501820F46E4E
:101AD00016501920F86EF4CFF7FFF3CFF6FF030E80
:101AE000F626000EF722F8220800F55001E1818069
:101AF000030EDBCF14F0040EDBCF15F0050EDBCFA9
:101B000016F0060EDBCF17F0070EDBCF18F0D9CF9B
:101B1000E9FFDACFEAFFED50ED5018C0EDFF17C036
:101B2000EDFF16C0EDFF15C0EDFF14C0EFFF0E0E68
:101B3000E15C03E200D0E16AE552E16EE552E7CFF5
:101B4000D9FF1200D9CFE6FFE1CFD9FF0F0EE12672
:101B5000010EF36E0A0EF3CFDBFF0001E55123E126
:101B6000FB0EDBCF14F0FC0EDBCF15F0FD0EDBCF50
:101B700016F0FE0EDBCF17F0090E1F0B07E0D89012
:101B80001436153616361736E806F9E10B0E14C072
:101B9000DBFF0C0E15C0DBFF0D0E16C0DBFF0E0EBB
:101BA00017C0DBFF12D0D950FB0FE96EFF0EDA2011
:101BB000EA6E0B0EEECFDBFF0C0EEECFDBFF0D0E51
:101BC000EECFDBFF0E0EEECFDBFFD9500B0FE96E31
:101BD000DACFEAFFEECFE6FFEECFE6FFEECFE6FF8D
:101BE000EFCFE6FF080EE66E9DEC08F0EECF14F0A6
:101BF000EECF15F0EECF16F0EECF17F0EECF18F0D7
:101C0000196E050EE15E1950040E14C0DBFF050EBF
:101C100015C0DBFF060E16C0DBFF070E17C0DBFF8B
:101C2000080E18C0DBFF040EDB5033E0D9500B0F59
:101C3000E96EDACFEAFFEECFE6FFEECFE6FFEECFBA
:101C4000E6FFEFCFE6FF080EE66E9DEC08F0EECF64
:101C500014F0EECF15F0EECF16F0EECF17F0EECF7A
:101C600018F0196E050EE15E1950040E14C0DBFF6A
:101C7000050E15C0DBFF060E16C0DBFF070E17C0F2
:101C8000DBFF080E18C0DBFF040EDB5002E0000E85
:101C90008DD0DE68020EDD6E400EF36E020EF3CFC5
:101CA000DBFF030EDB6AD950020FE96EDACFEAFFE1
:101CB000EE50ED1006E0020EDB06030E01E2DB063D
:101CC000F2D714DAE76E090EE7CFDBFFDF06010E6D
:101CD00001E2DB06400EF36E020EF3CFDBFF030ED4
:101CE000DB6AD950020FE96EDACFEAFFEE50ED1051
:101CF00006E0020EDB06030E01E2DB06F2D7090E58
:101D0000DB50FF0807E1D9CFE9FFDACFEAFFEE5059
:101D1000ED10D7E1D9CFE9FFDACFEAFFEE50ED10B1
:101D200004E0090EDB50FE0803E00A0EDB6A37D040
:101D3000DE6ADD6ADECF14F0DDCF15F00001E3517D
:101D4000145CE451155825E2D950F90FE96EFF0EE5
:101D5000DA20EA6EEE50ED1016E0090E75CFDBFFCB
:101D6000A49E7568A4AEFED7F90EDBCF14F0FA0E70
:101D7000DBCF15F0DE501424E96EDD501520EA6E3D
:101D800075CFEFFF01D0B2D9DF2A010E01E3DB2AC4
:101D9000D1D7E66892D9E552E6688FD9E552E66870
:101DA0008CD9E55281800A0EDB5000D0146E0F0EE4
:101DB000E15C02E2E16AE552E16E1450E552E7CFE0
:101DC000D9FF1200D9CFE6FFE1CFD9FF0D0EE126F2
:101DD000010EF36E0C0EF3CFDBFFFB0EDBCF14F026
:101DE000FC0EDBCF15F0FD0EDBCF16F0FE0EDBCFC9
:101DF00017F0145015101610171006E1F80EDB50EE
:101E000003E10C0EDB6A05D10001E55140E1FB0E58
:101E1000DBCF19F0FC0EDBCF1AF0FD0EDBCF1BF091
:101E2000FE0EDBCF1CF0090E1F0B07E0D890193611
:101E30001A361B361C36E806F9E119C0E6FF1AC04F
:101E4000E6FF1BC0E6FF1CC0E6FF0A0EE66E9DEC37
:101E500008F0EECF14F0EECF15F0EECF16F0EECF87
:101E600017F0EECF18F01D6E050EE15E1D50070E47
:101E700014C0DBFF080E15C0DBFF090E16C0DBFF28
:101E80000A0E17C0DBFF0B0E18C0DBFF2FD0D95096
:101E9000FB0FE96EFF0EDA20EA6EEECFE6FFEECF23
:101EA000E6FFEECFE6FFEFCFE6FF0A0EE66E9DEC13
:101EB00008F0EECF14F0EECF15F0EECF16F0EECF27
:101EC00017F0EECF18F0196E050EE15E1950070EEF
:101ED00014C0DBFF080E15C0DBFF090E16C0DBFFC8
:101EE0000A0E17C0DBFF0B0E18C0DBFF070EDB501E
:101EF00003E00C0EDB6A8CD0FE0EE66EDED8E552F7
:101F0000DE6ADD6ADECF14F0DDCF15F00001E351AB
:101F1000145CE45115581CE2060E75CFDBFFA49E3D
:101F2000F90EDBCF14F0FA0EDBCF15F0DE501424DF
:101F3000E96EDD501520EA6EEF50756EA4AEFED747
:101F4000060E75CFDBFFDF2A010E01E3DB2ADAD7AD
:101F5000E668B3D8E552E668B0D8E552C7D8E76E70
:101F6000060EE7CFDBFFDB500F0B050803E00C0E7E
:101F7000DB6A4BD0950EF36E020EF3CFDBFFEE0E55
:101F8000F36E030EF3CFDBFF080EF36E040EF3CFF8
:101F9000DBFF050EDB6A060E75CFDBFFA49E7568BE
:101FA000D950020FE96EDACFEAFFEE06000EEE5AC4
:101FB000EE5AEE5AA4AEFED7060E75CFDBFFDB500D
:101FC00011E1020EDBCF14F0030EDBCF15F0040E8F
:101FD000DBCF16F0050EDBCF17F0145015101610DE
:101FE0001710D9E1020EDBCF14F0030EDBCF15F092
:101FF000040EDBCF16F0050EDBCF17F014501510D2
:102000001610171002E10C0EDB6AE66856D8E5528E
:1020100081800C0EDB50146E0D0EE15C03E200D0EB
:10202000E16AE552E16E1450E552E7CFD9FF1200A4
:10203000000E00D01200D9CFE6FFE1CFD9FF050E88
:10204000E126FE0EDB50DF6EDF50DF06000927E0E1
:102050006B0EF36E010EF3CFDBFF170EF36E020E65
:10206000F3CFDBFF030EDB6A040EDB6AD950010FEE
:10207000E96EDACFEAFFEFCF14F0EE06000EEFCFF5
:1020800015F0EE5AEFCF16F0EE5AEFCF17F0EF5AE9
:10209000145015101610171001E0E8D7D5D700001E
:1020A00000D0050EE15C02E2E16AE552E16EE55224
:1020B000E7CFD9FF1200729A1200D9CFE6FFE1CF25
:1020C000D9FFE6527550DF6EA49EFE0EDB50756E92
:1020D00072AE03D0FF0E05D002D0A4AEFED7000E24
:1020E00000D0E552E552E7CFD9FF1200D9CFE6FF85
:1020F000E1CFD9FFE6527550DF6EA49E7568A4AE9D
:10210000FED7755000D0E552E552E7CFD9FF120057
:10211000D9CFE6FFE1CFD9FF736A726AFE0EDB50BA
:102120007212728E738C939493929386728AE55294
:10213000E7CFD9FF1200D9CFE6FFE1CFD9FF020EDA
:10214000E1268A948A8293949392DF6A080EDF5C78
:1021500025E28A94FE0EDBAE02D08A8201D08A92FA
:10216000DB50020DFE0EF3CFDBFFDE52010EDD6E03
:10217000010EDBCFF3FFDB06F350000901E0F8D7D7
:102180008A84DE52010EDD6E010EDBCFF3FFDB062B
:10219000F350000901E0F8D7DF2AD8D78A94000E5F
:1021A000146E020EE15C03E200D0E16AE552E16EDA
:1021B0001450E552E7CFD9FF1200D9CFE6FFE1CFA7
:1021C000D9FF040EE126030EDB6A8A82939293867E
:1021D0008A949394DF6A080EDF5C2BE28A94010EE6
:1021E000F36E020EF3CFDBFF020EDBCFF3FFDB0655
:1021F000F350000901E0F8D78A84010EF36E020E55
:10220000F3CFDBFF020EDBCFF3FFDB06F350000959
:1022100001E0F8D7030EDB50020D030EF3CFDBFF16
:1022200081A602D0DB2A03D0DE52010EDD6EDF2A4A
:10223000D2D78A94030EDB50146E040EE15C03E2E5
:1022400000D0E16AE552E16E1450E552E7CFD9FFC4
:102250001200D9CFE6FFE1CFD9FF230EE12600011E
:10226000E66BE76BDF6BE06BE16BE26B8180010E8D
:10227000E66EE1DEE552726ADE6ADD6ADECF14F0F8
:10228000DDCF15F00A0E145C000E155808E2E66862
:1022900052DFE552DF2A010E01E3DB2AEFD78190FE
:1022A000010EE66EC8DEE552E66AE66AE66AE66AAE
:1022B000E66A22EC0BF0EECF14F0EECF15F0EECF85
:1022C00016F0EECF17F0EECF18F0196E050EE15EA6
:1022D0001950020E14C0DBFF030E15C0DBFF040E05
:1022E00016C0DBFF050E17C0DBFF060E18C0DBFFB4
:1022F000020EDB50FF0805E0020EDB50F70B010871
:102300000DE081800001020EE66FE60E146E000EF5
:10231000156E14C0F3FF15C0F4FF2AD3AA0EE66EA3
:10232000010EE66EE66AE66A020EE66E22EC0BF03D
:10233000EECF14F0EECF15F0EECF16F0EECF17F093
:10234000EECF18F0196E050EE15E1950020E14C0A2
:10235000DBFF030E15C0DBFF040E16C0DBFF050E0E
:1023600017C0DBFF060E18C0DBFF14680F0E156EDA
:10237000166A176AD950030FE96EDACFEAFFEE50FA
:102380001416EE501516EE501616EE501716AA0E2D
:10239000141806E1010E151803E1165001E117505B
:1023A00001E08AD0D950020FE96EDACFEAFFEF5090
:1023B000040B01E081D0DE680F0EDD6EE66AE66A8E
:1023C000E66A400EE66E010EE66E22EC0BF0EECFF2
:1023D00014F0EECF15F0EECF16F0EECF17F0EECFF3
:1023E00018F0196E050EE15E1950020E14C0DBFFE5
:1023F000030E15C0DBFF040E16C0DBFF050E17C071
:10240000DBFF060E18C0DBFFDF06010E01E2DB0674
:10241000020EDB5007E0D9CFE9FFDACFEAFFEE503A
:10242000ED10CCE1E66AE66AE66AE66A100EE66E50
:1024300022EC0BF0EECF14F0EECF15F0EECF16F04D
:10244000EECF17F0EECF18F0196E050EE15E1950C1
:10245000020E14C0DBFF030E15C0DBFF040E16C016
:10246000DBFF050E17C0DBFF060E18C0DBFF146A8A
:10247000156A166AC00E176ED950030FE96EDACFCF
:10248000EAFFEE501416EE501516EE501616EE50EA
:102490001716145006E1155004E1165002E1C00E63
:1024A000171807E1020EDB5004E10001010EE56F91
:1024B00002D00001E56B38D00001E56BDE680F0E3D
:1024C000DD6EE66AE66AE66AE66A010EE66E22EC10
:1024D0000BF0EECF14F0EECF15F0EECF16F0EECFFE
:1024E00017F0EECF18F0196E050EE15E1950020ECE
:1024F00014C0DBFF030E15C0DBFF040E16C0DBFFAC
:10250000050E17C0DBFF060E18C0DBFFDF06010E4D
:1025100001E2DB06020EDB5007E0D9CFE9FFDACF9C
:10252000EAFFEE50ED10CDE1D9CFE9FFDACFEAFFB7
:10253000EE50ED1005E10001020EE66F81800FD232
:10254000020EE66E78DDE552E66AE2DDE552DE680F
:102550000F0EDD6EE66AE66AE66AE66A030EE66E6E
:102560009DEC08F0EECF14F0EECF15F0EECF16F0A4
:10257000EECF17F0EECF18F0196E050EE15E195090
:10258000020E14C0DBFF030E15C0DBFF040E16C0E5
:10259000DBFF050E17C0DBFF060E18C0DBFFDF06F2
:1025A000010E01E2DB06020EDB5007E0D9CFE9FFA6
:1025B000DACFEAFFEE50ED10CDE11C0EDB6A1B0E08
:1025C000DB6A140EF36E1B0EDBCFF4FFF350F45CEA
:1025D00020E28CDDE66ED950070F146EDACF15F0CD
:1025E0001C0EDB500F011424E96E000E1520EA6E5C
:1025F000E552E750EF6E1C0EDB2A1B0EDB5006E1A6
:10260000070EDB50FE0802E11C0EDB6A1B0EDB2A04
:10261000D8D70001E36B020EE46FE781E3C0E8F076
:10262000E4C0E9F0070EDB50C00B60E00E0EDBCF1C
:1026300014F0156A166A176A3F0E1416156A166AA0
:10264000176A100E1F0B07E0D89014361536163691
:102650001736E806F9E10F0EDBCF18F018C019F0B5
:10266000186A1A6A1B6A18501412195015121A5057
:1026700016121B501712100EDBCF1CF01D6A1E6ABB
:102680001F6A1C5014121D5015121E5016121F5096
:1026900017121D0E14C0DBFF1E0E15C0DBFF1F0E30
:1026A00016C0DBFF200E17C0DBFF1D0EDBCFDFF0F7
:1026B0001E0EDBCFE0F01F0EDBCFE1F0200EDBCFF4
:1026C000E2F00001DF2B000EE023E123E2230A0EFB
:1026D000D890DF37E037E137E237E806F9E100016B
:1026E000DF07000EE05BE15BE25BE5D00D0EDBCFC8
:1026F00014F0156A166A176A100E1F0B07E0D890BF
:102700001436153616361736E806F9E10E0EDBCF0D
:1027100018F018C019F0186A1A6A1B6A18501412B7
:10272000195015121A5016121B5017120F0EDBCF2C
:102730001CF01D6A1E6A1F6A1C5014121D501512CF
:102740001E5016121F5017121D0E14C0DBFF1E0E56
:1027500015C0DBFF1F0E16C0DBFF200E17C0DBFF0E
:10276000D9501D0FE96EDACFEAFFC00EEE16EE5219
:10277000030EEE16EE6A1D0EDBCF14F01E0EDBCF3D
:1027800015F01F0EDBCF16F0200EDBCF17F0060E74
:10279000D8901732163215321432E806F9E11D0EC0
:1027A00014C0DBFF1E0E15C0DBFF1F0E16C0DBFFC3
:1027B000200E17C0DBFF100EDB50030BE824146E55
:1027C000110EDB50800BE844010B1410E76E210E54
:1027D000E7CFDBFF0C0EDB500F0BE76E220EE7CFCF
:1027E000DBFFDB50F70F146E010E145204E0E846D5
:1027F000FE0B1406FCE1E76E220EE7CFDBFFDBCF1A
:1028000020F0216A226A236A210EDB50020F41EC7C
:1028100027F0F3CF1CF0F4CF1DF01E6A1F6A010EE3
:10282000186E196A1A6A1B6AD9501D0FE96EDACF41
:10283000EAFFEE501826EE501922EE501A22EE5002
:102840001B2218C006F019C007F01AC008F01BC000
:1028500009F01CC00BF01DC00CF01EC00DF01FC015
:102860000EF0B5EC26F002C014F003C015F004C061
:1028700016F005C017F014C006F015C007F016C01A
:1028800008F017C009F020C00BF021C00CF022C0E6
:102890000DF023C00EF0B5EC26F002C0DFF003C04F
:1028A000E0F004C0E1F005C0E2F00001DF07000E37
:1028B000E05BE15BE25BE66AE66AE66AE66A110E05
:1028C000E66E9DEC08F0EECF14F0EECF15F0EECFF3
:1028D00016F0EECF17F0EECF18F0196E050EE15E90
:1028E0001950020E14C0DBFF030E15C0DBFF040EEF
:1028F00016C0DBFF050E17C0DBFF060E18C0DBFF9E
:10290000E3C019F0E4C01AF01B6A1C6A19C0E6FFA4
:102910001AC0E6FF1BC0E6FF1CC0E6FF070EE66E0E
:102920009DEC08F0EECF14F0EECF15F0EECF16F0E0
:10293000EECF17F0EECF18F01D6E050EE15E1D50C4
:10294000020E14C0DBFF030E15C0DBFF040E16C021
:10295000DBFF050E17C0DBFF060E18C0DBFFE60E1F
:10296000146E000E156E14C0F3FF15C0F4FF00D0F6
:10297000230EE15C02E2E16AE552E16EE552E7CF47
:04298000D9FF120069
:0C298400D9CFE6FFE1CFD9FFE652A098C2
:10299000636A626A0F01266B010EE66EE66AE66AFA
:1029A000270EE66E0F0EE66E9BEC26F0146E050EFB
:1029B000E15E14500F01160E396F9F0E376F7B0EBC
:1029C000366FDF6ADF50146E156A080E145C000E55
:1029D000155810E2DF50040DF3CFE9FFF4CFEAFF02
:1029E000000EE926040EEA22EE6AEE6AEE6AEE6A4C
:1029F000DF2AE8D7658C0F01386B6598659C62A665
:102A000007D062960001C36BC86BC96BCA6BF7D75E
:102A10000001010EDB6FDC6FDD6BDE6BD16BDF6AFB
:102A2000020EDF5C26E2EA6ADF34FE0BEA36E96E6C
:102A3000BA0EE926000EEA22EE6AED6AEA6ADF348F
:102A4000FE0BEA36E96EB60EE926000EEA22EE6AC1
:102A5000ED6ADF50EA6AD50FE96E000EEA22EF6AEE
:102A6000DF50EA6AD70FE96E000EEA22EF6ADF2A2A
:102A7000D7D70001080EBA6F040EBB6F0F01160EF8
:102A8000266F0401200E026F040E036F080E016F03
:102A9000840E006F0001B06BAF6BE552E552E7CFDB
:102AA000D9FF1200D9CFE6FFE1CFD9FFE6520001EE
:102AB000AF0509E165BA07D0626A0F013681368930
:102AC0000001020EAF6F6250040B06E00F01365199
:102AD000040B02E06294D3D865A202D0A1989AD0E8
:102AE0006250010B0AE00F013651010B06E04ADF8C
:102AF000A0880001040EAF6F62906250100B06E0D8
:102B00000F013651100B02E0A4D8629862AC1AD0C3
:102B10000F0136AD0FD0010EE66EE66A000EE66ECE
:102B2000E66A730EE66EE66A39EC25F0146E060E60
:102B3000E15E1450629C0001D95101E0D907D951DE
:102B400001E170DB6250200B05E00F013651200BD4
:102B500001E065D86250020B14E00F013651020B00
:102B600010E0010EE66EE66A000EE66EE66AE668C2
:102B70007F0EE66E39EC25F0146E060EE15E145001
:102B8000636A040E0001E76EAF19E8AE02D0E734C5
:102B900002D0E750AF5D02E2A1983CD00F0136A70A
:102BA00038D0DF6A040EDF5C34E262A631D064CF35
:102BB000D2F00001D251780BE842E842E842D36FEC
:102BC0006296D2B508D0D351EA6AD70FE96E000EEB
:102BD000EA22EF7007D0D351EA6AD50FE96E000EF2
:102BE000EA22EF70D35102E162D810D0000EE66EF7
:102BF000E66AD20EE66E000EE66E720EE66EE66ACB
:102C000039EC25F0146E060EE15E1450DF2ACAD7A7
:102C100000D0A198E552E552E7CFD9FF12000F018D
:102C200026A115D0B2C0E9FFB3C0EAFFEF5080087B
:102C30000DE1BAC0E9FFBBC0EAFFEF50840806E12E
:102C4000B2C0E9FFB3C0EAFF8C0EEF6E2691629A24
:102C500012000F013685629865820001010ED16F66
:102C6000000EE66EE66AE66EE66A750EE66EE66AE7
:102C700039EC25F0146E060EE15E145012000001CE
:102C8000D16B000EE66EE66AE66EE66A740EE66EDC
:102C9000E66A39EC25F0146E060EE15E145065927A
:102CA0000F01369562A402D06294FCD71200D9CFEE
:102CB000E6FFE1CFD9FFE65200012D0ED96FFD0EE0
:102CC000D21553E17E0ED215E8407F0B040DF3CFF1
:102CD000B2F0F4CFB3F0000EB227040EB323B2C0AB
:102CE000B4F0B3C0B5F0B475B2C0E9FFB3C0EAFF49
:102CF000EF503C0BE842E8420D0835E1DF6A080E70
:102D0000DF5C23E2B2C0E9FFB3C0EAFF020EE926AE
:102D1000000EEA22EE50EFCFEAFFE96EEF50E66ECA
:102D2000DF50EA6A200FE96E040EEA22E552E7500E
:102D3000EF6EB2C0E9FFB3C0EAFF020EE926000E53
:102D4000EA22EE2AEF22DF2ADAD7B2C0E9FFB3C0C7
:102D5000EAFF020EE926000EEA22200EEE6E040EB5
:102D6000ED6E0DD801D03AD805D0FD0ED21504086D
:102D700001E15AD8E552E552E7CFD9FF1200000130
:102D8000BE6BDA6BDD6BDE6BD46BBF6BBAC0E9FF79
:102D9000BBC0EAFFEF9EBA75BAC0E9FFBBC0EAFF4D
:102DA000EF9EBA75B4C0E9FFB5C0EAFFEF9EC36BF2
:102DB000C46BC56BC86BC96BCA6B96D8000EE66E48
:102DC000E66AE66EE66A030EE66EE66A39EC25F020
:102DD000146E060EE15E1450B6EF1AF0020E0001FA
:102DE000BF5D03E17CEC1BF01ED0BF6BD4511AE138
:102DF000B4C0E9FFB5C0EAFFEE52080EEF6EB4C0F2
:102E0000E9FFB5C0EAFF020EE926000EEA22200E15
:102E1000EE6E040EED6EB4C0E9FFB5C0EAFF8C0E95
:102E2000EF6E01D0D46B1200D9CFE6FFE1CFD9FF0E
:102E3000E652BAC0E9FFBBC0EAFFEF50400B01E029
:102E4000010EDF6E0001BA75080EAF5D0CE122C401
:102E500038FF0F01385104E00001100EAF6F03D0AE
:102E60000001040EAF6FBF0528E1BAC0E9FFBBC087
:102E7000EAFF020EE926000EEA22280EEE6E040E8C
:102E8000ED6ED5DB020E0001BE5D07E1BAC0E9FFC1
:102E9000BBC0EAFF840EEF6E0FD0DF5007E1BAC06F
:102EA000E9FFBBC0EAFFC80EEF6E06D0BAC0E9FF6B
:102EB000BBC0EAFF880EEF6E12D0C8AF0FD0CB5167
:102EC000CC11CD1109E007D0CDC0FBFFCCC0FAFF7B
:102ED0000001CB51F96EF8DF0001C89FBF6BE552CE
:102EE000E552E7CFD9FF120004012051600BE84200
:102EF000E842E842E842E842000901E059D02151A5
:102F00000C0A55E00B0A44E00C0A36E0010A27E0FF
:102F10000B0A23E0020A21E0030A1DE0080A11E07F
:102F2000010A0CE00F0A08E0030A01E040D00001AA
:102F3000C38F080EAF6F3CD006DA3AD01FEC1CF0FE
:102F400037D00001B00EC06F000EC16FC381010EFB
:102F5000C46FC38F2DD0A9DA2BD02BD829D0245100
:102F60000001C06FC16BB10EC027000EC123C38129
:102F7000010EC46FC38F1CD00001C38F0401245104
:102F8000EA6AB10FE96E000EEA2222C4EFFF10D008
:102F9000000EE66EE66AE66EE66A020EE66EE66A27
:102FA00039EC25F0146E060EE15E145001D000D00D
:102FB0001200D9CFE6FFE1CFD9FF030EE1260401CD
:102FC000220510E120511F0B00090CE10001C38F05
:102FD000030E0401215D04E10001010ED06F02D057
:102FE0000001D06B0401225101E012D120511F0BCE
:102FF000020801E00DD124510F0B000901E108D1B5
:1030000024510F0B010801E203D1200E0001AF5D36
:1030100001E0FED0C38F040124BF1AD024510F0B4E
:10302000E96EEA6AD890E936EA36B60EE926000E6D
:10303000EA22EECFDEFFEDCFDDFF24510F0BEA6A6F
:10304000D70FE96E000EEA22020EEFCFDBFF19D098
:1030500024510F0BE96EEA6AD890E936EA36BA0EC7
:10306000E926000EEA22EECFDEFFEDCFDDFF245190
:103070000F0BEA6AD50FE96E000EEA22020EEFCFBF
:10308000DBFFD950020FE96EDACFEAFFEF50010BF8
:1030900003E1000EDF9401D0DF8424BF10D024515F
:1030A0000F0BE96EEA6AD890E936EA36B60EE926E1
:1030B000000EEA22DECFEEFFDDCFEDFF0FD0245170
:1030C0000F0BE96EEA6AD890E936EA36BA0EE926BD
:1030D000000EEA22DECFEEFFDDCFEDFF030E215D15
:1030E00023E1DECFE9FFDDCFEAFFEF50800B13E0F5
:1030F00024BF09D024510F0BEA6AD70FE96E000EE6
:10310000EA22EF8208D024510F0BEA6AD50FE96E4C
:10311000000EEA22EF82840E146EDECFE9FFDDCFCF
:10312000EAFF1450EF1274D0DF74DECFE9FFDDCF79
:10313000EAFFEF50800B1BE0DECFE9FFDDCFEAFFB7
:10314000EF9EDECFE9FFDDCFEAFFEF8C020EE66EE9
:10315000E66ADECFE6FFDDCFE6FF050EE66EE66A45
:1031600039EC25F0146E060EE15E145005D0DECF6A
:10317000E9FFDDCFEAFFEF8CDF74D950020FE96E73
:10318000DACFEAFFEF50020B0EE1DECFE9FFDDCF31
:10319000EAFFEF50800B34E0DECFE9FFDDCFEAFF3E
:1031A000EF50040B2DE1040124BF09D024510F0B73
:1031B000EA6AD70FE96E000EEA22EF9208D0245196
:1031C0000F0BEA6AD50FE96E000EEA22EF923B0E72
:1031D000146EDECFE9FFDDCFEAFF1450EF16020ECA
:1031E000E66EE66ADECFE6FFDDCFE6FF050EE66EB1
:1031F000E66A39EC25F0146E060EE15E145008D034
:103200003B0E146EDECFE9FFDDCFEAFF1450EF1660
:10321000030EE15C02E2E16AE552E16EE552E7CFBE
:10322000D9FF12000001DB514DE1010EDB6FDC51D3
:1032300049E1010EDC6F020EBF5D0DE1BAC0E9FF8E
:10324000BBC0EAFFEE52EF6ABAC0E9FFBBC0EAFFBB
:10325000C80EEF6E37D0BF0535E1D46BB2C0E9FFC1
:10326000B3C0EAFFEE52080EEF6EB2C0E9FFB3C082
:10327000EAFF020EE926000EEA22200EEE6E040E90
:10328000ED6EB2C0E9FFB3C0EAFF840EEF6E010E2F
:10329000D46FB4C0E9FFB5C0EAFFEE52080EEF6E7E
:1032A000B4C0E9FFB5C0EAFF020EE926000EEA222B
:1032B000200EEE6E040EED6EB4C0E9FFB5C0EAFF5D
:1032C000800EEF6E12000001DD6BDE6B020EBF5D43
:1032D0001AE1B4C0E9FFB5C0EAFFEE52080EEF6E86
:1032E000B4C0E9FFB5C0EAFF020EE926000EEA22EB
:1032F000280EEE6E040EED6EB4C0E9FFB5C0EAFF15
:10330000C80EEF6E1FD0C4510401265D0001C551E7
:103310000401275904E226C4C4F027C4C5F087D9A4
:10332000BAC0E9FFBBC0EAFF020EE926000EEA229E
:10333000280EEE6E040EED6EBAC0E9FFBBC0EAFFC8
:10334000C80EEF6E1200800E0401205D01E0ACD0CB
:103350000001C00EC36F04012351030A61E0010A9A
:1033600010E0030A03E00001C36B9ED00001100EC1
:10337000C06F4B0EC16F000EC26F120EC46FC56BD3
:1033800093D0B40E146E4B0E156E000E166E22C442
:1033900017F0186A196A030E0C6E0D6A0E6A17C0D0
:1033A00007F018C008F019C009F02FEC26F004C08F
:1033B00017F005C018F006C019F014501724F36E6A
:1033C00015501820F46E16501920F86EF4CFF7FF40
:1033D000F3CFF6FF0900F5CFC0F00900F5CFC1F03B
:1033E0000800F5CFC2F0C0C0F6FFC1C0F7FFC2C0F1
:1033F000F8FF020EF626000EF722F8220800F5CF9D
:10340000C4F0C0C0F6FFC1C0F7FFC2C0F8FF030E92
:10341000F626000EF722F8220800F5CFC5F044D0BA
:10342000030E225D3EE2B70E146E4B0E156E000EBB
:10343000166E22C417F0186A196A030E0C6E0D6A14
:103440000E6A17C007F018C008F019C009F02FEC79
:1034500026F004C017F005C018F006C019F014508B
:103460001724F36E15501820F46E16501920F86EBC
:10347000F4CFF7FFF3CFF6FF0900F5CFC0F0090056
:10348000F5CFC1F00800F5CFC2F0C0C0F6FFC1C053
:10349000F7FFC2C0F8FF0800F5500001C46FC56B0C
:1034A00002D00001C36B00D01200D9CFE6FFE1CFFC
:1034B000D9FF020EE1260401286B296B20511F0B56
:1034C000020A12E0030A0DE0010A01E03BD000010C
:1034D000C38F040128810001D00502E10401288383
:1034E00031D00001C38F2ED00001C38F040124BF4F
:1034F00010D024510F0BE96EEA6AD890E936EA360B
:10350000B60EE926000EEA22EECFDEFFEDCFDDFF9C
:103510000FD024510F0BE96EEA6AD890E936EA36EB
:10352000BA0EE926000EEA22EECFDEFFEDCFDDFF78
:10353000DECFE9FFDDCFEAFFEF50040B02E0010E22
:10354000286F00D00001C3AF07D0280EC06F040E53
:10355000C16FC381020EC46F020EE15C02E2E16A38
:10356000E552E16EE552E7CFD9FF12006598000100
:10357000C3BF2BD0C8AF09D0020EBF6FDE5101E12F
:10358000A2DE0001DC6BDB6B1FD0B4C0E9FFB5C06D
:10359000EAFFEE52080EEF6EB4C0E9FFB5C0EAFFD5
:1035A000020EE926000EEA22200EEE6E040EED6EEB
:1035B000B4C0E9FFB5C0EAFF8C0EEF6EBAC0E9FFF8
:1035C000BBC0EAFF840EEF6E31D0040120AF0DD0F6
:1035D0000001010EBF6FDD5101E175DE0001DC6B02
:1035E000DB6BDA5101E11EDE21D00001020EBF6F5C
:1035F000B4C0E9FFB5C0EAFFEE52080EEF6EB4C0EA
:10360000E9FFB5C0EAFF020EE926000EEA22200E0D
:10361000EE6E040EED6EB4C0E9FFB5C0EAFF840E95
:10362000EF6EDC6BDB6BDA5101E1FCDD1200D9CF10
:10363000E6FFE1CFD9FFE652080EDF6E0001C45D60
:10364000000EC5590BE2C4C0DFFFBE5103E1010EFD
:10365000BE6F04D0BE0502E1020EBE6FDF50146ED5
:10366000156A1450C45DC46F1550C559C56FBAC0F2
:10367000E9FFBBC0EAFFEE52DFCFEFFF280ECE6FAF
:10368000040ECF6FC3B11CD0DF5019E0C0C0F6FFED
:10369000C02BC1C0F7FF000EC123C2C0F8FFC22378
:1036A0000800F550E66ECEC0E9FFCFC0EAFFCE2B92
:1036B000000ECF23E552E750EF6EDF06E5D717D0B7
:1036C000DF5015E0C0C0E9FFC1C0EAFFC02B000E0B
:1036D000C123EF50E66ECEC0E9FFCFC0EAFFCE2B8C
:1036E000000ECF23E552E750EF6EDF06E9D7E55233
:1036F000E552E7CFD9FF1200D9CFE6FFE1CFD9FFDE
:10370000020EE126B2C0E9FFB3C0EAFFEE52EFCFEE
:10371000DFFFDFCF14F014500001C95D000ECA595D
:1037200002E2C9C0DFFFDF50146E156A1450C95D94
:10373000C96F1550CA59CA6F010EDB6ADF50F36EAC
:10374000010EDBCFF4FFF350F45C16E2010EDB5008
:10375000EA6A280FE96E040EEA22EF50E66EC6C050
:10376000E9FFC7C0EAFFC62B000EC723E552E750AA
:10377000EF6E010EDB2AE2D7000ED880C955000E8D
:10378000CA5528E2B4C0E9FFB5C0EAFFEE52080E00
:10379000EF6EB4C0E9FFB5C0EAFF020EE926000EE5
:1037A000EA22280EEE6E040EED6EB2C0E9FFB3C041
:1037B000EAFFEF50400B07E1B4C0E9FFB5C0EAFFF4
:1037C000C80EEF6E06D0B4C0E9FFB5C0EAFF880EA0
:1037D000EF6E2BD0B4C0E9FFB5C0EAFFEE52080E81
:1037E000EF6EB4C0E9FFB5C0EAFF020EE926000E95
:1037F000EA22200EEE6E040EED6EB4C0E9FFB5C0F5
:10380000EAFF840EEF6ECB51CC11CD1109E007D049
:10381000CDC0FBFFCCC0FAFF0001CB51F96EF8DF41
:103820000001C89FDA5101E1FDDC020EE15C02E219
:10383000E16AE552E16EE552E7CFD9FF1200D9CF38
:10384000E6FFE1CFD9FFE6520001C38F010EE66E1D
:10385000E66AE66A270EE66E0F0EE66E9BEC26F031
:10386000146E050EE15E1450DF6ADF50146E156AA7
:10387000080E145C000E155810E2DF50040DF3CF53
:10388000E9FFF4CFEAFF000EE926040EEA22EE6A11
:10389000EE6AEE6AEE6ADF2AE8D7658C010EE66E04
:1038A000E66AE66AB10EE66E000EE66E9BEC26F066
:1038B000146E050EE15E1450659C0001080EBA6F8F
:1038C000040EBB6F000EB26F040EB36FB2C0B4F043
:1038D000B3C0B5F022C4B0F0B05103E1100EAF6F29
:1038E00013D0010EE66EE66AB00EE66E000EE66ECE
:1038F000010EE66EE66A39EC25F0146E060EE15E06
:1039000014500001200EAF6FE552E552E7CFD9FF0A
:103910001200D9CFE6FFE1CFD9FF020EE126000E5B
:10392000DE6E040EDD6EFD0EDB50E824166EFE0E1C
:10393000DB50040DF3501624040DF3CF14F0F4CF34
:1039400015F0D9CFE9FFDACFEAFF1450EE26155073
:10395000ED22DECFE9FFDDCFEAFFEF9EFD0EDB506B
:103960000FE1FE0EEA6ADB34FE0BEA36E96EB60EB4
:10397000E926000EEA22DECFEEFFDDCFEDFF0ED00E
:10398000FE0EEA6ADB34FE0BEA36E96EBA0EE92671
:10399000000EEA22DECFEEFFDDCFEDFFDECFE9FF46
:1039A000DDCFEAFFEF9CDECFE9FFDDCFEAFF040EBB
:1039B000E926000EEA22EF8C020EE15C02E2E16AE7
:1039C000E552E16EE552E7CFD9FF1200D9CFE6FF0D
:1039D000E1CFD9FF020EE126FD0EDBA407D0E66A97
:1039E000FE0EDBCFE6FF95DFE552E552FD0EDBA2D2
:1039F00008D0010EE66EFE0EDBCFE6FF8ADFE55251
:103A0000E552FE0EDB50156A260F146E0F0E1522BE
:103A100014C0DEFF15C0DDFFDECFE9FFDDCFEAFF1A
:103A2000FD0EDBCFEFFF020EE15C02E2E16AE55240
:103A3000E16EE552E7CFD9FF1200D9CFE6FFE1CF23
:103A4000D9FF020EE126FE0EDB5020E1B4C0E9FFF3
:103A5000B5C0EAFFEE52080EEF6EB4C0E9FFB5C084
:103A6000EAFF020EE926000EEA22200EEE6E040E98
:103A7000ED6EB4C0E9FFB5C0EAFF8C0EEF6EBAC0C0
:103A8000E9FFBBC0EAFF840EEF6E3DD0FD0EDB50B8
:103A9000E824166EFE0EDB50040DF3501624040DC0
:103AA000F3CF14F0F4CF15F0000E1426040E1522F7
:103AB00014C0DEFF15C0DDFF840E146EDECFE9FFFB
:103AC000DDCFEAFF1450EF12FD0EDB50E824166E36
:103AD000FE0EDB50040DF3501624010F040DF3CF3E
:103AE00014F0F4CF15F0000E1426040E152214C0A5
:103AF000DEFF15C0DDFF840E146EDECFE9FFDDCFE3
:103B0000EAFF1450EF12020EE15C02E2E16AE552B4
:103B1000E16EE552E7CFD9FF1200D9CFE6FFE1CF42
:103B2000D9FF020EE126FD0EDB500FE0FE0EEA6A21
:103B3000DB34FE0BEA36E96EBA0EE926000EEA2205
:103B4000EECFDEFFEDCFDDFF0ED0FE0EEA6ADB34F6
:103B5000FE0BEA36E96EB60EE926000EEA22EECF3B
:103B6000DEFFEDCFDDFFD9CFE9FFDACFEAFFEE5080
:103B7000ED1003E1F36AF46A49D0DECFE9FFDDCF4F
:103B8000EAFF020EE926000EEA22FB0EDBCFEEFF73
:103B9000FC0EDBCFEDFFDECFE9FFDDCFEAFFEE521B
:103BA000FA0EDBCFEFFF400E146EDECFE9FFDDCF64
:103BB000EAFF1450EF16880E146EDECFE9FFDDCF5A
:103BC000EAFF1450EF12FD0EDB500CE0FE0EEA6A25
:103BD000DB34FE0BEA36E96EBA0EE926000EEA2265
:103BE000EF740BD0FE0EEA6ADB34FE0BEA36E96EA8
:103BF000B60EE926000EEA22EF74DECF14F0DDCF18
:103C000015F014C0F3FF15C0F4FF00D0020EE15C04
:103C100002E2E16AE552E16EE552E7CFD9FF120018
:103C2000D9CFE6FFE1CFD9FF65A84ED0FE0EEA6AF4
:103C3000DB34FE0BEA36E96EBA0EE926000EEA2204
:103C4000EE50EFCFEAFFE96E400EEE16EE6AEE6A36
:103C5000EE6AFE0EEA6ADB34FE0BEA36E96EBA0E55
:103C6000E926000EEA22EE50EFCFEAFFE96EEE7C85
:103C7000FE0EEA6ADB34FE0BEA36E96EBA0EE9267E
:103C8000000EEA22EF74400E146EFE0EEA6ADB3478
:103C9000FE0BEA36E96EBA0EE926000EEA22EE5075
:103CA000EFCFEAFFE96E1450EF16FE0EEA6ADB343E
:103CB000FE0BEA36E96EBA0EE926000EEA22EE5055
:103CC000EFCFEAFFE96EEF7CE552E7CFD9FF1200B4
:103CD000656A0F01366B0001AF6B00D01200000166
:103CE000AF5114E1656A0F01366B160E396F9F0EE6
:103CF000376F7B0E366FD08EA288A088F28E65B6A5
:0E3D000002D06586FCD70001010EAF6F1200E5
:023D0E000001B2
:103D10009A6B9B6B400EE66E300EE66E040EE66EFE
:103D2000E66A010EE66E8DEC1DF0146E050EE15E86
:103D30001450F3CF98F0F4CF99F00001606B0001BC
:103D4000F7690001616B626BA76BA86BA96BAA6B2B
:103D5000AB6BAC6BAD6BAE6B9E6B9F6B716B010E07
:103D6000715D22E27151EA6AA00FE96E000EEA224B
:103D7000EF6A16EC08F0000912E029EC11F0F3CF1D
:103D800014F0F4CF15F01450151009E00001715132
:103D900041EC27F0F35000019E13F4509F130CECFC
:103DA00024F00001712BDBD71200040120511F0BFE
:103DB000010801E01ED0245101E01BD02151FE0A70
:103DC0000BE0010A01E015D00001606B0001F7690A
:103DD0000001616B626B0DD00401286B0001280E9D
:103DE000C06F040EC16F010EC46FC56BC10EC36FEF
:103DF00000D01200D9CFE6FFE1CFD9FFE652000193
:103E00006051030A01E1B3D0010A01E19FD0030A26
:103E100001E195D0010A01E0F3D09851991102E136
:103E2000000E08D098C0E9FF99C0EAFFEF50800B60
:103E300001E0010E000901E081D030C464F031C41A
:103E400065F032C466F033C467F034C468F035C43A
:103E500069F036C46AF037C46BF038C46CF039C40A
:103E60006DF03AC46EF03BC46FF03CC470F03DC4DA
:103E700071F03EC472F0DF6A04013E51DF5C13E270
:103E8000DF50EA6A3F0FE96E040EEA22EF50E66E59
:103E9000DF50EA6A730FE96E000EEA22E552E7503E
:103EA000EF6EDF2AE9D798C0E9FF99C0EAFFEE522A
:103EB000EFCF83F01F0E0001835D40E1550E6419C2
:103EC00008E1530E651905E1420E661902E1430E41
:103ED000671934E171510F0831E3725110082EE374
:103EE000010E725D2BE3705103E0800E705D26E1E0
:103EF00068C053F469C054F46AC055F46BC056F4FA
:103F00000401550E4F6F530E506F420E516F530EFA
:103F1000526F0001636B030E735D06E0869186931A
:103F200086958697906B916B800E705D03E1010E14
:103F3000606F04D0705102E1020E606F62D061DAEE
:103F4000FF0803E10001030E606F5BD05ADAFF083F
:103F50000DE104015B5107E15751581159115A11F4
:103F600002E0020E5B6F0001030E606F4AD09A51AF
:103F70009B1102E1000E08D09AC0E9FF9BC0EAFF46
:103F8000EF50800B01E0010E000901E03AD00D0E68
:103F9000E66E4F0EE66E040EE66E010EE66EE66EFF
:103FA0008DEC1DF0146E050EE15E1450F3CF9AF007
:103FB000F4CF9BF000019851991102E1000E08D056
:103FC00098C0E9FF99C0EAFFEF50800B01E0010EB5
:103FD000000913E11F0EE66E300EE66E040EE66E6B
:103FE000E66A010EE66E8DEC1DF0146E050EE15EC4
:103FF0001450F3CF98F0F4CF99F00001606B01D02A
:10400000606B0001605100D0E552E552E7CFD9FF67
:104010001200D9CFE6FFE1CFD9FF090EE12600015A
:10402000F751FE0A01E128D1030A01E1FAD0D20AD0
:1040300001E1EED0340A01E1EBD01B0A01E1D4D05A
:104040001E0A01E1B8D0040A01E1A4D0190A01E175
:104050007AD0290A72E0020A6AE00D0A26E0370ADD
:1040600006E0ED0A01E008D173C0F7F019D1240E83
:10407000E66EE66A220EE66E4E0EE66E000EE66E06
:10408000000EE66E060EE66E78EC26F0146E070E55
:10409000E15E14500401240E576F586B596B5A6B34
:1040A0005B6B0001FD0EF76FFBD004015B6B8AECCC
:1040B00008F0050E06C0DBFF060E07C0DBFF070E8B
:1040C00008C0DBFF080E09C0DBFF84EC08F0F3CF6B
:1040D00014F0F4CF15F0010E14C0DBFF020E15C072
:1040E000DBFF030EDB6A040EDB6A080EDBCF00F693
:1040F000070EDBCF01F6060EDBCF02F6050EDBCF97
:1041000003F6040EDBCF04F6030EDBCF05F6020E3A
:10411000DBCF06F6010EDBCF07F60401080E576F62
:10412000586B596B5A6B0001FD0EF76FB9D0B9D9B6
:10413000000902E10001F769B3D076DA000902E173
:104140000001F769ADD0DF6ADF50146E156A120EF8
:10415000145C000E155813E2DF50EA6A840FE96E12
:10416000000EEA22EF50E66EDF50EA6A000FE96EB9
:10417000060EEA22E552E750EF6EDF2AE5D704018A
:10418000120E576F586B596B5A6B5B6B0001FD0E2B
:10419000F76F86D00601020E006F016B026B036B96
:1041A00004015B6B040E576F586B596B5A6B00011F
:1041B000FD0EF76F75D016EC08F0000907E004015A
:1041C0005B6B576B586B596B5A6B0BD00001869128
:1041D0008683869586973A0E906F916B0401010E47
:1041E0005B6F0001F7695CD0000186510F0B060878
:1041F00006E104015B0503E10001F76908D00CDB6F
:104200000401576B586B596B5A6B0001F76948D022
:1042100004015B6B576B586B596B5A6B0001F76964
:104220003FD000019A519B1102E1000E08D09AC0C4
:10423000E9FF9BC0EAFFEF50800B01E0010E00098F
:104240001AE157C4E6FF000EE66E060EE66E010E9A
:10425000E66EE66E8DEC1DF0146E050EE15E1450F8
:10426000F3CF9AF0F4CF9BF00001F7690401576B8C
:10427000586B596B5A6B14D0CFDA00018681869344
:1042800086858697200E906F916B0401010E5B6FFF
:10429000576B586B596B5A6B0001FD0EF76F00D0CE
:1042A000090EE15C02E2E16AE552E16EE552E7CF18
:1042B000D9FF1200D9CFE6FFE1CFD9FFE6520001C6
:1042C000F751FD0A6EE0020A69E0ED0A49E00C0AC6
:1042D00041E01E0A3FE0030A0DE0010EE66EE66EC5
:1042E0001DEC1DF0E552E5520401010E5B6F00016B
:1042F000F76982D091DA0001869186838695869748
:104300003A0E906F916BDF6ADF50146E156A120ED1
:10431000145C000E155813E2DF50EA6A840FE96E50
:10432000000EEA22EF50E66EDF50EA6A000FE96EF7
:10433000060EEA22E552E750EF6EDF2AE5D70401C8
:10434000120E576F586B596B5A6B5B6B0001FD0E69
:10435000F76F52D00401010E5B6F0001F7694CD07A
:10436000240EE66EE66A220EE66E4E0EE66E000E35
:10437000E66E000EE66E060EE66E78EC26F0146E23
:10438000070EE15E14500401240E576F586B596BF1
:104390005A6B5B6B0001FD0EF76F2ED073C0F7F008
:1043A0002BD000019A519B1102E1000E08D09AC057
:1043B000E9FF9BC0EAFFEF50800B01E0010E00090E
:1043C0001AE157C4E6FF000EE66E060EE66E010E19
:1043D000E66EE66E8DEC1DF0146E050EE15E145077
:1043E000F3CF9AF0F4CF9BF00001F7690401576B0B
:1043F000586B596B5A6B00D0E552E552E7CFD9FFA5
:10440000120016EC08F0000909E000017151EA6A97
:10441000A00FE96E000EEA22EF0411E100017151D4
:1044200041EC27F0F3CF14F0F4CF15F0141E151E55
:10443000145000019E1715509F173CDF2ED071516C
:1044400041EC27F000019E51F314146E9F51F414B7
:10445000156E1450151020E129EC11F0F3CF14F073
:10446000F4CF15F01450151015E00001715141EC16
:1044700027F0F35000019E13F4509F13869186831A
:1044800086858697280E906F916B0401010E5B6FF5
:10449000C0DD01D00FDF01D0BCDD0001F75100D03D
:1044A000120000016151040A01E17DD0070A6EE0AB
:1044B000010A24E0030A18E0010A01E0ADD075C04A
:1044C000A6F076C0A5F077C0A4F078C0A3F07AC0BB
:1044D000A2F07BC0A1F004015B6B576B586B596B6A
:1044E0005A6B0001010E616FA151A21102E1616BD3
:1044F00098D0A107000EA25B020E616F9A519B112A
:1045000002E1000E08D09AC0E9FF9BC0EAFFEF501D
:10451000800B01E0010E000901E083D0000EE66E81
:10452000060EE66EA3C0E6FFA4C0E6FFA5C0E6FF48
:10453000A6C0E6FFA2EC0DF0146E060EE15E14506C
:10454000010811E0640E0001635D03E2632B69D092
:104550000AD00401010E5B6F000186818683869577
:104560008697906B916B0001A32B000EA423A523CB
:10457000A6230401576B020E586F596B5A6B00014A
:10458000000E966F060E976F030E616F0401575170
:10459000581159115A1104E10001010E616F41D007
:1045A0000001040E616F9A519B1102E1000E08D0C8
:1045B0009AC0E9FF9BC0EAFFEF50800B01E0010EBB
:1045C000000901E02ED0400EE66E96C0E6FF97C0CF
:1045D000E6FF010EE66EE66E8DEC1DF0146E050E24
:1045E000E15E1450F3CF9AF0F4CF9BF00001030E7C
:1045F000616F400E6C5F000E6D5B6E5B6F5B400E1B
:104600000401575F000E585B595B5A5B400E000176
:104610009627000E972305D00401020E5B6F000160
:10462000616B615100D0120000016251020A01E188
:10463000AED0060A6FE0070A27E0020A14E0010A7A
:1046400001E0E2D075C0A6F076C0A5F077C0A4F076
:1046500078C0A3F07AC0A2F07BC0A1F004015B6B2C
:104660000001010E606FA151A21102E1626BD1D075
:10467000030E626F000E966F060E976F0401576B64
:10468000020E586F596B5A6BD880000E04015755B3
:10469000000E5855000E5955000E5A5528E20001DB
:1046A0009851991102E1000E08D098C0E9FF99C015
:1046B000EAFFEF50800B01E0010E000901E0A9D0F4
:1046C000400EE66E96C0E6FF97C0E6FFE66A010E72
:1046D000E66E8DEC1DF0146E050EE15E1450F3CF06
:1046E00098F0F4CF99F00001040E626F13D018EC2B
:1046F00010F000090BE00401010E5B6F00018691D0
:10470000868386958697270E906F916B0001020E27
:10471000626F7FD09851991102E1000E08D098C0C5
:10472000E9FF99C0EAFFEF50800B01E0010E00099C
:1047300001E06FD098C0E9FF99C0EAFFEE52EFCFD9
:1047400014F0156A166A176A14506C5F15506D5B89
:1047500016506E5B17506F5B98C0E9FF99C0EAFF77
:10476000EE52EFCF14F0156A166A176A145004015E
:10477000575F1550585B1650595B17505A5B400EE7
:1047800000019627000E9723030E626F42D00401AA
:104790005B512FE10001A351A411A511A61102E163
:1047A000010E01D0000EE66E000EE66E060EE66EFD
:1047B000A3C0E6FFA4C0E6FFA5C0E6FFA6C0E6FFD3
:1047C000E2EC0EF0146E070EE15E1450010811E0E9
:1047D000640E0001635D03E2632B1BD00AD0040169
:1047E000010E5B6F00018681868386958697906BAC
:1047F000916B0001A32B000EA423A523A623A107E0
:10480000A25B010E626F05D00401020E5B6F000116
:10481000626B625100D012000001849184938495F0
:1048200084978489848B848D849F856B86918693FD
:1048300086958697869B869D869F876B886B896BFE
:104840008A6B0A0E8B6F8C6B8D6B8E6B8F6B906B84
:0C485000916B926B936B946B956B120054
:04485C00DACFE4FFCC
:10486000E2CFDAFFE9CFE4FFEACFE4FFF6CFE4FFDF
:10487000F7CFE4FFF8CFE4FFF5CFE4FFF3CFE4FF99
:10488000F4CFE4FFFACFE4FFFBCFE4FF00EE00F04B
:10489000140EE80403E3EECFE4FFFBD700EE14F0C0
:1048A000120EE80403E3EECFE4FFFBD7E65252EC2E
:1048B00015F0E55200EE25F0120EE80403E3E5CF13
:1048C000EDFFFBD700EE13F0140EE80403E3E5CF91
:1048D000EDFFFBD7E5CFFBFFE5CFFAFFE5CFF4FF18
:1048E000E5CFF3FFE5CFF5FFE5CFF8FFE5CFF7FF25
:1048F000E5CFF6FFE5CFEAFFE5CFE9FFE5CFDAFF49
:104900001100D8CFE4FFE0CFE4FFE46EDACFE4FF9C
:10491000E2CFDAFFE652E552E5CFDAFFE550E5CF28
:10492000E0FFE5CFD8FF1000D9CFE6FFE1CFD9FFF8
:10493000020EE126DE6ADD6A20D829EC11F0F3CF01
:10494000DEFFF4CFDDFF6FEC1EF04CD8DECFE9FFC9
:10495000DDCFEAFFEF5006E029EC11F0F3CFDEFFE8
:10496000F4CFDDFFF2D7020EE15C02E2E16AE5522C
:10497000E16EE552E7CFD9FF1200D9CFE6FFE1CFD4
:10498000D9FF020EE1260F0EC112580EDE6E020E86
:10499000DD6E9B8CDFCF14F0DF06010EDBCF15F050
:1049A00001E2DB061450151001E0F4D70F01FC0EF4
:1049B000486F1F0E496F0E01060EFB6F0A0ECB6F7C
:1049C000090ECA6F050EFC6F94EC08F0C2EC14F0EF
:1049D000020EE15C02E2E16AE552E16EE552E7CFE8
:1049E000D9FF1200200E0001E76EAF19E8AE02D029
:1049F000E73402D0E750AF5D03E36550020B01E0FE
:104A000002D0FAEC1EF01200120012001200120086
:104A1000D5EF1EF012001E0EE66E010EE66EE6ECFD
:104A20001CF0E552E55287EF1EF00001D00520E1B1
:104A30000001D1051DE1A098E8DF65920001D16B6E
:104A40000001100EF56F0E0EF66FF507000EF65B07
:104A5000F551F611FAE16584080EF56F070EF66F51
:104A6000F507000EF65BF551F611FAE16594A088A2
:104A70001200D9CFE6FFE1CFD9FFFD0EDBCF08F062
:104A8000FE0EDBCF09F0050E081801E1095039E0F0
:104A9000E868081802E17F0E091831E0030E0818D3
:104AA00001E109502AE0020E081801E1095023E053
:104AB000010E081801E109501CE0740E081801E10C
:104AC000095015E0750E081801E109500EE0730E4B
:104AD000081801E1095007E0720E081801E10950B9
:104AE00001E010D00FD092DF0DD08EDF0BD08DDF24
:104AF00009D091DF07D08EDF05D08ADF03D087DFB2
:104B000001D000D0010E00D0E552E7CFD9FF12004E
:104B10001201000200000008D8040900010001028F
:104B2000000109022000010100C032090400000256
:104B300008065000070581024000010705010240F8
:104B400000010403090434034D006900630072008E
:104B50006F00630068006900700020005400650069
:104B6000630068006E006F006C006F0067007900E2
:104B7000200049006E0063002E003A034D006900DA
:104B8000630072006F00630068006900700020001D
:104B90004D006100730073002000530074006F002B
:104BA0007200610067006500200044007200690027
:104BB00076006500224B00424B00464B007A4B00CA
:104BC0001E0EF66E100EF76E000EF86E0001090054
:104BD000F550F06F0900F550F16F03E1F06701D077
:104BE0003DD00900F550EB6F0900F550EC6F09005E
:104BF000F550ED6F09000900F550E96E0900F55018
:104C0000EA6E090009000900F550EE6F0900F55041
:104C1000EF6F09000900F6CFF2F0F7CFF3F0F8CF0D
:104C2000F4F0EBC0F6FFECC0F7FFEDC0F8FF0001B9
:104C3000EE5302E1EF5307E00900F550EE6EEE0788
:104C4000F8E2EF07F9D7F2C0F6FFF3C0F7FFF4C0C0
:0E4C5000F8FF0001F007000EF15BBFD7120065
:024C5E0009C08B
:104C600013F008C012F007C011F007500C02F4CF87
:104C700005F0F3CF04F008500D02F4CF07F0F3CFA6
:104C800006F00C02F3500526F4500622E86A0722CB
:104C900011500D02F3500526F4500622E86A07224F
:104CA00009500C02F3500626F450072209500D0259
:104CB000086AE86A0822F3500726F45008221150C7
:104CC0000E02F3500626F4500722096AE86A082209
:104CD000092212500E02F3500726F4500822E86A07
:104CE000092213500E02F3500826F4500922000C3A
:104CF000FB0EE3CFF6FFFC0EE3CFF7FFFD0EE3CF95
:104D0000F8FFFE0EE3CFE9FFFF0EE3CFEAFFE9CFA6
:104D1000F3FFEACFF4FFF90EE35003E1FA0EE3509C
:104D200009E0F90EE30602E2FA0EE3060900F5CF08
:104D3000EEFFF1D71200FE0EE3CFE9FFFF0EE3CF47
:104D4000EAFFE9CFF3FFEACFF4FFFB0EE35003E104
:104D5000FC0EE35009E0FB0EE30602E2FC0EE30664
:0A4D6000FD0EE350EE6EF1D71200D5
:064D6A0006500B02F3CF1E
:104D700002F0F4CF03F00C02F3500326000EF420EF
:104D8000046E06500D02F3500426000EF420056E4A
:104D900006500E02F350052607500B02F35003266F
:104DA000F4500422000E052207500C02F350042692
:104DB000F450052207500D02F350052608500B024F
:104DC000F3500426F450052208500C02F350052637
:0A4DD00009500B02F35005261200F3
:064DDA000095000001F944
:104DE00000000887040009AF00010A1B00010CC382
:104DF00000000DAF020010FF000011FF000112FFC4
:104E0000000118FF000119FF000120FF000021FF31
:104E1000000026DF0100377300003A2504003B251F
:024E2000000090
:0E4E220000800402200000004D6963726F637F
:104E300068704D6173732053746F726167652020D1
:064E40002020303030316B
:0A4E4600C00EF36E00EE00F00E0E39
:104E500001D81200EA6002D0EE6AFCD7F350E96094
:064E60001200EE6AFCD70F
:0A4E66001DEE00F02DEE00F0F86ADA
:104E7000019CE0EC25F003EC08F094EC24F0FBD767
:024E800012001E
:0E4E8200F36AF46AF32A0F0B05E0D890F336BA
:084E9000F436E804FBE1120016
:01FFF800AA5E
:01FFF900F710
:01FFFA001DE9
:01FFFB00FF06
:01FFFC0063A1
:01FFFD00F80B
:01FFFE008181
:01FFFF00F110
:00000001FF
