:020000040000fa
:080000000002040000000000f2
:020000040000fa
:100400004f502200805d24000001880000000000a1
:100410000c000700606e280001002000110007009a
:10042000000020000000e000020032000000020096
:100430000000000068760200000000000040da00c2
:100440000000fe004440a90020cf20000000e00092
:100450000300320000002000a00188004440a800f2
:100460000000060091018800800078000000eb0089
:1004700015003700e280400032a0b4009101ba00bc
:10048000e280400032a0b4009102ba00e280400055
:1004900032a0b4000002eb00472bde00f507b200eb
:1004a000602ce10004003a000059eb008301e900f0
:1004b000fdff3e00040037006128e100010032002a
:1004c0000082eb00040007001101ba000200e00006
:1004d000e8ff3a00000006003159ba008301e90044
:1004e0000c0032002159ba008301e90008003200f3
:1004f0000400e00003003a00e280400032a0b400b3
:10050000f5ff370011d9ba008301e900faff3a007c
:100510008100e800e180400032a0b4000000060045
:100520001085040000000000568504000000000053
:10053000f284040000000000388504000000000080
:10054000800178008002eb000100370084597800b8
:1005500005035100828f52000900320065c2780005
:100560008502e8000404e000f8ff3a008300780008
:10057000068141008058eb00828f5000fdff3a0059
:100580000000060080007800010037000000e8004d
:100590001004e000fdff3a000100500000000600da
:1005a000800178000001780031407800005978001f
:1005b0000004e000fcff3a000300780000000600a1
:1005c0008001eb0002003700817178008301e800b0
:1005d000828f5100fcff3a00000006000400370043
:1005e0000204e00001003a00000005000000e800fd
:1005f00010417800814f5100f9ff3a0000000600d9
:100600000200fa00889fbe008a9fbe008c1f7800ff
:100610008005780001057800020678000100e000fe
:1006200001003a006c8557000b0478000100370088
:100630000804e800984478000900fb00a7000700c0
:100640000000e000faff3a00d0c2b30080cf5400af
:100650000500320000c0e90080cf540002003200e3
:1006600080447800010037000804e8000c0178009d
:100670008a00780008007800a00007000001be0092
:100680009a0f540001003a000b0d78009a8f550024
:1006900003003a00e00f5100e08f59000f003a00cc
:1006a000b0c2b30080cf540004003a00e00f510004
:1006b000e08f590015003d0008003700d0c2b3009c
:1006c00080cf540011003a000000200001002800f3
:1006d000800f5100818f59000a003600200220004f
:1006e0009093880002002000030028006b40400027
:1006f00080cf540005003200f2ff2f00f3ff2700e7
:100700000200370060011100e08119000200be0004
:100710004f0678004f05be004f04be000080fa006f
:10072000000006000e00fa00889fbe008a9fbe00ef
:100730008c1f7800a0bf9f00010478000205be0056
:10074000800478006c80570006010700680660008e
:100750000030a100e10f500014003a00afb897003c
:1007600000027800f4815700080178000900780041
:10077000810107000000e00002003a006000b800bc
:10078000030037000fb897009fb89700ea040700ee
:10079000c0b79f00d1b79f006fb19700ffb197001e
:1007a0000a0141008b81490016003700e20f50001a
:1007b00018003a00afb8970014002000f4815700e9
:1007c00008017800090078004d0207000000e000f1
:1007d00002003a006000b800030037000fb897002d
:1007e0009fb89700d4040700c0b79f00d1b79f00ff
:1007f0006fb19700ffb1970078805700350307006d
:100800000a01be004fb09700dfb09700a1030700b8
:100810000d003700e30f500003003a0000002000f5
:1008200001f8270004003700e40f500005003a00eb
:10083000f0ff2f00f1ff2700c0b79f00d1b79f0046
:10084000030037006000b800c0b79f00d1b79f0019
:100850004fb09700dfb097000c00e00001003200bd
:1008600001f0a2004f0678004f05be004f04be0005
:100870000080fa0000000600800078001106b10038
:10088000030035009101b10001003c000050a100bf
:1008900000000600040037000204e0000a003200f5
:1008a0000000e8008100e80010417800914f5100fd
:1008b000f9ff32000081eb0010407800914f5000aa
:1008c00004003900020037000001eb00010037008e
:1008d0001200200002007800000006006900e1001c
:1008e000040035006d00e100030034000002b10097
:1008f000010032000000050010000500ec874700f1
:10090000889fbe008a9fbe008c9fbe008e1f78000d
:10091000f0b79f0081bf9f00820478000004780038
:10092000010037000804e800184778000e00fb00bb
:10093000eaff07000000e000faff3a00d0c2b3006f
:10094000804f57000500320000c0e900804f57007b
:100950000200320000477800010037000804e80078
:100960000900e00045003500e18f540043003200eb
:1009700040022000808f540040003c000900e0004d
:100980000e003400f08f54001a003a0000c3b30088
:10099000984f100016003a009840900080c7b300ae
:1009a00080cf50000300320080c5b30080cf5000dc
:1009b0000f003a000884e8000e003700a90020006c
:1009c00000c3b300984f10000a003a00984090000e
:1009d00080c7b30080cf500004003200890020009f
:1009e00080c5b30080cf500002003a000884e800c0
:1009f000090120000805780000c3b300010037009a
:100a00000a05e8009a4f1000fdff32008a057800c1
:100a10006066b8000e003700501e210000425200f0
:100a2000c4ef9f006149b9000c00be000b04070031
:100a30004fea97000401fb00cf91de008b05e80030
:100a4000ccb79f00ddb79f000006410081864900ba
:100a50001b00fb0086030700800078000901780076
:100a6000501e210089030700000278000000e0000a
:100a7000e9ff3a008b0f540006003a000fb89700c8
:100a80000000e00029003200ffb097000108780064
:100a9000260037008a805500001c210060c07c00c1
:100aa0000000fb0000805000160033004240a90007
:100ab0000f003c004fe997000200fb00cf80de00f2
:100ac0000000560081805e00800f5600818f5e001e
:100ad000070039006149b900e60307004fb19700ec
:100ae000dfb19700820f5000838f5800050032005d
:100af00020022000909388000086eb008086eb00a7
:100b000005003700d0c2b300804f570002003a0002
:100b100060061600e0861e008fb997000300e00013
:100b2000030032008b097800010037006066b800ce
:100b30000c00be004f0778004f06be004f05be00f8
:100b40004f04be00cf00b10000000600809380007b
:100b50000000e00001003200000001002027210019
:100b600000000600889fbe008a9fbe008c1f780090
:100b70000006780081057800100578000a047800e6
:100b8000010037000804e800984478000900fb00e1
:100b900052ff0700800078000000e000f9ff3a00f3
:100ba000d0c2b30080cf540003003a000804e8002c
:100bb0008200200005003700b0c2b30080cf54008f
:100bc00001003a000804e80001017800984078002c
:100bd000e5c6b30085cf500003003200e3c4b30084
:100be00083cf500022003a009840900010c6b30016
:100bf00080cf50000300320010c4b30080cf5000fb
:100c000050003a00a840900085cf50000300320009
:100c1000e0c4b30080cf50004a003a0063054400ae
:100c200080c2b3009a4f1000020032000a0478001c
:100c3000090037000a047800d84478000900fb0056
:100c40001c0307000000e000fbff3a00f0c5b30002
:100c500080cf5400f8ff32004200200090c2b30061
:100c6000984f100038003a000805e80036003700b9
:100c700094c6b30084cf50000300320090c4b30088
:100c800080cf500034003a0018409000854f50004b
:100c900002003200834f50002a003a00a840900022
:100ca00060c6b30080cf50000300320060c4b300c0
:100cb00080cf500023003a00630544003200b300a7
:100cc0009a40780084cf50000300320090c4b300f3
:100cd00080cf50001c003a0048409000854f5000e3
:100ce00002003200834f500017003a00d8409000b5
:100cf00084cf50000300320090c4b30080cf500076
:100d000011003a00e840900040c7b30080cf500087
:100d10000300320040c5b30080cf50000a003a0003
:100d2000f840900090c7b30080cf5000030032001d
:100d300090c5b30080cf500003003a00680544001e
:100d4000010037000001eb000b00e000040032005e
:100d50008a0d7800020037000200a0000805780024
:100d60000a0e7800020078004f0678004f05be009a
:100d70004f04be0000000600e4874700889fbe00c5
:100d80008a9fbe008c9fbe008e1f780080bf9f0090
:100d90008104780002077800030678006922b90010
:100da000040578008006eb0000c3b30002003700a2
:100db0008904e8001d002000994f1000fcff32005c
:100dc000000eeb003c1678000c0478008005eb0068
:100dd000280037008a8f550016003d009200200041
:100de000110009008205d800010078000000e00031
:100df00003003a0064044400000ceb00381478004f
:100e0000a2002000030020001800be00130307000a
:100e1000194178000201fb00cf91de000000410083
:100e2000818049000003b1000180b100008cbe0048
:100e30000d00370010002000010020001c0e4000b3
:100e40005c9648008a8f550008003a0040c3b30002
:100e5000994f100005003400100020000100200010
:100e6000180c4000589448008b05e8008904e800fd
:100e70001d002000194178000200fb000003b100b2
:100e8000e90f5000d3ff36008b0f550001003d00e5
:100e90008a057800e0c2b300804f510001003a009b
:100ea0008904e8000b00e000070032002900370049
:100eb0000080eb008080eb001c0e40005c96480038
:100ec0008904e8001d00200000c3b300994f100002
:100ed000f7ff32008005eb001e0037008a8f5500b7
:100ee0001a003d0092002000110009008205d80080
:100ef000010078000000e00003003a0064044400b0
:100f0000000ceb0038147800a20020000300200041
:100f10001800be00d1020700194178000201fb0051
:100f2000cf91de0000004100818049000003b10044
:100f30000180b100008cbe008b05e8000080eb0052
:100f40008080eb001c0e40005c9648008904e8009d
:100f50001d0020001900fb000003b100e90f500044
:100f6000deff360092002000110009008205d80043
:100f7000010078000000e000170032006905100051
:100f80001802be00e00f5200e08f5a000700320046
:100f90004250dd0041232100010040001001be004d
:100fa0000400be00ad020700008cbe008a8545002b
:100fb0006150b9001c1e10001c9618000600370076
:100fc000e985550090002000010020001c0e400023
:100fd0005c96480064045400e88f55000400340017
:100fe0001800be00e00f5000e08f5800f4ff320000
:100ff0000d00e000330032009940780050c6b30085
:1010000080cf50000300320050c4b30080cf5000a6
:101010002c003a008900e80011447800b2c2b30005
:10102000824f540005003200d0c2b300804f5400fc
:101030000200320002447800010037008980e80095
:10104000810478008006eb006022b80011003700b0
:10105000f00f2e00515f2000800f5200818f5a0048
:101060000a003c00a2002000030020000400be0093
:101070007a0207000a01fb00cf91de000002410066
:10108000818249000403b1000580b1008904e800b1
:101090001d002000194578000a00fb000003b10084
:1010a000e90f5000eaff3600d0c2b300804f540071
:1010b00002003a0060021200e0821a001c0e420098
:1010c0005c964a000e00e000040032000d00e000d3
:1010d00001003a008fbc9700090f780092002000b1
:1010e000110009008205d8004f0778004f06be00a6
:1010f0004f05be004f04be004f00b10000000600c7
:10110000e8874700889fbe008a9fbe008c9fbe0074
:101110008e1f780080bf9f0081047800020778004e
:10112000030578006722b900040678008006eb000a
:1011300000c3b300020037008904e8001d0020004e
:10114000994f1000fcff3200000deb003a157800bb
:101150000a0478008005eb002c0037008c8f5500c6
:1011600019003d0072002000811f78001100090065
:101170008205d80001007800cf0078000000e00070
:1011800003003a0064044400000ceb0038147800bb
:101190001801be004418dd00cc11de008301700090
:1011a0004411dd000022210000805000a120210018
:1011b000614078000000fb00cf80de00001c410091
:1011c000019449000e0037001200200003002000a7
:1011d0001a0d41005a9549008c8f550009003a00bc
:1011e0000022210000805000a120210061407800f1
:1011f000e74f500003003400180c41005894490098
:101200008b05e8008904e8001d0020009900fb0020
:1012100062012000002221009c010700800078006c
:101220000000e000cdff3a008b0f560001003d00aa
:101230008c057800e0c2b300994f100001003a001d
:101240008904e8000b00e000070032002c003700a2
:101250000080eb008080eb001a0d40005a9548009a
:101260008904e8001d00200000c3b300994f10005e
:10127000f7ff32008005eb00210037008c8f55000e
:101280001d003d0072002000811f78001100090040
:101290008205d80001007800cf0078000000e0004f
:1012a00003003a0064044400000ceb00381478009a
:1012b0001801be004418dd00cc11de00830170006f
:1012c0004411dd000022210000805000a1202100f7
:1012d000614078000000fb00cf80de00001c410070
:1012e000019449008b05e8000081eb008081eb0050
:1012f0001a0d41005a9549008904e8001d0020009c
:101300009900fb0062012000002221005f0107001c
:10131000800078000000e000d8ff3a007200200052
:10132000110009008205d800010078000000e000eb
:1013300014003200670010004202dd001801be00f8
:101340000402e900030033000201410083814900e7
:10135000fbff3700028cbe0080854500cf80de0099
:101360001a1d10001a95180006003700e785550071
:1013700070002000010020001a0d40005a9548001e
:1013800064045400e68f5500040034001800be00c9
:10139000e00f5000e08f5800f4ff32001a00be004a
:1013a0004209dd00ce01de00830171004201dd0053
:1013b000e2b79f00f3b79f00028dbe000d00e00072
:1013c000350032009940780000c7b30080cf50004c
:1013d0000300320000c5b30080cf50002e003a0059
:1013e0008900e80011447800b2c2b300824f540073
:1013f00005003200d0c2b300804f5400020032001a
:1014000002447800010037008980e80081047800f8
:101410008006eb006022b80011003700f00f2e00ac
:10142000515f2000800f5200818f5a000a003c005b
:10143000a2002000030020000400be008701070076
:101440000c01fb00cf91de000002410081824900c7
:101450000403b1000580b1008904e8001d002000ec
:10146000194678000c00fb000003b100e90f5000a2
:10147000eaff3600d0c2b300804f540002003a00a9
:1014800060021200e0821a006fb09700ffb0970070
:10149000041d4000059548000e00e00004003200e5
:1014a0000d00e00001003a008fbc9700090f7800a2
:1014b00072002000110009008205d8004f07780053
:1014c0004f06be004f05be004f04be008f00b100a6
:1014d00000000600889fbe008a1f78008c9fbe0017
:1014e000000578000206be000084e80018017800bc
:1014f000c714de00f90fb20089007800f00f200059
:10150000808f540006003a00f207b20048003a000b
:10151000100020001a00e0004600320044003700ae
:101520000900e00007003a000a007800ef00070019
:10153000800078000000e00002003400090078001c
:101540003c0037006108b9000c0140008d81480063
:10155000e00f2000800f5100e08f59000900340097
:101560000000200001f82f001800e0000200350004
:101570000000200001f82700008dbe0010002000b0
:101580002c003700e00f5100e08f590005003400b7
:10159000f007280018006000c710dd00010c700083
:1015a0002100370098007800000028008082600049
:1015b00001027800f407b2000470a000040c780067
:1015c00061005100e0805900f70f4000e08f4800b3
:1015d00004003d00050c7800000deb000000eb005e
:1015e00014003700f00f400003003c00040d7800a9
:1015f000000ceb00700040008001ea00090032009e
:101600009a0078008308de007081110018007800cd
:101610000200dd00008d7000180078000300de007d
:10162000000c7800188c72000080eb00010037007d
:10163000200020004f06be004f0578004f04be007a
:10164000000006000200fa00889fbe008a1f780092
:10165000000578000204be00800078006880570012
:10166000cd0007001a01be000800be005d010700a2
:10167000008dbe004fb99700cf91de000a007800c0
:1016800094ff07004f0578004f04be000080fa0069
:10169000000006000400fa00889fbe008a9fbe007a
:1016a0008c1f780090bf9f00a1bf9f000205be0065
:1016b000e00f5100e08f5900660032006011b80061
:1016c0007c0107000000e00062003200e00f5500de
:1016d000e08f5d002e003d0060051500e0851d00d7
:1016e0000400200005f823008825210009003700a8
:1016f0000a08a300040032001801be000400be0066
:10170000380107000002be008b05d1000a85d30016
:1017100064044400e00f5500e08f5d0003003200d8
:10172000c0262100800f5400f1ff3a000401be00e2
:101730000000200001f82300600107000001be0046
:101740006e805700bfff0700000678000000e00031
:1017500039003d00e00f5500e08f5d003d00320094
:101760000a04be00e2112b00f3a420006e80570093
:10177000b4ff0700000678000000e0002e003d00e6
:1017800061045400e0845c002e003200f5ff370055
:10179000e00f5500e08f5d002700340004002000ba
:1017a00005f82300882521000a08a3000400320060
:1017b0001801be000400be000a0107000002be00be
:1017c0008b85d1000a85d300e00f5500e08f5d00c6
:1017d0000400340064044400c0262100800f54003b
:1017e000f1ff3a000401be006e80570095ff07002c
:1017f000000678000000e0000f003d00e00f5500fb
:10180000e08f5d00130034000a04be00e25a2c0091
:10181000d34927006e8057008aff07000006780032
:101820000000e00004003d0061045400e0845c001e
:1018300004003200f5ff3700000120000c00e0003a
:1018400003003200e10f560002003a008000200041
:10185000770007001fb89700afb897004f067800d1
:101860004f05be004f04be000080fa0000000600d5
:10187000800078001104b100030035009101b1002f
:1018800001003c000050a000000006008001eb00b9
:10189000040037008301e80090cf100004003200fc
:1018a0000000e800828f5100faff3a000000eb00d0
:1018b000000006000003b1000b0035009000b100ed
:1018c000080034008000b100070035009001b1002d
:1018d000040034007000b100030035009001b10035
:1018e00001003c00100005000000050080017800a8
:1018f0000081e8009200780000002800008360006a
:1019000001007800f007b200000978001400200000
:101910000e003a00930078000100e0001b00320046
:10192000010978008009780014ff2f0007003700b4
:101930000180400093007800cf08de0001097000ac
:1019400013007800800940000402e900920078004a
:10195000f0072000808f5000f5ff3600f50f2000c3
:10196000050037009300d1004f00dd008089700032
:101970001209d1000402e80012007800850f50001f
:10198000f8ff3e00f007b20000097800120973006a
:101990000400780000000600889fbe0080047800e4
:1019a0000184e80000f82700180060004701de000d
:1019b000f00f2000800f510008003a00800ceb006f
:1019c000f00720001800600016003a001000200008
:1019d0001100e00014003200120037000200e000a5
:1019e00005003c0001007800c0ff070000017800fe
:1019f0000000e00008003c00f0072800180060002c
:101a000001f02300010c700020f82f00800c410031
:101a10000080eb0004003700800ceb000000eb00be
:101a200001003700200020004f04be000000060027
:101a30008000780065006000030032001002200082
:101a40009093880000000600788060000200320059
:101a5000200220009093880000000600020ab900ce
:101a6000001bb9000200b800810042008100430061
:101a7000000006006022b800060220000000d0002e
:101a80008180d2000482d2008582d2000000a000b2
:101a90000202520083825a00030031000202420017
:101aa00083824a000000a1000603e900f3ff3a0028
:101ab00000000600efff07000400be000000060063
:101ac000839f68000100e00002003d0060001000fc
:101ad000e08018000300e00002003d0060011100fa
:101ae000e0811900e3ff07004f00e00002003b0027
:101af00060001000e080180000000600811f7800e0
:101b00000100e00002003d0060001000e0801800cd
:101b10000300e00002003d0060011100e0811900b7
:101b2000e4ff07004f00e00002003b0060001000ef
:101b3000e080180000000600889fbe008a9fbe005b
:101b4000010578000100e0000400350008003c00b9
:101b50000000e000200032000500370060001000a7
:101b6000e080180002003b0001f02c001a00370052
:101b70000004be006011b8006b0920000982cf008c
:101b8000020039000882cf000441b00069425200cf
:101b90000e00320008003b00828171006101640088
:101ba0008904d1000884d3008b05e8000442e800d2
:101bb000f9ff3a00050037000804440089844c000e
:101bc0008b05e9000442e900fbff3a007d000700b5
:101bd0000af0a70001f0a0004f05be004f04be00b0
:101be00000000600889fbe008a9fbe008c1f780000
:101bf0009a000700a100330003866c006450e100e6
:101c0000240032006420e100270032006150e1002e
:101c1000220032006120e100210032008b85420069
:101c2000eb07b1000134b800003ab80008044200e4
:101c300089844a00013ab8000030b800888040002a
:101c400009014a0004003300000040008180480080
:101c5000020149008b05e900c909dd00830170001c
:101c60000100320013002000c814de004814dd001b
:101c70004709de001200b200c808de0008847000c8
:101c80005000070001f0a1000cf0a70001f0a00037
:101c9000830037006120e100850032000801be00aa
:101ca0000200be00f7ff37006150e100fcff3a0080
:101cb0007f0037001400200080003700889fbe009e
:101cc0008a9fbe008c1f7800640007006b00330001
:101cd00003866c006450e1002e0032006420e100b5
:101ce000330032006150e1002f0032006120e1003a
:101cf0003100320085855500eb07b0000900200057
:101d000008042000050037000804440089844c00c2
:101d10000a0031000603430087834b000001530093
:101d200081815b00f8ff33000203be000800a000c1
:101d30000804440089844c00f6ff3900c639dd00f0
:101d40008301730001003200130020008904d100d8
:101d50000884d3000998a300050032000800a700fa
:101d60000300a0008904d1000884d3008b05e8009b
:101d70008904d1000884d3000001eb000281d20065
:101d80001000070001f0a1000cf0a70001f0a00076
:101d9000430037006420e100450032000801be0026
:101da0000200be00f7ff37006120e1004000320072
:101db0006000b800f3ff37000000200001f82700a2
:101dc000f0ff370081002000618055000b003d00ce
:101dd0000b00200061fe2f000100e1001d00340017
:101de00082817100610164008904d1000884d300fc
:101df0000000e800faff3a00710020006100640072
:101e00000300700002006000090032006104440019
:101e1000e0844c000988a500050032008b05e8002d
:101e20006808e10002003a008904d1000884d30068
:101e3000f20f20000258e10005003d00c75ddd0003
:101e4000f907b200898075000800780000000600dc
:101e50000bf827008b007800000005000004be008e
:101e6000310007000003be000405be000200be00f2
:101e70002d000700844f7500000006000200be0020
:101e80006450e100050036006420e10002003600e5
:101e90000968a30001003a000800be000160a0002c
:101ea0004f0678004f05be004f04be00000006003c
:101eb000f0ff2f00f1ff2700f9ff3700889fbe00d9
:101ec0008a9fbe00841f7800e4ff07004f0078005f
:101ed00011003300f0ff2f00838f6c0006003b00e1
:101ee000040565000a00a7000800370009f0a600f5
:101ef0001000200008003700820f5400838f5c0020
:101f0000030039001000200001003e000000200006
:101f100009f0a7000000ea004f05be004f04be0014
:101f20000000e00000000600c70ade00f107b20072
:101f3000f50fb20008003200e1cf4200020032008b
:101f40000170a00024000500810f70000100320024
:101f50000408050044000500810f700002003a00eb
:101f6000140005008502e9000000400081c048001f
:0c1f7000fcff3b000170a00024000500f5
:020000040000fa
:0200000401f009
:04000000ffff0000fe
:020000040000fa
:0200000401f009
:04000400ffff0000fa
:020000040000fa
:0200000401f009
:04000800ffff0000f6
:020000040000fa
:0200000401f009
:04000c00faff0000f7
:020000040000fa
:0200000401f009
:0400100018ff0000d5
:020000040000fa
:0200000401f009
:040014007fff00006a
:020000040000fa
:0200000401f009
:04001800edff0000f8
:020000040000fa
:0200000401f009
:04001c00dfff000002
:020000040000fa
:0200000401f009
:04002000ffff0000de
:020000040000fa
:0200000401f009
:04002400ffff0000da
:020000040000fa
:0200000401f009
:04002800ffff0000d6
:020000040000fa
:0200000401f009
:04002c00ffff0000d2
:020000040000fa
:10000800f27a0000f27a0000f27a0000f27a000038
:10001800f27a0000f27a0000f27a0000f27a000028
:10002800f27a0000f27a0000f27a0000d679000035
:10003800f27a0000f27a0000f27a0000f27a000008
:10004800f27a0000f27a00004a88000090820000ec
:100058005a840000f27a0000f27a0000f27a000076
:10006800f27a0000f27a0000f27a0000f27a0000d8
:10007800f27a0000f27a0000f27a0000f27a0000c8
:10008800f27a0000f27a0000f27a0000f27a0000b8
:10009800f27a0000f27a00006e830000aa84000061
:1000a800f27a0000f27a0000f27a0000f27a000098
:1000b800f27a0000f27a0000f27a0000f27a000088
:1000c800f27a0000f27a0000f27a0000f27a000078
:1000d800f27a0000f27a0000f27a0000f27a000068
:1000e800f27a0000f27a0000f27a0000f27a000058
:1000f800f27a0000f27a0000f27a0000f27a000048
:10010800f27a0000f27a0000f27a0000f27a000037
:10011800f27a0000f27a0000f27a0000f27a000027
:10012800f27a0000f27a0000f27a0000f27a000017
:10013800f27a0000f27a0000f27a0000f27a000007
:10014800f27a0000f27a0000f27a0000f27a0000f7
:10015800f27a0000f27a0000f27a0000f27a0000e7
:10016800f27a0000f27a0000f27a0000f27a0000d7
:10017800f27a0000f27a0000f27a0000f27a0000c7
:10018800f27a0000f27a0000f27a0000f27a0000b7
:10019800f27a0000f27a0000f27a0000f27a0000a7
:1001a800f27a0000f27a0000f27a0000f27a000097
:1001b800f27a0000f27a0000f27a0000f27a000087
:1001c800f27a0000f27a0000f27a0000f27a000077
:1001d800f27a0000f27a0000f27a0000f27a000067
:1001e800f27a0000f27a0000f27a0000f27a000057
:0801f800f27a0000f27a000027
:020000040000fa
:10020800f27a0000f27a0000f27a0000f27a000036
:10021800f27a0000f27a0000f27a0000f27a000026
:10022800f27a0000f27a0000f27a0000d679000033
:10023800f27a0000f27a0000f27a0000f27a000006
:10024800f27a0000f27a00004a88000090820000ea
:100258005a840000f27a0000f27a0000f27a000074
:10026800f27a0000f27a0000f27a0000f27a0000d6
:10027800f27a0000f27a0000f27a0000f27a0000c6
:10028800f27a0000f27a0000f27a0000f27a0000b6
:10029800f27a0000f27a00006e830000aa8400005f
:1002a800f27a0000f27a0000f27a0000f27a000096
:1002b800f27a0000f27a0000f27a0000f27a000086
:1002c800f27a0000f27a0000f27a0000f27a000076
:1002d800f27a0000f27a0000f27a0000f27a000066
:1002e800f27a0000f27a0000f27a0000f27a000056
:1002f800f27a0000f27a0000f27a0000f27a000046
:10030800f27a0000f27a0000f27a0000f27a000035
:10031800f27a0000f27a0000f27a0000f27a000025
:10032800f27a0000f27a0000f27a0000f27a000015
:10033800f27a0000f27a0000f27a0000f27a000005
:10034800f27a0000f27a0000f27a0000f27a0000f5
:10035800f27a0000f27a0000f27a0000f27a0000e5
:10036800f27a0000f27a0000f27a0000f27a0000d5
:10037800f27a0000f27a0000f27a0000f27a0000c5
:10038800f27a0000f27a0000f27a0000f27a0000b5
:10039800f27a0000f27a0000f27a0000f27a0000a5
:1003a800f27a0000f27a0000f27a0000f27a000095
:1003b800f27a0000f27a0000f27a0000f27a000085
:1003c800f27a0000f27a0000f27a0000f27a000075
:1003d800f27a0000f27a0000f27a0000f27a000065
:1003e800f27a0000f27a0000f27a0000f27a000055
:0803f800f27a0000f27a000025
:020000040000fa
:101f7c0025300000386c00005820000000200000c4
:101f8c002530000032580000000800002008000036
:101f9c0000250000313100006c7500002069000044
:101fac006e200000253600006c750000206d0000ce
:101fbc0053650000632c0000206100007667000070
:101fcc0020250000356c0000752000006b620000bd
:101fdc002f730000656300002c2000006d61000071
:101fec0078200000253500006c7500002c200000c6
:101ffc006d6900006e200000253500006c75000036
:10200c00200000000a250000366c0000752000003e
:10201c006163000074690000766500002c200000ec
:10202c00253600006c7500002073000075730000ed
:10203c00706500006e6400002c2000002536000046
:10204c006c750000207400006f740000616c00005f
:10205c00206d000053650000630000000a6d000055
:10206c006178000020250000356c00007520000010
:10207c0040200000636100006c6c00002025000013
:10208c00356c0000752c0000206d0000696e00009e
:10209c0020250000356c0000752000004020000059
:1020ac00636100006c6c000020250000356c0000a2
:1020bc00752c000020250000356c000075200000f8
:1020cc00636100006c6c000073000000000c0000e9
:1020dc00102000004d610000722000003131000022
:1020ec002032000030310000310000000a460000b0
:1020fc006174000046730000206d00006f640000e6
:10210c00756c00006520000074650000737400009d
:10211c00206d00006f6e0000697400006f7200008b
:10212c00206600006f720000205000004943000040
:10213c0033330000464a000020250000730a0000db
:10214c00004c0000464e0000204500006e6100006f
:10215c00626c000065640000002c0000204300004d
:10216c006f6400006520000070610000676500006e
:10217c003a200000257500000a0000006765000089
:10218c007453000044630000617200006428000076
:10219c00293d0000256400002c2000005374000031
:1021ac00617400003d3000007825000030320000e2
:1021bc00780a000000670000697600006553000093
:1021cc00446300006172000064280000293d000097
:1021dc00256400002c200000537400006174000082
:1021ec003d3000007825000030320000780a0000f5
:1021fc0000720000633d0000256400000a0000002e
:10220c0053650000637400006f7200003a250000f3
:10221c006c7500000a000000726300003d25000090
:10222c00642c00002054000079700000653d000013
:10223c003078000025300000347800002c2000009d
:10224c0053740000617400003d30000078250000dc
:10225c0030320000780a000000440000726900006f
:10226c007665000020730000697a0000653a000072
:10227c00202500006c7500002073000065630000d1
:10228c00746f0000727300000a00000053650000b8
:10229c00637400006f72000020730000697a000004
:1022ac00653a000020250000750a0000004500007a
:1022bc007261000073650000206200006c6f00000a
:1022cc00636b000020730000697a0000653a00001f
:1022dc00202500006c750000207300006563000071
:1022ec00746f0000727300000a0000004d4d000076
:1022fc00432f000053440000432000007479000079
:10230c00706500003a200000257500000a000000ee
:10231c0043530000443a00000a0000004349000007
:10232c00443a00000a0000004f430000523a0000fb
:10233c000a000000534400002053000074610000a8
:10234c0074750000733a00000a000000253000008c
:10235c00345800002025000030320000582d0000b9
:10236c00003f00003f3f00000a00000072630000c5
:10237c003d250000750a0000002500006c7500006a
:10238c002062000079740000657300002072000068
:10239c006561000064200000696e000020250000cb
:1023ac006c7500006d530000656300002c2000006c
:1023bc00256c0000752000006b4200002f7300009c
:1023cc00656300002e0a000000250000356c00003b
:1023dc006428000025320000642900003a20000027
:1023ec00256300002025000032640000204000001e
:1023fc002030000078250000303800006c78000098
:10240c00207300007461000072740000202500002d
:10241c0035750000206600006f720000202500005a
:10242c00357500000a0000000a2500006c750000dc
:10243c0020620000797400006573000020770000b2
:10244c0072690000746500006e200000696e000067
:10245c00202500006c7500006d53000065630000c2
:10246c002c200000256c0000752000006b42000041
:10247c002f730000656300002e0a00000046000068
:10248c0041540000207400007970000065200000a9
:10249c003d2000004641000054250000750a000054
:1024ac004279000074650000732f0000436c00003b
:1024bc007573000074650000722000003d20000060
:1024cc00256c0000750a00004e7500006d6200005e
:1024dc0065720000206f000066200000464100007d
:1024ec0054730000203d000020250000750a0000f8
:1024fc00526f00006f74000020440000495200002d
:10250c00206500006e7400007269000065730000a5
:10251c00203d000020250000750a000053650000d6
:10252c00637400006f720000732f000046410000be
:10253c00542000003d200000256c0000750a0000ae
:10254c004e7500006d62000065720000206f000087
:10255c0066200000636c0000757300007465000059
:10256c0072730000203d0000202500006c750000f7
:10257c000a46000041540000207300007461000002
:10258c0072740000202800006c62000061290000b9
:10259c00203d0000202500006c7500000a4400005e
:1025ac004952000020730000746100007274000036
:1025bc00202800006c620000612c0000636c00009d
:1025cc0075730000746f000072290000203d00003c
:1025dc00202500006c7500000a44000061740000a6
:1025ec006120000073740000617200007420000010
:1025fc00286c000062610000292000003d200000d2
:10260c00256c0000750a00000a2e00002e2e00001a
:10261c00000d00002575000020660000696c0000ac
:10262c00657300002c200000256c00007520000054
:10263c006279000074650000732e00000a2500000a
:10264c0075200000666f00006c640000657200006d
:10265c00732e00000a2500006c750000204b000052
:10266c0042200000746f0000746100006c200000b8
:10267c0064690000736b000020730000706100003f
:10268c00636500002e0a0000256c00007520000018
:10269c004b4200002061000076610000696c000074
:1026ac00616200006c6500002e0a0000002500002d
:1026bc0063250000632500006325000063250000ee
:1026cc0063200000257500002f250000303200002b
:1026dc00752f000025300000327500002025000009
:1026ec0030320000753a00002530000032750000d1
:1026fc0020250000396c000075200000202500000a
:10270c0073000000257300000a000000253400004f
:10271c0075200000466900006c65000028730000fd
:10272c00292c000025310000306c000075200000c1
:10273c00627900007465000073200000746f000063
:10274c00746100006c0a0000253400007520000044
:10275c00446900007228000073290000002c00005e
:10276c0020250000313000006c7500002062000054
:10277c00797400006573000020660000726500002b
:10278c00650a00000046000041540000465300005a
:10279c002a2000003d200000253000003478000085
:1027ac002c20000069640000203d00002025000062
:1027bc0030340000782c0000206600006c610000b2
:1027cc00672000003d20000025300000327800001a
:1027dc000a0000006670000074720000203d0000ca
:1027ec0020250000313000006c7500002c2000000a
:1027fc0066730000697a0000652000003d2000002f
:10280c0025310000306c0000750a0000006f0000dc
:10281c0072670000632000003d200000253100009d
:10282c00306c0000752c00002063000075720000f5
:10283c0072630000203d00002025000031300000b4
:10284c006c7500000a0000006473000065630000f2
:10285c00203d000020250000313000006c75000088
:10286c002c20000064690000725f000073200000df
:10287c003d20000025310000306c0000750a00007e
:10288c000066000070740000722000003d20000003
:10289c00256c00007528000030780000256c0000c5
:1028ac00582900000a0000000a2500006c75000081
:1028bc002062000079740000657300002072000033
:1028cc006561000064200000696e00002025000096
:1028dc006c7500006d530000656300002c20000037
:1028ec00256c0000752000006b4200002f73000067
:1028fc00656300002e0a0000004500004f460000f2
:10290c000a00000025730000004f000070650000f5
:10291c006e6900006e670000202200002573000025
:10292c002200000043720000656100007469000021
:10293c006e670000202200002573000022000000ba
:10294c00436f000070790000696e0000672e000074
:10295c002e2e0000000a0000436c00006f73000074
:10296c00696e000067200000666900006c6500005d
:10297c00732e00002e2e0000000a0000256c0000b3
:10298c00752000006279000074650000732000005f
:10299c007265000061640000202f000020770000a9
:1029ac007269000074650000206900006e20000050
:1029bc00256c0000756d000053650000632c000051
:1029cc00202500006c750000206b0000422f0000d9
:1029dc0073650000632000007772000069740000ca
:1029ec00652000007370000065650000642e000017
:1029fc000a00000054680000652000006d650000ae
:102a0c006d6f00007279000020630000617200009d
:102a1c0064200000776900006c6c000020620000ec
:102a2c0065200000666f0000726d0000617400008c
:102a3c0074650000642e00002041000072650000e7
:102a4c00207900006f750000207300007572000083
:102a5c00653f000020280000592f00006e2900005f
:102a6c003d000000257500002f250000752f00008b
:102a7c00257500002025000030320000753a00005a
:102a8c0025300000327500003a250000303200007d
:102a9c00750a000000000000c7000000fc000000e8
:102aac00e9000000e2000000e4000000e00000008b
:102abc00e5000000e7000000ea000000eb00000069
:102acc00e8000000ef000000ee000000ec00000049
:102adc00c4000000c5000000c9000000e6000000b2
:102aec00c6000000f4000000f6000000f200000038
:102afc00fb000000f9000000ff000000d600000001
:102b0c00dc000000a2000000a3000000a5000000f3
:102b1c00a720000092010000e1000000ed00000081
:102b2c00f3000000fa000000f1000000d1000000ea
:102b3c00aa000000ba000000bf0000001023000033
:102b4c00ac000000bd000000bc000000a1000000b3
:102b5c00ab000000bb000000912500009225000096
:102b6c0093250000022500002425000061250000ab
:102b7c006225000056250000552500006325000045
:102b8c0051250000572500005d2500005c25000044
:102b9c005b250000102500001425000034250000e2
:102bac002c2500001c250000002500003c25000001
:102bbc005e2500005f2500005a250000542500000a
:102bcc0069250000662500006025000050250000e6
:102bdc006c250000672500006825000064250000b6
:102bec0065250000592500005825000052250000dd
:102bfc00532500006b2500006a25000018250000f5
:102c0c000c25000088250000842500008c25000080
:102c1c009025000080250000b1030000df000000bb
:102c2c0093030000c0030000a3030000c3030000d3
:102c3c00b5000000c4030000a603000098030000c8
:102c4c00a9030000b40300001e220000c60300000c
:102c5c00b50300002922000061220000b100000031
:102c6c0065220000642200002023000021230000c4
:102c7c00f700000048220000b000000019220000fc
:102c8c00b70000001a2200007f200000b2000000f4
:102c9c00a0250000a0000000410000004200000040
:102cac004300000044000000450000004600000006
:102cbc004700000048000000490000004a000000e6
:102ccc004b0000004c0000004d0000004e000000c6
:102cdc004f000000500000005100000052000000a6
:102cec005300000054000000550000005600000086
:102cfc005700000058000000590000005a00000066
:102d0c0021000000e0ff0000e1ff0000e5ff0000f3
:102d1c00e2ff0000e3ff0000c0000000c100000063
:102d2c00c2000000c3000000c4000000c500000089
:102d3c00c6000000c7000000c8000000c900000069
:102d4c00ca000000cb000000cc000000cd00000049
:102d5c00ce000000cf000000d0000000d100000029
:102d6c00d2000000d3000000d4000000d500000009
:102d7c00d6000000d8000000d9000000da000000e6
:102d8c00db000000dc000000dd000000de000000c5
:102d9c0078010000000100000201000004010000a5
:102dac0006010000080100000a0100000c010000ef
:102dbc000e010000100100001201000014010000bf
:102dcc0016010000180100001a0100001c0100008f
:102ddc001e0100002001000022010000240100005f
:102dec0026010000280100002a0100002c0100002f
:102dfc002e010000300100003201000034010000ff
:102e0c0036010000390100003b0100003d010000cb
:102e1c003f0100004101000043010000450100009a
:102e2c00470100004a0100004c0100004e01000067
:102e3c005001000052010000540100005601000036
:102e4c00580100005a0100005c0100005e01000006
:102e5c0060010000620100006401000066010000d6
:102e6c00680100006a0100006c0100006e010000a6
:102e7c007001000072010000740100007601000076
:102e8c00790100007b0100007d0100009101000030
:102e9c0091030000920300009303000094030000d0
:102eac0095030000960300009703000098030000b0
:102ebc00990300009a0300009b0300009c03000090
:102ecc009d0300009e0300009f030000a003000070
:102edc00a1030000a3030000a4030000a50300004d
:102eec00a6030000a7030000a8030000a90300002c
:102efc00aa030000100400001104000012040000da
:102f0c001304000014040000150400001604000053
:102f1c001704000018040000190400001a04000033
:102f2c001b0400001c0400001d0400001e04000013
:102f3c001f040000200400002104000022040000f3
:102f4c0023040000240400002504000026040000d3
:102f5c002704000028040000290400002a040000b3
:102f6c002b0400002c0400002d0400002e04000093
:102f7c002f04000001040000020400000304000000
:102f8c00040400000504000006040000070400000f
:102f9c0008040000090400000a0400000b040000ef
:102fac000c0400000e0400000f040000602100005f
:102fbc0061210000622100006321000064210000f7
:102fcc0065210000662100006721000068210000d7
:102fdc00692100006a2100006b2100006c210000b7
:102fec006d2100006e2100006f21000021ff000008
:102ffc0022ff000023ff000024ff000025ff00003b
:10300c0026ff000027ff000028ff000029ff00001a
:10301c002aff00002bff00002cff00002dff0000fa
:10302c002eff00002fff000030ff000031ff0000da
:10303c0032ff000033ff000034ff000035ff0000ba
:10304c0036ff000037ff000038ff000039ff00009a
:10305c003aff000000000000610000006200000068
:10306c0063000000640000006500000066000000c2
:10307c006700000068000000690000006a000000a2
:10308c006b0000006c0000006d0000006e00000082
:10309c006f00000070000000710000007200000062
:1030ac007300000074000000750000007600000042
:1030bc007700000078000000790000007a00000022
:1030cc00a1000000a2000000a3000000a500000069
:1030dc00ac000000af000000e0000000e1000000c8
:1030ec00e2000000e3000000e4000000e500000046
:1030fc00e6000000e7000000e8000000e900000026
:10310c00ea000000eb000000ec000000ed00000005
:10311c00ee000000ef000000f0000000f1000000e5
:10312c00f2000000f3000000f4000000f5000000c5
:10313c00f6000000f8000000f9000000fa000000a2
:10314c00fb000000fc000000fd000000fe00000081
:10315c00ff00000001010000030100000501000058
:10316c0007010000090100000b0100000d01000027
:10317c000f010000110100001301000015010000f7
:10318c0017010000190100001b0100001d010000c7
:10319c001f01000021010000230100002501000097
:1031ac0027010000290100002b0100002d01000067
:1031bc002f01000031010000330100003501000037
:1031cc00370100003a0100003c0100003e01000004
:1031dc0040010000420100004401000046010000d3
:1031ec00480100004b0100004d0100004f010000a0
:1031fc00510100005301000055010000570100006f
:10320c00590100005b0100005d0100005f0100003e
:10321c00610100006301000065010000670100000e
:10322c00690100006b0100006d0100006f010000de
:10323c0071010000730100007501000077010000ae
:10324c007a0100007c0100007e0100009201000068
:10325c00b1030000b2030000b3030000b40300008c
:10326c00b5030000b6030000b7030000b80300006c
:10327c00b9030000ba030000bb030000bc0300004c
:10328c00bd030000be030000bf030000c00300002c
:10329c00c1030000c3030000c4030000c503000009
:1032ac00c6030000c7030000c8030000c9030000e8
:1032bc00ca03000030040000310400003204000096
:1032cc003304000034040000350400003604000010
:1032dc003704000038040000390400003a040000f0
:1032ec003b0400003c0400003d0400003e040000d0
:1032fc003f040000400400004104000042040000b0
:10330c00430400004404000045040000460400008f
:10331c004704000048040000490400004a0400006f
:10332c004b0400004c0400004d0400004e0400004f
:10333c004f0400005104000052040000530400002c
:10334c00540400005504000056040000570400000b
:10335c0058040000590400005a0400005b040000eb
:10336c005c0400005e0400005f040000702100009b
:10337c0071210000722100007321000074210000f3
:10338c0075210000762100007721000078210000d3
:10339c00792100007a2100007b2100007c210000b3
:1033ac007d2100007e2100007f21000041ff0000f4
:1033bc0042ff000043ff000044ff000045ff0000f7
:1033cc0046ff000047ff000048ff000049ff0000d7
:1033dc004aff00004bff00004cff00004dff0000b7
:1033ec004eff00004fff000050ff000051ff000097
:1033fc0052ff000053ff000054ff000055ff000077
:10340c0056ff000057ff000058ff000059ff000056
:10341c005aff0000000000004c6f0000674e0000d7
:10342c00756d0000626500007200000053650000bd
:10343c0074740000696e000067730000006c00007b
:10344c006f6700002e6900006e690000000a000022
:10345c00556e0000616200006c6500002074000075
:10346c006f2000006163000063650000737300004f
:10347c002063000061720000642e00000a0000004e
:10348c000a4e00006f2000006361000072640000af
:10349c00206f0000722000006e6f0000742000008e
:1034ac0072650000636f0000676e0000697a0000af
:1034bc00656400002e0a00000056000065720000d2
:1034cc00736900006f6e0000004300006d64000023
:1034dc00506f000072740000004c00006f67000019
:1034ec00506f000072740000006c00006f670000e9
:1034fc002e74000078740000004c00006f67000010
:10350c00466900006c650000006f000076650000e5
:10351c00727700007269000074650000004c0000b6
:10352c006f6700005479000070650000006c0000ab
:10353c006f670000004d00006f6400006500000024
:10354c00554100005254000031000000436f000050
:10355c006d6d000000550000415200005432000017
:10356c0000430000414e0000001f00001c1f000023
:10357c001e1f00001e1f00001f1e00001f1e00004b
:10358c001f4f00004b00000044490000534b00004b
:10359c005f45000052520000004900004e540000ec
:1035ac005f45000052520000004e00004f540000d6
:1035bc005f5200004541000044590000004e0000dd
:1035cc004f5f0000464900004c450000004e0000d3
:1035dc004f5f0000504100005448000000490000bb
:1035ec004e560000414c0000494400005f4e000064
:1035fc00414d000045000000444500004e490000cc
:10360c004544000000450000584900005354000098
:10361c00004900004e560000414c00004944000097
:10362c005f4f0000424a0000454300005400000078
:10363c005752000049540000455f000050520000f2
:10364c004f54000045430000544500004400000066
:10365c00494e0000564100004c490000445f0000f8
:10366c004452000049560000450000004e4f000037
:10367c00545f0000454e0000414200004c450000e4
:10368c00440000004e4f00005f460000494c000013
:10369c00455f00005359000053540000454d000095
:1036ac00004d00004b460000535f000041420000fb
:1036bc004f520000544500004400000054490000e3
:1036cc004d4500004f550000540000004c4f0000c9
:1036dc00434b000045440000004e00004f540000d6
:1036ec005f4500004e4f000055470000485f00004a
:1036fc00434f000052450000005400004f4f0000a3
:10370c005f4d0000414e0000595f00004f5000001b
:10371c00454e00005f460000494c00004553000038
:10372c00005500004e4b00004e4f0000574e00005d
:10373c005f450000525200004f5200000000000094
:10374c00726300003d250000752000004652000009
:10375c005f250000730a0000000000000103000058
:10376c0005070000090e00001012000014160000de
:10377c00181c00001e8000009a900000418e000072
:10378c00418f00008045000045450000494900007c
:10379c00498e00008f900000929200004f9900001b
:1037ac004f55000055590000999a00009b9c000051
:1037bc009d9e00009f410000494f000055a5000050
:1037cc00a5a60000a7a80000a9aa0000abac0000a9
:1037dc0021ae0000afb00000b1b20000b3b40000e5
:1037ec00b5b60000b7b80000b9ba0000bbbc000009
:1037fc00bdbe0000bfc00000c1c20000c3c40000b9
:10380c00c5c60000c7c80000c9ca0000cbcc000068
:10381c00cdce0000cfd00000d1d20000d3d4000018
:10382c00d5d60000d7d80000d9da0000dbdc0000c8
:10383c00ddde0000dfe00000e1e20000e3e4000078
:10384c00e5e60000e7e80000e9ea0000ebec000028
:10385c00edee0000eff00000f1f20000f3f40000d8
:10386c00f5f60000f7f80000f9fa0000fbfc000088
:10387c00fdfe0000ff2200002a3a00003c3e000042
:10388c003f7c00007f0000002b2c00003b3d000023
:10389c005b5d0000000000000080000000400000a4
:1038ac000020000000100000000800000040000094
:1038bc0000200000001000000008000000040000c0
:1038cc0000020000000400000002000000010000e3
:1038dc0080000000400000002000000010000000ec
:1038ec0008000000040000000200000000000000be
:1038fc004e4f0000204e0000414d000045200000be
:10390c00202000002046000041540000333200000b
:10391c0020200000200000004e4f0000204e000030
:10392c00414d0000452000002020000020460000f2
:10393c004154000020200000202000002000000046
:10394c0000220000000a0000003d0000000a0000f8
:04395c000a0000005d
:020000040000fa
:10396000000278000200e900e10f4000060032008a
:1039700084017800000042000000e800b15978009e
:10398000808f5100fdff3a00000006000002780021
:103990000200e900e10f40000600320084017800d7
:1039a000000042000000e80081597800808f51003b
:1039b000fdff3a0000000600800278000102780056
:1039c0000000eb0080017800828f51000800320077
:1039d000e3c07a008180fb0063407a000080fb0036
:1039e000008050008301e8000000e000f6ff320094
:1039f0000000060080017800104178000204e00019
:103a000008003a000a003700534178000204e00041
:103a1000070032000200fb00808f500004003200db
:103a2000f9ff37000200fb00808f5000f6ff3a00dc
:103a30000200fb0000000600889fbe000003780023
:103a400081047800100478008423200008024200da
:103a50008003eb00870278001400e0000c003200c5
:103a600054b99700e4b9970036009000c600900062
:103a7000800f5100818f590006003a00f4b897007a
:103a800026009000808f500002003a000b003700a3
:103a90008703e8008502e80068024200e28f5200d6
:103aa000edff3a000700e0000c003a002001200082
:103ab000e28f54000c003200080037000900e000db
:103ac00008003a004328dd008023b000e0007c00bd
:103ad00000102000808f5000020032000000eb0038
:103ae00001003700000120004f04be000000060066
:103af0008023b0008000eb00040037008100e80064
:103b000068004000e28f5000020032001000e00028
:103b1000faff3a000110a2000100ea000100700063
:103b20004f00de0000000600881f780000037800c8
:103b300001047800900378008423200007024200eb
:103b40008002eb001400e0000b00320054b9970033
:103b5000e4b9970036009000c6009000800f510035
:103b6000818f590004003a00f4b8970026009000b5
:103b7000808f5000170032008502e8006802420082
:103b8000e28f5200efff3a00802320000700400040
:103b90008002eb00040037008502e8006800400066
:103ba000e28f52001f0032001000e000faff3a00de
:103bb0004328dd008700400036019000c6019000d8
:103bc00092189a00a3189a0016004000a6019000cf
:103bd00033189a000800e0000800320096007800d0
:103be0004328dd008023b0006080780002102000b0
:103bf0000000e000060032000a003700960078005e
:103c00004328dd008023b000608078000001e800d8
:103c10004328dd008023b00002b078000500e800f2
:103c2000010037000000eb004f04780000000600a0
:103c3000800178008100e90020002000e18f500021
:103c40000f003e004308dd008023b0006081790052
:103c5000f00f2000800f5100020036000001eb0041
:103c6000030037000200e000010032000201e90019
:103c70004308dd008023b00002b079000000eb00b3
:103c800000000600889fbe008a9fbe008c9fbe0079
:103c90008e1f7800000578000206be0070149000a8
:103ca000801c9000820f5400838f5c00350032002e
:103cb000404090000004e000220032002e0320006b
:103cc0000a0747001a40900014c0b3000801be0064
:103cd0008e007800af2907000000e00027003a00be
:103ce000404598001a109000aa1090007a099000a0
:103cf0008a1190000000410081804900800f54002b
:103d0000818f5c000f003100ba459000e1cf550073
:103d10000c0036007a0890008a10900008044000d9
:103d2000898448001a40900014c0b3000801be0006
:103d30008e007800972907008b45e900e1cf5500f8
:103d4000f4ff3e00e00f5600e08f5e000d003200f1
:103d5000210320008a8040001a40900014c0b30064
:103d60000c01be00ea2807000000e00003003a0052
:103d70007c1598000d1d98000300370010002000ee
:103d8000010037000000eb004f0778004f06be002f
:103d90004f05be004f04be0000000600889fbe0015
:103da0008a1f7800800478006011b800b5ff070012
:103db000000578000000e0003d003a0030c0b3008c
:103dc000994f100033003a00594090000004e00081
:103dd000300032006000b800f0149800811c980098
:103de0002803200009044400022020008a007800f3
:103df00008007800e5fe070050c5b30060fc9b009a
:103e0000a0cab30070fc9b0020c5b300004c780032
:103e1000b074980012c6b300c274980011c4b30005
:103e2000d174980020c7b30040e49b0050e49b008d
:103e300061e49b0072e49b006948900000ec9b00e9
:103e40007948900010ec9b000950900020ec9b00fa
:103e50001950900030ec9b002948900040ec9b00ea
:103e60003948900050ec9b004948900060ec9b0062
:103e70005948900070ec9b0019099000a909900026
:103e80001940900014c0b300880078004129070051
:103e9000da449800194090000001eb008040eb00ec
:103ea000e92907008000ea00808070004f0dde00e5
:103eb0000a0078004f0578004f04be00000006009d
:103ec000889fbe008a9fbe008c1f78000005780086
:103ed0000204be00e10f5100e08f59007d00360062
:103ee000e008900050089000800f5100818f590029
:103ef000780031001a407800e24f50002e00320066
:103f0000e34f500044003200e14f500074003a008b
:103f1000820478000200d100000441004941de0023
:103f20001a109000aa10900002014000e0814800a1
:103f30000a00780053ff07000000e00068003a0024
:103f4000fc1f20000c0064002003b0000a004000a9
:103f50009085fb000804e8004941de001a1090003b
:103f6000aa10900002014000e08148000a00780099
:103f700044ff07000000e00059003a000c00640014
:103f80002003b0000a0040001080fb004800dd0064
:103f9000808075000908a300030032004408de0099
:103fa0000100200050003700f0ff2000008060007a
:103fb000010020004c0037004818dd004811de00e9
:103fc00002017000c819de001a109000aa109000bb
:103fd00002014000838148000a00780029ff0700a1
:103fe0000000e0003e003a00220320000a014100e8
:103ff0000800440089804c00f01fb200000141001d
:10400000124090004800dd009280fb00010070002b
:1040100001002000340037004918dd004711de00a0
:1040200002017000c719de001a109000aa1090005b
:1040300002014000838148000a00780011ff070058
:104040000000e00026003a00240320000a0242009b
:104050004248dd00ce40de00810070004240dd00bd
:10406000f01fb2000002420034419000c811dd0090
:1040700002002000244090008080fb00000020000f
:104080000001710081817100144090004800dd0042
:10409000010020000001710081817100144078004e
:1040a0000080fb000100200000017100818171008f
:1040b000f0ff2000030060006103b800c030dd00a5
:1040c000000020006113b8000600700087807000b7
:1040d000050037001000200001002000020037001a
:1040e0000080eb008080eb004f0678004f05be009b
:1040f0004f04be0000000600e4874700889fbe0012
:104100008a9fbe008c9fbe008e1f7800000578003d
:104110000204be000406be00e10f5100e08f59000a
:10412000a0003600e008900050089000800f510079
:10413000818f59009b0031001a407800e24f5000f7
:1041400045003200e34f50005a0032002b0020009f
:10415000e14f500090003a000200d100800441007d
:104160004949de001a109000aa1090000201400098
:10417000e08148000a007800c2fe07008005780050
:104180000000e00084003a002e0320000a074700e8
:1041900009007800f01fb2000001470061006400d0
:1041a0000100200080bf9f000000e00005003200f9
:1041b00012427800ef4062004460dd000140700070
:1041c000010037000c407800004978000904e8003d
:1041d00010c0b300404598004941de001a1090001d
:1041e000aa10900002014000e08148000a00780017
:1041f000a4fe0700800578000000e00066003a0099
:1042000008007800f01fb200800147000fb8970047
:104210000000e000050032004c69dd004460de0073
:1042200000007100c468de000800370002cfb30050
:1042300013416100486add004860de000000720042
:10424000c868de006f40600000407100804978005f
:104250008005eb00500037004818dd004811de00f3
:1042600002017000c819de001a109000aa10900018
:1042700002014000838148000a00780081fe0700a7
:10428000800578000000e00043003a002003200091
:104290000a0040000801440089814c00f21fb2006e
:1042a000020040000c487800c860de001140980011
:1042b00039003700491add004711de0002017200a3
:1042c000c719de001a109000aa10900002014000e9
:1042d000838148000a0078006afe070080057800a4
:1042e0000000e0002c003a00240320000a024200f3
:1042f0004248dd00ce40de00810070004240dd001b
:10430000f01fb20000024200e30342000483e80011
:104310008402e80017417800c811dd000200200087
:10432000164078008080fb00000020000001710032
:10433000818171001580fb004800dd000100200034
:104340000001710081817100144078000080fb0041
:1043500001002000000171008181710000002f0028
:104360000300600001002000c000dd00000020000c
:104370000c0070008d807000004a78004801de005b
:10438000824a78004009de0003002000024b7800da
:104390004808de00804b780010c0b300404598000c
:1043a000010037002b0020000b0078004f07780039
:1043b0004f06be004f05be004f04be004f00b100c7
:1043c00000000600889fbe008a9fbe008c1f7800f8
:1043d000000678000205be00e10f5100e08f590091
:1043e0002a003600e008900050089000800f51002d
:1043f000818f5900250031000a01be000c007800b1
:10440000affe07000004be00e00f5000e08f580030
:1044100022003200e10f5000e08f58001b003200f4
:10442000e10f4000e08f48001a0032006022b8001f
:104430000a01be000c0078002fff07000000e0001a
:1044400017003a007c0090008c089000e10f4000bb
:10445000e08f48000600320061004000e080480024
:1044600070069800010e980010c0b30050469800e6
:104470000805be005c089000ec089000800f540016
:10448000818f5c0005003100dbff37002000200039
:104490000300370010002000010037000000eb008f
:1044a0004f0678004f05be004f04be000000060016
:1044b0000400fa00889fbe008a9fbe008c1f78000f
:1044c0000006780092bf9f00a3bf9f00e00f51003d
:1044d000e08f59000b003a0050059000e005900075
:1044e000e00f5500e08f5d0019003200e0089000f9
:1044f00050089000800f5500818f5d00140031003e
:10450000150037001fb99700afb997006cfe070080
:104510000001be001000200001002000800f5100ab
:10452000818f590002003e000001be004f0037009d
:104530005c089000ec089000800f5100818f5900ba
:104540004a0039001fbd9700afbd97000200370039
:104550001a0020000b0020000a04be006104440081
:10456000e0844c005c089000ec089000800f540040
:10457000818f5c0005003900e10f5500e08f5d0080
:104580003600360028002000090020000801be0087
:104590000c0078004afe07000001be00e00f50004a
:1045a000e08f58000a003200e10f4000e08f480021
:1045b0002e003200e10f5000e08f58002b00320037
:1045c000880f5500898f5d0024003200e3ff37001b
:1045d000f4ff2f00f5ff20000801be000c0078005a
:1045e000c5fe07000000e0001e003a001fb897005b
:1045f000afb89700e00f5000e08f5800060032007f
:104600000802be000001be000c007800bafe0700e0
:104610000000e00013003a00580698006906980070
:104620007c0090008c089000e10f4000e08f480073
:1046300002003a000801be000c0037006100500083
:10464000e080580070069800010e980010c0b3007a
:10465000504698000801be00040037006011b80001
:10466000020037000081eb008081eb000200be00f9
:104670004f0678004f05be004f04be000080fa00d0
:10468000000006008002780062035100e0835900b8
:10469000e00890005008900062005000e080580050
:1046a0006011b800800f5300818f5b000a00310059
:1046b000254090000080fb00010020000031b80080
:1046c0000780b9008301400055109000e51090006c
:1046d00002014000838148000200be000000060085
:1046e000889fbe008a1f78000004be002104980045
:1046f00030019000c0019000e10f5100e08f59009f
:104700004a0032001002780054089000e40890003b
:10471000800f5100818f590044003100e00f51009b
:10472000e08f590017003a0030c0b300944f1000da
:1047300005003a0034119000c4119000e00f5100c0
:10474000e08f59000f003a006000b8005004980054
:10475000610498009800780041009000808f540018
:10476000320031004448de0031119000c111900048
:1047700000004100e080490070049800010c98009e
:1047800020003700244090000080fb004405dd003d
:104790008a8f54001200390018007800c8fd070005
:1047a0000001be00e10f4000e08f48001d00320014
:1047b000e10f5000e08f58001c0036001800780010
:1047c000e008900050089000800f5100818f590040
:1047d000160031008a845400890f5500eeff360020
:1047e000520498006304980018007800a5ff0700a1
:1047f0004449de0002014000e08148007204980054
:10480000030c980020032000980040006f80640093
:104810004500dd0080804000110c98000000eb0096
:1048200003003700100020000100370020002000a6
:104830004f0578004f04be0000000600889fbe00b0
:104840008a9fbe008c9fbe008e1f78008004780077
:1048500001047800200090000005e8007e0032008e
:104860007900900089089000e00f5000e08f580018
:1048700079003200ef0565006f003a0061004000ea
:10488000e0804800f0049800810c980059019000e5
:10489000e9019000e00f5100e08f590005003a0057
:1048a0001900780040009000800f55006200390028
:1048b0006900370019027800c450de0024409000df
:1048c0000080fb000000e900808060005a003a0090
:1048d000040078007afd07000006be00e10f5000da
:1048e000e08f58005e003600e10f4000e08f480086
:1048f0005d0032001902780054089000e40890002e
:10490000800f5600818f5e00440039000800e000ef
:104910005100320059019000e90190000400780034
:10492000e3fe07000006be0070002000e00f560006
:10493000e08f5e004d003200e10f5600e08f5e0018
:1049400047003200e10f4600e08f4e004600320083
:104950006011b80019007800cafc07000007780051
:104960000000e00040003a002103200019804000d0
:10497000022020008e00780004fc07001904780053
:104980000c01be00080078003eff0700701498007c
:10499000011c980019027800244090000004e000f7
:1049a00002003a000e447800140037000044eb0087
:1049b0001ec0b3004e4298006011b8001900780084
:1049c000b0fc07000000e00027003a001900780062
:1049d000701190008019900061014100e081490050
:1049e00072109800031898000844e8001902780033
:1049f00024409000884f5000eeff3e000881fb00ed
:104a000003002000741090008418900002005000f1
:104a10008380580070129800011a9800dc049800f6
:104a2000ed0498000c01be001900780015ff070086
:104a3000f0049800810c9800aa049800210320003b
:104a400019804000c558dd0001004000900c98001e
:104a50000000eb0005003700400020000300370095
:104a60002000200001003700100020004f077800d0
:104a70004f06be004f05be004f04be0000000600fa
:104a8000889fbe008a9fbe008c1f780000067800b9
:104a9000810578001180fb00f00bb2006d00b900b9
:104aa000ed0450001a00200048bb29001880fb00cc
:104ab0000080450090409000c808dd001080fb0099
:104ac000008070000a00e0000c0032005c3107003a
:104ad00000057800e0072000808f540017003c009c
:104ae0000980440060007e008904e800543107001a
:104af000800f55000400320010003700e10f400025
:104b00000e003a000005eb000804e80010bc290084
:104b1000880f5000e5ff3a001b80fb000068a300ef
:104b2000080032000a00e00006003200098044005c
:104b30000c0040001000e000020032000000eb001a
:104b400001003700100020004f0678004f05be001e
:104b50004f04be0000000600881f78008003780024
:104b6000810278001180fb00f003b2006d00b900f3
:104b70006d0150001400200043bb2900e80720000d
:104b800016bc29001380fb0000804200904090007a
:104b9000c808dd001080fb00808070000400e00089
:104ba00007003200880f510017003c00020041004e
:104bb00001b07b000201e800010278000300370029
:104bc000e18f400010003a000002eb008301e80092
:104bd000830f5300ebff3a001580fb00110020000b
:104be0000068a30009003200e0072000800f510098
:104bf00005003c00820041000000eb0080b07b001b
:104c000011002000010037008000eb000100780057
:104c10004f04780000000600889fbe0080047800e2
:104c20008102780002447800d3489800f0c0b300b5
:104c3000b04898000040eb00c0489800a058980089
:104c4000b058980002407800d2c0b3000440bc00c5
:104c50006d01510002004100890340000003eb0098
:104c6000040037000402e800e18f41000500320033
:104c70008783e800970178000201e80040bb290023
:104c8000000243001480fb0003f07a000080420021
:104c9000c818de00114098000300e00001003a004f
:104ca0008081eb000603e800ec0f5300edff3400b9
:104cb000e18f410004003200020041000900400081
:104cc0001000e00001003a000864a000884a780063
:104cd0004f04be00000006000800fa00889fbe00d6
:104ce0008a1f7800000578008204780003047800a9
:104cf000b20020001afb0700e50f54000400360044
:104d00000800d300190440005900e000fcff3a00fd
:104d10007300200091c3b3006f4064000043b000f3
:104d2000814f500001003600674040006e815700ff
:104d300000f179008301e9004444de00f6ff3a0007
:104d4000e0c7b300ee80510080f07f000300e00078
:104d500008003400140037008100e800818f510002
:104d60000500320061407d00824f50000200320099
:104d7000f9ff37008000eb000100450002c2b300dc
:104d8000e78f510003003c006e82510064c17f0038
:104d90008301e800025878008100e800e78f5000a6
:104da00006003c00f5ff37008000eb0002c2b300b4
:104db0009a4f1100e8ff3a00eeff37004f057800e8
:104dc0004f04be000080fa00000006008001780059
:104dd0000040eb00b20020000080fb008000d1000a
:104de0004700dd0080c0400033c040000201e90000
:104df000f9ff3a000080fb0000000600889fbe001b
:104e00008a9fbe00800478008000eb0034fe07001b
:104e10000000e0004d003a0080c5eb000b45780033
:104e200079019000890990001900780095fb07002e
:104e30000000e00045003a00190c9000984078000e
:104e40000104e0003e00320038489000f043b20018
:104e5000fbcf4000330032000038a30003003200d3
:104e6000ef4f50002f003a0002003700ef4f500084
:104e70001b003a00390890000000e0002a003200d0
:104e80000168a300060032005848900029019000f4
:104e9000c20c9800014578000a64a10003003700a5
:104ea000814f55001f003a000b407800d84d90000c
:104eb00080cf5500030032008045780000c5eb002c
:104ec000190037003908900088007800ecfe0700d0
:104ed0000000e000130032000a45e900120037002c
:104ee0000a04e00004003a0008007800b7ff070059
:104ef00080cf5500140032000080eb00c00c9800f9
:104f0000a9089000314890000008a30005003a006d
:104f1000b200200008007800a7fa07000000e000b7
:104f20000900320000c5eb008000eb0009007800aa
:104f300042fe07000000e00004003a00b8ff37001e
:104f400040002000010037000000eb004f05be00cc
:104f50004f04be0000000600889fbe008a1f780034
:104f60000004780080c4eb0009457800440020006c
:104f70003f0037001800780042fb0700000278006d
:104f80000000e00041003a009808900011417800cc
:104f90000204e00002003a00440020003b00370019
:104fa00031489000f043b200fb4f4100290032002d
:104fb0000038a30003003200ef4f500025003a00f4
:104fc00002003700ef4f500017003a000268a300bc
:104fd0000600320051489000a8019000430c980050
:104fe000824478000964a10003003700894f510012
:104ff00018003a000a407800514d9000804f55004b
:10500000030032000045780080c4eb001200370036
:1050100038089000d0fe07000000e0000d003200cc
:105020008944e9000c0037000904e00005003a005b
:105030000100780065ff07000002eb008a4f500076
:10504000150032000080eb00400c98000002eb00dd
:105050001100370080c4eb008000eb0008007800ee
:10506000f6fd0700000278000000e00007003a00ab
:105070007801900088099000e00f5100e08f5900fe
:10508000bcff3a000400e000030032006000b800fa
:1050900070049800010c9800040078004f05780017
:1050a0004f04be0000000600ee874700889fbe0048
:1050b0008a9fbe008c9fbe008e1f780080057800fe
:1050c000200d9000300e9000c20020008a00780071
:1050d0007a80570022fa07001ff09700690020002d
:1050e0000058a30092003a000008a3001a00320002
:1050f0006b074500004feb000000eb00b00d98007f
:10510000180020004d062000880178000c0178006e
:10511000fa8057000a007800effe07000b007800c5
:1051200036ff0700800478000000e00005003a0028
:105130000804e8008d0f5400f3ff3a0079002000c6
:105140007b003700e40f500079003a001ff0970011
:10515000004f7800bc0d98001a0020001ff0970047
:105160000018a300090032006b0037000000e800bf
:105170003100e000fdff3a0079004000d20020003d
:10518000110009000280d800000578008000eb00c3
:105190000b00780052fd0700800478000000e0005a
:1051a00063003a0000047800000678007b0190005c
:1051b0008b0990001b007800b2fa07008004780089
:1051c0000000e0005a003a001b08900010407800f0
:1051d000fb4f4000040032000004e00002003200f7
:1051e00009047800060037000800e00001003a00da
:1051f0002b0690000804e800880f55003c003200a0
:10520000110020000b0078008cfd0700800478005e
:105210000000e00046003a00e4ff37008c00780010
:105220000b0078002efd0700800478000000e000ed
:105230003f003a002b089000e4fe0700004678008b
:105240000a05e900090478007b0190008b099000b1
:105250001b0078008bfa0700800478000000e00053
:1052600033003a00084155009b0890003b0890002d
:105270008c41780068fe07009b00780010c0b300e6
:10528000c0409800890078000b0078006bfd070093
:10529000800478000000e00025003a000804e800df
:1052a000880f550014003200e7ff37001b0c9000f8
:1052b000020220008000eb0008007800b3f907002c
:1052c000ab089000b200200008007800a4f90700a5
:1052d0002b0890003048900078406000404c9800c7
:1052e0009b00780010c0b300c04098001000370049
:1052f000e10f5500c9ff3e007b0190008b09900033
:105300001b0078005ffa0700800478000000e000ce
:1053100007003a00e5ff37000000eb001c00e0004a
:1053200095ff32008c80e8000000eb008fff370013
:10533000090078004f0778004f06be004f05be00f9
:105340004f04be00ef00b10000000600889fbe00c1
:1053500000047800a0049000c0089000e18f400095
:1053600001003a008900780008007800dcfc0700a2
:10537000000178000000e00019003a007801900078
:1053800088099000180078003efa070000017800b4
:105390000000e0000f003a009808900050ceb300e3
:1053a000804878009800780010c0b300c040980092
:1053b00028009000808f5400090036008000eb0028
:1053c000080078001dfd0700000178000000e000e3
:1053d000eaff3200e40f510001003a0022002000f1
:1053e000020078004f04be0000000600e887470076
:1053f000889fbe008a9fbe008c9fbe008e1f7800d3
:10540000000778008106780091057800300e900042
:105410009b4078008101fb00ff8f51002200360085
:10542000f8003700f0c2b30080cf50001c003200fb
:10543000c0c5b30080cf5000190032000a85e800d3
:1054400000082000800f5100e9003200820478003b
:105450000380fb0011002000da2e07000004780012
:105460000000e000e2003200f0072000800f54004e
:1054700005003e008800780010c429005df907008f
:105480000000e000da003a00080d7800ebc07c0074
:105490008101fb000901e800ff8f5100e1ff3e00a0
:1054a00009057800020037000005eb00120020001b
:1054b000828e45004bc0b300ff8f510001003600c3
:1054c0008045eb00e10f550004003a00e0022000a7
:1054d0009c0f10001e003a0008003700e20f550034
:1054e00028003a009c009000e0022000808f5000cd
:1054f00016003a009c8f100014003a008a00450004
:105500000000eb0080307e00000178002e08900043
:1055100000004100e1c2b300820f550001003c00d1
:1055200001c2b300014878000201e800eb0f51000e
:10553000f6ff3a00ae0890000b4078000054a0003f
:1055400000f178000000eb00b70037002a002000cf
:105550008a0678000a014500020046000080e90042
:1055600080bf9f009000780000022000808f5000d4
:10557000030032006e004000808f500004003a00ab
:105580000a05e9000a00e00099003200f0ff370048
:105590000004eb0008317e002e089000b2002000cd
:1055a00001022000f9f807008c00780088047800d8
:1055b00002022000e3022000020037008904e80014
:1055c0008180e80011007800820f5000fbff32005c
:1055d000830f5000f9ff32000900e000860032001e
:1055e0003b40b300840037003b40b3005e0037000f
:1055f0000a05e9008100e8000281e900818f560078
:1056000003003200e0022000920f1000f8ff3a0081
:105610008006eb00edef9f0080002000e0b79f00c8
:105620000980440060047e008904e8000800e0006e
:105630004d00320000022000800f540005003200af
:105640006e004000800f540004003a008a8f54001e
:10565000020032003b40b300f1ff37006fb097000b
:10566000808f560002003d008a8f540010003a00df
:105670006fb09700eb0f5000dbff32008a8f5400b1
:10568000010032003b40b3008a8f540036003c00da
:105690006fe897004200dd00e0ef9f008a04780089
:1056a0008d002000b0002000e0b79f00dcff370035
:1056b000f0072000800f54000e0036008000eb0041
:1056c000080078003f2e0700000478000000e0008a
:1056d0000500320000f82f000000440011bc290032
:1056e00060c078000084fb000b14a0000800e000fc
:1056f0000500320088007800a0c42900bdf807002a
:105700000000e000030032003b40b300f805200039
:1057100011003700f0fb2f0000004400f90f50008b
:1057200004003e006fe897000014a000e0ef9f0027
:1057300009003700f0f92f0000004400f90f500075
:1057400005003e006fe897000004a000e0ef9f0016
:1057500000fe2f00000444002e0890008876780098
:105760008d06e800aeff3700ae08900050ceb300c3
:10577000914f100002003a0050c0b30080487800fa
:105780006fb09700e80f500003003a006fe89700f1
:105790004200dd00e0ef9f006fe897008080fb0093
:1057a0006c816000ec0f51000300320063806000e8
:1057b000e30f500001003a000b14a0000b18a300e7
:1057c00007003a0063806000e10f500001003a00da
:1057d0000b44a000e40f510001003a000b34a0007c
:1057e0002e0890003b4898000000eb000e003700a8
:1057f000600020000c0037000fb997008000eb001c
:1058000080ff3700f0c2b30080cf500026ff320087
:10581000c0c5b30080cf500023ff32000c057800d4
:10582000190020000aff37004f0778004f06be001e
:105830004f05be004f04be008f00b10000000600ff
:10584000889fbe008a9fbe00000378000105780093
:10585000e98240008008900070009000e00f500046
:10586000e08f58004d003200160a9000c44c9000a2
:105870000001eb0007c2b300e8816400f8cbb3007d
:10588000e2407a0087cf50000d003200e5cf500093
:1058900001003a0051ceb3000300e00004003200e2
:1058a00008c04000f94f500001003e000142b00026
:1058b000815a78000201e800e80f5100f0ff3a0039
:1058c0008448900000c2b30080cf50001300320023
:1058d0006e404000805a78008200200007c2b3006a
:1058e000f0816400f8cbb300e440790087cf50002a
:1058f0000a0032000300e0000400320008c040004b
:10590000f94f500001003e000142b000815a78007a
:105910000201e800eb0f5100f3ff3a003448900019
:10592000004d980074599000c811dd00020020005d
:10593000645890008080fb0000002000000171008e
:1059400081817100545890004800dd000100200062
:105950000001710081817100445890000080fb00bb
:1059600001002000001d7100019571009458900005
:10597000c808dd00045890000080fb0080807000a3
:1059800021059800f4509000c808dd006450900094
:105990000080fb008080700031059800804aeb0099
:1059a0003a0c90000800e0002100320076009000e0
:1059b00086089000e00f5000e08f58001900320078
:1059c00046089000e10f40001600320036089000b3
:1059d00030017800800578000200e00011003200fc
