:020000040000fa
:080000000002040000000000f2
:020000040000fa
:100400000f502300005f270000018800000000005b
:100410000c000700401c2300010020001100070011
:10042000000020000000e000020032000000020096
:100430000000000040910200000000000040da00cf
:100440000000fe004440a900006420000000e0001d
:100450000300320000002000a00188004440a800f2
:100460000000060091018800800078000000eb0089
:1004700015003700e280400032a0b4009101ba00bc
:10048000e280400032a0b4009102ba00e280400055
:1004900032a0b4000002eb00472bde00f507b200eb
:1004a000602ce10004003a000059eb008301e900f0
:1004b000fdff3e00040037006128e100010032002a
:1004c0000082eb00040007001101ba000200e00006
:1004d000e8ff3a00000006003159ba008301e90044
:1004e0000c0032002159ba008301e90008003200f3
:1004f0000400e00003003a00e280400032a0b400b3
:10050000f5ff370011d9ba008301e900faff3a007c
:100510008100e800e180400032a0b4000000060045
:10052000b86e040000000000c06e0400000000006f
:10053000006f040000000000666f0400000000006f
:10054000ae6f040000000000f26f04000000000025
:100550003e700400000000009e56040000000000f1
:100560000a57040000000000b2560400000000001a
:1005700076560400000000005657040000000000fa
:10058000bc81040000000000d881040000000000cd
:10059000aa81040000000000e881040000000000bf
:1005a000fe810400000000004682040000000000fc
:1005b0007c82040000000000b482040000000000ff
:1005c000da8204000000000056550400000000001c
:1005d0006e4a040000000000f00204000000000069
:1005e000889fbe000004780090049000828f540021
:1005f00001003900820478001800780009017800b1
:1006000019000700188c44001800900009005000e1
:1006100010049800080078004f04be000000060097
:100620000400fa000100e00005003a006480570071
:100630000080e800e0bf9f00f1bf9f00030037008b
:10064000e0bf9f000100e900f0bf9f00e480570079
:10065000002f20000b000700efb897008048eb0048
:100660000080fa00000006008001eb000200370065
:1006700061f079008301e800828f5100fcff3a00ad
:10068000000006006200fa00889fbe008a9fbe003c
:100690000004be00020578008300780060f92f0096
:1006a0000f004000b000070088979f0099979f00b7
:1006b0000000eb00a09f9f009a4578000b80fb0094
:1006c0000000ea00cf04de0050c2b30080cf550026
:1006d0000200320009047800010037000904e90033
:1006e0000800e0000b0034001f909700080178001c
:1006f0008a0078008f9197000300010090979f0077
:100700000000e000930032002f98970000004400a2
:10071000a09f9f000905450050c2b30080cf55003f
:10072000040032000b04e000e3ff3a002f9897002a
:10073000890037000000eb00809f9f00f0979f002a
:10074000e0979f00d0979f00c0979f00b0979f00b1
:10075000c09f9f0009003700607f27000080500085
:1007600000004000a17e2700e10078004f9897002c
:1007700001007000c09f9f000a05e8001a4478003d
:100780008800fb00607f27007c0007008000780065
:100790000000e000f0ff3a00a0c2b300804f540018
:1007a0000e003a00bf8897000180e900b08f9f00db
:1007b00010007800b09f9f000000e00005003d00a1
:1007c0000000ea00b09f9f004f9897000020a00013
:1007d000c09f9f000a05e80010003700b19f9f00ee
:1007e00003fd2f00f4ff2700080037003f98970013
:1007f000840f5000040032006a00b900000041007c
:1008000003004000b09f9f000a05e8001a01fb00aa
:1008100003004100e90f5000f4ff3600e0c2b300ce
:100820009a4f1000040032000080eb00909f9f0060
:100830008a0478001c0037008a04e800a0c2b300d4
:10084000994f100007003a00bf8897000180e90027
:10085000b08f9f0010007800909f9f008a84e8006e
:10086000110037000000eb00909f9f0003fd2f0058
:10087000f4ff2700080037001f989700840f5000ee
:10088000040032006a00b90000004100030040008b
:10089000909f9f008904e8001901fb0003004100bc
:1008a000e90f5000f4ff3600194478008800fb007f
:1008b00080262200310007000000e00002003a001c
:1008c00000447800010037008904e800a87f9f00f9
:1008d00080c6b300804f540004003a00994f1400c2
:1008e0000a003a006640500006003700c0c6b30058
:1008f000804f540005003a00994f140003003a005d
:1009000065404000a07f9f008904e8000905e800d9
:10091000c8fb2f000f04440060f92f000f004000b7
:100920008085e8008801780019417800800078000f
:100930000b0078001a0007000000e00005003a00f4
:10094000880078000b007800920107000000e000aa
:1009500059ff3d000080eb004f05be004f04be0074
:100960000080fa00000006000200fa00f1bf9f00bc
:10097000010878000080fa0000000600040037003b
:100980000204e00001003a00000005000000e80059
:1009900010417800814f5100f9ff3a000000060035
:1009a000889fbe008a1f780000047800010278004a
:1009b000824478000305780070c6b300804f510070
:1009c00021003c0000c0e900804f5100de003d00e6
:1009d00072405000804f51004b0132000d003c002e
:1009e0006c405000804f51005e013c0000c0e900a7
:1009f000804f5100d4003d0050c2b300804f5100e1
:100a0000550132007c404000804f510055013a00b2
:100a1000cd00370010c6b300804f5100ca0032002d
:100a200004003c0069405000804f51004d013a00e5
:100a30007200370030c6b300804f510018003200fa
:100a40000040e8000900370000c7b300804f5100a4
:100a50001e01320008003c0000c0e900804f510038
:100a6000e400320065003c006540500080cf540037
:100a70003c013a000f00370050c7b300804f5100cf
:100a80005e00320063404000804f51005b00320046
:100a900065405000804f510032013a001a01370082
:100aa0009180e900010a7800780090009171780047
:100ab00032013700a8609000c0c6b30080cf50005c
:100ac0000a003a009400780064805000000a780020
:100ad0001000be004f89de00cf91de000002be0094
:100ae00002037800820378001300370010c7b300b8
:100af00080cf500003003200a0c6b30080cf50006a
:100b000006003a009400780068805000000a7800df
:100b10003002be002003be00070037001480e90049
:100b2000000a78001000780000027800cfa2de00f2
:100b30000503780086037800049cbe000694be007e
:100b4000a860900080c6b30080cf50000e00320035
:100b500020c6b30080cf500005003a000400fb001f
:100b6000cf80de0001017800820178000a003700a2
:100b700040c7b30080cf5000030032006640400001
:100b800080cf500006003a0004007800cf80de00dd
:100b90000101780082017800009cbe000294be0032
:100ba0003800be002801be00e00f5000e08f580062
:100bb000e00f5900e08f590003003d0078009000dd
:100bc000d1c2b3000a003700081090000018a3003b
:100bd0000300320078009000b1c2b3000400370077
:100be0000008a300530032007800900001c2b30057
:100bf000017578000000e8004d003700a860900003
:100c0000c0c6b30080cf500006003a0094007800c0
:100c100064805000000a78001002be006033b80003
:100c20001300370010c7b30080cf5000030032001c
:100c3000a0c6b30080cf500006003a0094007800b0
:100c400068805000000a78003002be002003be0019
:100c5000070037001480e900000a780010007800cf
:100c60000002780005002000060020000700200098
:100c7000049cbe000694be00a860900080c6b3002d
:100c800080cf50000e00320020c6b30080cf50004d
:100c900005003a000480fb00010020000200200053
:100ca000030020000a00370040c7b30080cf500087
:100cb000030032006640400080cf500006003a003a
:100cc0000400780001002000020020000300200042
:100cd000009cbe000294be00081090000038a300e3
:100ce000140032003800be002801be00e00f5000a2
:100cf000e08f5800e00f5900e08f59000d003200de
:100d000080c7b30080cf54000300320080c5b30019
:100d100080cf540007003a007800900001c3b30070
:100d2000017578008000e80009f578000080e8008f
:100d3000700498007800900000004500600498005e
:100d4000894078006d003700a8609000c0c4b300ef
:100d500080cf500006003a00940078006880500070
:100d6000000a78005001be004000be0005003700b8
:100d70009400780064805000000a78001000be00e3
:100d80009a080700009cbe000294be003800900044
:100d90000000e00003003d0078009000d1c2b300e5
:100da0000a003700081090000018a300030032006a
:100db00078009000b1c2b300040037000008a3001f
:100dc000050032007800900001c2b3000175780080
:100dd0000000e800700498007800900000004500d2
:100de000600498008940780008007800330107000b
:100df00064003700a8609000c0c6b30080cf5000e8
:100e0000250032000a003c006440500080cf5000b2
:100e10002800320000c0e80080cf500014003200eb
:100e20006840500080cf500022003a000a0037008e
:100e300040c7b30080cf50001e0032006640400023
:100e400080cf50001b0032006940500080cf50001e
:100e500018003a00060037001480e900000a780004
:100e600010007800485c9000084878004500370082
:100e70001480e900000a78001002780068089000e9
:100e8000cf80de000101780082017800009abe0068
:100e90000292be003b0037001480e900000a78008f
:100ea0001001780068089000cf80de000089be0045
:100eb000340037001480e900000a78001000780040
:100ec000680c9000080878002e0037001180e900b7
:100ed0008008780010007800cf80de0001017800e3
:100ee00082017800009cbe000294be007800900051
:100ef000000045006004980081c7b3000800780036
:100f0000170307001f0037001480e900000a78006b
:100f10001000780060049800580990000200e0007a
:100f200002003d0097040700090037008000eb0035
:100f30009b040700800078000000e00003003200fe
:100f400068009000008050000100370058089000b1
:100f5000100c98000b0037007800900002757800a4
:100f60000600370078009000800045000904e0008a
:100f700001003a0059c2b300894878000000e80037
:100f8000700498000000eb004f0578004f04be008d
:100f9000000006000400fa00889fbe008a9fbe0081
:100fa0008c1f78000004780001067800700890001b
:100fb000f8009000010050008808900001005000e7
:100fc0009808900001005000a8089000010050000f
:100fd000b808900001005000c8089000810550003a
:100fe0000002220090bf9f0000032300a0bf9f00cb
:100ff000081090000028a30018003a000b00e00041
:10100000160034008b04780009057800e28f540044
:10101000020036002a002000020037000900e0002c
:101020000b00340058009000c80190000a017800bd
:10103000ee80570003000100500498000000e0001b
:10104000960032006808900000004500600c98008f
:101050008a8454004240a900ebff3c0078019000d4
:101060000200e0000b00340058009000c80190001e
:101070008c00780003000100500498000000e0009c
:101080008600320068089000f800900001004000df
:10109000600c9800880c90000900e00015003400f6
:1010a00009057800e28f5400020036002a00200073
:1010b000020037000900e0000b00340058009000e7
:1010c000c80190000a017800ec805700030001007d
:1010d000500498000000e0007000320068089000a2
:1010e00000004500600c98008a8454004240a9002a
:1010f000ebff3c00180990000200e0000b003400f8
:10110000e800900058009000c80190000300010022
:10111000500498000000e000600032006808900071
:101120009808900001004000600c9800a80c900006
:101130000900e0001500340009057800e28f540032
:10114000020036002a002000020037000900e000fb
:101150000b00340058009000c80190000a0178008c
:10116000ec80570003000100500498000000e000ec
:101170004a0032006808900000004500600c9800aa
:101180008a8454004240a900ebff3c0038099000db
:101190000200e0000d003400e80090001808900004
:1011a0008080400058009000c801900003000100ba
:1011b000500498000000e0003800320068089000f9
:1011c000b808900001004000600c9800c80c900026
:1011d0000900e0001500340009057800e28f540092
:1011e000020036002a002000020037000900e0005b
:1011f0000b00340058009000c80190000a017800ec
:10120000ec80570003000100500498000000e0004b
:10121000220032006808900000004500600c980031
:101220008a8454004240a900ebff3c000810900063
:101230000028a3001b0032000b00e000190034005e
:101240008b04780009057800e28f54000200360014
:101250002a002000020037000900e0000b003400e3
:1012600058009000c80190000a017800ee805700f5
:1012700003000100500498000000e0000700320065
:101280006808900000004500600c98008a845400b3
:101290004240a90003003400eaff37000080eb0061
:1012a000010037000000eb004f0678004f05be003c
:1012b0004f04be000080fa00000006008f04b0005a
:1012c000889fbe008a9fbe008c9fbe008e1f780044
:1012d000f0b79f0081f79f005001be004000be00a4
:1012e000f0979f00819f9f00929f9f00a39f9f0068
:1012f00010c6b3000ff19700804f51001600320066
:1013000010c4b300804f510013003200ffb19700aa
:10131000530890000000e00003003d006000200042
:10132000d00998000c0037000000e0000a003a00e5
:1013300070c6b3000ff29700804f520003003200d6
:1013400070c4b300804f520003003a001000200028
:10135000ffb29700d00a9800ffb09700c0fa2f00a4
:101360000f0040009803070080017800e20f500052
:1013700015003a0030002000ffb097009008980058
:1013800010c6b3000ff19700804f51000a003200e1
:1013900064404000804f5100070032000040e800e8
:1013a000804f510004003200016c27000040e8002b
:1013b000804f510001003a00416c2700ffb19700b7
:1013c00063009000160037000000e00018003400b1
:1013d000300020007fb29700100a980010c6b300ba
:1013e0008ff2970080cf52000a0032006440400024
:1013f00080cf5200070032000040e80080cf52004a
:1014000004003200816c27000040e80080cf5200c9
:1014100001003a00c16c27007fb197006200900084
:10142000315878003158780011487800c6013700eb
:1014300014c6b3008ff2970084cf5200030032002d
:1014400010c4b30080cf520013003a007fb0970061
:10145000600190008200780000c3b30080587800db
:10146000ffb29700e102980080c7b3008ff29700a7
:1014700084cf52000100320080c5b300804878005c
:101480000280e800ffb09700e00098007100900033
:101490000080e800f00098000300e00005003a003a
:1014a000e3979f0064fb2f000f01420003077800c1
:1014b000a0013700056d2700e5b79f0010c6b300f7
:1014c0008ff0970080cf50000500320010c4b300a9
:1014d00080cf5000a7003a00126e2700e2b79f00ad
:1014e000ffb19700530890001e0220000000e000aa
:1014f000010035000007e8000e02e800d4b79f00a5
:101500006022b8006033b8007f9097008f989700f2
:101510001f999700af999700d3060700ffb0970077
:101520003102be002103be000000e00004003d00c7
:101530000400be000601be0003f0a2000200370056
:101540000400be000601be00f0979f00819f9f002f
:10155000929f9f00a39f9f006f919700640151008d
:10156000e2979f00c3fa2f008f8141006a804100fb
:101570000048eb006b824100c4b79f003100370088
:10158000c201200003002000e5fa2f000f80420076
:10159000390307007f9497008f9c97001f9d970049
:1015a000af9d97000800be000a01be00b306070009
:1015b0000006be005fb1970067015100d2b79f00df
:1015c0004240a9000a003400d80607000002be000d
:1015d0000203be000800be000a01be00d6060700d6
:1015e000f0979f00819f9f00929f9f00a39f9f0065
:1015f000cfb19700678041007100200005003700df
:101600006f6066004c6add004466de000c06720006
:10161000c4eede00e00f5600e08f5e0005003400ef
:101620008100e900e18f4000f5ff3a00010037003a
:101630000060eb008100e900fdff3b006700400017
:10164000c0b79f00dfb297000500e000090034003a
:101650006022b8006033b8007f9097008f989700a1
:101660001f999700af999700b50607000000e000aa
:10167000c3ff3c0060fb2f008f0040004fb197007c
:10168000010051000000e9008e0f500001003d00f4
:10169000000778000e00e00003003d0073fb2f0000
:1016a0000f8141002c003700800f570005003d00de
:1016b0000e80400010409000f3c0b300e74f500090
:1016c00001003c008041eb00c4fa2f000f024200f1
:1016d0000e0042006a0040008e00780001003700d2
:1016e0000000e9008100e90010417800834f5100bb
:1016f000fbff32000107e800efcf510001003a0084
:101700000248e8000100e0000300350075fb2f00ef
:101710000f814200060037000e07e8006f90970027
:1017200064004000e0979f0061fb2f000f814000a4
:101730008e0041008e017800030037001100fb008d
:101740006fb29700e44878008301e9008100e90066
:101750000300e000f9ff3d00ffb29700550890003c
:101760000000e000f3003d000e00e900d00a980000
:10177000f00037007f9497008f9c97001f9d970083
:10178000af9d97006022b8006033b8000800be002b
:101790000a01be00340607000000e00005003d001d
:1017a0000bf0a200f8979f00899f9f009a9f9f00cf
:1017b000ab9f9f006f909700725927000280b9007d
:1017c000026a280013002000d4040700e40050003f
:1017d000e1979f0015003b00e3801000c0ff2f0041
:1017e000008460000800ea00e0979f007f90970067
:1017f0008f9897001f999700af99970009222200b0
:10180000070037000808a300030032003902be00b9
:101810002903be004f0607000884d100e884440075
:101820000800e000f7ff3c001b0037000100e0006b
:101830001d003400c0ff2f0000806000e0979f0073
:10184000000478006000b8000200200003ff2300bd
:1018500009222200070037000808a3000300320015
:101860003902be002903be003a0607000884d100f1
:10187000e88444000800e000f7ff3c000002be00de
:101880000203be007f9097008f9897001f999700e2
:10189000af999700a4060700f0979f00819f9f00d3
:1018a000929f9f00a39f9f00ffb097005109900057
:1018b00060c6b3008ff1970080cf51000400320062
:1018c0006100200060c4b30080cf510002003a00e4
:1018d0006f929700ea00420001074100f30f5700a2
:1018e000010034003e01200000c3b300e0779f00f8
:1018f00075fb2f008f824200b5b79f003300370081
:101900000800be000a01be00dc0507000006be009c
:10191000680757004240a9000e0034000306070084
:101920000002be000203be000800be000a01be00a5
:10193000010607006022b80046782d0077192400c0
:1019400004060700f0979f00819f9f00929f9f00d1
:10195000a39f9f003fb097006804400089002000cb
:101960000d003700a4002000050020000c01be007f
:10197000e0fd2f000f004000ba0207007fa897008b
:101980008fb097001fb19700afb1970004c3b300a9
:10199000046441000006be00e00f5600e08f5e00c8
:1019a000060034008904e900e18f4400edff3a00ad
:1019b0000200370000c3b300006478008904e90026
:1019c000fcff3b0068044400b8b79f000e00e00035
:1019d0000b0034007f9497008f9c97001f9d970009
:1019e000af9d97006022b8006033b8000800be00c9
:1019f0000a01be00d20507000000e000c0ff3c0065
:101a0000c5fa2f008f8242006a804200bfb0970063
:101a1000008050008001e9006f919700e7004100cd
:101a20006b81420000c3b300010037000201e800ef
:101a3000924f1000fdff320074fb2f000f00420098
:101a400080804000828050000080410002025000ef
:101a5000e1979f00ffb29700d509900060c6b300e0
:101a60008ff2970080cf52000300320060c4b300b1
:101a700080cf520002003a008100e8000a003700df
:101a800050c6b3008ff0970080cf500005003200a1
:101a90008000eb0050c4b3008ff2970080cf52005b
:101aa00001003a0011002000018741008e0f520012
:101ab00001003d00040778000e00e0001d00350025
:101ac000840f570005003d00e2407f0095c3b3003e
:101ad00040c3b30080cf500001003c0005c3b300f9
:101ae0000e0041008000e9008e01780001003700ff
:101af0008100e9008301e90011427800854f52001e
:101b0000fbff32000307e80090c3b30080cf520010
:101b100001003a008448e8000300e00005003d00b1
:101b20000201e9000e07e8006f9097000000e8004e
:101b3000e0979f006f9297008e0178008ff09700da
:101b40007fb09700640207004f0778004f06be0081
:101b50004f05be004f04be008f04b1000000060018
:101b60002f03b000889fbe008a9fbe008c9fbe00de
:101b70008e1f780000077800b0d92200c0b79f0000
:101b800080c5b30080cf500008003200a2d82200e8
:101b9000c2b79f007740400080cf500003003a005a
:101ba00083002000b3b79f000a00370080c7b3004e
:101bb00080cf500005003200a4002000b4b79f0081
:101bc00080c5b30080cf500002003a00050120001c
:101bd000b5b79f003e04be002e05be0040c6b30050
:101be00080cf5000030032006540400080cf50009d
:101bf0000b003a00e00f5400e08f5c00e00f5d0046
:101c0000e08f5d0006003d006000b8006011b80084
:101c100008045000898458000a0559008b85590032
:101c2000bfb39700e88f530003003200f08f5300da
:101c300045003a000200370036002000010037005e
:101c400046002000e00f5400e08f5c00e00f5d00d4
:101c5000e08f5d0005003a005e08900081012000e1
:101c6000a1b79f000000e000080032003fb19700dc
:101c70000200e90008006000cfb1970063407800df
:101c800090df9f0074012000a4b79f0086027800b7
:101c90008502e900050033008b05d1000a85d300d9
:101ca0008984d3000884d300f9ff3700089fbe0061
:101cb0000a97be00afb397000700e90021fc2f0090
:101cc0008f804000008240003fb197008202e9000f
:101cd00012003700afb397008703e900a7b79f0052
:101ce00000806200cfb09700615278003e00be00d5
:101cf0002e01be00860378008703e900050033004b
:101d00008381d1000281d3008180d3000080d30081
:101d1000f9ff3700009fbe000297be003e00be00e4
:101d20002e01be00e00f5000e08f5800e00f590078
:101d3000e08f5900d6003400afb397000700e000f1
:101d4000e4ff3c00d2003700ae60900080c6b300d4
:101d500080cf50000b00320006003c000104e00080
:101d6000080032006640500080cf500073003a00f7
:101d700004003700c0c6b30080cf50006f003a00a7
:101d800031003700080178000800e00005003a0043
:101d90005e08900081012000a1b79f000000e000d4
:101da00009003200bfb19700110009000381d8007b
:101db0008000fd004fb297006440780090df9f00e4
:101dc00075012000a5b79f00bfb39700110009005f
:101dd0000781d80080017800afb097000100e900ca
:101de00022fc2f000f014100000241000c003700cf
:101df000bfb29700110009008501d80000017800ea
:101e0000afb397008703e900a7b79f000590b9001b
:101e100000805100cfb097006152780082017800b5
:101e20000300e000030034002fb197000200e0003f
:101e3000efff3c0003007800cf80de000101780056
:101e4000820178003a0037000806be00e00f540017
:101e5000e08f5c0005003a005e08900083012000de
:101e6000a3b79f000000e000090032003fb29700d6
:101e70006121b9000c00be0085050700cfb29700b4
:101e80006540780090df9f0077012000a7b79f0092
:101e90003fb297006121b9000c00be00f0030700bb
:101ea0000006be00afb297000500e90027fc2f0036
:101eb0008f8343008083430097b79f001100370052
:101ec0003fb197006114b9000801be000c00be00cc
:101ed000120307000005be00afb197008301e900bf
:101ee000a3b79f000801be000603070000005600cc
:101ef0001fb29700cfb297006552780094b79f0049
:101f00000a06be00e00f5600e08f5e0003003400ba
:101f1000afb397000700e000e9ff3c004feade00a6
:101f2000cfa2de000c00be0004017800840178001e
:101f3000009fbe000297be0055003700e00f54001e
:101f4000e08f5c00e00f5d00e08f5d0005003a006f
:101f50005e08900081012000a1b79f000000e00012
:101f60000d0032003fb1970002027800cfa2de00e0
:101f700005037800860378000800be000a01be0051
:101f8000c70507004fb297006440780090df9f00bc
:101f900075012000a5b79f003fb1970002027800ad
:101fa000cfa2de0005037800860378000800be009b
:101fb0000a01be00b3050700009fbe000297be00e5
:101fc000afb197000300e90024fc2f000f0242008c
:101fd0000006420020003700bfb2970005047800d9
:101fe000cfc4de00090578008a0578000802be002b
:101ff0000a03be005fa89700efa897007fa997008b
:102000008fb19700aa050700d0b79f00e1b79f00e6
:10201000f2b79f0083bf9f00afb397008703e9002b
:10202000a7b79f000802be000a03be0026060700ed
:102030005faa970000005200cfb297006556780063
:102040005fb09700efb097007fb197008fb997000e
:10205000009fbe000297be003e00be002e01be00e3
:10206000d0af9f00e1af9f00f2af9f0083b79f000a
:10207000e00f5000e08f5800e00f5900e08f59004a
:1020800003003400afb097000100e000d2ff3c0035
:102090003fb19700e80f510013003a000e10900076
:1020a0000038a30010003200afb19700f78f510045
:1020b00006003e0024fc2f000f0242008300420075
:1020c00000c3b300914f100007003200afb2970079
:1020d0008502e900a5b79f0000c3b30027fc2f00cd
:1020e0008f83430080f37a00afb1970078811100ad
:1020f000120f98006e00900024fc2f000f02420087
:102100008300420058f907001e0990005e08900005
:10211000800f510006003d0002005000000f9800a3
:102120000e1090000040a100001798000f0037002b
:102130000000e0000d003d000e10900074006000f3
:10214000f00f500009003a007e089000fe00900059
:10215000010050008e089000010050000200500065
:102160004240a90001003400000f98004f0778009a
:102170004f06be004f05be004f04be002f03b10046
:102180000000060080007800010037000000e80031
:102190001004e000fdff3a000100500000000600be
:1021a0008001eb00040037008301e80090cf1000ad
:1021b000040032000000e800828f5100faff3a006c
:1021c0000000eb0000000600889fbe00800478003d
:1021d0006684400000ff2700180060004401de0014
:1021e000f07f2000800f51000e003a00800ceb00c1
:1021f000180478006f0064001c003a002100900071
:102200000000e00019003a00110090000000e0001a
:1022100016003a00100020001100e0001400320007
:10222000120037000200e00005003c0001007800c9
:10223000dd010700000178000000e00008003c001c
:10224000f00028001800600001fe2300010c70005f
:1022500020c02f00800c41000080eb0004003700fc
:10226000800ceb000000eb00010037002000200094
:102270004f04be0000000600889fbe008a1f780041
:102280008c9fbe00000478000206be00e6044000f9
:10229000190178000200d0004505de008a007800b0
:1022a000f07f2000800f55000c003a006f006100a5
:1022b00067003a00280090000000e00064003a0047
:1022c000180090000000e00061003a0010002000bb
:1022d0001800e0005f0032005d0037000a00e000f7
:1022e00007003a0008007800af010700800078007e
:1022f0000000e000020034000a00780055003700ba
:102300006108b9000c0140008d814800e07f200089
:10231000800f5100e08f59000d0034001900e000db
:1023200004003d006000b8000200200003ff2f0001
:10233000030037006000b8000200200003ff270000
:10234000009cbe000294be00100020004100370037
:10235000e00f5100e08f590005003400f000280024
:1023600019006000c410dd00810c700036003700d9
:102370001900780001002800010360006f00600070
:102380000040a000800c780061015100e0815900fc
:10239000c0fc2f00f1ff2f00800f5100818f5900ea
:1023a00006003d00860c78000000eb002004980039
:1023b00010049800000c7800260037000200780016
:1023c0000881e800e400440005003700120c7800a2
:1023d0001109780099087800800ceb00700040002b
:1023e000f00f4000f9ff34008002ea0015003200cf
:1023f0008881e80070821200980078008508de006d
:10240000130078000400dd00008c700064014400bb
:10241000930078008508de00120078000400dd00db
:1024200080897000920078008508de00190078002d
:102430000400dd0000897000190078000500de004e
:10244000800c7800990c73000080eb0001003700cd
:10245000200020004f06be004f0578004f04be004c
:10246000000006000400fa00889fbe008a9fbe009c
:102470008c1f78000006780092bf9f00a3bf9f00ca
:102480000404be000401be001fb89700afb8970057
:10249000a20107000005be000001be000800be004a
:1024a000980107001fb99700afb9970000005100cd
:1024b0008180590020069800310698000a8ebe00df
:1024c0000c0078004f0678004f05be004f04be0098
:1024d0000080fa00000006000e00fa00889fbe008f
:1024e0008a9fbe008c9fbe000004780001457800e2
:1024f0000206780083047800840678000300e00078
:1025000002003c0019002000ec7f270060c6b300e9
:10251000804f55000e00320060c4b300804f55005c
:102520000b00320070c6b300804f5500030032002c
:1025300070c4b300804f55009c003a00e48f460001
:102540008000350058089000808f56007d003d00c7
:102550008d05e80060c6b300804f550010003200c2
:1025600060c4b300804f55000d0032000810900089
:102570000038a30004003a0058089000808f5400ef
:1025800001003d00590c9800580890000b005000c5
:10259000500c980002003b000000eb00500c98002b
:1025a0000b00e00027003c00180990006800900034
:1025b00001c3b300017079008201e800130c980098
:1025c000580890000000e00003003c000810900054
:1025d0000038a3000500320068009000e1c2b3009b
:1025e00001f079000280e800100c9800d8089000f3
:1025f0000b00ea00808f500001003d008105ea00d9
:102600000b00ea00200c980001804500500c980057
:10261000890f500001003d0080047800390c9800bb
:1026200068009000980890000100400009017800bf
:102630008c0078000cf80700580890000900500042
:102640001a00370098089000680090008b8f5400a3
:1026500018003d0001004000090178008c0078005e
:1026600001f807001808900000814400120c98003f
:1026700009805500200c9800580890000000e000e8
:1026800003003c00081090000038a3000600320050
:10269000e8009000e0c2b300807079003808900034
:1026a0000000e800300c980058089000400c98009a
:1026b000a6003700010040000b0178008c00780074
:1026c000e9f707001808900000814500120c9800f7
:1026d0008b845400580890000000e00003003c0088
:1026e000081090000038a300050032006800900038
:1026f000e1c2b300017079000200e800100c9800fc
:1027000058089000890f500001003d0080047800b7
:102710006800900098089000010040008b0046007f
:1027200009017800d0f707001808900000804400e5
:10273000100c98005808900009005000200c9800d8
:102740008200370070c6b300804f5500030032008e
:1027500070c4b300804f550014003a005808900030
:10276000808f540004003d00081090000038a30042
:1027700001003a00590c9800580890000000e90048
:10278000500c980002003b000000eb00500c980039
:1027900070c6b300804f550002003a005ac6b3001d
:1027a0000b0037005ac4b3000900370010c6b3004d
:1027b000804f550002003a000ac7b30004003700fa
:1027c00010c4b300804f550001003a000ac5b300a1
:1027d00018099000680090003c7079008201e800c0
:1027e000130c98000c027800580890000000e000dc
:1027f00003003c00081090000038a30017003200ce
:10280000e8009000e0c2b30080f079008280e80028
:10281000110c9800580890000000e0000f003400f0
:102820008904e900890f500001003d008004780010
:102830006800900000804000090178008400780062
:1028400089f707001808900000804400100c9800d9
:102850005808900009005000200c98006800900073
:1028600098089000010040000086e8000a587800af
:10287000800078000d00e00004003500b0c2b30015
:10288000804878008c04780004003700d0c2b30080
:10289000804878008c0478008d06ea008005eb0003
:1028a0000a003700a20020008d00780070805700d9
:1028b000890007000fb897009fb897007a815500ec
:1028c00001f17f008b05e800800678000d00e00034
:1028d000f4ff3c00e18f550009003c0050c6b300f6
:1028e000804f55000300320050c4b300804f5500a4
:1028f00003003a0000c3b300005e78008c04780047
:102900000b00e000040032000b00e900fa805700e1
:10291000008040000600370000c3b300805c7800f0
:10292000050037008b05e90002c3b300a05c41003d
:102930000b00e000fbff3c0068009000980890004e
:102940000100400000805400300c980008109000f6
:1029500074006000f00f50000e003a007800900004
:102960009808900001004000a80890000100400075
:10297000b808900001004000c808900081004000a5
:1029800078089000808f500002003d000100500048
:10299000000c98004f06be004f05be004f04be005d
:1029a0000080fa000000060000017800e601400007
:1029b0001300780001002800810360006f006000b0
:1029c0008009780012003a00220090000000e00028
:1029d0000f003a00120090000000e0000c003a00e6
:1029e000160020001200e000380032000800370016
:1029f000e4004100910978000280e8009008780026
:102a0000120878000009eb00700353000100370042
:102a1000160020001300e000f5ff3200e402410040
:102a20000282e800110037008000400015007800a5
:102a30004f00de00808970009500780081804000a2
:102a4000140078004f00de00808a70009400780047
:102a500081804000120078004f00de00008a700084
:102a600012007800000940000603e9001300780016
:102a7000ef0f5000ecff36008282e8006402410054
:102a80000e0037009200d100150078004f00dd00e5
:102a9000008970009500d100140078004f00dd001f
:102aa000808a70009400d100130078004f00dd0090
:102ab000008a70009309d1000603e8001300780033
:102ac000ff0f5000efff3e00ef0960009389730095
:102ad000060078000000060002027800809fbe0019
:102ae000110009008200d800000178004f00be00ec
:102af00002a2b900848050001100980002087800fa
:102b000000000600020ab900001bb9000200b8006c
:102b1000810042008100430000000600839f68009e
:102b20000100e00002003d0060001000e08018009d
:102b30000300e00002003d0060011100e081190087
:102b4000c70007004f00e00002003b0060001000db
:102b5000e080180000000600889fbe008a9fbe002b
:102b6000010578000100e0000400350008003c0089
:102b70000000e00020003200050037006000100077
:102b8000e080180002003b0001f02c001a00370022
:102b90000004be006011b8006b0920000982cf005c
:102ba000020039000882cf000441b000694252009f
:102bb0000e00320008003b00828171006101640058
:102bc0008904d1000884d3008b05e8000442e800a2
:102bd000f9ff3a00050037000804440089844c00de
:102be0008b05e9000442e900fbff3a00ac00070056
:102bf0000af0a70001f0a0004f05be004f04be0080
:102c000000000600889fbe008a9fbe008c1f7800cf
:102c1000c9000700d000330003866c006450e10057
:102c2000240032006420e100270032006150e100fe
:102c3000220032006120e100210032008b85420039
:102c4000eb07b1000134b800003ab80008044200b4
:102c500089844a00013ab8000030b80088804000fa
:102c600009014a0004003300000040008180480050
:102c7000020149008b05e900c909dd0083017000ec
:102c80000100320013002000c814de004814dd00eb
:102c90004709de001200b200c808de000884700098
:102ca0007f00070001f0a1000cf0a70001f0a000d8
:102cb000b20037006120e100b40032000801be001c
:102cc0000200be00f7ff37006150e100fcff3a0050
:102cd000ae0037000001be00af0007000470a7007f
:102ce00003f0a1006509b100160032000d003500a7
:102cf0006828e10006003500f0ff2f00f1ff2700f3
:102d00000300e00013003b00010028000000050064
:102d100000004000818048008502e900fcff3a0085
:102d200008003700f88f420002003c008000eb00f2
:102d3000000005008100d1000080d3008502e8007a
:102d4000fcff3a000300e00002003b0060001000be
:102d5000e080180000000600889fbe008a9fbe0029
:102d60008c1f7800740007007b00330003866c0022
:102d70006450e1002e0032006420e1003300320094
:102d80006150e1002f0032006120e100310032008b
:102d900085855500eb07b0000900200008042000dd
:102da000050037000804440089844c000a00310003
:102db0000603430087834b000001530081815b00c1
:102dc000f8ff33000203be000800a000080444001e
:102dd00089844c00f6ff3900c639dd008301730099
:102de00001003200130020008904d1000884d300c0
:102df0000998a300050032000800a7000300a00006
:102e00008904d1000884d3008b05e8008904d1002f
:102e10000884d3000001eb000281d20020000700eb
:102e200001f0a1000cf0a70001f0a0005300370052
:102e30006420e100550032000801be000200be001f
:102e4000f7ff37006120e100500032006000b80059
:102e5000f3ff37000000200001f82700f0ff3700e3
:102e60006022b800060220000000d0008180d2005d
:102e70000482d2008582d2000000a000020252002b
:102e800083825a00030031000202420083824a001a
:102e90000000a1000603e900f3ff3a00000006006d
:102ea00081002000618055000b003d000b002000d8
:102eb00061fe2f000100e1001d00340082817100dd
:102ec000610164008904d1000884d3000000e80097
:102ed000faff3a00710020006100640003007000f6
:102ee000020060000900320061044400e0844c00ec
:102ef0000988a500050032008b05e8006808e1009c
:102f000002003a008904d1000884d300f20f2000a7
:102f10000258e10005003d00c75ddd00f907b20081
:102f20008980750008007800000006000bf8270073
:102f30008b007800000005000004be0016000700aa
:102f40000003be000405be000200be001200070020
:102f5000844f7500000006000200be006450e100ce
:102f6000050036006420e100020036000968a30075
:102f700001003a000800be000160a0004f06780082
:102f80004f05be004f04be0000000600f0ff2f00fa
:102f9000f1ff2700f9ff3700c70ade00f107b20092
:102fa000f50fb20008003200e1cf4200020032000b
:102fb0000170a00024000500810f700001003200a4
:102fc0000408050044000500810f700002003a006b
:102fd000140005008502e9000000400081c048009f
:102fe000fcff3b000170a000240005008103780075
:102ff000e9ff07000001be006000b8000478a300ec
:1030000013003a006220e10015003e000d00390077
:103010008301d1000281d3008180d3008301d100dc
:103020000281d3008180d3008301d1000281d300cb
:103030008180d3000538b000c42add00f300b2005f
:103040008381720007f0a70003f0a00000000600d3
:10305000f3ff2700f2ff2f006110b900fbff3700dc
:1030600003ff2700f7ff37008f1fd100440207003e
:103070008f87e9000000e000000006001400fa005d
:10308000889fbe008a9fbe008c9fbe000004be00c9
:103090000205be00680047000a90be000890be000e
:1030a000600207000070a7000bf0a1003043200071
:1030b0009e02900080825200b0fe2f000028e100a6
:1030c00011003d00b0fc2f000028e1001500340085
:1030d0001e0990008e0890007e0090000501b0004f
:1030e0000201d1008180d3000080d3008502e80076
:1030f000fbff3a000b00e00085023b00600010007f
:10310000e080180082023700f0ff2f00f1ff270057
:103110000b00e0007e023b000100280000002000c0
:103120007b0237006000b800790237004f89de006b
:10313000820178007b02370007f0a200b00237005e
:10314000809feb000e0207008f87e9000000e0007f
:10315000000006002800fa00889fbe008a9fbe007b
:103160008c9fbe0003866b00550207000028a30059
:1031700064003a000128a30067003a000008a30099
:1031800062003a000108a30065003a001e009000aa
:10319000be08900081064000ed3fb100f48057006a
:1031a000ee019000111ab8008e099000311bb80092
:1031b0009e099000311cb800511db800f4855700dd
:1031c00046000700fe0190003a0007008b85e800ea
:1031d0003e0007008e09900040000700ee019000bd
:1031e000340007008b85e800380007008e09900046
:1031f000400007009e0990001b18b8008904400099
:103200000a854800fe019000340007008b85e80025
:1032100038000700ee019000300007008e09900092
:103220001b18b800890440000a8548000a98a300ca
:1032300008003a000402420085824a0006034b005f
:1032400087834b0008044c0089844c000a054d001c
:103250008d06e90084827200850273004c3add001d
:10326000850272000100320015002000443ade00a1
:103270001400b2004538de00cb45dd000b007000c5
:10328000c540de00cb4ddd008b8070004549de007f
:10329000cb55dd000b017100c551de000d03780038
:1032a000d402070003f0a1000cf0a70003f0a00077
:1032b000170237001b18b80085024000068348003b
:1032c000e0834b0060044c00070037001b18b80077
:1032d0000603400087834800faff37001b18b80038
:1032e0008703400008844800e0844c0060054d00de
:1032f000000006001b18b80008044000898448003c
:10330000faff37000108a300fe013a005800be0092
:103310005801be00e3ff37000008a300f9013a009e
:1033200009047800f9ff37002800fa00889fbe00e2
:103330008a9fbe008c9fbe0003866b00e0010700e1
:103340006400e100440032006408e1004a003200f9
:103350006100e100460032006108e10049003200ee
:10336000ec0647006000b8003d02be003d03be0011
:10337000f48657006011b8003d04be003d05be0054
:103380007d0320000b0037000000a0008d06e9003f
:10339000130032000402420085824a0006034b00fb
:1033a00087834b00000040008180480002014900f3
:1033b000838149000802520089825a000a035b0097
:1033c0008b835b00f0ff3b000802420089824a00c9
:1033d0000a034b008b834b008d06e900edff3a009a
:1033e0008482720086827200f707b20087827200c0
:1033f00001003200150020001e0490003e0b9000da
:1034000006035400e63fb0000368a3000700320043
:103410000000a7000500a0008301d1000281d300b5
:103420008180d3000080d3000603e8008301d1002f
:103430000281d3008180d3000080d3000002eb0022
:103440000482d2006b02070003f0a1000cf0a70079
:1034500003f0a000ae013700640247006408e100f9
:10346000a80132003400be003401be00f6ff370070
:103470006108e100a30132006011b8006000b800eb
:10348000f1ff370003ff270002002000fbff370099
:1034900073fe07000400be0000000600881f7800cd
:1034a000000478005001be004000be00040040004f
:1034b000858048000601490087814900009cbe00c4
:1034c0000294be000400e1000588e1000690e100de
:1034d0000798e10002003100680044001008e8008d
:1034e0004f04780000000600f4874700889fbe0064
:1034f0008a9fbe008c9fbe008e1f78000205be0012
:103500000004be00d4b79f00e5b79f00f6b79f0048
:1035100087bf9f000000eb00c0b79f00b0b79f00bf
:10352000a0b79f0090b79f0080b79f000d042000b8
:10353000bfb097004fb09700000140000000e000ce
:103540000f003d004f08de0000007100c0b79f0073
:103550009e00070001003d0012002000a1000700ae
:1035600001003d0012002000a6000700b100070086
:10357000b60007000f004000c8ff07002200370018
:103580004f08de0000067100ccb79f008f000700d7
:1035900001003d00120020009200070001003d00e4
:1035a0001200200097000700a20007000fb297004a
:1035b0009fb297002fb39700bfb39700a9000700f1
:1035c0000000520081805a0002015b0083815b0091
:1035d00080b79f0091b79f00a2b79f00b3b79f002d
:1035e0000007eb009f0007000020e10001a8e100b8
:1035f00002b0e10003b8e100010031001e0020002c
:103600000e005600c0b79f004fb297000400e000c4
:103610000700350010002000010020006011b800f4
:1036200008047000898470000a0571008b857100a0
:103630008d06e900beff3a000400e00003003d00f3
:10364000820007000f00400094ff07004fa897007a
:103650000000e00004003a000fb497009fb4970008
:103660002fb59700bfb59700940007004f0778006b
:103670004f06be004f05be004f04be004f01b10013
:1036800000000600881f780018002000881f7800be
:1036900095ff07008f87e9004f04780000000600bf
:1036a000801feb0090ff07008f87e90000000600f5
:1036b000889fbe008a9fbe008c1f78006e000700a6
:1036c00007003d0073000700e00f5b00e08f5b0028
:1036d00007003d00320007000006eb000400370041
:1036e0003400070002003d002a0007001c002000f3
:1036f00072000700e3ff07000203be000002be00e5
:103700000c00e00001003200220007000400be00af
:103710000601be004f0678004f05be004f04be00f4
:1037200000000600889fbe008a9fbe008c1f7800a4
:103730005100070005003d0056000700e00f5b0048
:10374000e08f5b0006003d00040037001900070011
:1037500003003d006000b8006011b80010000700d1
:1037600056000700ceff07000203be000002be00a5
:103770000c00e00001003200060007000400be005b
:103780000601be004f0678004f05be004f04be0084
:10379000000006006000b8006011b80000003700ab
:1037a000040250008582580006035900878359009f
:1037b000000006000006eb00e00f5200e08f5a0008
:1037c000e00f5b00e08f5b0000000600018040001e
:1037d00090b79f000001eb008fb097000100e00060
:1037e000000006000200700090b79f0001804000ba
:1037f00080b79f000001eb00ffa897000100e000e8
:10380000000006000200700080b79f0001804000a9
:103810006faa9700cf20de0001007000f0af9f007c
:1038200004024200250007004f18de00000272006b
:1038300000000600e4af9f000804440089844c00a7
:103840000a054d008b854d00000006003fb2970031
:10385000cfb297005fb39700efb3970000fe2f0041
:10386000000006003fb09700cfb097005fb197000f
:10387000efb19700000006000205be000004be0084
:10388000e00f5000e08f5800e00f5900e08f590022
:10389000000006006000b8006011b8000804500085
:1038a000898458000a0559008b8559001c002000a6
:1038b000e00f5200e08f5a00000006000800be0032
:1038c0000a01be0000000600889fbe008a9fbe005d
:1038d0008c1f78000205be000004be000006eb004d
:1038e000e00f5000e08f5800e00f5900e08f5900c2
:1038f00007003d006000b8006011b80008045000e7
:10390000898458000a0559008b8559001c00200045
:10391000e00f5200e08f5a00e00f5b00e08f5b0089
:1039200002003d000f0007000c00a2000800be00ce
:103930000a01be005b0107000203be000002be00d8
:103940000c00e00001003200060007000400be0089
:103950000601be004f0678004f05be004f04be00b2
:10396000000006006000b8006011b80004025000ba
:10397000858258000603590087835900000006001d
:10398000889fbe008a9fbe008c9fbe000404be00bc
:103990000605be00809fbe00829fbe006301070037
:1039a000040678000800be000a01be005f0107009f
:1039b000840678004f03be004f02be008d4f760094
:1039c0007fb0970013003300f0ff2f008b8f6b0048
:1039d00006003b000d0666000c00a7000a00370039
:1039e00007f0a600100020000a003700880f5200e0
:1039f000898f5a008a0f5b008b8f5b0003003900b0
:103a00001000200001003e000000200007f0a70089
:103a10000000ea004f06be004f05be004f04be0086
:103a200000000600800078005002be005003be0077
:103a30004439de00f700b200f37f2000030161008b
:103a4000090032000218e10016003a0085017200f8
:103a500083017300838173000008200015003a0081
:103a600040002000130037008501720083017300bd
:103a70008381730005003a0004a8be0006a8be00ba
:103a8000100020000b0037000201e9000402420090
:103a900085824a0006034b0087834b000748a3003a
:103aa000f9ff32000740a00004a8be0006a8be002f
:103ab000200020008000980092009800000006007e
:103ac000680447000294be000094be00fc04470056
:103ad0008694be008494be0009007800d1ff0700e0
:103ae00008007800cfff070099007800814f700030
:103af0000b003b000800be001e0107004f00b10094
:103b000003003700f3ff2700f2ff2f006110b90018
:103b10004f06be004f05be004f04be000080fa00f5
:103b200000000600889fbe00830478000300e000c8
:103b30002c00350003003c0000827000040271007c
:103b40002600320036432000c50020008383cf00ca
:103b50000a0039000541b1008283cf000700390017
:103b60000541b1008183cf00040039000541b10057
:103b70008083cf00010039000541b10085c35300a7
:103b80006022b800120032000a003b0084827200fa
:103b9000610260008301d1000281d3008180d300e3
:103ba0000080d3000603e8008743e800f7ff3a00ef
:103bb00007003700000040008180480002014900f2
:103bc000838149000603e9008743e900f9ff3a00d1
:103bd0008800070009f0a70003f0a0004f04be0012
:103be0000000060060001000e0801800600119006d
:103bf000e0811900d3ff3b00033e2c00f7ff3700a4
:103c00002800fa00889fbe008a9fbe008c9fbe00dd
:103c100007067800878669000c003b0003047800e3
:103c20008704780008f0a10009f0a100840f50007b
:103c3000858f5800860f5900890f5c000300330000
:103c40000cf0a20001003a000cf0a1009cff07005c
:103c50006400e1005f003200780147006408e10081
:103c6000610032006c014700748557003200be00cd
:103c70001201be003a04be001a05be001e039000e9
:103c8000be0a90008503530006003d000004fd00bd
:103c90008104fd000205fd008305fd008703ea00a5
:103ca000050378000df8a30004003200600414003e
:103cb000e0841c0060051d00e0851d006022b80046
:103cc0007d0320000d38e1008006eb000b00390079
:103cd0004433dd00f300b200830173003900370084
:103ce000848272000d027800e10664008b85d100a9
:103cf0000a85d3008984d3000884d3008703e900b0
:103d0000f7ff3b0008004000898048000a01490095
:103d10008b81490004003b0060001000e080180027
:103d200060011900e08119000358a3000900320066
:103d30008d82720084827200610260008301d10072
:103d40000281d3008180d3000080d3000603e80005
:103d50001b0037000348a30017003a000600e000ec
:103d6000170034000603e9000d00a300000048001e
:103d70008180480002014900838149000348a30073
:103d80000f003a000600e000090034000603e900d5
:103d90000000400081804800020149008381490001
:103da00001003a000003eb000348a300f5ff3200d6
:103db0006022b800020037008482720061826600cf
:103dc0000c00070003f0a1000cf0a70003f0a00016
:103dd0004fff3700640147006408e10002003a0029
:103de0000df8a30047ff3a003200be001201be00ea
:103df00047ff370018002000570020000804530038
:103e00000d003d000600200097fc2f000740e10058
:103e10001e00340084827200610260008301d100c0
:103e20000281d3008180d3000080d3000804e80021
:103e3000f8ff3a00470020006104600005047400a8
:103e4000040464000d00320061004000e08048007e
:103e500060014900e081490003b8a5000700320075
:103e60000603e8006538e10004003a008301d10050
:103e70000281d3008180d3000080d300f87f20002e
:103e80000830e10003003500080378006000b80046
:103e90006011b8004433dd00f300b2008301730009
:103ea00000000600889fbe008a9fbe008c9fbe0057
:103eb0000404b8000506b8008904460060854e0079
:103ec0000606b8000a054600e0854e000706b80061
:103ed0008b054600040eb800890446000a854e0092
:103ee000e0854d00050eb8000a0546008b854e00a2
:103ef000060eb8008b0546000416b8000a054600f9
:103f00008b854e000516b8008b054600041eb800d0
:103f10008b0546000800be000a01be004f06be0029
:103f20004f05be004f04be000000060005ff27003d
:103f300005826100070032000428e1000100320020
:103f4000240005000600070001003a0044000500b7
:103f50000408050002000700f9ff3a0014000500fc
:103f60006f8261008102700085027100850272001b
:103f700000000600e48240001078a3000700320031
:103f8000640240001178a3003400be001401be009a
:103f9000040032000330a700000006003500be0018
:103fa0001501be000330a000000006004400f80028
:103fb000040f2000240288000000e9001201c30061
:103fc000008008000200000031027800b202780090
:103fd0001201c0000000cd004400f90000000600fe
:103fe0004400f800040f2000240288000102780039
:103ff0000000e9000080080004000000b202780020
:104000000500ca00b30278000500c9003100cc00e9
:10401000040078004400f900000006004400f800a5
:10402000040f200024028800811f78000000e900ae
:10403000030278000080080002000000b20278004d
:104040001301c0003100cd004f0078004400f9009a
:1040500000000600889fbe008a9fbe008c9fbe00a5
:104060004400f8000d0f20002d0288008306780020
:104070000106e9008205e90081804000020141005b
:104080000000e90010003500050578000b800800ed
:104090000a000000040478008a0478001201c300ba
:1040a0000c800800030000003803780099037800b2
:1040b0001201c600828444003300cd000a85e80066
:1040c00001024200eeff37000d0078004400f900c5
:1040d0004f06be004f05be004f04be0000000600a4
:1040e0000100b8000000e9004400f800010f2000c2
:1040f000210288008200780000800800040000008f
:10410000b30278000500ca00b40278000500c900b7
:104110003200cc00010078004400f90000000600e5
:104120004400f800020f2000220288000000e9008d
:104130001201c30000800800010000003102780075
:104140001001f0000000cd004400f900000006005e
:020000040000fa
:0200000401f009
:04000000ffff0000fe
:020000040000fa
:0200000401f009
:04000400ffff0000fa
:020000040000fa
:0200000401f009
:04000800ffff0000f6
:020000040000fa
:0200000401f009
:04000c0078ff000079
:020000040000fa
:0200000401f009
:040010007cff000071
:020000040000fa
:0200000401f009
:040014007fff00006a
:020000040000fa
:0200000401f009
:04001800fdff0000e8
:020000040000fa
:0200000401f009
:04001c00deff000003
:020000040000fa
:0200000401f009
:04002000ffff0000de
:020000040000fa
:0200000401f009
:04002400ffff0000da
:020000040000fa
:0200000401f009
:04002800ffff0000d6
:020000040000fa
:0200000401f009
:04002c00ffff0000d2
:020000040000fa
:10000800747a0000747a0000747a0000747a000030
:10001800747a0000747a0000747a0000747a000020
:10002800747a0000804100002a2f0000aa8700008f
:10003800d6610000b4410000582f00006e41000056
:10004800c62c0000747a0000747a00009a690000d7
:10005800b46a0000747a0000747a0000747a0000b0
:10006800747a0000747a0000747a0000747a0000d0
:1000780048530000d6620000cc4200000443000050
:10008800747a0000862f0000b42f00004488000016
:100098002488000032560000826b0000826c000049
:1000a800747a0000747a0000747a0000747a000090
:1000b800747a0000ec410000244200005c42000019
:1000c80094420000e22f0000103000003e30000093
:1000d8006c300000747a0000747a0000747a0000b2
:1000e800747a0000747a00003a440000747a0000c0
:1000f800747a0000747a0000747a0000747a000040
:10010800747a0000747a0000747a0000747a00002f
:10011800747a0000747a0000747a0000747a00001f
:10012800747a0000747a0000747a0000747a00000f
:10013800747a0000747a0000747a0000747a0000ff
:10014800747a0000747a0000747a0000747a0000ef
:10015800747a0000747a0000747a0000747a0000df
:10016800747a0000747a0000747a0000747a0000cf
:10017800747a0000747a0000747a0000747a0000bf
:10018800747a0000747a0000747a0000747a0000af
:10019800747a0000747a0000747a0000747a00009f
:1001a800747a0000747a0000747a0000747a00008f
:1001b800747a0000747a0000747a0000747a00007f
:1001c800747a0000747a0000747a0000747a00006f
:1001d800747a0000747a0000747a0000747a00005f
:1001e800747a0000747a0000747a0000747a00004f
:0801f800747a0000747a000023
:020000040000fa
:10020800747a0000747a0000747a0000747a00002e
:10021800747a0000747a0000747a0000747a00001e
:10022800747a0000804100002a2f0000aa8700008d
:10023800d6610000b4410000582f00006e41000054
:10024800c62c0000747a0000747a00009a690000d5
:10025800b46a0000747a0000747a0000747a0000ae
:10026800747a0000747a0000747a0000747a0000ce
:1002780048530000d6620000cc420000044300004e
:10028800747a0000862f0000b42f00004488000014
:100298002488000032560000826b0000826c000047
:1002a800747a0000747a0000747a0000747a00008e
:1002b800747a0000ec410000244200005c42000017
:1002c80094420000e22f0000103000003e30000091
:1002d8006c300000747a0000747a0000747a0000b0
:1002e800747a0000747a00003a440000747a0000be
:1002f800747a0000747a0000747a0000747a00003e
:10030800747a0000747a0000747a0000747a00002d
:10031800747a0000747a0000747a0000747a00001d
:10032800747a0000747a0000747a0000747a00000d
:10033800747a0000747a0000747a0000747a0000fd
:10034800747a0000747a0000747a0000747a0000ed
:10035800747a0000747a0000747a0000747a0000dd
:10036800747a0000747a0000747a0000747a0000cd
:10037800747a0000747a0000747a0000747a0000bd
:10038800747a0000747a0000747a0000747a0000ad
:10039800747a0000747a0000747a0000747a00009d
:1003a800747a0000747a0000747a0000747a00008d
:1003b800747a0000747a0000747a0000747a00007d
:1003c800747a0000747a0000747a0000747a00006d
:1003d800747a0000747a0000747a0000747a00005d
:1003e800747a0000747a0000747a0000747a00004d
:0803f800747a0000747a000021
:020000040000fa
:1041500046310000313a0000574900004e4400004b
:104160005f450000535400003d250000693a0000ff
:1041700047500000535f00005459000050450000b4
:104180003d250000693a0000445200003d25000032
:10419000693a0000424f000041520000445f0000b5
:1041a00054590000504500003d250000693a0000c8
:1041b0004149000052460000524100004d450000b8
:1041c0003d250000693a0000524300004f4e0000b8
:1041d0003d250000693a00000d0a0000004600007d
:1041e000343a0000525f0000535400004142000086
:1041f0005f4100003d250000693a0000525f000069
:1042000053540000414200005f520000443d000052
:10421000256900003a5000005f530000544100003f
:10422000423d0000256900003a5900005f5300003c
:1042300054410000425f0000523d0000256900002b
:104240003a5900005f53000054410000425f0000f3
:10425000413d0000256900003a410000494c000042
:104260005f4e0000415600003d250000693a000005
:1042700052550000445f00004e410000563d0000d2
:10428000256900003a410000485f000053540000d7
:10429000414200003d250000693a0000414800000d
:1042a0005f570000503d0000256900003a520000b1
:1042b00041430000453d0000256900003a0d000023
:1042c0000a000000463500003a590000415700003e
:1042d0004b5000005f4100003d250000352e0000de
:1042e000336600003a590000415700004b4400007b
:1042f0005f4100003d250000352e000033660000c0
:104300003a5200004f4c00004c4b0000503d000062
:10431000253500002e330000663a0000524f0000a1
:104320004c4c00004b4400003d250000352e0000a1
:10433000336600003a4100005f4200004f4f00002a
:10434000535400003d250000332e0000316600006c
:104350003a0d00000a000000463600003a50000006
:104360005f470000414900004e3d00002535000038
:104370002e330000663a0000505f00004b440000fe
:104380003d250000352e0000336600003a52000043
:10439000554400005f4500005f4d00004958000093
:1043a0003d250000352e0000336600003a52000023
:1043b0004f4c00005f4500005f4d00004958000071
:1043c0003d250000352e0000336600003a45000010
:1043d0005f4200004f4f0000535400003d25000095
:1043e000332e0000316600003a0d00000a00000084
:1043f000463700003a5900005f4b0000505f000054
:10440000523d0000253500002e340000663a0000c1
:10441000595f00004b4400005f5200003d25000042
:10442000352e0000336600003a5200004c4b00006d
:10443000505f000052550000443d0000253500004b
:104440002e330000663a000052550000445f000021
:10445000424f00004f530000543d0000253500003e
:104460002e330000663a0000525400004c5f0000fa
:104470005049000054430000485f0000444e0000d3
:104480003d250000352e0000336600003a0d000087
:104490000a000000463800003a4800005f4d000066
:1044a000415800003d250000362e00003166000016
:1044b0003a4800005f4d0000494e00003d250000d5
:1044c000362e0000316600003a4d0000494e0000d3
:1044d0005f540000485200003d250000332e0000cc
:1044e000326600003a4d0000415800005f54000061
:1044f000485200003d250000332e000032660000c7
:104500003a50000049540000434800005f4d00004d
:10451000494e00005f540000485200003d25000055
:10452000342e0000316600003a500000495400006b
:10453000434800005f4d0000415800005f540000f8
:10454000485200003d250000342e00003166000076
:104550003a50000049540000434800005f5a0000f0
:10456000455200004f5f000054480000523d0000db
:10457000253400002e310000663a00000d0a0000cc
:1045800000460000323a0000542500006c6900002b
:104590003a530000256400002564000025640000f3
:1045a0003a4e0000256c0000693a000045250000e5
:1045b0006c6900003a410000256c0000693a000077
:1045c00057250000693a000061250000693a0000a3
:1045d00062250000693a000063250000693a000086
:1045e00064250000693a000065250000693a000072
:1045f00066250000693a000067250000693a00005e
:1046000068250000693a000069250000693a000049
:1046100063250000753a000073250000693a000028
:104620006370000075250000753a0000626d00009f
:1046300076250000693a00006173000025690000da
:104640003a77000076780000256900003a7700008c
:1046500076790000256900003a770000767a00003c
:10466000256900003a6d000061250000693a0000ec
:104670006d620000256900003a6d000063250000ae
:10468000693a00007376000073250000693a000063
:1046900068640000256900003a00000070250000f1
:1046a00069690000256900003a00000070250000db
:1046b000696f0000256900003a000000696d000084
:1046c00078250000693a0000696d00007925000036
:1046d000693a0000696d00007a250000693a00001f
:1046e0006667000073250000583a0000000d0000c6
:1046f0000a00000046310000333a000077650000f0
:10470000656b0000256900003a6f000072690000c7
:10471000674e0000256c0000693a00006f720000cf
:1047200069670000452500006c6900003a6f0000d1
:104730007269000067410000256c0000693a0000c2
:104740000d0a000000000000245000005352000039
:1047500046310000303000002c3000002c310000c9
:1047600039320000303000002c3800002c310000bd
:104770002c3000002a330000390d00000a00000030
:104780000900000086000000004b00000008000047
:104790000100000000000000590d0000580d00004d
:1047a000570d0000560d00005d0d00005c0d00006f
:1047b0005b0d00005a0d0000610d0000600d00004f
:1047c0005f0d00005e0d0000630d0000620d000033
:1047d000650d0000640d0000670d0000660d00000f
:1047e000680d0000540d0000690d0000540d00001c
:1047f000540d0000540d0000540d0000540d000035
:10480000540d00006a0d0000540d0000540d00000e
:10481000540d0000540d0000540d0000540d000014
:10482000540d0000540d0000540d0000540d000004
:10483000540d0000540d0000540d0000540d0000f4
:104840007d0d00007c0d00007f0d00007e0d00003e
:10485000870d0000860d00007b0d00007a0d000022
:10486000790d0000780d0000540d0000540d00007b
:10487000540d0000540d0000540d0000540d0000b4
:10488000540d0000540d0000540d0000540d0000a4
:10489000540d0000540d00006f0d00006e0d00005f
:1048a0006d0d00006c0d0000730d0000720d000016
:1048b000710d0000700d0000540d0000540d00003b
:1048c000540d0000540d0000770d0000760d00001f
:1048d000750d0000740d0000540d0000810d0000e6
:1048e000800d0000830d0000820d0000540d0000bb
:1048f000540d0000850d0000840d0000540d0000d3
:10490000540d0000540d0000540d0000540d000023
:10491000540d0000540d0000540d0000540d000013
:10492000540d0000540d0000540d0000540d000003
:10493000540d0000540d0000540d0000540d0000f3
:10494000540d0000540d0000540d0000540d0000e3
:10495000540d0000540d0000540d0000540d0000d3
:10496000540d0000540d0000540d0000540d0000c3
:10497000540d0000540d0000540d0000540d0000b3
:10498000540d0000540d0000540d0000540d0000a3
:10499000540d0000540d0000540d0000540d000093
:1049a000880d0000540d0000540d0000540d00004f
:1049b00000000000013c00000400000003000000b3
:1049c000023d00000506000003000000bf070000d4
:1049d00000000000013c0000040300000011000082
:1049e00020010000030000000f0000000000000094
:1049f000013c000004030000001200002001000040
:104a0000030000000f00000000000000013c000057
:104a1000040300000010000020020000030000005a
:104a20000f00000000000000013c00000403000033
:104a30000018000020000000030000000f0000002c
:104a40000000000001a60000040000003200000089
:104a500002a700000507000003000000bf080000d7
:104a60000000000001a6000004010000318e0000db
:104a7000030000000f0000000000000001a600007d
:104a8000040e00001dff00000000000000000000f8
:104a9000000000007f7f00007f0000007f7f00009b
:104aa0000000000002a60000040400002c0e00001c
:104ab000008000007f00000002a60000040100004a
:104ac000310c000002a600000401000038bf000005
:104ad000030000000f0000000000000001a600001d
:104ae000040e00001dff0000000000000000000098
:104af000000000007f7f00007f0000007f7f00003b
:104b00000000000002a60000040400002c0e0000bb
:104b100008020000fd00000002a6000004010000e1
:104b2000310f000002a600000401000038a10000bf
:104b3000030000000f0000000000000092010000d0
:104b400024030000b504000046060000d60700005c
:104b500064090000f10a00007c0c0000060e000051
:104b60008d0f0000121100009412000013140000b9
:104b700090150000091700007e180000ef190000d2
:104b80005d1b0000c61c00002b1e00008c1f0000d7
:104b9000e72000003d2200008e230000da24000000
:104ba00020260000602700009a280000ce2900007f
:104bb000fb2a0000212c0000412d00005a2e00008d
:104bc0006c2f000076300000793100007432000054
:104bd00068330000533400003735000012360000ff
:104be000e5360000b0370000713800002b390000b6
:104bf000db390000823a0000213b0000b63b000098
:104c0000423c0000c53c00003f3d0000af3d0000bd
:104c1000153e0000723e0000c53e00000f3f000040
:104c20004f3f0000853f0000b13f0000d43f00002f
:104c3000ec3f0000fb3f00000040000000000000cf
:104c40000000000000000000000000004b00000019
:104c50000000000000000000000000000000000054
:104c60000000000000000000000000000000000044
:104c7000000000000000000032000000c000000042
:104c80000000000000000000000000000000000024
:104c90000000000003020000010000000706000001
:104ca00005040000090800000b0a00000f0e0000b8
:104cb0000d0c00001312000011100000151400006c
:104cc0000000000001ae0000040b00000000000026
:104cd000415300005047000020560000302e0000d5
:104ce000300000000300000007000000000000008a
:104cf00001ae0000040100000000000002af00004f
:104d0000050900000300000007000000000000008b
:104d1000000100001010000004210000111100002b
:104d20002449000052520000aa54000055550000ca
:104d3000d5550000755d000075770000777700009d
:104d4000777f00007f7f0000ffff00009a1d0000ba
:104d50000908000099050000200300003e00000043
:104d6000dd03000011fb0000a8020000dbfc0000d6
:104d700099090000cc130000cc0c0000334f000058
:104d800000200000660600005c3f000000100000ec
:104d900099270000d70f0000d70f0000ff7f000009
:104da00000040000cc0c0000334f000000000000a5
:104db00009010000030000000700000008000000d7
:104dc0000400000008000000660600000004000067
:020000040000fa
:104dd0000200fa0010002000000f780007003700e2
:104de0001e0078008000400020ba20008080400033
:104df0000000eb00800878001e0fe800000420008f
:104e00009e0f1000f6ff340090002000000f780085
:104e1000080037009e00780040e121001e0140009c
:104e20008180400020ba2000008040000208780005
:104e30001e0fe800000120009e0f1000f5ff340057
:104e40000000eb00200c88000000eb00500c8800f4
:104e50000000eb00800c88000000eb00b00c880024
:104e60000000eb00e00c88000000eb00100d880053
:104e70000000eb00400d88000000eb00700d880082
:104e80000000eb00600d8800600d8000300d880090
:104e9000300d8000000d8800000d8000d00c8800cf
:104ea000d00c8000a00c8800a00c8000700c880042
:104eb000700c8000400c8800400c8000100c8800b2
:104ec0000000eb00500d8800500d8000200d880080
:104ed000200d8000f00c8800f00c8000c00c8800d1
:104ee000c00c8000900c8800900c8000600c880042
:104ef000600c8000300c8800300c8000000c8800b2
:104f0000510a20009140780080cfb30000c06000bb
:104f10005040b300a5e0b7008440a9009440a80029
:104f2000710a20009140780080cfb30000c060007b
:104f30005040b300a7e0b70084c0a90094c0a80007
:104f4000010b200091407800f0c8b30000c0600061
:104f500001c5b30001407000b0e0b7008720a90090
:104f60009720a800110b20009140780080cfb3005b
:104f700000c060005040b300b1e0b7008740a90016
:104f80009740a800810b200091407800f0c8b30042
:104f900000c0600001c5b30001407000b8e0b70078
:104fa0008920a9009920a800910b20009140780049
:104fb00080cfb30000c060005040b300b9e0b7003c
:104fc0008940a9009940a800910b200091407800e9
:104fd000f0c8b30000c0600001c5b300014070001c
:104fe000b9e0b7008960a9009960a800a10b200072
:104ff0009140780080cfb30000c060005040b30003
:10500000bae0b7008980a9009980a8000000eb00f1
:105010005008880000c42900700888002111200071
:1050200091407800f0ccb30000c0600012e1b700fe
:105030001221a900810a20009140780080cfb3009e
:1050400000c060005040b300a8e0b7008500a90090
:105050009500a80013e1a8000080fa0000000600f7
:105060000200fa00004f78001e40780061406000a6
:10507000614060004401dd00c12d200091407800b6
:10508000f0ceb30000c0600002407000dce2b70068
:105090000080fa00000006001600fa0040079800a1
:1050a000510798006207980021e1a8005e00900077
:1050b00030009000f043b2000080fb008000400010
:1050c00020ba20000080400010007800000f780017
:1050d0001e00e0001b0232005e00900020009000e5
:1050e0004400de007f4060000080fb0070079800f5
:1050f0007e009000eb0f500012023e0010002000d6
:10510000fe0090000100dd00000f9800003020003c
:105110000e099000000061000000e00023003a004a
:1051200000c020008e099000008061000000e000b7
:1051300043003a00000c20008e08900000806000c0
:105140000000e00001003a00fe0137006e00900010
:105150008000eb00210098004e0090000000e0006d
:10516000f8013400ff0ffc003008800065004000ab
:10517000100798006e0090001e0190001200980029
:105180001e0090001e004000100798006e00900066
:105190009e01900003087800ee009000400020007f
:1051a000a00098000000fc00e60137006e009000af
:1051b000200090000000e000030032004e0090004c
:1051c0000000e000df013d00ee0090000000eb0079
:1051d000a000980070b622001e0050001007980032
:1051e0001e009000e40f500002003e00500020001e
:1051f00010079800ff0ffc00310880001e0090008f
:1052000001004000100798006e0090009e00900082
:10521000110098001e0090001e004000100798002a
:105220006e0090001e01900002087800ee009000d1
:1052300040002000a00098000000fc00c1013700e1
:105240004e0090006101b900900020000100200094
:105250000201400083814800120f9800230f98003c
:1052600020012000010020001e099000ae099000de
:10527000800f5100818f5900b2013e001e0890003e
:10528000ae08900000600100480137004701370078
:10529000460137004501370044013700430137001c
:1052a00042013700410137000e0037000900370086
:1052b00008003700f6003700fe003700060137000f
:1052c0000e013700160137001e0137002601370096
:1052d0002e0137006e009000200090000000e000da
:1052e00098013a00ee0090000000eb00a00098004a
:1052f0005e009000200090006f0060000000e00061
:1053000023003a0000652400000f78003008800078
:1053100074004000100798005e0090009e0090000e
:1053200041009800e15280005e009000510098001a
:105330005e00900040019000d00190001e007800b7
:105340000100200002004000838048005e019000c0
:1053500060019800710198005e009000600190006b
:10536000f001900000962700e1ff2f0002004000ae
:10537000838048005e0190006001980071019800f0
:105380005e0090001e01900002089800480037005f
:105390005e009000200090006f006000e90f500058
:1053a0003e003a005e019000a200900000ff2f0036
:1053b00000806000a000b300200198005e00900013
:1053c00040019000d00190005e009000f00090003d
:1053d000600090000001510081815900006a28009e
:1053e0001100200002005000838058002007980020
:1053f000310798002e019000be01900070712400ca
:1054000001002000800f5100818f590005003e00ef
:10541000900c200001002000200798003107980020
:10542000080037002e009000be009000029b2b0069
:10543000f3ff2f0000004100818049002007980001
:10544000310798005e00900040019000d00190006c
:105450002e009000be0090000200400083804800b3
:105460005e01900040019800510198005e0090009c
:105470008009900013079800ae0090001e00900075
:10548000008f40005e0090009e00780001089800a8
:1054900080f32f001e0f4000720037005e00900066
:1054a000200090006f006000ea0f50003b003a00bf
:1054b0005e019000a200900000ff2f0000806000bd
:1054c0000000a000200198005e00900040019000c4
:1054d000d00190005e009000f0009000600090000d
:1054e0000001510081815900006a2800110020004c
:1054f0000200500083805800200798003107980070
:105500002e019000be019000f064240001002000f4
:10551000800f5100818f590004003e000065240077
:105520000100200020079800310798005e009000dd
:1055300040019000d00190002e009000be0090002d
:1055400002004000838048005e0190004001980006
:10555000510198005e009000000990001207980029
:10556000ae0090001e009000008f40005e00900092
:105570009e0178000308980080f32f001e0f400062
:105580005e009000d0009000400090005e0190000e
:105590006001980071019800320037005e009000b1
:1055a00030009000f043b2008080fb005e0090006d
:1055b000200090006f4060000080fb0000804000f1
:1055c0000000e900100798001e00900080004000d5
:1055d00020ba20000080400010007800000f780002
:1055e0005e00900040019000d00190001e00780005
:1055f0000100200002004000838048005e0190000e
:1056000040019800510198005e00900080089000d1
:10561000110798001e0090001e0f40005e009000d1
:105620001e0178000208980080f32f001e0f400032
:105630005e009000200090006f4060000040e80095
:105640006f4060005e0190000080fb00ef01600091
:10565000a200900000ff2f00008060000300700097
:1056600020019800ff0ffc006e0090009e0190004a
:10567000130098006e0090001e087800ee00900065
:1056800040002000a00098000000fc00ad003700a2
:10569000d082a8005e019000a200900000ff2f00c1
:1056a000008060000000a00020019800d082a900c6
:1056b0003e003700d062a8005e019000a20090007a
:1056c00000ff2f00008060000000a0002001980073
:1056d000d062a90035003700d042a8005e019000da
:1056e000a200900000ff2f00008060000000a000da
:1056f00020019800d042a9002c003700d022a80039
:105700005e019000a200900000ff2f00008060006a
:105710000000a00020019800d022a900230037003b
:10572000c5c2a8005e019000a200900000ff2f00fb
:10573000008060000000a00020019800c5c2a90000
:105740001a003700c5e2a8005e019000a200900098
:1057500000ff2f00008060000000a00020019800e2
:10576000c5e2a90011003700e9e2a8005e0190003f
:10577000a200900000ff2f00008060000000a00049
:1057800020019800e9e2a90008003700caa2a80099
:105790005e019000a200900000ff2f0000806000da
:1057a0000000a00020019800caa2a900ee0090000d
:1057b0000000eb00a00098005e0090002000900028
:1057c0006f006000e10f500028003a0030088000b0
:1057d0006a004000100798005e0090009e00900054
:1057e00061009800e15280005e0090007100980016
:1057f0001e0090001e0f40005e0090001e01780009
:105800000208980080f32f001e0f40005e009000f9
:10581000200090006f4060000040e8006f40600092
:105820005e0190000080fb00ef016000a20090008c
:1058300000ff2f000080600003007000200198002e
:10584000ff0ffc006e0090009e0190001300980076
:105850006e0090001e087800ee00900040002000ce
:10586000a00098000000fc00360037005e009000a9
:10587000200090006f4060000080fb00e80f5000a7
:1058800030003c005e00900030009000f043b20019
:105890008080fb005e009000200090006f40600060
:1058a0000080fb00008040000000e9008000400014
:1058b00020ba20000080400010007800000f78001f
:1058c0005e00900080089000110798001e00900074
:1058d0001e0f40005e0090001e0178000208980034
:1058e00080f32f001e0f40005e009000200090000b
:1058f0006f4060000040e8006f4060005e01900073
:105900000080fb00ef016000a200900000ff2f006c
:10591000008060000300700020019800ff0ffc0071
:105920006e0090009e019000130098006e009000a1
:105930001e087800ee00900040002000a0009800b3
:105940000000fc000080fa00000006000000fa00e1
:10595000e9a2a800e9c2bf000080fb004500de000c
:1059600061406000614060004401dd00912e200034
:1059700091407800f0ceb30000c06000024070009b
:10598000e9e2b7000080fa00000006003600f800e7
:10599000809fbe00829fbe00849fbe00869fbe0087
:1059a0000200fa0021e1a8008500a900c0c2200081
:1059b0003002be002003be0000c429000100200008
:1059c0006011b800040040008580480006014900cd
:1059d00087814900c4c22000009abe000292be0026
