:020000040000FA
:060000002DEF33F01200A9
:0600080004EF08F01200F5
:060018000CEF08F01200DD
:061000002DEF33F0120099
:021006001200D6
:0610080068EF29F0120060
:02100E001200CE
:06101800BBEF29F01200FD
:02101E000200CE
:10102000B9660000E20200000A0000000D62000044
:08103000EC02000001000000C9
:08103800D9CFE6FFE1CFD9FF9B
:10104000050EE126D4EC2AF000093BE072BA08D084
:10105000E66AE66AE66AE66A060EE66EDBDA07D05C
:10106000E66AE66AE66AE66A060EE66E4FD8EECFF4
:1010700014F0EECF15F0EECF16F0EECF17F0EECF66
:1010800018F0196E050EE15E195014C0DFFF010E55
:1010900015C0DBFF020E16C0DBFF030E17C0DBFF1F
:1010A000040E18C0DBFFD9CFE9FFDACFEAFFEE501C
:1010B000ED1009E0FAEC10F00E01B15102E1010E61
:1010C00003D0000E01D0010E146E050EE15C02E2A9
:1010D000E16AE552E16E1450E552E7CFD9FF120004
:1010E000AECEF3FFAFCEF4FF1200AACE06F0ABCE29
:1010F00007F0ACCE08F0ADCE09F0120081809390DD
:10110000120035EC10F081809380000CD9CFE6FFFF
:10111000E1CFD9FF0E0EE126080EDE6EDD6A81906A
:101120002C0E146E650E156E000E166EFE0EDBCFC5
:1011300017F0186A196A020ED89017361836193641
:10114000E806FAE114501724F36E15501820F46ED7
:1011500016501920F86EF4CFF7FFF3CFF6FF080012
:101160000D0EF5CFDBFFD950FA0FE96EFF0EDA2036
:10117000EA6E090EEECFDBFF0A0EEECFDBFF0B0EA1
:10118000EECFDBFF0C0EEECFDBFF2C0E146E650EE8
:10119000156E000E166EFE0EDBCF17F0186A196A78
:1011A000020ED890173618361936E806FAE11450B0
:1011B0001724F36E15501820F46E16501920F86E8F
:1011C000F4CFF7FFF3CFF6FFF62A000EF722F8224E
:1011D0000800080EF5CFDBFF0D0EDB8CDBCFE6FF42
:1011E00037EC10F0E5520C0EDBCFE6FF37EC10F0D9
:1011F000E5520B0EDBCFE6FF37EC10F0E5520A0E9E
:10120000DBCFE6FF37EC10F0E552090EDBCFE6FF4F
:1012100037EC10F0E552080EDBCFE6FF37EC10F0AC
:10122000E5522C0E146E650E156E000E166EFE0E37
:10123000DBCF17F0186A196A020ED89017361836E5
:101240001936E806FAE114501724F36E15501820E9
:10125000F46E16501920F86EF4CFF7FFF3CFF6FFB7
:10126000020EF626000EF722F8220800F55050E094
:101270002C0E1A6E650E1B6E000E1C6EFE0EDBCF62
:101280001DF01E6A1F6A020ED8901D361E361F36CC
:10129000E806FAE11A501D24F36E1B501E20F46E6E
:1012A0001C501F20F86EF4CFF7FFF3CFF6FF020EAD
:1012B000F626000EF722F8220800F550010828E073
:1012C0002C0E206E650E216E000E226EFE0EDBCF00
:1012D00023F0246A256A020ED89023362436253658
:1012E000E806FAE120502324F36E21502420F46E06
:1012F00022502520F86EF4CFF7FFF3CFF6FF020E51
:10130000F626000EF722F8220800F550040816E130
:101310004EEC10F0E76E030EE7CFDBFFDF06010EA9
:1013200001E2DB06030EDB50FF083EE1D9CFE9FF07
:10133000DACFEAFFEE50ED10EBE136D02C0E146E52
:10134000650E156E000E166EFE0EDBCF17F0186AD6
:10135000196A020ED890173618361936E806FAE1DF
:1013600014501724F36E15501820F46E16501920DF
:10137000F86EF4CFF7FFF3CFF6FF020EF626000E5D
:10138000F722F8220800F55002080EE14EEC10F0AA
:101390004EEC10F0E76E040EE7CFDBFF4EEC10F0E2
:1013A000E76E030EE7CFDBFF2C0E146E650E156E95
:1013B000000E166EFE0EDBCF17F0186A196A020EC9
:1013C000D890173618361936E806FAE11450172463
:1013D000F36E15501820F46E16501920F86EF4CFE5
:1013E000F7FFF3CFF6FF020EF626000EF722F822E3
:1013F0000800F550010828E1030EDB6A020EDB6AE3
:10140000FF0EF36E020EDBCFF4FFF350F45C1CE230
:10141000030EDB5019E1DE68DD684EEC10F0E76E7C
:10142000030EE7CFDBFFDF06010E01E2DB06030E52
:10143000DB5007E1D9CFE9FFDACFEAFFEE50ED103C
:10144000ECE1020EDB2ADCD72C0E146E650E156E55
:10145000000E166EFE0EDBCF17F0186A196A020E28
:10146000D890173618361936E806FAE114501724C2
:10147000F36E15501820F46E16501920F86EF4CF44
:10148000F7FFF3CFF6FF020EF626000EF722F82242
:101490000800F550040869E14EEC10F0146E156A6E
:1014A000166A176A180E1F0B07E0D8901436153607
:1014B00016361736E806F9E1040E14C0DBFF050EF8
:1014C00015C0DBFF060E16C0DBFF070E17C0DBFFE3
:1014D0004EEC10F0146E156A166A176A100E1F0B88
:1014E00007E0D8901436153616361736E806F9E1B7
:1014F000D950040FE96EDACFEAFF1450EE261550EA
:10150000EE221650EE221750EE224EEC10F0146E22
:10151000156A166A176A080E1F0B07E0D890143672
:10152000153616361736E806F9E1D950040FE96E7C
:10153000DACFEAFF1450EE261550EE221650EE22B6
:101540001750EE224EEC10F0146E156A166A176AE8
:10155000D950040FE96EDACFEAFF1450EE26155089
:10156000EE221650EE221750EE22E66837EC10F00D
:10157000E5522C0E146E650E156E000E166EFE0EE4
:10158000DBCF17F0186A196A020ED8901736183692
:101590001936E806FAE114501724F36E1550182096
:1015A000F46E16501920F86EF4CFF7FFF3CFF6FF64
:1015B000030EF626000EF722F8220800F55001E18E
:1015C0008180030EDBCF14F0040EDBCF15F0050E87
:1015D000DBCF16F0060EDBCF17F0070EDBCF18F0CF
:1015E000D9CFE9FFDACFEAFFED50ED5018C0EDFF9B
:1015F00017C0EDFF16C0EDFF15C0EDFF14C0EFFFE3
:101600000E0EE15C02E2E16AE552E16EE552E7CFDF
:10161000D9FF1200D9CFE6FFE1CFD9FF0E0EE126A8
:10162000080EDE6EDD6A81902C0E146E650E156E4E
:10163000000E166EFE0EDBCF17F0186A196A020E46
:10164000D890173618361936E806FAE114501724E0
:10165000F36E15501820F46E16501920F86EF4CF62
:10166000F7FFF3CFF6FF08000D0EF5CFDBFFD950E3
:10167000FA0FE96EFF0EDA20EA6E090EEECFDBFFFD
:101680000A0EEECFDBFF0B0EEECFDBFF0C0EEECF24
:10169000DBFF2C0E146E650E156E000E166EFE0E20
:1016A000DBCF17F0186A196A020ED8901736183671
:1016B0001936E806FAE114501724F36E1550182075
:1016C000F46E16501920F86EF4CFF7FFF3CFF6FF43
:1016D000F62A000EF722F8220800080EF5CFDBFFED
:1016E0000D0EDB8CDBCFE6FF72EC10F0E5520C0E3A
:1016F000DBCFE6FF72EC10F0E5520B0EDBCFE6FF1E
:1017000072EC10F0E5520A0EDBCFE6FF72EC10F03F
:10171000E552090EDBCFE6FF72EC10F0E552080E41
:10172000DBCFE6FF72EC10F0E5522C0E146E650E66
:10173000156E000E166EFE0EDBCF17F0186A196AD2
:10174000020ED890173618361936E806FAE114500A
:101750001724F36E15501820F46E16501920F86EE9
:10176000F4CFF7FFF3CFF6FF020EF626000EF722B6
:10177000F8220800F55050E02C0E1A6E650E1B6E14
:10178000000E1C6EFE0EDBCF1DF01E6A1F6A020EDD
:10179000D8901D361E361F36E806FAE11A501D2471
:1017A000F36E1B501E20F46E1C501F20F86EF4CFF9
:1017B000F7FFF3CFF6FF020EF626000EF722F8220F
:1017C0000800F550010828E02C0E206E650E216EF1
:1017D000000E226EFE0EDBCF23F0246A256A020E75
:1017E000D890233624362536E806FAE12050232403
:1017F000F36E21502420F46E22502520F86EF4CF91
:10180000F7FFF3CFF6FF020EF626000EF722F822BE
:101810000800F550040816E1B1EC10F0E76E030E75
:10182000E7CFDBFFDF06010E01E2DB06030EDB5034
:10183000FF083EE1D9CFE9FFDACFEAFFEE50ED1025
:10184000EBE136D02C0E146E650E156E000E166E82
:10185000FE0EDBCF17F0186A196A020ED890173601
:1018600018361936E806FAE114501724F36E1550AD
:101870001820F46E16501920F86EF4CFF7FFF3CF4E
:10188000F6FF020EF626000EF722F8220800F550A9
:1018900002080EE1B1EC10F0B1EC10F0E76E040EAE
:1018A000E7CFDBFFB1EC10F0E76E030EE7CFDBFF15
:1018B0002C0E146E650E156E000E166EFE0EDBCF2E
:1018C00017F0186A196A020ED890173618361936AA
:1018D000E806FAE114501724F36E15501820F46E40
:1018E00016501920F86EF4CFF7FFF3CFF6FF020E73
:1018F000F626000EF722F8220800F550010828E12C
:10190000030EDB6A020EDB6AFF0EF36E020EDBCF04
:10191000F4FFF350F45C1CE2030EDB5019E1DE68C7
:10192000DD68B1EC10F0E76E030EE7CFDBFFDF06FA
:10193000010E01E2DB06030EDB5007E1D9CFE9FF20
:10194000DACFEAFFEE50ED10ECE1020EDB2ADCD735
:101950002C0E146E650E156E000E166EFE0EDBCF8D
:1019600017F0186A196A020ED89017361836193609
:10197000E806FAE114501724F36E15501820F46E9F
:1019800016501920F86EF4CFF7FFF3CFF6FF020ED2
:10199000F626000EF722F8220800F550040865E14B
:1019A000E0DB146E156A166A176A180E1F0B07E043
:1019B000D8901436153616361736E806F9E1040EB7
:1019C00014C0DBFF050E15C0DBFF060E16C0DBFFE3
:1019D000070E17C0DBFFC5DB146E156A166A176A9F
:1019E000100E1F0B07E0D890143615361636173632
:1019F000E806F9E1D950040FE96EDACFEAFF145096
:101A0000EE261550EE221650EE221750EE22A9DBDC
:101A1000146E156A166A176A080E1F0B07E0D89035
:101A20001436153616361736E806F9E1D950040F84
:101A3000E96EDACFEAFF1450EE261550EE2216506A
:101A4000EE221750EE228DDB146E156A166A176AA5
:101A5000D950040FE96EDACFEAFF1450EE26155084
:101A6000EE221650EE221750EE22E6683BDBE552DE
:101A70002C0E146E650E156E000E166EFE0EDBCF6C
:101A800017F0186A196A020ED890173618361936E8
:101A9000E806FAE114501724F36E15501820F46E7E
:101AA00016501920F86EF4CFF7FFF3CFF6FF030EB0
:101AB000F626000EF722F8220800F55001E1818099
:101AC000030EDBCF14F0040EDBCF15F0050EDBCFD9
:101AD00016F0060EDBCF17F0070EDBCF18F0D9CFCC
:101AE000E9FFDACFEAFFED50ED5018C0EDFF17C067
:101AF000EDFF16C0EDFF15C0EDFF14C0EFFF0E0E99
:101B0000E15C02E2E16AE552E16EE552E7CFD9FF1E
:101B10001200D9CFE6FFE1CFD9FF0F0EE126010E6B
:101B2000F36E0A0EF3CFDBFF0E01B05123E1FB0E83
:101B3000DBCF14F0FC0EDBCF15F0FD0EDBCF16F083
:101B4000FE0EDBCF17F0090E1F0B07E0D8901436FE
:101B5000153616361736E806F9E10B0E14C0DBFF12
:101B60000C0E15C0DBFF0D0E16C0DBFF0E0E17C0EE
:101B7000DBFF12D0D950FB0FE96EFF0EDA20EA6EC0
:101B80000B0EEECFDBFF0C0EEECFDBFF0D0EEECF1C
:101B9000DBFF0E0EEECFDBFFD9500B0FE96EDACF75
:101BA000EAFFEECFE6FFEECFE6FFEECFE6FFEFCFA8
:101BB000E6FF080EE66E86EC08F0EECF14F0EECFEE
:101BC00015F0EECF16F0EECF17F0EECF18F0196E3D
:101BD000050EE15E1950040E14C0DBFF050E15C0A2
:101BE000DBFF060E16C0DBFF070E17C0DBFF080E7B
:101BF00018C0DBFF040EDB5033E0D9500B0FE96E49
:101C0000DACFEAFFEECFE6FFEECFE6FFEECFE6FF5C
:101C1000EFCFE6FF080EE66E86EC08F0EECF14F08C
:101C2000EECF15F0EECF16F0EECF17F0EECF18F0A6
:101C3000196E050EE15E1950040E14C0DBFF050E8F
:101C400015C0DBFF060E16C0DBFF070E17C0DBFF5B
:101C5000080E18C0DBFF040EDB5002E0000E86D039
:101C6000DE68020EDD6E400EF36E020EF3CFDBFF78
:101C7000030EDB6AD950020FE96EDACFEAFFEE50AD
:101C8000ED1006E0020EDB06030EF4E2DB06F2D7EF
:101C900005DAE76E090EE7CFDBFFDF06010E01E292
:101CA000DB06400EF36E020EF3CFDBFF030EDB6AA2
:101CB000D950020FE96EDACFEAFFEE50ED1006E0E0
:101CC000020EDB06030EF4E2DB06F2D7090EDB5050
:101CD000FF0807E1D9CFE9FFDACFEAFFEE50ED10B8
:101CE000D7E1D9CFE9FFDACFEAFFEE50ED1004E0FB
:101CF000090EDB50FE0803E00A0EDB6A31D07B6A76
:101D00007A6A1C0E886E866A010E666E6768090E16
:101D1000DB68D950090F156ADA506A6ED950090F7D
:101D2000E8506B6EF90EFA0EDBCF15F015C014F00B
:101D3000156A1450686EFF0EE76EF90EDBCF14F0D3
:101D4000FA0EE7501416156A1450696EA49E888026
:101D5000A4AEFED7E6688BD9E552E66888D9E5528D
:101D6000E66885D9E55281800A0EDB50146E0F0EAD
:101D7000E15C02E2E16AE552E16E1450E552E7CF20
:101D8000D9FF1200D9CFE6FFE1CFD9FF0E0EE12631
:101D9000010EF36E0D0EF3CFDBFFFB0EDBCF14F065
:101DA000FC0EDBCF15F0FD0EDBCF16F0FE0EDBCF09
:101DB00017F0145015101610171006E1F80EDB502E
:101DC00003E10D0EDB6A02D10E01B05131E1FB0ED1
:101DD000DBCF19F0FC0EDBCF1AF0FD0EDBCF1BF0D2
:101DE000FE0EDBCF1CF0090E1F0B07E0D890193652
:101DF0001A361B361C36E806F9E119C0E6FF1AC090
:101E0000E6FF1BC0E6FF1CC0E6FF0A0EE66E86EC8E
:101E100008F0EECF14F0EECF15F0EECF16F0EECFC7
:101E200017F0EECF18F01D6E050EE15E1D5020D0AC
:101E3000D950FB0FE96EFF0EDA20EA6EEECFE6FF17
:101E4000EECFE6FFEECFE6FFEFCFE6FF0A0EE66E3F
:101E500086EC08F0EECF14F0EECF15F0EECF16F0D2
:101E6000EECF17F0EECF18F0196E050EE15E1950A7
:101E7000080E14C0DBFF090E15C0DBFF0A0E16C0EA
:101E8000DBFF0B0E17C0DBFF0C0E18C0DBFF080ECC
:101E9000DB5003E00D0EDB6A98D0FE0EE66EE7D84D
:101EA000E5527B6A7A6A2C0E886E866A010E666E2F
:101EB0006768070EDB68F90EDBCF14F0FA0EDBCF94
:101EC00015F015C014F0156A14506A6EFF0EE76E17
:101ED000F90EDBCF14F0FA0EDBCF15F0E750141635
:101EE000156A14506B6ED950070F146EDACF15F0C7
:101EF000DACF14F0156ADA50686ED950070F146EF5
:101F0000DACF15F0E850696EA49E8880A4AEFED7A3
:101F1000E668ADD8E552E668AAD8E552BFD8E76EC4
:101F2000060EE7CFDBFFDB500F0B050849E1950EEE
:101F3000F36E020EF3CFDBFFEE0EF36E030EF3CF64
:101F4000DBFF080EF36E040EF3CFDBFF050EDB6A3A
:101F5000060E75CFDBFFA49E7568D950020FE96E9F
:101F6000DACFEAFFEE06000EEE5AEE5AEE5AA4AEB3
:101F7000FED7060E75CFDBFFDB5011E1020EDBCF83
:101F800014F0030EDBCF15F0040EDBCF16F0050EB8
:101F9000DBCF17F01450151016101710D9E1020EF0
:101FA000DBCF14F0030EDBCF15F0040EDBCF16F001
:101FB000050EDBCF17F0145015101610171002E1A4
:101FC0000D0EDB6AE66853D8E55281800D0EDB50BA
:101FD000146E0E0EE15C02E2E16AE552E16E14500D
:101FE000E552E7CFD9FF1200000CD9CFE6FFE1CFD1
:101FF000D9FF050EE126FE0EDB50DF6EDF50DF0657
:10200000000927E06B0EF36E010EF3CFDBFF170E16
:10201000F36E020EF3CFDBFF030EDB6A040EDB6A06
:10202000D950010FE96EDACFEAFFEFCF14F0EE06D8
:10203000000EEFCF15F0EE5AEFCF16F0EE5AEFCFBD
:1020400017F0EF5A145015101610171001E0E8D7CA
:10205000D5D7000000D0050EE15C02E2E16AE5524E
:10206000E16EE552E7CFD9FF1200729A1200D9CF84
:10207000E6FFE1CFD9FFE6527550DF6EA49EFE0E5B
:10208000DB50756E72AE02D0FF0E03D0A4AEFED749
:10209000000EE552E552E7CFD9FF1200D9CFE6FF97
:1020A000E1CFD9FFE6527550DF6EA49E7568A4AEED
:1020B000FED77550E552E552E7CFD9FF1200D9CFD0
:1020C000E6FFE1CFD9FF736A726AFE0EDB5072122F
:1020D000728E738C939493929386728AE552E7CFB3
:1020E000D9FF1200D9CFE6FFE1CFD9FF020EE126DA
:1020F0008A948A8293949392DF6A080EDF5C23E2CB
:102100008A94FE0EDBAE02D08A8201D08A92DB5026
:10211000020DFE0EF3CFDBFFDE52010EDD6E010E6F
:10212000DBCFF3FFDB06F3500009F9E18A84DE52CE
:10213000010EDD6E010EDBCFF3FFDB06F35000096D
:10214000F9E1DF2ADAD78A94000E146E020EE15C00
:1021500002E2E16AE552E16E1450E552E7CFD9FFA1
:102160001200D9CFE6FFE1CFD9FF040EE126030E1E
:10217000DB6A8A82939293868A949394DF6A080E2C
:10218000DF5C29E28A94010EF36E020EF3CFDBFFCF
:10219000020EDBCFF3FFDB06F3500009F9E18A847E
:1021A000010EF36E020EF3CFDBFF020EDBCFF3FF67
:1021B000DB06F3500009F9E1030EDB50020D030EBC
:1021C000F3CFDBFF81A602D0DB2A03D0DE52010E63
:1021D000DD6EDF2AD4D78A94030EDB50146E040E12
:1021E000E15C02E2E16AE552E16E1450E552E7CFAC
:1021F000D9FF1200D9CFE6FFE1CFD9FF230EE126A8
:102200000E01B16BB26BAA6BAB6BAC6BAD6B81802B
:10221000010EE66EEADEE552726ADE6ADD6ADECF44
:1022200014F0DDCF15F00A0E145C000E155808E20C
:10223000E66858DFE552DF2A010EF1E3DB2AEFD72B
:102240008190010EE66ED1DEE552E66AE66AE66A44
:10225000E66AE66A0AEC0BF0EECF14F0EECF15F06A
:10226000EECF16F0EECF17F0EECF18F0196E050E88
:10227000E15E1950020E14C0DBFF030E15C0DBFF38
:10228000040E16C0DBFF050E17C0DBFF060E18C0DC
:10229000DBFF020EDB50FF0805E0020EDB50F70B00
:1022A000010805E081800E01020EB16F1DD3AA0E58
:1022B000E66E010EE66EE66AE66A020EE66E0AEC6D
:1022C0000BF0EECF14F0EECF15F0EECF16F0EECF10
:1022D00017F0EECF18F0196E050EE15E1950020EE0
:1022E00014C0DBFF030E15C0DBFF040E16C0DBFFBE
:1022F000050E17C0DBFF060E18C0DBFF14680F0EBB
:10230000156E166A176AD950030FE96EDACFEAFF25
:10231000EE501416EE501516EE501616EE50171617
:10232000AA0E141801E094D0010E151801E090D007
:10233000165001E08DD0175001E08AD0D950020F1D
:10234000E96EDACFEAFFEF50040B01E081D0DE68DE
:102350000F0EDD6EE66AE66AE66A400EE66E010E74
:10236000E66E0AEC0BF0EECF14F0EECF15F0EECFE8
:1023700016F0EECF17F0EECF18F0196E050EE15EF5
:102380001950020E14C0DBFF030E15C0DBFF040E54
:1023900016C0DBFF050E17C0DBFF060E18C0DBFF03
:1023A000DF06010E01E2DB06020EDB5007E0D9CFAB
:1023B000E9FFDACFEAFFEE50ED10CCE1E66AE66A1B
:1023C000E66AE66A100EE66E0AEC0BF0EECF14F049
:1023D000EECF15F0EECF16F0EECF17F0EECF18F0EF
:1023E000196E050EE15E1950020E14C0DBFF030EDC
:1023F00015C0DBFF040E16C0DBFF050E17C0DBFFA8
:10240000060E18C0DBFF146A156A166AC00E176E36
:10241000D950030FE96EDACFEAFFEE501416EE50F2
:102420001516EE501616EE50171614500EE11550F4
:102430000CE116500AE1C00E171807E1020EDB503E
:1024400004E10E01010EB06F3BD00E01B06B38D02D
:102450000E01B06BDE680F0EDD6EE66AE66AE66AB4
:10246000E66A010EE66E0AEC0BF0EECF14F0EECF4A
:1024700015F0EECF16F0EECF17F0EECF18F0196E84
:10248000050EE15E1950020E14C0DBFF030E15C0ED
:10249000DBFF040E16C0DBFF050E17C0DBFF060EC8
:1024A00018C0DBFFDF06010E01E2DB06020EDB5087
:1024B00007E0D9CFE9FFDACFEAFFEE50ED10CDE12A
:1024C000D9CFE9FFDACFEAFFEE50ED1005E10E01BA
:1024D000020EB16F818008D2020EE66E86DDE552F3
:1024E000E66AEDDDE552DE680F0EDD6EE66AE66A4D
:1024F000E66AE66A030EE66E86EC08F0EECF14F0AC
:10250000EECF15F0EECF16F0EECF17F0EECF18F0BD
:10251000196E050EE15E1950020E14C0DBFF030EAA
:1025200015C0DBFF040E16C0DBFF050E17C0DBFF76
:10253000060E18C0DBFFDF06010E01E2DB06020E0D
:10254000DB5007E0D9CFE9FFDACFEAFFEE50ED101C
:10255000CDE11C0EDB6A1B0EDB6A140EF36E1B0E44
:10256000DBCFF4FFF350F45C20E298DDE66ED95047
:10257000070F146EDACF15F01C0EDB500F01142478
:10258000E96E000EDA20EA6EE552E750EF6E1C0E9F
:10259000DB2A1B0EDB5006E1070EDB50FE0802E1D2
:1025A0001C0EDB6A1B0EDB2AD8D70E01AE6B020EA7
:1025B000AF6FB281AECEB3FEB46F070EDB50C00B6F
:1025C0005AE00E0EDBCF14F0156A166A176A3F0E3A
:1025D0001416156A166A176A100E1F0B07E0D890BA
:1025E0001436153616361736E806F9E10F0EDBCF2E
:1025F00018F018C019F0186A1A6A1B6A18501412D9
:10260000195015121A5016121B501712100EDBCF4C
:102610001CF01D6A1E6A1F6A1C5014121D501512F0
:102620001E5016121F5017121D0E14C0DBFF1E0E77
:1026300015C0DBFF1F0E16C0DBFF200E17C0DBFF2F
:102640001D0EDBCFAAFE1E0EDBCFABFE1F0EDBCFB7
:10265000ACFE200EDBCFADFE0E01AA2B000EAB238D
:10266000AC23AD230A0ED890AA37AB37AC37AD37C1
:10267000E806F9E1DFD00D0EDBCF14F0156A166A1B
:10268000176A100E1F0B07E0D89014361536163651
:102690001736E806F9E10E0EDBCF18F018C019F076
:1026A000186A1A6A1B6A18501412195015121A5017
:1026B00016121B5017120F0EDBCF1CF01D6A1E6A7C
:1026C0001F6A1C5014121D5015121E5016121F5056
:1026D00017121D0E14C0DBFF1E0E15C0DBFF1F0EF0
:1026E00016C0DBFF200E17C0DBFFD9501D0FE96EAF
:1026F000DACFEAFFC00EEE16EE52030EEE16EE6AC9
:102700001D0EDBCF14F01E0EDBCF15F01F0EDBCF3E
:1027100016F0200EDBCF17F0060ED89017321632C7
:1027200015321432E806F9E11D0E14C0DBFF1E0E4F
:1027300015C0DBFF1F0E16C0DBFF200E17C0DBFF2E
:10274000100EDB50030BE824146E110EDB50800BCF
:10275000E844010B1410E76E210EE7CFDBFF0C0EEF
:10276000DB500F0BE76E220EE7CFDBFFDB50F70FDE
:10277000146E010E145204E0E846FE0B1406FCE150
:10278000E76E220EE7CFDBFFDBCF20F0216A226A63
:10279000236A210EDB50020F49EC33F0F3CF1CF01B
:1027A000F4CF1DF01E6A1F6A010E186E196A1A6AAC
:1027B0001B6AD9501D0FE96EDACFEAFFEE501826DA
:1027C000EE501922EE501A22EE501B2218C006F0CD
:1027D00019C007F01AC008F01BC009F0F3CF0BF0C6
:1027E000F4CF0CF01EC00DF01FC00EF05EEC32F006
:1027F00002C014F003C015F004C016F005C017F0B5
:1028000002C006F003C007F004C008F005C009F0DC
:1028100020C00BF021C00CF022C00DF023C00EF040
:102820005EEC32F002C0AAFE03C0ABFE04C0ACFEF8
:1028300005C0ADFE0E01AA07000EAB5BAC5BAD5B45
:10284000E66AE66AE66AE66A110EE66E86EC08F06B
:10285000EECF14F0EECF15F0EECF16F0EECF17F06E
:10286000EECF18F0196E050EE15E1950020E14C07D
:10287000DBFF030E15C0DBFF040E16C0DBFF050EE9
:1028800017C0DBFF060E18C0DBFFAECE19F0AFCECF
:102890001AF01B6A1C6AAECEE6FFAFCEE6FF1BC085
:1028A000E6FF1CC0E6FF070EE66E86EC08F0EECFF2
:1028B00014F0EECF15F0EECF16F0EECF17F0EECF0E
:1028C00018F01D6E050EE15E1D50020E14C0DBFFF8
:1028D000030E15C0DBFF040E16C0DBFF050E17C08C
:1028E000DBFF060E18C0DBFFB10E146E0E0E156E68
:1028F00014C0F3FFF46E230EE15C02E2E16AE552DC
:0A290000E16EE552E7CFD9FF1200A7
:06290A00D9CFE6FFE1CF8A
:10291000D9FFE652A098636A626A0F01266B030E24
:10292000E66EE66AE66A270EE66E0F0EE66E2AECA3
:1029300031F0146E050EE15E14500F01160E396F62
:102940009F0E376F7B0E366FDF6ADF50146E156A8D
:10295000100E145C000E155810E2DF50040DF3CF7A
:10296000E9FFF4CFEAFF000EE926040EEA22EE6A40
:10297000EE6AEE6AEE6ADF2AE8D7658C0F01386BE3
:102980006598659C62A607D062960401986B9D6B62
:102990009E6B9F6BF7D70401010EB46FB56FB66BDA
:1029A000B76BA66BDF6A040EDF5C26E2EA6ADF34EF
:1029B000FE0BEA36E96E8B0EE926040EEA22EE6A79
:1029C000ED6AEA6ADF34FE0BEA36E96E830EE92629
:1029D000040EEA22EE6AED6ADF50EA6AAA0FE96E97
:1029E000040EEA22EF6ADF50EA6AAE0FE96E040EC7
:1029F000EA22EF6ADF2AD7D70401080E8B6F040E94
:102A00008C6F0F01160E266F0401400E026F040E2C
:102A1000036F080E016F840E006F04017D6B7C6BE9
:102A2000E552E552E7CFD9FF1200D9CFE6FFE1CF5B
:102A3000D9FFE65204017C0509E165BA07D0626A54
:102A40000F01368136890401020E7C6F6250040B3F
:102A500006E00F013651040B02E06294CED865B255
:102A60005CD06250010B0AE00F013651010B06E009
:102A70004CDFA0880401040E7C6F62906250100B42
:102A800006E00F013651100B02E0A1D8629862AC4B
:102A90001AD00F0136AD0FD0010EE66EE66A000EB9
:102AA000E66EE66A730EE66EE66A99EC2DF0146E39
:102AB000060EE15E1450629C0401B25101E0B207BF
:102AC000B25101E154DB6250200B05E00F01365199
:102AD000200B01E062D86250020B14E00F01365166
:102AE000020B10E0010EE66EE66A000EE66EE66A84
:102AF000E6687F0EE66E99EC2DF0146E060EE15E30
:102B00001450636A040E0401E76E7C19E8AE02D02B
:102B1000E73402D0E7507C5D02E2A19839D00F0182
:102B200036A735D0DF6A040EDF5C31E262A62FD013
:102B300064CFA7F40401A751780BE842E842E842C9
:102B4000A86F6296A7B506D0A851EA6AAE0FE96EE3
:102B5000040E05D0A851EA6AAA0FE96E040EEA2213
:102B6000EF70A85102E161D810D0000EE66EE66A5F
:102B7000A70EE66E040EE66E720EE66EE66A99EC3D
:102B80002DF0146E060EE15E1450DF2ACCD7A1980A
:102B9000E552E552E7CFD9FF12000F0126A115D06B
:102BA0007FC4E9FF80C4EAFFEF5080080DE18BC4C9
:102BB000E9FF8CC4EAFFEF50840806E17FC4E9FF17
:102BC00080C4EAFF8C0EEF6E2691629A12000F010C
:102BD0003685629865820401010EA66F000EE66ECE
:102BE000E66AE66EE66A750EE66EE66A99EC2DF028
:102BF000146E060EE15E145012000401A66B000E66
:102C0000E66EE66AE66EE66A740EE66EE66A99ECD1
:102C10002DF0146E060EE15E145065920F0136958C
:102C200062A402D06294FCD71200D9CFE6FFE1CFB4
:102C3000D9FFE65204012D0EB26FFD0EA71553E128
:102C40007E0EA715E8407F0B040DF3CF7FF4F4CF81
:102C500080F4000E7F27040E80237FC481F480C49B
:102C600082F481757FC4E9FF80C4EAFFEF503C0B1A
:102C7000E842E8420D0835E1DF6A080EDF5C23E236
:102C80007FC4E9FF80C4EAFF020EE926000EEA22B3
:102C9000EE50EFCFEAFFE96EEF50E66EDF50EA6AE2
:102CA000400FE96E040EEA22E552E750EF6E7FC452
:102CB000E9FF80C4EAFF020EE926000EEA22EE2AAE
:102CC000EF22DF2ADAD77FC4E9FF80C4EAFF020ED1
:102CD000E926000EEA22400EEE6E040EED6E0DD8CF
:102CE00007D03AD805D0FD0EA715040801E159D840
:102CF000E552E552E7CFD9FF12000401936BB36BA5
:102D0000B66BB76BA96B946B8BC4E9FF8CC4EAFFFD
:102D1000EF9E8B758BC4E9FF8CC4EAFFEF9E8B7529
:102D200081C4E9FF82C4EAFFEF9E986B996B9A6BAE
:102D30009D6B9E6B9F6B92D8000EE66EE66AE66E08
:102D4000E66A030EE66EE66A99EC2DF0146E060E46
:102D5000E15E145044EF1AF0020E0401945D02E1AA
:102D600007EF1BF0946BA9511AE181C4E9FF82C4FB
:102D7000EAFFEE52080EEF6E81C4E9FF82C4EAFF5B
:102D8000020EE926000EEA22400EEE6E040EED6EF3
:102D900081C4E9FF82C4EAFF8C0EEF6E1200A96BBA
:102DA0001200D9CFE6FFE1CFD9FFE6528BC4E9FF8D
:102DB0008CC4EAFFEF50400B01E0010EDF6E04010E
:102DC0008B75080E7C5D0BE142C438FF0F01385152
:102DD00003E00401100E02D00401040E7C6F940580
:102DE00026E18BC4E9FF8CC4EAFF020EE926000E3F
:102DF000EA22480EEE6E040EED6EA7DB020E040111
:102E0000935D06E18BC4E9FF8CC4EAFF840E0DD00C
:102E1000DF5006E18BC4E9FF8CC4EAFFC80E05D081
:102E20008BC4E9FF8CC4EAFF880EEF6E12D09DAF11
:102E30000FD0A051A111A21109E007D0A2C4FBFF3D
:102E4000A1C4FAFF0401A051F96EF8DF04019D9FAF
:102E5000946BE552E552E7CFD9FF120004014051CF
:102E6000600BE842E842E842E842E842000901E03B
:102E7000120041510C0A50E00B0A3FE00C0A31E00D
:102E8000010A22E00B0A1EE0020A1CE0030A18E015
:102E9000080A10E0010A0CE00F0A08E0030A01E04A
:102EA00012000401988F080E7C6F120046EF19F093
:102EB000A9EF1BF004017D0E956F040E966F0CD0E8
:102EC000EAEF19F08DEF17F044510401956F966BFE
:102ED0007E0E9527040E96239881010E996F988F88
:102EE00012000401988F04014451EA6A7E0FE96ED2
:102EF000040EEA2242C4EFFF1200000EE66EE66AFC
:102F0000E66EE66A020EE66EE66A99EC2DF0146E45
:102F1000060EE15E145012001200D9CFE6FFE1CF99
:102F2000D9FF030EE1260401420510E140511F0BB9
:102F300000090CE10401988F030E0401415D04E1D6
:102F40000401010EA56F02D00401A56B04014251DA
:102F500001E003D140511F0B020801E0FED04451B3
:102F60000F0B000901E1F9D044510F0B030801E2F6
:102F7000F4D0200E04017C5D01E0EFD0988F0401B5
:102F800044BF16D044510F0BE96EEA6AD890E93677
:102F9000EA36830EE926040EEA22EECFDEFFEDCFFD
:102FA000DDFF44510F0BEA6AAE0FE96E040E15D037
:102FB00044510F0BE96EEA6AD890E936EA368B0E77
:102FC000E926040EEA22EECFDEFFEDCFDDFF44510D
:102FD0000F0BEA6AAA0FE96E040EEA22020EEFCF87
:102FE000DBFFD950020FE96EDACFEAFFEF50010B99
:102FF00003E1000EDF9401D0DF8444BF0BD04451C5
:103000000F0BE96EEA6AD890E936EA36830EE926B4
:10301000040E0AD044510F0BE96EEA6AD890E936E3
:10302000EA368B0EE926040EEA22DECFEEFFDDCF74
:10303000EDFF030E415D20E1DECFE9FFDDCFEAFFCA
:10304000EF50800B11E044BF07D044510F0BEA6AE8
:10305000AE0FE96E040E06D044510F0BEA6AAA0FB8
:10306000E96E040EEA22EF82840EDECFE9FFDDCFA7
:10307000EAFFE850EF1271D0DF74DECFE9FFDDCF59
:10308000EAFFEF50800B1BE0DECFE9FFDDCFEAFF68
:10309000EF9EDECFE9FFDDCFEAFFEF8C020EE66E9A
:1030A000E66ADECFE6FFDDCFE6FF050EE66EE66AF6
:1030B00099EC2DF0146E060EE15E145005D0DECFB3
:1030C000E9FFDDCFEAFFEF8CDF74D950020FE96E24
:1030D000DACFEAFFEF50020B0EE1DECFE9FFDDCFE2
:1030E000EAFFEF50800B32E0DECFE9FFDDCFEAFFF1
:1030F000EF50040B2BE1040144BF07D044510F0BE8
:10310000EA6AAE0FE96E040E06D044510F0BEA6A6C
:10311000AA0FE96E040EEA22EF923B0E146EDECF88
:10312000E9FFDDCFEAFFE850EF16020EE66EE66A31
:10313000DECFE6FFDDCFE6FF050EE66EE66A99EC30
:103140002DF0146E060EE15E145007D03B0EDECF5C
:10315000E9FFDDCFEAFFE850EF16030EE15C02E283
:10316000E16AE552E16EE552E7CFD9FF12000401B2
:10317000B4514DE1010EB46FB55149E1010EB56F87
:10318000020E945D0DE18BC4E9FF8CC4EAFFEE52A0
:10319000EF6A8BC4E9FF8CC4EAFFC80EEF6E120021
:1031A000940535E1A96B7FC4E9FF80C4EAFFEE52C4
:1031B000080EEF6E7FC4E9FF80C4EAFF020EE92625
:1031C000000EEA22400EEE6E040EED6E7FC4E9FFA3
:1031D00080C4EAFF840EEF6E010EA96F81C4E9FF7F
:1031E00082C4EAFFEE52080EEF6E81C4E9FF82C48A
:1031F000EAFF020EE926000EEA22400EEE6E040EF1
:10320000ED6E81C4E9FF82C4EAFF800EEF6E12000A
:103210000401B66BB76B020E945D18E181C4E9FF3F
:1032200082C4EAFFEE52080EEF6E81C4E9FF82C449
:10323000EAFF020EE926000EEA22480EEE6E040EA8
:10324000ED6E81C4E9FF82C4EAFF1DD099510401EB
:10325000465D04019A510401475904E246C499F4B9
:1032600047C49AF472D98BC4E9FF8CC4EAFF020EFA
:10327000E926000EEA22480EEE6E040EED6E8BC4B7
:10328000E9FF8CC4EAFFC80EEF6E1200800E040145
:10329000405D01E09ED00401C00E986F04014351CF
:1032A000030A57E0010A0CE0030A01E090D0040190
:1032B000240E956F610E966F000E976F120E81D0DF
:1032C000010E146E620E156E000E166E42C417F0DB
:1032D000186A196A030E0C6E0D6A0E6A17C007F0A1
:1032E00018C008F019C009F01CEC30F01450042488
:1032F000F36E15500520F46E16500620F86EF4CFCC
:10330000F7FFF3CFF6FF0900F5CF95F40900F5CFED
:1033100096F40800F5CF97F495C4F6FF96C4F7FF2E
:1033200097C4F8FF020EF626000EF722F8220800D6
:10333000F5CF99F495C4F6FF96C4F7FF97C4F8FF4C
:10334000030EF626000EF722F8220800F5CF9AF4B5
:103350001200030E425D38E2040E146E620E156E0A
:10336000000E166E42C417F0186A196A030E0C6E2E
:103370000D6A0E6A17C007F018C008F019C009F0EE
:103380001CEC30F014500424F36E15500520F46E3C
:1033900016500620F86EF4CFF7FFF3CFF6FF0900C2
:1033A000F5CF95F40900F5CF96F40800F5CF97F422
:1033B00095C4F6FF96C4F7FF97C4F8FF0800F550D0
:1033C0000401996F9A6B12000401986B12000401BA
:1033D000986B1200D9CFE6FFE1CFD9FF020EE126AC
:1033E0000401486B496B40511F0B020A11E0030AAC
:1033F0000CE0010A35E10401988F040148810401C1
:10340000A5052EE1040148832BD00401988F28D014
:103410000401988F040144BF0BD044510F0BE96E97
:10342000EA6AD890E936EA36830EE926040E0AD015
:1034300044510F0BE96EEA6AD890E936EA368B0EF2
:10344000E926040EEA22EECFDEFFEDCFDDFFDECF70
:10345000E9FFDDCFEAFFEF50040B02E0010E486FF9
:10346000040198AF07D0480E956F040E966F9881AF
:10347000020E996F020EE15C02E2E16AE552E16E32
:10348000E552E7CFD9FF12006598040198BF2BD011
:103490009DAF09D0020E946FB75101E1B9DE04016E
:1034A000B56BB46B120081C4E9FF82C4EAFFEE522F
:1034B000080EEF6E81C4E9FF82C4EAFF020EE9261E
:1034C000000EEA22400EEE6E040EED6E81C4E9FF9E
:1034D00082C4EAFF8C0EEF6E8BC4E9FF8CC4EAFF56
:1034E000840EEF6E1200040140AF0DD00401010EF6
:1034F000946FB65101E18CDE0401B56BB46BB3512E
:1035000023E1B7EF18F00401020E946F81C4E9FFC4
:1035100082C4EAFFEE52080EEF6E81C4E9FF82C456
:10352000EAFF020EE926000EEA22400EEE6E040EBD
:10353000ED6E81C4E9FF82C4EAFF840EEF6EB56BC5
:10354000B46BB35101E113DE1200D9CFE6FFE1CF36
:10355000D9FFE652080EDF6E0401995D000E9A59FC
:103560000AE299C4DFFF935102E1010E03D09305F3
:1035700002E1020E936FDF50156AE850995D996F72
:1035800015509A599A6F8BC4E9FF8CC4EAFFEE522A
:10359000DFCFEFFF480EA36F040EA46F98B11BD0CE
:1035A000DF5030E095C4F6FF952B96C4F7FF000E70
:1035B000962397C4F8FF97230800F550E66EA3C43E
:1035C000E9FFA4C4EAFFA32B000EA423E552E750B1
:1035D000EF6EDF06E5D7DF5015E095C4E9FF96C42E
:1035E000EAFF952B000E9623EF50E66EA3C4E9FF89
:1035F000A4C4EAFFA32B000EA423E552E750EF6E0C
:10360000DF06E9D7E552E552E7CFD9FF1200D9CF5F
:10361000E6FFE1CFD9FF020EE1267FC4E9FF80C4B7
:10362000EAFFEE52EFCFDFFFDFCF14F014500401BA
:103630009E5D000E9F5902E29EC4DFFFDF50146EB4
:10364000156AE8509E5D9E6F15509F599F6F010E41
:10365000DB6ADF50F36E010EDBCFF4FFF350F45C56
:1036600016E2010EDB50EA6A480FE96E040EEA2208
:10367000EF50E66E9BC4E9FF9CC4EAFF9B2B000E53
:103680009C23E552E750EF6E010EDB2AE2D7000ED5
:10369000D8809E55000E9F5527E281C4E9FF82C461
:1036A000EAFFEE52080EEF6E81C4E9FF82C4EAFF22
:1036B000020EE926000EEA22480EEE6E040EED6EB2
:1036C0007FC4E9FF80C4EAFFEF50400B06E181C4EC
:1036D000E9FF82C4EAFFC80E05D081C4E9FF82C4B5
:1036E000EAFF880EEF6E2BD081C4E9FF82C4EAFFA7
:1036F000EE52080EEF6E81C4E9FF82C4EAFF020EAB
:10370000E926000EEA22400EEE6E040EED6E81C434
:10371000E9FF82C4EAFF840EEF6EA051A111A2114D
:1037200009E007D0A2C4FBFFA1C4FAFF0401A05125
:10373000F96EF8DF04019D9FB35101E118DD020E1F
:10374000E15C02E2E16AE552E16EE552E7CFD9FFC2
:103750001200D9CFE6FFE1CFD9FFE6520401988FDE
:10376000030EE66EE66AE66A270EE66E0F0EE66E5A
:103770002AEC31F0146E050EE15E1450DF6ADF5062
:10378000146E156A100E145C000E155810E2DF500E
:10379000040DF3CFE9FFF4CFEAFF000EE926040E93
:1037A000EA22EE6AEE6AEE6AEE6ADF2AE8D7658CF4
:1037B000010EE66EE66AE66A7E0EE66E040EE66EC0
:1037C0002AEC31F0146E050EE15E1450659C040184
:1037D000080E8B6F040E8C6F000E7F6F040E806FCF
:1037E0007FC481F4826F42C47DF47D5102E1100EEA
:1037F00012D0010EE66EE66A7D0EE66E040EE66EEF
:10380000010EE66EE66A99EC2DF0146E060EE15E8E
:1038100014500401200E7C6FE552E552E7CFD9FF2A
:103820001200D9CFE6FFE1CFD9FF020EE126000E4C
:10383000DE6E040EDD6EFD0EDB50E824166EFE0E0D
:10384000DB50040DF3501624040DF4CF15F0D9CF3E
:10385000E9FFDACFEAFFF350EE261550ED22DECF76
:10386000E9FFDDCFEAFFEF9EFD0EDB500AE1FE0E21
:10387000EA6ADB34FE0BEA36E96E830EE926040EB3
:1038800009D0FE0EEA6ADB34FE0BEA36E96E8B0ED7
:10389000E926040EEA22DECFEEFFDDCFEDFFDECF1C
:1038A000E9FFDDCFEAFFEF9CDECFE9FFDDCFEAFFE6
:1038B000040EE926000EEA22EF8C020EE15C02E221
:1038C000E16AE552E16EE552E7CFD9FF1200D9CFA8
:1038D000E6FFE1CFD9FF020EE126FD0EDBA407D003
:1038E000E66AFE0EDBCFE6FF9CDFE552E552FD0EF9
:1038F000DBA208D0010EE66EFE0EDBCFE6FF91DF05
:10390000E552E552FE0EDB50156A260F146E0F0EBF
:10391000152214C0DEFF15C0DDFFDECFE9FFDDCFCD
:10392000EAFFFD0EDBCFEFFF020EE15C02E2E16A8F
:10393000E552E16EE552E7CFD9FF1200D9CFE6FF9D
:10394000E1CFD9FF020EE126FE0EDB5020E181C45B
:10395000E9FF82C4EAFFEE52080EEF6E81C4E9FF70
:1039600082C4EAFF020EE926000EEA22400EEE6E45
:10397000040EED6E81C4E9FF82C4EAFF8C0EEF6E87
:103980008BC4E9FF8CC4EAFF840EEF6E3BD0FD0EC2
:10399000DB50E824166EFE0EDB50040DF3501624A7
:1039A000040DF3CF14F0F4CF15F0000E1426040E1E
:1039B000152214C0DEFF15C0DDFF840EDECFE9FF47
:1039C000DDCFEAFFE850EF12FD0EDB50E824166E63
:1039D000FE0EDB50040DF3501624010F040DF3CF3F
:1039E00014F0F4CF15F0000E1426040E152214C0A6
:1039F000DEFF15C0DDFF840EDECFE9FFDDCFEAFF7D
:103A0000E850EF12020EE15C02E2E16AE552E16E7B
:103A1000E552E7CFD9FF1200D9CFE6FFE1CFD9FFBA
:103A2000020EE126FD0EDB500AE0FE0EEA6ADB34F0
:103A3000FE0BEA36E96E8B0EE926040E09D0FE0E67
:103A4000EA6ADB34FE0BEA36E96E830EE926040EE1
:103A5000EA22EECFDEFFEDCFDDFFD9CFE9FFDACFEF
:103A6000EAFFEE50ED1003E1F36AF46A44D0DECFD2
:103A7000E9FFDDCFEAFF020EE926000EEA22FB0E87
:103A8000DBCFEEFFFC0EDBCFEDFFDECFE9FFDDCFBE
:103A9000EAFFEE52FA0EDBCFEFFF400EDECFE9FF7A
:103AA000DDCFEAFFE850EF16880EDECFE9FFDDCF6D
:103AB000EAFFE850EF12FD0EDB500AE0FE0EEA6A64
:103AC000DB34FE0BEA36E96E8B0EE926040E09D0D4
:103AD000FE0EEA6ADB34FE0BEA36E96E830EE92657
:103AE000040EEA22EF74DECF14F0DDCF15F014C01F
:103AF000F3FF15C0F4FF020EE15C02E2E16AE55259
:103B0000E16EE552E7CFD9FF1200D9CFE6FFE1CF52
:103B1000D9FF65A84ED0FE0EEA6ADB34FE0BEA360A
:103B2000E96E8B0EE926040EEA22EE50EFCFEAFF93
:103B3000E96E400EEE16EE6AEE6AEE6AFE0EEA6A74
:103B4000DB34FE0BEA36E96E8B0EE926040EEA2220
:103B5000EE50EFCFEAFFE96EEE7CFE0EEA6ADB3450
:103B6000FE0BEA36E96E8B0EE926040EEA22EF74AC
:103B7000400E146EFE0EEA6ADB34FE0BEA36E96E86
:103B80008B0EE926040EEA22EE50EFCFEAFFE96E33
:103B90001450EF16FE0EEA6ADB34FE0BEA36E96ECD
:103BA0008B0EE926040EEA22EE50EFCFEAFFE96E13
:103BB000EF7CE552E7CFD9FF1200656A0F01366B43
:103BC00004017C6B120004017C5114E1656A0F0151
:103BD000366B160E396F9F0E376F7B0E366FD08E99
:103BE000A288A088F28E65B602D06586FCD7040153
:063BF000010E7C6F1200C3
:0A3BF60037EC23F0FB0EDBCFF3FFEA
:103C0000DB06F35000090AE085EC23F0FA0EF0EC35
:103C100023F0F3E1151CF1E1010E01D0000E66EF77
:103C200023F037EC23F03B0EE12402E3E168E65297
:103C3000E16E010EDB6A020EDB6AF90EDBCFF6FFE6
:103C4000FA0EDBCFF7FFFB0EDBCFF8FF0800F550D5
:103C5000DF6EDF5002E18AEF22F0250EDF5C02E02A
:103C60007DEF22F0030EDB6A040EDB6A050EDB6AD1
:103C7000060EDB6A070EDB6A9FEC22F02D0EDF5C7E
:103C80000CE02B0EDF5C09E0200EDF5C06E0230E6B
:103C9000DF5C03E0300EDF5C1AE1DF50300A14E035
:103CA000130A0FE0030A0AE00B0A05E0060AE4E142
:103CB000030EDB80E1D7030EDB82DED7030EDB844D
:103CC000DBD7030EDB86D8D7030EDB88D5D72A0EC9
:103CD000DF5C1BE19BEC22F0E9EC22F010E0030E2C
:103CE000DB8008680968130EDBCF0DF0140EDBCF04
:103CF0000EF065EC30F0040E06C0DBFF03D0130EAF
:103D0000D2EC22F09FEC22F00BD0090EDB6A40ECE3
:103D100023F003E0B4EC23F0FAD7090ED2EC22F042
:103D2000030EDBB0DB982E0EDF5C1BE19FEC22F074
:103D30002A0EDF5C0BE19BEC22F0E9EC22F003E1C0
:103D4000130E24EC23F09FEC22F00BD0090EDB6A5B
:103D500040EC23F003E0B4EC23F0FAD7090E24EC96
:103D600023F0680EDF5C07E19FEC22F0680EDF5C59
:103D70001DE1030E18D0740EDF5C17E07A0EDF5CD5
:103D800014E0480EDF5C06E0540EDF5C03E05A0EE0
:103D9000DF5C02E1020E07D06C0EDF5C03E06A0E0E
:103DA000DF5C04E1010E77EC23F0C9DBDF506E0A23
:103DB00001E17FD31E0A01E192D1200A01E18FD1F6
:103DC0003F0A01E149D11A0A01E146D10D0A01E198
:103DD00043D1200A01E140D13A0A01E13DD1200A54
:103DE00001E13AD1260A01E135D10D0A01E132D1D2
:103DF0001A0A01E1D9D0200A4AE0300A1FE0460A37
:103E00000EE0250A01E083D3D950F90FE96EFF0EC9
:103E1000DA20EA6E010EEE5E000EEE5AEE5A85ECE6
:103E200023F0250EE66E95DB03E1151C01E169D355
:103E300081EC23F001E26BD3DB2A69D3080EDB6A45
:103E4000040EDB50010806E2040EDB0449EC23F00B
:103E5000DB508BDB080EDB5009E0030EDB50010B5F
:103E600005E172DB01E04DD3080EDB6A64DBEFCFC6
:103E7000DFFFF9EC23F003E1151C01E142D381ECF3
:103E800023F001E3DB2A60DB01E141D33AD3070EE3
:103E9000DB5002080FE1C5EC23F0030E8CEC23F09D
:103EA0000E0EEECFDBFF0F0EEECFDBFF100EEECFD0
:103EB000DBFF20D0F70EDBCF17F0F80EDBCF18F0CA
:103EC000020E175E000E185AF70E17C0DBFFF80E31
:103ED00018C0DBFF17C0E9FF18C0EAFF7CEC23F035
:103EE000166A0E0E14C0DBFF0F0E15C0DBFF100E9E
:103EF00016C0DBFF0E0EDBCFE6FF0F0EDBCFE6FFBB
:103F0000100EDBCFE6FF52EC31F0E552E552E55200
:103F1000130E07C0DBFF140E08C0DBFF060EDB50DC
:103F200005E0130EC0EC23F001E26ADBE4EC23F0C1
:103F300002E2130E37DBA7EC23F006E0040EC0EC20
:103F400023F002E2050E2EDB030EDBB005D0FCDA17
:103F500001E0D7D2080EDB6A090EDB6A0E0EDBCF5A
:103F6000F6FF0F0EDBCFF7FF100EDBCFF8FF0800D8
:103F7000F550DF6EDF5014E0EAEC23F011E2F9ECCB
:103F800023F003E1151C01E1BCD2BBDB01E3DB2A1A
:103F9000090EDB2AD9500E0FE96E000ECBDBE7D7F6
:103FA000D3DA01E1B4D2ADD2C6DA110EEECFDBFF27
:103FB000120EEDCFDBFF110EDBCFE6FF120EDBCFD3
:103FC000E6FF44EC31F0E552E552130EF3CFDBFF90
:103FD000140EF4CFDBFF060EDB5004E0130ED0DB33
:103FE00001E20EDBE4EC23F002E2130EDBDAAFDBDE
:103FF00005E0040EC5DB02E2050ED4DA030EDBB0E9
:1040000005D0A2DA01E07DD2080EDB6A090EDB6A78
:10401000110EDBCFE9FF120EDBCFEAFFEFCFDFFFA0
:10402000DF5014E0D7DB12E2E4DB03E1151C01E111
:1040300068D267DB01E3DB2A090EDB2A110EDB2ADB
:10404000DBCFE9FF120EE8E3DB2AE6D77DDA01E1F8
:104050005ED257D2030EDB8E070EDB0410E195DB38
:10406000040E5ADB0A0EEECFDBFF0B0EEECFDBFFAA
:104070000C0EEECFDBFF0D0EEECFDBFF6CD0070E8C
:10408000DB5003082CE1030EDBAE0DD0B2DA020EDA
:1040900076DAEFCF14F0156A166A176A14AE39D0C3
:1040A0001568166835D0F70EDBCF15F0F80EDBCFAC
:1040B00016F0020E155E000E165AF70E15C0DBFF45
:1040C000F80E16C0DBFF15C0E9FF16C0EAFFEFCF00
:1040D00014F00A0E14C0DBFF0B0EDB6A38D0070E9B
:1040E000DB50020809E1030EDBAE04D059DB16AE4B
:1040F00010D00ED055DB0DD0030EDBAE12D079DA26
:10410000020E3DDAF9DA166A176A15AE02D01668A1
:104110001768E2DA0C0E16C0DBFF0D0E17C0DBFFCE
:104120001AD0F70EDBCF16F0F80EDBCF17F0020E29
:10413000165E000E175AF70E16C0DBFFF80E17C0FA
:10414000DBFF16C0E9FF17C0EAFFD6DAC5DA0C0EAE
:10415000DB6A0D0EDB6A060EDB5005E1010EF36E25
:10416000050EF3CFDBFF150EDB6A160EDB6AD950A6
:10417000370F146E000EDA20156E390E14C0DBFFF7
:104180003A0E15C0DBFF380EDB6A080EDB6A0A0E3A
:10419000AEDADF50780A12E0200A10E0280A0CE0BC
:1041A000200A0AE03F0A06E00D0A02E0200A08E1C0
:1041B000020E05D0080E03D0080EDF26100E97DA87
:1041C000030EDBBE02D0DB92DB94DB50800B24E0DD
:1041D0008ADAD890030EEB50000A08E6000EEE5C77
:1041E000000EEE58000EEE58000EEE5815E213DAEF
:1041F0000B680C680D680E685EEC32F00A0E02C0A7
:10420000DBFF0B0E03C0DBFF0C0E04C0DBFF0D0E4B
:1042100005C0DBFF2D0E08D0030EDBA202D02B0E53
:1042200003D0DBA408D0200EF36E170EF3CFDBFF14
:10423000150EDB2A02D0170EDB6A050EDB5003E1F8
:10424000B7D901E189D0A80E146E660E156E000E66
:10425000166E070EDBCF17F0186A196A1A6A17C0B4
:104260000BF018C00CF019C00DF01AC00EF0D3D925
:10427000BAEC32F014500224F36E15500320F46EA1
:1042800016500420F86EF4CFF7FFF3CFF6FF0800C6
:10429000090EF5CFDBFF580EDF5C0FE1610EF36E08
:1042A000090E7BD90AE3200E146E090EDBCFE7FF5F
:1042B0001450E75E090EE7CFDBFF070EDBCF14F0EB
:1042C000156A166A176A0FDA14C00BF015C00CF0E5
:1042D00016C00DF017C00EF0EECF06F0EECF07F0CF
:1042E000EECF08F0EFCF09F0BAEC32F009C0EDFFE5
:1042F00008C0EDFF07C0EDFF06C0EFFF390EDBCFB2
:10430000E9FFDB063A0EDBCFEAFF01E2DB06090E2E
:10431000DBCFEFFF150EDB2A4BD995E1030EDBA6B1
:104320001DD06F0EDF5C06E1C1D918E3150EDB2846
:104330005BDA14D0780EDF5C09E0580EDF5C06E033
:10434000620EDF5C03E0420EDF5C08E1020EF36EFA
:10435000160EF3CFDBFF02D0150EDB6A030EDB5027
:10436000100B0EE0040EDBCF14F0050EDB50D880EE
:10437000145406E2060EDB5003E1040EDB5034DA7F
:1043800095D90AE2050EDBCFE7FF150EDB50E75E9D
:10439000050EE7CFDBFF02D0050EDB6A040EDBCF94
:1043A00014F0160E45D9D880145414E2160EDBCF43
:1043B000E6FF150EDBCFE6FF040EDBCFE6FF050EB2
:1043C000DB50E552E75CE552D880E754E552D880EF
:1043D000E7545FD9030EDB50010B0BE1080EDB50F5
:1043E00008E0B2D801E08DD0080EDB50BED8080E30
:1043F000DB6A170EDB5007E088D9170EF1D903E10D
:10440000151C01E17ED0160EDB5016E07ED9300E71
:10441000E66E9FD802E1151C74E077D9DFCFE6FF86
:104420001CEC32F0E552E552E552F4CF15F00001F4
:10443000F31C02E1151C65E0050EDBCF14F0160E2F
:10444000DB50D880145409E2050EDBCFE7FF160ECF
:10445000DB50E75E050EE7CFDBFF300EE66E050EA4
:10446000CBD94FE1390EDB2ADBCFE9FF3A0E01E36E
:10447000DB2ADBCFEAFF090EEFCFDBFFDB500EE0DC
:1044800044D9090EADD902E1151C3BE0390EDB2AF7
:10449000DBCFE9FF3A0EEDE3DB2AEBD755D831E16C
:1044A000160EDBCFE6FF080EC3D8E552E7245DD831
:1044B0002ED0070EDB50030A1CE0010A14E0030AA9
:1044C00007E07BD9DBCFEEFF020EDBCFEDFF1FD085
:1044D000F5D8196A17AE02D0186819682CD8BCD85C
:1044E00019C0EEFF14D0EAD817BE186824D8B4D883
:1044F0000ED063D9DBCFEFFF0AD07BD905E1151CC5
:1045000003E1F368F46810D0FCD801E3DB2A79D921
:1045100026EF1EF0010EDBCF14F0020EDBCF15F0FC
:1045200014C0F3FF15C0F4FF3B0EE15C02E2E16A48
:10453000E552E16ECBD029D9020E8CEF23F061D980
:104540000800F550DF6E1200200EE66E080EFCEF3C
:1045500023F01CEC32F0E552E552E552F3CF14F0B3
:10456000F4CF15F00001F31C1200146E156AD95037
:10457000010F4DD91450EE261550ED221200185E91
:10458000000E195AF70E18C0DBFFF80E19C0DBFF3A
:1045900018C0E9FF19C0EAFF1200DBCFF4FFF350A7
:1045A000F45C1200DB50E76E040EE7CFDBFF120075
:1045B0000A0EDBCF14F00B0EDBCF15F00C0EDBCFA9
:1045C00016F00D0EDBCF17F0145015101610171043
:1045D0001200130EEECFDBFF140EEDCFDBFF130E38
:1045E000DBCF14F0140EDBCF15F00001800E151494
:1045F0001200F70EDBCF18F0F80EDBCF19F0120027
:10460000050EDB50E66ED950130F01D9E552E75085
:10461000EE6EED6A12000A0EDBCF06F00B0EDBCF5A
:1046200007F00C0EDBCF08F00D0EDBCF09F0120007
:10463000DBCFE6FF150EDBCFE6FF050EDB50E552C4
:10464000E724E552E7241200DB50CED8010EF36ECA
:10465000060EF3CFDBFF1200EE50EFCFEAFFE96E5C
:1046600016C0EEFF17C0EEFF18C0EEFF1200D9CF44
:10467000E6FFDACFE6FFE1CFD9FFE2CFDAFF1200A3
:10468000DFCFE6FFE66AF9EC32F0E552E552F3508F
:104690001200E76E080EE7CFDBFF1200EECF14F03A
:1046A000EECF15F0EFCF16F0176A1200050EDBCF34
:1046B00014F0150EDB50D88014541200010EDBCF1D
:1046C00016F0020EDBCF17F0186A1200E552E5CFA4
:1046D000DAFFE7CFD9FF12000A0E14C0DBFF0B0E82
:1046E00015C0DBFF1200D9500A0F07EF24F0F36E5C
:1046F000070EF3CFDBFF1200EECF14F0EFCF15F073
:104700001200010EDB2A020E1200FC0EDBCFE6FFC8
:10471000FD0EDBCFE6FF1200145E000E155AF70EF9
:1047200014C0DBFFF80E15C0DBFF14C0E9FF15C095
:10473000EAFF1200DA20EA6EEF2AEECFF6FF000E53
:10474000EF22EECFF7FFEF22EECFF8FF1200040EBC
:10475000DBCFE6FF130EDB50E552E75C9ADFDB5060
:1047600004DF060EDB501200090EDB500A0DF35079
:10477000DF24D00FE76E090EE7CFDBFF9FEF22F0BB
:10478000DB50F36E050ECDEF22F0F70EDBCF14F009
:10479000F80EDBCF15F01200DFCFE6FFA9EF22F015
:1047A00028DF030EECDE4EEF23F0FBEC1DF0E552AC
:1047B000E552E552E55200091200BDDEEE50EFCFA2
:1047C000EAFFE96E010E1200130EDB50F36E040EC9
:1047D000CDEF22F0040EDB50F36E090ECDEF22F088
:1047E000DBCFE6FFA9EF22F0E76E050EE7CFDBFF98
:1047F00012008BDFCCEF23F0DBCFE6FF86DFD5EFB7
:1048000023F0D950F90FE96EFF0E9AEF23F0E96E0D
:08481000000EDA20EA6E12002E
:084818000201CD6BCE6B400ED6
:10482000E66E500EE66E040EE66EE66A010EE66E69
:104830000CEC1DF0146E050EE15E1450F3CFCBF2BC
:10484000F4CFCCF20201936B0201EC690201946B8C
:10485000956BDA6BDB6BDC6BDD6BDE6BDF6BE06B60
:10486000E16BD16BD26BA46B010EA45D22E2A4516B
:10487000EA6AD30FE96E020EEA22EF6A1CEC08F036
:10488000000912E0FAEC10F0F3CF14F0F4CF15F0B9
:10489000F350F41009E00201A45149EC33F0F35055
:1048A0000201D113F450D21346EC29F00201A42BDB
:1048B000DBD71200040140511F0B010801E0120078
:1048C000445101E012004151FE0A0BE0010A01E0EF
:1048D00012000201936B0201EC690201946B956B6B
:1048E00012000401486B0401480E956F040E966F88
:1048F000010E996F9A6BC10E986F1200D9CFE6FF27
:10490000E1CFD9FFE65202019351030A01E1B7D08A
:10491000010A01E1A3D0030A01E19CD0010A01E0F0
:10492000F6D0CB51CC1102E1000E08D0CBC2E9FF8A
:10493000CCC2EAFFEF50800B01E0010E000901E05C
:10494000E7D050C497F251C498F252C499F253C4BC
:104950009AF254C49BF255C49CF256C49DF257C4BB
:104960009EF258C49FF259C4A0F25AC4A1F25BC48B
:10497000A2F25CC4A3F25DC4A4F25EC4A5F2DF6A35
:1049800004015E51DF5C13E2DF50EA6A5F0FE96EFB
:10499000040EEA22EF50E66EDF50EA6AA60FE96ED7
:1049A000020EEA22E552E750EF6EDF2AE9D7CBC2CA
:1049B000E9FFCCC2EAFFEE52EFCFB6F21F0E0201C2
:1049C000B65D01E0A5D0550E971901E0A1D0530EB8
:1049D000981901E09DD0420E991901E099D0430E3B
:1049E0009A1901E095D0A4510F0801E291D0A55188
:1049F000100801E28DD0010EA55D01E289D0A3511E
:104A000004E0800EA35D01E083D09BC273F49CC2DE
:104A100074F49DC275F49EC276F40401550E6F6F56
:104A2000530E706F420E716F530E726F0201966BD0
:104A3000030EA65D06E0B991B993B995B997C36B1A
:104A4000C46B800EA35D02E1010E17D0A35160E19B
:104A5000020E13D01DDAFF085BE10DD019DAFF0852
:104A600057E104017B5107E17751781179117A11EF
:104A700002E0020E7B6F0201030E936F49D0CD510D
:104A8000CE1102E1000E08D0CDC2E9FFCEC2EAFF8E
:104A9000EF50800B01E0010E00093AE10D0EE66EC9
:104AA0006F0EE66E040EE66E010EE66EE66E0CEC20
:104AB0001DF0146E050EE15E1450F3CFCDF2F4CF6D
:104AC000CEF20201CB51CC1102E1000E08D0CBC2D4
:104AD000E9FFCCC2EAFFEF50800B01E0010E0009B4
:104AE00013E11F0EE66E500EE66E040EE66EE66AE9
:104AF000010EE66E0CEC1DF0146E050EE15E145016
:104B0000F3CFCBF2F4CFCCF20201936B01D0936BD5
:104B100002019351E552E552E7CFD9FF1200D9CFF8
:104B2000E6FFE1CFD9FF090EE1260201EC51FE0AB2
:104B300001E1F7D0030A01E1C9D0D20A01E1BDD0F9
:104B4000340A01E1BAD01B0A01E1ACD01E0A01E12E
:104B500099D0040A01E18BD0190A65E0290A5EE0C8
:104B6000020A57E00D0A1EE0370A06E0ED0A01E0EE
:104B7000D8D0A6C2ECF2E8D0240EE66EE66A160E95
:104B8000E66E660EE66E000EE66E000EE66E060E31
:104B9000E66E07EC31F0146E070EE15E145004016E
:104BA000240E5FD004017B6B75EC08F0050E06C087
:104BB000DBFF060E07C0DBFF070E08C0DBFF080E99
:104BC00009C0DBFF70EC08F0010EF3CFDBFF020E33
:104BD000F4CFDBFF030EDB6A040EDB6A080EDBCFCB
:104BE00000F6070EDBCF01F6060EDBCF02F6050E50
:104BF000DBCF03F6040EDBCF04F6030EDBCF05F6A6
:104C0000020EDBCF06F6010EDBCF07F60401080E1D
:104C100037D08BD9000901E097D055D045DA00098B
:104C200001E092D050D0DF6ADF50146E156A120E88
:104C3000145C000E155813E2DF50EA6AB70FE96EF4
:104C4000020EEA22EF50E66EDF50EA6A000FE96ECC
:104C5000060EEA22E552E750EF6EDF2AE5D704019F
:104C6000120E776F786B796B7A6B7B6B6AD006016B
:104C7000020E006F016B026B036B04017B6B040E71
:104C8000776F5CD01CEC08F0000917E10201B991C4
:104C9000B983B995B9973A0EC36FC46B0401010E7D
:104CA0007B6F11D00201B9510F0B060803E104011B
:104CB0007B0509E0EBDA040102D004017B6B776B22
:104CC000786B796B7A6B0201EC693ED00201CD51B1
:104CD000CE1102E1000E08D0CDC2E9FFCEC2EAFF3C
:104CE000EF50800B01E0010E00092EE177C4E6FFD2
:104CF000000EE66E060EE66E010EE66EE66E0CEC3B
:104D00001DF0146E050EE15E1450F3CFCDF2F4CF1A
:104D1000CEF20201EC690401776B786B796B7A6BE8
:104D200013D0B4DA0201B981B993B985B997200ECD
:104D3000C36FC46B0401010E7B6F776B786B796B6B
:104D40007A6B0201FD0EEC6F090EE15C02E2E16A92
:104D5000E552E16EE552E7CFD9FF1200D9CFE6FF69
:104D6000E1CFD9FFE6520201EC51FD0A55E0020AFB
:104D700050E0ED0A30E00C0A01E180D01E0A01E1AA
:104D80007DD0030A74E182DA0201B991B983B99541
:104D9000B9973A0EC36FC46BDF6ADF50146E156AA1
:104DA000120E145C000E155813E2DF50EA6AB70FBA
:104DB000E96E020EEA22EF50E66EDF50EA6A000F5B
:104DC000E96E060EEA22E552E750EF6EDF2AE5D7DC
:104DD0000401120E15D0240EE66EE66A160EE66E7B
:104DE000660EE66E000EE66E000EE66E060EE66ECF
:104DF00007EC31F0146E070EE15E14500401240E2E
:104E0000776F786B796B7A6B7B6B0201FD0EEC6FC1
:104E10003AD0A6C2ECF237D00201CD51CE1102E158
:104E2000000E08D0CDC2E9FFCEC2EAFFEF50800BE2
:104E300001E0010E000927E177C4E6FF000EE66EEF
:104E4000060EE66E010EE66EE66E0CEC1DF0146EBC
:104E5000050EE15E1450F3CFCDF2F4CFCEF2020195
:104E6000EC690401776B786B796B7A6B0CD0010E6F
:104E7000E66EE66E9EEC1CF0E552E5520401010E72
:104E80007B6F0201EC69E552E552E7CFD9FF1200D2
:104E90001CEC08F0000909E00201A451EA6AD30FF2
:104EA000E96E020EEA22EF0410E10201A45149EC7E
:104EB00033F0F3CF14F0F4CF15F0141E151E145078
:104EC0000201D1171550D2172AD0A45149EC33F062
:104ED0000201D151F314146ED251F414156E145012
:104EE00015101FE1FAEC10F0F3CF14F0F4CF15F029
:104EF000F350F41014E00201A45149EC33F0F350E4
:104F00000201D113F450D213B991B983B985B9977D
:104F1000280EC36FC46B0401010E7B6F02D01EDF2D
:104F200001D0FDDD0201EC51120002019451040A8E
:104F300001E17BD0070A6CE0010A23E0030A18E0D4
:104F4000010A01E0AAD0A8C2D9F2A9C2D8F2AAC225
:104F5000D7F2ABC2D6F2ADC2D5F2AEC2D4F20401E2
:104F60007B6B776B786B796B7A6B0201010E946FB8
:104F7000D451D51101E195D0D407000ED55B020EB6
:104F8000946FCD51CE1102E1000E08D0CDC2E9FFE1
:104F9000CEC2EAFFEF50800B01E0010E000901E0F4
:104FA00081D0000EE66E060EE66ED6C2E6FFD7C2D0
:104FB000E6FFD8C2E6FFD9C2E6FF89EC0DF0146E19
:104FC000060EE15E1450010810E0640E0201965DC9
:104FD00002E2962B67D00401010E7B6F0201B981BA
:104FE000B983B995B997C36BC46B0201D62B000E78
:104FF000D723D823D9230401776B020E786F796BFE
:105000007A6B0201000EC96F060ECA6F030E946F11
:1050100004017751781179117A1104E10201010E2E
:10502000946F40D00201040E946FCD51CE1102E175
:10503000000E08D0CDC2E9FFCEC2EAFFEF50800BD0
:1050400001E0010E00092EE1400EE66EC9C2E6FF46
:10505000CAC2E6FF010EE66EE66E0CEC1DF0146EA1
:10506000050EE15E1450F3CFCDF2F4CFCEF2020183
:10507000030E946F400E9F5F000EA05BA15BA25BCE
:10508000400E0401775F000E785B795B7A5B400E1F
:105090000201C927000ECA2305D00401020E7B6F4E
:1050A0000201946B9451120002019551020A01E130
:1050B000AAD0060A6DE0070A26E0020A14E0010AF7
:1050C00001E0DDD0A8C2D9F2A9C2D8F2AAC2D7F2B3
:1050D000ABC2D6F2ADC2D5F2AEC2D4F204017B6B44
:1050E0000201010E936FD451D51101E1CCD0030E12
:1050F000956F000EC96F060ECA6F0401776B020E22
:10510000786F796B7A6BD880000E04017755000EAA
:105110007855000E7955000E7A5528E20201CB51E0
:10512000CC1102E1000E08D0CBC2E9FFCCC2EAFFED
:10513000EF50800B01E0010E000901E0A5D0400E08
:10514000E66EC9C2E6FFCAC2E6FFE66A010EE66E77
:105150000CEC1DF0146E050EE15E1450F3CFCBF293
:10516000F4CFCCF20201040E956F12D0F4EC0FF0E4
:1051700000090BE00401010E7B6F0201B991B983B4
:10518000B995B997270EC36FC46B0201020E75D093
:10519000CB51CC1102E1000E08D0CBC2E9FFCCC24A
:1051A000EAFFEF50800B01E0010E00096DE1CBC278
:1051B000E9FFCCC2EAFFEE52EFCF14F0156A166A8F
:1051C000176A14509F5F1550A05B1650A15B1750D3
:1051D000A25BCBC2E9FFCCC2EAFFEE52EFCF14F0E4
:1051E000156A166A176A14500401775F1550785BC8
:1051F0001650795B17507A5B400E0201C927000EEA
:10520000CA23030E3AD004017B512EE10201D6518C
:10521000D711D811D91102E1010E01D0000EE66EAE
:10522000000EE66E060EE66ED6C2E6FFD7C2E6FFB9
:10523000D8C2E6FFD9C2E6FFC2EC0EF0146E070E2C
:10524000E15E1450010810E0640E0201965D02E276
:10525000962B1AD00401010E7B6F0201B981B9832C
:10526000B995B997C36BC46B0201D62B000ED72337
:10527000D823D923D407D55B010E956F05D004013F
:10528000020E7B6F0201956B955112000201B791DE
:10529000B793B795B797B789B78BB78DB79FB86BEB
:1052A000B991B993B995B997B99BB99DB99FBA6BA3
:1052B000BB6BBC6BBD6B0A0EBE6FBF6BC06BC16BB3
:1052C000C26BC36BC46BC56BC66BC76BC86B12007C
:1052D000DACFE4FFE2CFDAFFE9CFE4FFEACFE4FF81
:1052E000F6CFE4FFF7CFE4FFF8CFE4FFF5CFE4FF1C
:1052F000F3CFE4FFF4CFE4FFFACFE4FFFBCFE4FF0A
:1053000000EE00F0140EE80403E3EECFE4FFFBD759
:1053100000EE14F0120EE80403E3EECFE4FFFBD737
:10532000E65215EC15F0E55200EE25F0120EE804F9
:1053300003E3E5CFEDFFFBD700EE13F0140EE80416
:1053400003E3E5CFEDFFFBD7E5CFFBFFE5CFFAFFAA
:10535000E5CFF4FFE5CFF3FFE5CFF5FFE5CFF8FFAD
:10536000E5CFF7FFE5CFF6FFE5CFEAFFE5CFE9FFB1
:10537000E5CFDAFF1100D8CFE4FFE0CFE4FFE46E21
:10538000DACFE4FFE9CFE4FFEACFE4FFE6529EAADA
:1053900017D0ACA205D0AC98AFCF51F2AC8802D0F8
:1053A000AFCF51F20201E451EA6A000FE96E020E3A
:1053B000EA2251C2EFFFE42BE451500801E2E46B12
:1053C0009DA817D00201E6510DE09E50100B0AE097
:1053D00001014551EA6A000FE96E010EEA22EF5021
:1053E000AE6E452B01014451455D03E30201E66BBE
:1053F0009D98A4A605D00201E35101E0E307A4961D
:10540000E552E5CFEAFFE5CFE9FFE5CFDAFFE5506A
:10541000E5CFE0FFE5CFD8FF1000D9CFE6FFE1CF21
:10542000D9FF020EE126DE6ADD6A2FD9E3EC1DF01A
:1054300001D8FED7D9CFE6FFE1CFD9FF030EE12691
:105440003EDB200E0401E76E7C19E8AE02D0E734A3
:1054500002D0E7507C5D03E36550020B09E0040EC7
:105460007C5D04E06550020B01E194D0EFD892D04E
:105470000201E65115E1400EE66E000EE66E010EE9
:10548000E66E68EC2EF0E552E552E5520101446FFC
:105490004451000805E20201010EE66F0101456B6F
:1054A0000201E65107E09E50100B04E09D50100BE6
:1054B00001E19D88E551E45D1FE0400E0101435D7F
:1054C0001BE20201E551EA6A000FE96E020EEA22D0
:1054D000EF50E66E01014351EA6A890FE96E010E51
:1054E000EA22E552E750EF6E432B0201E52BE5512E
:1054F0005008E0E2E56BDED701014151421132E094
:10550000010EDB6A020EDB6A3F0E435D29E2415168
:10551000421126E0010EDBCFE9FF020EDBCFEAFFEE
:10552000520EE926020EEA22EF50E66E4351EA6A75
:10553000890FE96E010EEA22E552E750EF6E432B28
:10554000010EDB2A020E01E3DB2A4107000E425B5B
:105550004351EA6A890FE96E010EEA22EF6AD4D755
:10556000416B426B0E01905111E101014351000862
:105570000DE243C1E6FF890EE66E010EE66EC8EC51
:105580002EF0E552E552E5520101436B72EC2FF02B
:105590007EEC24F0030EE15C02E2E16AE552E16E8A
:1055A000E552E7CFD9FF12000201E251020A48E0BA
:1055B000030A08E0010A44E182B002D094948B947B
:1055C000E22B3ED082A03CD08150040B39E18150C7
:1055D000080B36E08150020B33E08150010B30E0C4
:1055E00094908B90020EE26F94848B847EEC08F092
:1055F00001014151421124E18250E66EE66A945065
:10560000E66EE66A8150E66EE66A9350E66EE66AFA
:105610000201E351E66EE66ABC0EE66E650EE66ECA
:10562000000EE66E520EE66E020EE66E77EC31F07C
:10563000146E0F0EE15E1450F3CF41F1F4CF42F13E
:10564000020E0201E25D01E1010C000C0201E251D7
:10565000020A11E0030A15E1E35113E1E26BE36B87
:1056600094808B8094848B84938081808A828A84C6
:105670009384938206D08BB0F1D7190EE36F010E9D
:10568000E26FE25101E0010C000CD9CFE6FFE1CF5F
:10569000D9FF020EE1260F0EC112580EDE6E020E69
:1056A000DD6E9B8CDFCF14F0DF06010EDBCF15F033
:1056B00001E2DB0614501510F5E10F01FC0E486FF6
:1056C0001F0E496F27D80E01060EFB6F0A0ECB6F17
:1056D000050EFC6F090ECA6F050EFC6F870E76145F
:1056E0006009766EFC0E76140309766EFA0E776EFC
:1056F0007684A596A386320E796E798085EC14F0B7
:10570000020EE15C02E2E16AE552E16EE552E7CFAA
:10571000D9FF1200D9CFE6FFE1CFD9FFE6521FD85B
:10572000DF6ADF50146E156A410E145C000E1558C6
:1057300009E2DF50EA6A890FE96E010EEA22EF6A98
:10574000DF2AEFD70101436B446B466B476BCC6B91
:10575000CB6BCA6BE552E552E7CFD9FF1200D9CF28
:10576000E6FFE1CFD9FFE652948E949C240EAD6EF5
:10577000900EAC6E710EB06E020E7F6E9D8A9F9A77
:105780009F98F28C380E7E6EAF50DF6EE552E55278
:10579000E7CFD9FF1200D9CFE6FFE1CFD9FFFE0E48
:1057A000DB50AE6EE552E7CFD9FF1200D9CFE6FF4E
:1057B000E1CFD9FF220EE126D880800E0E010055E0
:1057C000840E01551E0E0255000E035501E259D1FB
:1057D00000CE88FE01CE89FE02CE8AFE03CE8BFE6D
:1057E000186A1B0E196EB70E1A6E1B6A18C006F0E7
:1057F00019C007F0086E1BC009F088CE0BF089CEE7
:105800000CF08ACE0DF08BCE0EF0BAEC32F006C062
:1058100014F007C015F008C016F009C017F0140600
:10582000000E155A165A175A14C0DFFF010E15C084
:10583000DBFF020E16C0DBFF030E17C0DBFF010EFD
:10584000186E196A1A6A1B6AD9CFE9FFDACFEAFF24
:10585000EE501826EE501922EE501A22EE501B225E
:10586000146A1B0E156EB70E166E176A14C006F07A
:1058700015C007F0086E17C009F018C00BF019C06A
:105880000CF01AC00DF01BC00EF0BAEC32F0100E86
:1058900006C0DBFF110E07C0DBFF120E08C0DBFFE6
:1058A000130E09C0DBFFD950100FE96EDACFEAFF03
:1058B0000E018851EE5C146E8951EE58156E8A51B6
:1058C000EE58166E8B51EE58176E080E14C0DBFFA3
:1058D000090E15C0DBFF0A0E16C0DBFF0B0E17C04A
:1058E000DBFF146A1B0E156EB70E166E176A14C016
:1058F00006F015C007F0086E17C009F088CE0BF04F
:1059000089CE0CF08ACE0DF08BCE0EF0BAEC32F0D0
:10591000040E06C0DBFF050E07C0DBFF060E08C045
:10592000DBFF070E09C0DBFF010E186E196A1A6A49
:105930001B6AD950040FE96EDACFEAFFEE50182641
:10594000EE501922EE501A22EE501B22146A1B0E42
:10595000156EB70E166E176A14C006F015C007F064
:10596000086E17C009F018C00BF019C00CF01AC06F
:105970000DF01BC00EF0BAEC32F0140E06C0DBFFC7
:10598000150E07C0DBFF160E08C0DBFF170E09C09F
:10599000DBFFD950140FE96EDACFEAFFEE500E01AB
:1059A000885D146EEE508959156EEE508A59166E48
:1059B000EE508B59176E0C0E14C0DBFF0D0E15C088
:1059C000DBFF0E0E16C0DBFF0F0E17C0DBFF0C0E49
:1059D000DBCF14F00D0EDBCF15F00E0EDBCF16F083
:1059E0000F0EDBCF17F0D950080FE96EDACFEAFFC0
:1059F000EE50145CEE501558EE501658EE501758F5
:105A000036E2D9CFE9FFDACFEAFF040EDBCFEEFFB3
:105A1000050EDBCFEEFF060EDBCFEEFF070EDBCF72
:105A2000EEFFD950140FE96EDACFEAFF100EEECF79
:105A3000DBFF110EEECFDBFF120EEECFDBFF130EFE
:105A4000EECFDBFFD9500C0FE96EDACFEAFF080E7C
:105A5000EECFDBFF090EEECFDBFF0A0EEECFDBFF52
:105A60000B0EEECFDBFF2D0EF36E210E03D0200EBA
:105A7000F36E180EF3CFDBFFDF50B06E010EDB507C
:105A80007F6E220EE15C02E2E16AE552E16EE552D0
:105A9000E7CFD9FF1200D9CFE6FFE1CFD9FFE65219
:105AA000ACA205D0AC98AF50DF6EAC8802D0AF503E
:105AB000DF6EDF50E552E552E7CFD9FF120012004A
:105AC00012001200120012005AEC24F0E3EF2DF045
:105AD00012001E0EE66E010EE66E67EC1CF0E5523B
:105AE000E5520CEC24F035EF2EF00401A50520E181
:105AF0000401A6051DE1A098E4DF65920401A66BF0
:105B00000101100ECD6F0E0ECE6FCD07000ECE5BD5
:105B1000CD51CE11FAE16584080ECD6F070ECE6F20
:105B2000CD07000ECE5BCD51CE11FAE16594A08871
:105B30001200D9CFE6FFE1CFD9FFFD0EDBCF08F091
:105B4000FE0EDBCF09F0050E081801E1095036E022
:105B5000E868081802E17F0E09182FE0030E081804
:105B600001E1095028E0020E081801E1095021E086
:105B7000010E081801E109501AE0740E081801E13D
:105B8000095013E0750E081801E109500CE0730E7E
:105B9000081801E1095005E0720E08180FE10950DC
:105BA0000DD090DF0BD08CDF09D08BDF07D091DFD9
:105BB00005D08EDF03D088DF01D085DF010EE552EE
:065BC000E7CFD9FF12003F
:0A5BC600040140511F0B010801E02B
:105BD00012004051600BE842E842E842E842E842E5
:105BE000010801E01200440503E0440501E0120051
:105BF0004151220A35E0030A28E0010A15E0210A92
:105C00000DE0010A01E012000401A20E956F0E0ED4
:105C1000966F080E996F9A6B988125D00401A20E99
:105C2000956F0E0E966F1FD046C49EF447C49FF426
:105C30000401000E9B6F0E0E9C6FAC0EA06F570EF2
:105C4000A16F000EA26F9D8F12000401880E956F48
:105C50000E0E966F070E996F9A6BC10E986F120019
:105C600042C49DFE0401988F12000E01886B4B0EFA
:105C7000896F8A6B8B6B8C6B8D6B080E8E6F8F6B45
:105C80001A0EE66E020EE66E67EC1CF0E552E55267
:105C90001E0EE66E030EE66E67EC1CF0E552E55252
:105CA000400EE66E080EE66E0E0EE66EE66A030E17
:105CB000E66E0CEC1DF0146E050EE15E1450F3CF91
:105CC00099FEF4CF9AFE0E019B6B9C6B906B1200B9
:105CD000D9CFE6FFE1CFD9FF0E018F6B99519A1111
:105CE00002E1000E08D099CEE9FF9ACEEAFFEF500C
:105CF000800B01E0010E000945E1FC0EDBCF14F042
:105D000099CEE9FF9ACEEAFFEE52EF50D8801454B4
:105D100008E299CEE9FF9ACEEAFFEE52FC0EEFCFF1
:105D2000DBFF8F6BFC0EDB508F5D19E28F51EA6A4F
:105D3000080FE96E0E0EEA22EF50E66E8F51E76E05
:105D4000FD0EDBCFE9FFFE0EDBCFEAFFE750E926D1
:105D5000000EEA22E552E750EF6E8F2BE3D7400E9C
:105D6000E66E080EE66E0E0EE66EE66A030EE66E50
:105D70000CEC1DF0146E050EE15E1450F3CF99FE8D
:105D8000F4CF9AFE0E018F51E552E7CFD9FF1200F2
:105D9000D9CFE6FFE1CFD9FFA0980E0190510CE1D9
:105DA000FD0EDBCF91FEFE0EDBCF92FEFC0EDBCFB5
:105DB00097FE010E986F906FA088E552E7CFD9FF4C
:105DC0001200D9CFE6FFE1CFD9FF030EE126A0985C
:105DD0000E0190512DE1DF6AFD0EDBCF08F0FE0EC3
:105DE000DBCF09F0DE5208C0DEFF09C0DDFFDD5267
:105DF000DF2ADF50146E156AFF0E141802E11550E9
:105E00000BE0010EDBCFE9FFDB2A020EDBCFEAFF5E
:105E100001E3DB2AEF50ECE1FD0EDBCF91FEFE0E3D
:105E2000DBCF92FEDF040E01976F010E986F906F2B
:105E3000A088030EE15C02E2E16AE552E16EE55200
:105E4000E7CFD9FF1200D9CFE6FFE1CFD9FF040E8B
:105E5000E126A0980E0190513AE1DF6AD950FC0F7B
:105E6000E96EFF0EDA20EA6E010EEECFDBFF020EC6
:105E7000EECFDBFF030EEECFDBFFDF2ADF50146E29
:105E8000156AFF0E141802E1155012E0D950010FE7
:105E9000E96EDACFEAFFEFCFF6FFEE2AEFCFF7FF9A
:105EA000000EEE22EFCFF8FFEE220800F550E5E1FC
:105EB000FC0EDBCF91FEFD0EDBCF92FEFE0EDBCFA4
:105EC00093FEDFCF97FE0E01986B010E906FA088B6
:105ED000040EE15C02E2E16AE552E16EE552E7CFD1
:105EE000D9FF1200D9CFE6FFE1CFD9FF020EE1269C
:105EF000A0980E019B519C1102E1000E08D09BCE90
:105F0000E9FF9CCEEAFFEF50800B01E0010E000993
:105F100006E1030E905D01E1906B905102E1A088D3
:105F200081D0020E905D16E1E66A000EE66EE66A2A
:105F3000010EE66E030EE66E0CEC1DF0146E050EFF
:105F4000E15E1450F3CF9BFEF4CF9CFE0E01030ED6
:105F5000906F67D0900565E1400E146E156A9751F9
:105F6000145C000E155803E2400EDF6E02D097CE8F
:105F7000DFFFDF50975D976F480E946F0E0E956FA1
:105F8000010EDFCFDBFF985119E1010EDB502BE052
:105F900091CEF6FF92CEF7FF93CEF8FF0800F550B2
:105FA00094CEE9FF95CEEAFFEF6E942B000E952379
:105FB000912B92239323010EDB06E7D7010EDB50D2
:105FC00012E091CEE9FF92CEEAFFEF5094CEE9FFC6
:105FD00095CEEAFFEF6E942B000E9523912B922322
:105FE000010EDB06EBD70E01975107E1400EDF5C97
:105FF00002E1020E01D0030E906FDFCFE6FF480EE4
:10600000E66E0E0EE66E010EE66E030EE66E0CEC0C
:106010001DF0146E050EE15E1450F3CF9BFEF4CF1D
:106020009CFEA088020EE15C02E2E16AE552E16EAC
:08603000E552E7CFD9FF120091
:0860380009C013F008C012F0CA
:1060400007C011F007500C02F4CF05F0F3CF04F0B5
:1060500008500D02F4CF07F0F3CF06F00C02F35016
:106060000526F4500622E86A072211500D02F3506B
:106070000526F4500622E86A072209500C02F35064
:106080000626F450072209500D02086AE86A082221
:10609000F3500726F450082211500E02F350062642
:1060A000F4500722096AE86A0822092212500E02F7
:1060B000F3500726F4500822E86A092213500E0212
:1060C000F3500826F4500922000C09C013F008C050
:1060D00012F008500D02F4CF07F0F3CF06F009508C
:1060E0000E02F4CF09F0F3CF08F00D02F3500726AB
:1060F000F4500822E86A092212500E02F3500726D3
:10610000F4500822E86A09220EAE8BEF30F01250EC
:10611000085E1350095A13AE000C0D50085E0E5065
:04612000095A000C0C
:0C6124001201000200000008D80457001F
:1061300001000102000109025900020102C0E10947
:106140000400000208065000070581024000010714
:10615000050102400001080B0101020201000904CF
:1061600001000302020100052400100104240202C0
:10617000052406010105240100010705820308002A
:1061800001070503024000000705830240000004E8
:1061900003090434034D006900630072006F00635B
:1061A000006800690070002000540065006300680A
:1061B000006E006F006C006F0067007900200049DE
:1061C000006E0063002E003A034D00690063007208
:1061D000006F006300680069007000200043006FDA
:1061E000006D0070006F007300690074006500208E
:1061F000004400650076006900630065000000004F
:0D620000003661008F6100936100C76100EE
:01620D00FF91
:02620E00FB0E85
:10621000E3CFF6FFFC0EE3CFF7FFFD0EE3CFF8FF71
:10622000FE0EE3CFE9FFFF0EE3CFEAFFE9CFF3FF76
:10623000EACFF4FFF90EE35003E1FA0EE35009E070
:10624000F90EE30602E2FA0EE3060900F5CFEEFFCF
:10625000F1D71200FE0EE3CFE9FFFF0EE3CFEAFF16
:10626000E9CFF3FFEACFF4FFFB0EE35003E1FC0EAE
:10627000E35009E0FB0EE30602E2FC0EE306FD0E2E
:10628000E350EE6EF1D71200FE0EE3CFE9FFFF0EF2
:10629000E3CFEAFFF36AF46AEE5203E0F34AF42A2A
:1062A000FBD71200FF0EE3CFF8FFE552FF0EE3CF5E
:1062B000F7FFE552FF0EE3CFF6FFE552E66AE66A26
:1062C000E66A0900F55209E0FD0EE32A05E1FE0E3B
:1062D000E32A02E1FF0EE32AF4D7FD0EE3CF07F035
:0E62E000FE0EE3CF08F0FF0EE3CF09F0120030
:0262EE00D9CF06
:1062F000E6FFDACFE6FFE1CFD9FFE2CFDAFFE652E1
:10630000E652E652E652D950F90F146EFF0EDA202B
:10631000156E020E14C0DBFF030E15C0DBFF020E6C
:10632000DBCFE6FF030EDBCFE6FFF90EDBCFE6FFA8
:10633000FA0EDBCFE6FFFB0EDBCFE6FFD950FC0FFA
:10634000E66EFF0EDA20E66E11EC1EF0146E070EFC
:10635000E15C02E2E16AE552E16E1450F3CFDEFF48
:10636000F4CFDDFFFC0EDBCFE9FFFD0EDBCFEAFF54
:10637000EF6ADECF14F0DDCF15F014C0F3FF15C0C7
:10638000F4FF040EE15C02E2E16AE552E16EE552DF
:0A639000E5CFDAFFE7CFD9FF1200D6
:06639A001E0EF66E100E4F
:1063A000F76E000EF86E0E010900F550BB6F090084
:1063B000F550BC6F03E1BB6701D03DD00900F5503B
:1063C000B66F0900F550B76F0900F550B86F0900B6
:1063D0000900F550E96E0900F550EA6E0900090060
:1063E0000900F550B96F0900F550BA6F09000900AE
:1063F000F6CFBDFEF7CFBEFEF8CFBFFEB6CEF6FF9E
:10640000B7CEF7FFB8CEF8FF0E01B95302E1BA5389
:1064100007E00900F550EE6EB907F8E2BA07F9D7C0
:10642000BDCEF6FFBECEF7FFBFCEF8FF0E01BB0715
:08643000000EBC5BBFD7120097
:08643800D9CFE6FFDACFE6FF41
:10644000E1CFD9FFE2CFDAFFFB0EDBCF14F0FC0E79
:10645000DBCF15F00001800E15141AE1FB0EDBCF27
:10646000E9FFFC0EDBCFEAFFEECFF3FFEDCFF4FF49
:10647000EE2A000EEF22F3CFE9FFF4CFEAFFFD0E84
:10648000DBCFEFFFEF50156AF36E15C0F4FF10D0AD
:10649000FB0EDB50FE0806E1FD0EDBCFE6FF3BEC1A
:1064A00033F005D0FD0EDBCFE6FF03EC08F0E5523C
:0C64B000E552E5CFDAFFE7CFD9FF12007C
:0464BC0006500B0279
:1064C000F3CF02F0F4CF03F00C02F3500326000EDA
:1064D000F420046E06500D02F3500426000EF42042
:1064E000056E06500E02F350052607500B02F350BE
:1064F0000326F4500422000E052207500C02F3502C
:106500000426F450052207500D02F35005260850CA
:106510000B02F3500426F450052208500C02F350ED
:0C652000052609500B02F350052612005E
:04652C0000950000D6
:1065300001F900000887040009AF00010A1B0001EF
:106540000CC300000DAF020010FF000011FF00019E
:1065500012FF000118FF000119FF000120FF0000D9
:1065600021FF000026DF0100377300003A250400F8
:046570003B250000C7
:0C657400056A046A036A026A200EE76EE2
:10658000D890063607360836093602360336043602
:1065900005360B50025C0C5003580D5004580E5039
:1065A000055809E30B50025E0C50035A0D50045A73
:0C65B0000E50055A062AE72EE4D7120010
:0465BC000D0A417112
:1065C0007569726520534420636172642025642CD0
:1065D00020422025303278203D20253032782C2072
:1065E000432025303278203D20253032782E0D0A88
:0165F00000AA
:0E65F200F36AF46AFF0EE124E96EFF0EE22068
:10660000EA6EED6607D02F0EEF6404D03A0EEF600D
:0666100001D0F32A120084
:0A66160000800402200000004D691E
:1066200063726F6368704D6173732053746F72612E
:0A6630006765202020203030303153
:06663A00C00EF36E00EE3D
:1066400000F00E0E01D81200EA6002D0EE6AFCD70C
:0A665000F350E9601200EE6AFCD777
:06665A001DEE00F02DEE24
:1066600000F0F86A019CCDEC31F007EC08F00DEC7D
:066670002AF0FBD7120026
:0A667600FF0EE350ADBA04D0B06A85
:10668000AC8EAD8A949CADA2FED7AE6EF36EF46A6A
:026690001200F6
:0E669200F36AF46AF32A0F0B05E0D890F33692
:0866A000F436E804FBE11200EE
:0866A80030313233343536374E
:0966B0003839616263646566001B
:0766B90000000000000000DA
:0366C000000001D6
:01FFF800AA5E
:01FFF900F710
:01FFFA001DE9
:01FFFB00FF06
:01FFFC0063A1
:01FFFD00F80B
:01FFFE008181
:01FFFF00F110
:00000001FF
