:020000040000fa
:080000000002040000000000f2
:020000040000fa
:100400008f212200007f24000001880000000000ee
:100410000c00070080d32400010020001100070019
:10042000000020000000e000020032000000020096
:1004300000000000e2360200000000000040da0088
:100440000000fe004440a900e09f20000000e00002
:100450000300320000002000a00188004440a800f2
:100460000000060091018800800078000000eb0089
:1004700015003700e280400032a0b4009101ba00bc
:10048000e280400032a0b4009102ba00e280400055
:1004900032a0b4000002eb00472bde00f507b200eb
:1004a000602ce10004003a000059eb008301e900f0
:1004b000fdff3e00040037006128e100010032002a
:1004c0000082eb00040007001101ba000200e00006
:1004d000e8ff3a00000006003159ba008301e90044
:1004e0000c0032002159ba008301e90008003200f3
:1004f0000400e00003003a00e280400032a0b400b3
:10050000f5ff370011d9ba008301e900faff3a007c
:100510008100e800e180400032a0b4000000060045
:10052000024b040000000000484b040000000000e3
:10053000020ab900001bb9000200b80081004200a5
:1005400081004300000006008000780001003700b1
:100550000000e8001004e000fdff3a000100500038
:10056000000006008001780000017800314078002a
:10057000005978000004e000fcff3a000300780016
:10058000000006008001eb00020037008171780056
:100590008301e800828f5100fcff3a000000060052
:1005a000040037000204e00001003a0000000500ea
:1005b0000000e80010417800814f5100f9ff3a0037
:1005c000000006006022b800060220000000d000f3
:1005d0008180d2000482d2008582d2000000a00077
:1005e0000202520083825a000300310002024200dc
:1005f00083824a000000a1000603e900f3ff3a00ed
:1006000000000600839f68000100e00002003d003a
:1006100060001000e08018000300e00002003d00d0
:1006200060011100e0811900e6ff07004f00e000c3
:1006300002003b0060001000e0801800000006008f
:0c064000e0ff07000400be000000060000
:020000040000fa
:0200000401f009
:04000000ffff0000fe
:020000040000fa
:0200000401f009
:04000400ffff0000fa
:020000040000fa
:0200000401f009
:04000800ffff0000f6
:020000040000fa
:0200000401f009
:04000c00faff0000f7
:020000040000fa
:0200000401f009
:0400100018ff0000d5
:020000040000fa
:0200000401f009
:040014007fff00006a
:020000040000fa
:0200000401f009
:04001800edff0000f8
:020000040000fa
:0200000401f009
:04001c00dfff000002
:020000040000fa
:0200000401f009
:04002000ffff0000de
:020000040000fa
:0200000401f009
:04002400ffff0000da
:020000040000fa
:0200000401f009
:04002800ffff0000d6
:020000040000fa
:0200000401f009
:04002c00ffff0000d2
:020000040000fa
:100008007c4d00007c4d00007c4d00007c4d0000c4
:100018007c4d00007c4d00007c4d00007c4d0000b4
:100028007c4d00007c4d00007c4d0000ca3400006f
:100038007c4d00007c4d00007c4d00007c4d000094
:100048007c4d00007c4d00007c4d0000064a0000fd
:10005800624a00007c4d00007c4d00007c4d000091
:100068007c4d00007c4d00007c4d00007c4d000064
:100078007c4d00007c4d00007c4d00007c4d000054
:100088007c4d00007c4d00007c4d00007c4d000044
:100098007c4d00007c4d0000424a0000a04a000050
:1000a8007c4d00007c4d00007c4d00007c4d000024
:1000b8007c4d00007c4d00007c4d00007c4d000014
:1000c8007c4d00007c4d00007c4d00007c4d000004
:1000d8007c4d00007c4d00007c4d00007c4d0000f4
:1000e8007c4d00007c4d00007c4d00007c4d0000e4
:1000f8007c4d00007c4d00007c4d00007c4d0000d4
:100108007c4d00007c4d00007c4d00007c4d0000c3
:100118007c4d00007c4d00007c4d00007c4d0000b3
:100128007c4d00007c4d00007c4d00007c4d0000a3
:100138007c4d00007c4d00007c4d00007c4d000093
:100148007c4d00007c4d00007c4d00007c4d000083
:100158007c4d00007c4d00007c4d00007c4d000073
:100168007c4d00007c4d00007c4d00007c4d000063
:100178007c4d00007c4d00007c4d00007c4d000053
:100188007c4d00007c4d00007c4d00007c4d000043
:100198007c4d00007c4d00007c4d00007c4d000033
:1001a8007c4d00007c4d00007c4d00007c4d000023
:1001b8007c4d00007c4d00007c4d00007c4d000013
:1001c8007c4d00007c4d00007c4d00007c4d000003
:1001d8007c4d00007c4d00007c4d00007c4d0000f3
:1001e8007c4d00007c4d00007c4d00007c4d0000e3
:0801f8007c4d00007c4d00006d
:020000040000fa
:100208007c4d00007c4d00007c4d00007c4d0000c2
:100218007c4d00007c4d00007c4d00007c4d0000b2
:100228007c4d00007c4d00007c4d0000ca3400006d
:100238007c4d00007c4d00007c4d00007c4d000092
:100248007c4d00007c4d00007c4d0000064a0000fb
:10025800624a00007c4d00007c4d00007c4d00008f
:100268007c4d00007c4d00007c4d00007c4d000062
:100278007c4d00007c4d00007c4d00007c4d000052
:100288007c4d00007c4d00007c4d00007c4d000042
:100298007c4d00007c4d0000424a0000a04a00004e
:1002a8007c4d00007c4d00007c4d00007c4d000022
:1002b8007c4d00007c4d00007c4d00007c4d000012
:1002c8007c4d00007c4d00007c4d00007c4d000002
:1002d8007c4d00007c4d00007c4d00007c4d0000f2
:1002e8007c4d00007c4d00007c4d00007c4d0000e2
:1002f8007c4d00007c4d00007c4d00007c4d0000d2
:100308007c4d00007c4d00007c4d00007c4d0000c1
:100318007c4d00007c4d00007c4d00007c4d0000b1
:100328007c4d00007c4d00007c4d00007c4d0000a1
:100338007c4d00007c4d00007c4d00007c4d000091
:100348007c4d00007c4d00007c4d00007c4d000081
:100358007c4d00007c4d00007c4d00007c4d000071
:100368007c4d00007c4d00007c4d00007c4d000061
:100378007c4d00007c4d00007c4d00007c4d000051
:100388007c4d00007c4d00007c4d00007c4d000041
:100398007c4d00007c4d00007c4d00007c4d000031
:1003a8007c4d00007c4d00007c4d00007c4d000021
:1003b8007c4d00007c4d00007c4d00007c4d000011
:1003c8007c4d00007c4d00007c4d00007c4d000001
:1003d8007c4d00007c4d00007c4d00007c4d0000f1
:1003e8007c4d00007c4d00007c4d00007c4d0000e1
:0803f8007c4d00007c4d00006b
:020000040000fa
:10064c00c7000000fc000000e9000000e200000010
:10065c00e4000000e0000000e5000000e7000000fe
:10066c00ea000000eb000000e8000000ef000000d2
:10067c00ee000000ec000000c4000000c50000000b
:10068c00c9000000e6000000c6000000f4000000f5
:10069c00f6000000f2000000fb000000f900000072
:1006ac00ff000000d6000000dc000000a2000000eb
:1006bc00a3000000a5000000a7200000920100008c
:1006cc00e1000000ed000000f3000000fa00000063
:1006dc00f1000000d1000000aa000000ba000000e8
:1006ec00bf00000010230000ac000000bd000000a3
:1006fc00bc000000a1000000ab000000bb0000002b
:10070c009125000092250000932500000225000091
:10071c0024250000612500006225000056250000fc
:10072c0055250000632500005125000057250000c9
:10073c005d2500005c2500005b25000010250000f5
:10074c0014250000342500002c2500001c25000079
:10075c00002500003c2500005e2500005f25000000
:10076c005a2500005425000069250000662500006c
:10077c0060250000502500006c2500006725000056
:10078c00682500006425000065250000592500003f
:10079c005825000052250000532500006b25000051
:1007ac006a250000182500000c2500008825000093
:1007bc00842500008c250000902500008025000079
:1007cc00b1030000df00000093030000c003000031
:1007dc00a3030000c3030000b5000000c403000025
:1007ec00a603000098030000a9030000b403000056
:1007fc001e220000c6030000b503000029220000e1
:10080c0061220000b100000065220000642200009b
:10081c002023000021230000f700000048220000e4
:10082c00b000000019220000b70000001a220000de
:10083c007f200000b2000000a0250000a0000000f6
:10084c004100000042000000430000004400000092
:10085c004500000046000000470000004800000072
:10086c00490000004a0000004b0000004c00000052
:10087c004d0000004e0000004f0000005000000032
:10088c005100000052000000530000005400000012
:10089c0055000000560000005700000058000000f2
:1008ac00590000005a00000021000000e0ff000089
:1008bc00e1ff0000e5ff0000e2ff0000e3ff0000a5
:1008cc00c0000000c1000000c2000000c300000016
:1008dc00c4000000c5000000c6000000c7000000f6
:1008ec00c8000000c9000000ca000000cb000000d6
:1008fc00cc000000cd000000ce000000cf000000b6
:10090c00d0000000d1000000d2000000d300000095
:10091c00d4000000d5000000d6000000d800000074
:10092c00d9000000da000000db000000dc00000051
:10093c00dd000000de000000780100000001000076
:10094c000201000004010000060100000801000083
:10095c000a0100000c0100000e0100001001000053
:10096c001201000014010000160100001801000023
:10097c001a0100001c0100001e01000020010000f3
:10098c0022010000240100002601000028010000c3
:10099c002a0100002c0100002e0100003001000093
:1009ac003201000034010000360100003901000062
:1009bc003b0100003d0100003f010000410100002f
:1009cc004301000045010000470100004a010000fe
:1009dc004c0100004e0100005001000052010000cb
:1009ec005401000056010000580100005a0100009b
:1009fc005c0100005e01000060010000620100006b
:100a0c006401000066010000680100006a0100003a
:100a1c006c0100006e01000070010000720100000a
:100a2c007401000076010000790100007b010000d8
:100a3c007d01000091010000910300009203000071
:100a4c00930300009403000095030000960300003c
:100a5c009703000098030000990300009a0300001c
:100a6c009b0300009c0300009d0300009e030000fc
:100a7c009f030000a0030000a1030000a3030000db
:100a8c00a4030000a5030000a6030000a7030000b8
:100a9c00a8030000a9030000aa0300001004000032
:100aac0011040000120400001304000014040000e0
:100abc0015040000160400001704000018040000c0
:100acc00190400001a0400001b0400001c040000a0
:100adc001d0400001e0400001f0400002004000080
:100aec002104000022040000230400002404000060
:100afc002504000026040000270400002804000040
:100b0c00290400002a0400002b0400002c0400001f
:100b1c002d0400002e0400002f040000010400002e
:100b2c00020400000304000004040000050400009b
:100b3c00060400000704000008040000090400007b
:100b4c000a0400000b0400000c0400000e0400005a
:100b5c000f040000602100006121000062210000f0
:100b6c006321000064210000652100006621000063
:100b7c006721000068210000692100006a21000043
:100b8c006b2100006c2100006d2100006e21000023
:100b9c006f21000021ff000022ff000023ff000056
:100bac0024ff000025ff000026ff000027ff0000a7
:100bbc0028ff000029ff00002aff00002bff000087
:100bcc002cff00002dff00002eff00002fff000067
:100bdc0030ff000031ff000032ff000033ff000047
:100bec0034ff000035ff000036ff000037ff000027
:100bfc0038ff000039ff00003aff00000000000041
:100c0c00610000006200000063000000640000004e
:100c1c00650000006600000067000000680000002e
:100c2c00690000006a0000006b0000006c0000000e
:100c3c006d0000006e0000006f00000070000000ee
:100c4c0071000000720000007300000074000000ce
:100c5c0075000000760000007700000078000000ae
:100c6c00790000007a000000a1000000a200000042
:100c7c00a3000000a5000000ac000000af000000c5
:100c8c00e0000000e1000000e2000000e3000000d2
:100c9c00e4000000e5000000e6000000e7000000b2
:100cac00e8000000e9000000ea000000eb00000092
:100cbc00ec000000ed000000ee000000ef00000072
:100ccc00f0000000f1000000f2000000f300000052
:100cdc00f4000000f5000000f6000000f800000031
:100cec00f9000000fa000000fb000000fc0000000e
:100cfc00fd000000fe000000ff00000001010000ec
:100d0c0003010000050100000701000009010000bb
:100d1c000b0100000d0100000f010000110100008b
:100d2c00130100001501000017010000190100005b
:100d3c001b0100001d0100001f010000210100002b
:100d4c0023010000250100002701000029010000fb
:100d5c002b0100002d0100002f01000031010000cb
:100d6c003301000035010000370100003a0100009a
:100d7c003c0100003e010000400100004201000067
:100d8c004401000046010000480100004b01000036
:100d9c004d0100004f010000510100005301000003
:100dac005501000057010000590100005b010000d3
:100dbc005d0100005f0100006101000063010000a3
:100dcc006501000067010000690100006b01000073
:100ddc006d0100006f010000710100007301000043
:100dec0075010000770100007a0100007c01000011
:100dfc007e01000092010000b1030000b20300006c
:100e0c00b3030000b4030000b5030000b6030000f8
:100e1c00b7030000b8030000b9030000ba030000d8
:100e2c00bb030000bc030000bd030000be030000b8
:100e3c00bf030000c0030000c1030000c303000097
:100e4c00c4030000c5030000c6030000c703000074
:100e5c00c8030000c9030000ca03000030040000ee
:100e6c00310400003204000033040000340400009c
:100e7c00350400003604000037040000380400007c
:100e8c00390400003a0400003b0400003c0400005c
:100e9c003d0400003e0400003f040000400400003c
:100eac00410400004204000043040000440400001c
:100ebc0045040000460400004704000048040000fc
:100ecc00490400004a0400004b0400004c040000dc
:100edc004d0400004e0400004f04000051040000bb
:100eec005204000053040000540400005504000098
:100efc005604000057040000580400005904000078
:100f0c005a0400005b0400005c0400005e04000056
:100f1c005f040000702100007121000072210000ac
:100f2c00732100007421000075210000762100005f
:100f3c007721000078210000792100007a2100003f
:100f4c007b2100007c2100007d2100007e2100001f
:100f5c007f21000041ff000042ff000043ff000022
:100f6c0044ff000045ff000046ff000047ff000063
:100f7c0048ff000049ff00004aff00004bff000043
:100f8c004cff00004dff00004eff00004fff000023
:100f9c0050ff000051ff000052ff000053ff000003
:100fac0054ff000055ff000056ff000057ff0000e3
:100fbc0058ff000059ff00005aff0000000000001d
:100fcc001f1c00001f1e00001f1e00001f1f000022
:100fdc001e1f00001e1f00004f4b000000440000ad
:100fec00495300004b5f00004552000052000000c6
:100ffc00494e0000545f00004552000052000000b2
:10100c004e4f0000545f0000524500004144000068
:10101c00590000004e4f00005f460000494c000094
:10102c00450000004e4f00005f500000415400008e
:10103c0048000000494e0000564100004c49000099
:10104c00445f00004e4100004d450000004400008c
:10105c00454e000049450000440000004558000082
:10106c004953000054000000494e00005641000056
:10107c004c490000445f00004f4200004a4500000c
:10108c004354000000570000524900005445000032
:10109c005f500000524f00005445000043540000c4
:1010ac0045440000004900004e560000414c000031
:1010bc00494400005f4400005249000056450000be
:1010cc00004e00004f5400005f4500004e410000f0
:1010dc00424c000045440000004e00004f5f0000f1
:1010ec00464900004c4500005f5300005953000076
:1010fc00544500004d0000004d4b000046530000cd
:10110c005f410000424f0000525400004544000073
:10111c0000540000494d0000454f0000555400009c
:10112c00004c00004f4300004b4500004400000001
:10113c004e4f0000545f0000454e00004f5500001c
:10114c00474800005f4300004f520000450000007c
:10115c00544f00004f5f00004d4100004e590000fd
:10116c005f4f0000504500004e5f000046490000f4
:10117c004c4500005300000000720000633d00006d
:10118c002575000020460000525f0000257300000a
:10119c000a000000000c0000102000000a460000ad
:1011ac006174000046730000206d00006f64000045
:1011bc00756c0000652000007465000073740000fd
:1011cc00206d00006f6e0000697400006f720000eb
:1011dc00206600006f7200002050000049430000a0
:1011ec0033330000464a00000a0000004c46000061
:1011fc004e200000456e0000616200006c6500002e
:10120c00640000002c200000436f000064650000a7
:10121c002070000061670000653a00002025000086
:10122c00750a000000720000633d00002564000098
:10123c000a00000053650000637400006f72000028
:10124c003a2500006c7500000a0000004472000092
:10125c006976000065200000736900007a65000063
:10126c003a200000256c000075200000736500001a
:10127c00637400006f720000730a000000530000da
:10128c0065630000746f0000722000007369000039
:10129c007a6500003a200000257500000a00000065
:1012ac00457200006173000065200000626c000054
:1012bc006f6300006b200000736900007a6500000a
:1012cc003a200000256c00007520000073650000ba
:1012dc00637400006f720000730a0000004d000080
:1012ec004d4300002f5300004443000020740000c5
:1012fc0079700000653a000020250000750a000096
:10130c0000430000534400003a0a00000043000070
:10131c00494400003a0a0000004f0000435200000c
:10132c003a0a0000005300004420000053740000ef
:10133c0061740000757300003a0a0000002500007b
:10134c0030340000582000002530000032580000d6
:10135c002d0000003f3f00003f0a0000007200001b
:10136c00633d0000257500000a00000046410000a6
:10137c00542000007479000070650000203d0000ce
:10138c002046000041540000257500000a42000070
:10139c0079740000657300002f4300006c75000029
:1013ac007374000065720000203d000020250000d1
:1013bc006c7500000a4e0000756d0000626500003f
:1013cc00722000006f6600002046000041540000af
:1013dc00732000003d200000257500000a5200001b
:1013ec006f6f000074200000444900005220000080
:1013fc00656e0000747200006965000073200000c7
:10140c003d200000257500000a53000065630000b4
:10141c00746f0000727300002f46000041540000ee
:10142c00203d0000202500006c7500000a4e0000d5
:10143c00756d000062650000722000006f66000090
:10144c00206300006c75000073740000657200006e
:10145c00732000003d200000256c0000750a000080
:10146c0046410000542000007374000061720000bb
:10147c0074200000286c000062610000292000002c
:10148c003d200000256c0000750a00004449000056
:10149c005220000073740000617200007420000080
:1014ac00286c0000626100002c6300006c75000069
:1014bc00737400006f720000292000003d200000b2
:1014cc00256c0000750a0000446100007461000086
:1014dc00207300007461000072740000202800006a
:1014ec006c62000061290000203d000020250000f6
:1014fc006c7500000a0a00002e2e00002e00000061
:10150c000d25000075200000666900006c65000068
:10151c00732c0000202500006c7500002062000078
:10152c0079740000657300002e0a00002575000018
:10153c00206600006f6c0000646500007273000090
:10154c002e0a0000256c0000752000004b420000a4
:10155c00207400006f740000616c000020640000b7
:10156c00697300006b200000737000006163000061
:10157c00652e00000a2500006c750000204b000051
:10158c004220000061760000616900006c6100007f
:10159c00626c0000652e00000a000000256300004c
:1015ac00256300002563000025630000256300000f
:1015bc0020250000752f000025300000327500003a
:1015cc002f2500003032000075200000253000006f
:1015dc00327500003a250000303200007520000002
:1015ec00253900006c7500002020000025730000d8
:1015fc0000250000730a000000250000347500006f
:10160c0020460000696c000065280000732900006a
:10161c002c250000313000006c75000020620000a9
:10162c007974000065730000207400006f74000072
:10163c00616c00000a250000347500002044000095
:10164c006972000028730000290000002c200000a3
:10165c0025310000306c000075200000627900001c
:10166c007465000073200000667200006565000060
:10167c000a0000006670000074720000203d00003b
:10168c00202500006c750000283000007825000033
:10169c006c580000290a0000002500006c75000041
:1016ac002062000079740000657300002072000055
:1016bc006561000064200000776900007468000018
:1016cc00202500006c750000206b0000422f0000ec
:1016dc0073650000632e00000a000000256c0000fa
:1016ec007520000062790000746500007320000012
:1016fc007772000069740000746500006e200000b1
:10170c007769000074680000202500006c750000eb
:10171c00206b0000422f000073650000632e000058
:10172c000a0000004f700000656e0000696e00003a
:10173c0067200000222500007322000000430000f7
:10174c007265000061740000696e00006720000083
:10175c002225000073220000004300006f7000007f
:10176c00796900006e6700002e2e00002e0000002c
:10177c000a2500006c7500002062000079740000de
:10178c0065730000206300006f7000006965000045
:10179c00642e00000a000000546800006520000060
:1017ac006d6500006d6f0000727900002063000011
:1017bc006172000064200000776900006c6c00000e
:1017cc002062000065200000666f0000726d000052
:1017dc006174000074650000642e0000204100005c
:1017ec0072650000207900006f7500002073000006
:1017fc0075720000653f000020280000592f000082
:10180c006e2900003d000000257500002f2500000a
:10181c00752f0000257500002025000030320000d7
:10182c00753a000025300000327500003a250000a2
:10183c0030320000750a00000000000001030000b7
:10184c0005070000090e000010120000141600001d
:10185c00181c00001e8000009a900000418e0000b1
:10186c00418f0000804500004545000049490000bb
:10187c00498e00008f900000929200004f9900005a
:10188c004f55000055590000999a00009b9c000090
:10189c009d9e00009f410000494f000055a500008f
:1018ac00a5a60000a7a80000a9aa0000abac0000e8
:1018bc0021ae0000afb00000b1b20000b3b4000024
:1018cc00b5b60000b7b80000b9ba0000bbbc000048
:1018dc00bdbe0000bfc00000c1c20000c3c40000f8
:1018ec00c5c60000c7c80000c9ca0000cbcc0000a8
:1018fc00cdce0000cfd00000d1d20000d3d4000058
:10190c00d5d60000d7d80000d9da0000dbdc000007
:10191c00ddde0000dfe00000e1e20000e3e40000b7
:10192c00e5e60000e7e80000e9ea0000ebec000067
:10193c00edee0000eff00000f1f20000f3f4000017
:10194c00f5f60000f7f80000f9fa0000fbfc0000c7
:10195c00fdfe0000ff2200002a3a00003c3e000081
:10196c003f7c00007f0000002b2c00003b3d000062
:10197c005b5d0000000000000080000000400000e3
:10198c0000200000001000000008000000400000d3
:10199c0000200000001000000008000000040000ff
:1019ac000002000000040000000200000001000022
:1019bc00800000004000000020000000100000002b
:1019cc0008000000040000000200000000000000fd
:1019dc004e4f0000204e0000414d000045200000fd
:1019ec00202000002046000041540000333200004b
:1019fc0020200000200000004e4f0000204e000070
:101a0c00414d000045200000202000002046000031
:101a1c004154000020200000202000002000000085
:101a2c0025300000386c0000582000000020000019
:0c1a3c00253000003258000000000000bf
:020000040000fa
:101a480002003700311878000381e900820178002c
:101a5800e10f5100fbff3e008001eb000200370060
:101a680061f079008301e800828f5100fcff3a00a1
:101a7800000006008001eb000200370001f0790049
:101a88008301e800828f5100fcff3a000000060045
:101a980080027800010278000000eb0080017800e5
:101aa800828f510008003200e5c079008180fb0078
:101ab80064c079000080fb00008050008301e800ca
:101ac8000000e000f6ff3200000006008001780008
:101ad800010037008301e800134178000204e000a8
:101ae800030032000200fb00810f5000f9ff3a00aa
:101af8000200fb0000000600889fbe0080027800fc
:101b08008104780010047800842320000802420031
:101b18000003eb00860378001400e0000c0032009c
:101b280054b99700e4b9970035009000c5009000bb
:101b3800800f5100818f590006003a00f4b89700d1
:101b480025009000808f500002003a000b003700fb
:101b58000603e8008703e80068024200e28f5300aa
:101b6800edff3a000600e0000c003a0020012000da
:101b7800e28f54000c003200080037000900e00032
:101b880008003a004338dd008023b000e0007c0004
:101b980000102000808f5000020032000000eb008f
:101ba80001003700000120004f04be0000000600bd
:101bb8008023b0008000eb00040037008100e800bb
:101bc80068004000e28f5000020032001000e00080
:101bd800faff3a000110a2000100ea0001007000bb
:101be8004f00de0000000600881f78000002780021
:101bf8000104780090037800852320008782420042
:101c08000003eb001500e0000b00320055b9970007
:101c1800e5b9970034009000c4009000800f51008f
:101c2800818f590004003a00f5b89700240090000d
:101c3800808f5000170032000603e800e882420057
:101c4800e20f5300efff3a00802320000700400016
:101c58000003eb00040037000603e80068004000ba
:101c6800e20f53001f0032001000e000faff3a00b4
:101c78004330dd008700400034019000c40190002b
:101c880092189a00a3189a0014004000a40190002a
:101c980033189a000800e000080032009400780029
:101ca8004330dd008023b0006080780002102000ff
:101cb8000000e000060032000a00370094007800b7
:101cc8004330dd008023b000608078000001e80028
:101cd8004330dd008023b00002b078000600e80041
:101ce800010037000000eb004f04780000000600f8
:101cf800800178008100e90020002000e18f500079
:101d08000f003e004308dd008023b00060817900a9
:101d1800f00f2000800f5100020036000001eb0098
:101d2800030037000200e000010032000201e90070
:101d38004308dd008023b00002b079000000eb000a
:101d480000000600889fbe008a9fbe008c9fbe00d0
:101d58008e1f7800000478000206be0070159000ff
:101d6800801d9000820f5500838f5d003400320083
:101d7800404090000004e000210032002e032000c3
:101d8800080747001840900014c0b3000a01be00bd
:101d98008e007800a11a07000000e00026003a0033
:101da8004044980018109000a810900078099000fe
:101db800881190000000410081804900800f550083
:101dc800818f5d000e003100b84490000a00370092
:101dd80078089000881090000a0540008b8548001c
:101de8001840900014c0b3000a01be008e007800ad
:101df8008a1a07008944e900e1cf5400f4ff3e0045
:101e0800e00f5600e08f5e000d0032002103200035
:101e1800888040001840900014c0b3000c01be0038
:101e28003c1a07000000e00003003a007c14980008
:101e38000d1c980003003700100020000100370037
:101e48000000eb004f0778004f06be004f05be00ac
:101e58004f04be0000000600889fbe008a1f78005d
:101e6800800478006011b800b6ff0700000578000c
:101e78000000e0002e003a0030c0b300994f100077
:101e880024003a00594090000004e000210032008c
:101e98006000b800f0149800811c98002803200006
:101ea80009044400022020008a0078000800780015
:101eb800f0fe070050a52a0070bc990020252500d7
:101ec80011162400008cbe002027270011142600bc
:101ed80020b4990031b499007900900089089000e5
:101ee80040b4990051b4990059009000e90090005d
:101ef80060b4990071b4990019099000a90990007b
:101f08001940900014c0b30088007800431a0700f5
:101f1800da449800194090000001eb008040eb0083
:101f28008f1a07008000ea00808070004f0dde00e5
:101f38000a0078004f0578004f04be000000060034
:101f4800889fbe008a9fbe008c1f7800000578001d
:101f58000204be00e10f5100e08f59006500360011
:101f6800e008900050089000800f5100818f5900c0
:101f7800600031001a407800e24f50002d00320016
:101f8800e34f50003d003200e14f50005c003a0042
:101f9800820478000200d100000441004941de00bb
:101fa8001a109000aa10900002014000e081480039
:101fb8000a00780063ff07000000e00050003a00c4
:101fc800fc1f20000c0064002003b0000a00400041
:101fd8009085fb000804e8004941de001a109000d3
:101fe800aa10900002014000e08148000a00780031
:101ff80054ff07000000e00041003a000c006400b4
:102008002003b0000a0040001080fb004800dd00fb
:10201800808075000908a300020032004408de0031
:1020280002003700f0ff2000008060006102b80065
:10203800350037004818dd004811de000201700045
:10204800c819de001a109000aa1090000201400082
:10205800838148000a0078003aff07000000e0008a
:1020680027003a000800440089804c00f01fb200a5
:102078000a00400010189000ecff37004918dd00f6
:102088004711de0002017000c719de001a10900027
:10209800aa10900002014000838148000a007800dd
:1020a80028ff07000000e00015003a004248dd0064
:1020b800ce40de00810070004240dd00f01fb2001b
:1020c8000a0040002003b0001001780010009000c2
:1020d800f1ff20000100600001002000c002dd00c7
:1020e800040020006110b8000002720081827200b2
:1020f800050037001400200005002000020037000a
:102108000082eb008082eb000400be004f067800de
:102118004f05be004f04be0000000600889fbe00a9
:102128008a9fbe008c9fbe008e1f78000005780035
:102138000204be000406be00e10f5100e08f590002
:102148007f003600e008900050089000800f510092
:10215800818f59007a0031001a407800e24f500010
:1021680044003200e34f50005500320024002000a4
:10217800e14f50006f003a000200d1008004410096
:102188004949de001a109000aa1090000201400090
:10219800e08148000a007800eafe070000027800a3
:1021a8000000e00063003a002b0320008a85450008
:1021b80009007800f01fb20000814500610064004a
:1021c80001002000000778000000e0000500320050
:1021d80012407800ef4060004460dd00014070006c
:1021e800010037000c407800004978000904e80035
:1021f80010c0b300404598004941de001a10900015
:10220800aa10900002014000e08148000a0078000e
:10221800ccfe0700000278000000e00045003a000c
:1022280008007800f01fb200808145000e00e00031
:10223800050032004c69dd004460de0000007100da
:10224800c468de000800370002cfb3001341610004
:10225800486add004860de0000007200c868de00e1
:102268006f40600000407100804978000002eb0078
:10227800300037004818dd004811de000201700008
:10228800c819de001a109000aa1090000201400040
:10229800838148000a007800aafe0700000278003f
:1022a8000000e00023003a000800440089804c0048
:1022b800f01fb2000a0040001c1898001d003700eb
:1022c800491add004711de0002017200c719de005d
:1022d8001a109000aa109000020140008381480063
:1022e8000a00780097fe0700000278000000e0006e
:1022f80010003a00230320008a8141004248dd0093
:10230800ce40de00810070004240dd00f01fb200c8
:10231800808141001300900002002f00020060003d
:1023280001002000c000dd000000200080197600b8
:102338008191760010c0b300404598000100370035
:1023480024002000040078004f0778004f06be00e4
:102358004f05be004f04be0000000600889fbe0067
:102368008a9fbe008c1f7800000678000204be0019
:10237800e10f5100e08f59002d003600e008900071
:1023880050089000800f5100818f590028003100bb
:102398000801be000c007800e9fe07000005be0039
:1023a800e00f5000e08f58001d003200e10f500090
:1023b800e08f58001e003200e10f4000e08f480017
:1023c800190032006022b8000801be000c00780035
:1023d80052ff07000000e00016003a007c00900061
:1023e8008c089000e10f4000e08f480006003200a2
:1023f80061004000e080480070069800010e9800d7
:1024080010c0b300504698000a04be005c08900053
:10241800ec089000800f5500818f5d00dcff3900cb
:102428000000eb0003003700100020000100370017
:10243800200020004f0678004f05be004f04be0064
:10244800000006000400fa00889fbe008a9fbe00b4
:102458008c1f78000006780092bf9f00a3bf9f00e2
:10246800e00f5100e08f59000b003a005005900032
:10247800e0059000e00f5500e08f5d001900320084
:10248800e008900050089000800f5500818f5d0093
:1024980014003100150037001fb99700afb9970035
:1024a800a7fe07000001be00100020000100200068
:1024b800800f5100818f590002003e000001be00cc
:1024c8004d0037005c089000ec089000800f510028
:1024d800818f5900480039001fbd9700afbd970094
:1024e800020037001a0020000b0020000a04be007a
:1024f80061044400e0844c005c089000ec08900003
:10250800800f5400818f5c0005003900e10f5500f1
:10251800e08f5d003400360028002000090020000c
:102528000801be000c00780085fe07000001be000f
:10253800e00f5000e08f58000a003200e10f400021
:10254800e08f48002c003200e10f5000e08f580067
:10255800290032008a0f54008b8f5c002200320061
:10256800e3ff3700f4ff2f00f5ff20000801be004d
:102578000c007800e9fe07000000e0001c003a00ab
:102588001fb89700afb89700e00f5000e08f5800d1
:10259800060032000802be000001be000c007800f0
:1025a800defe07000000e00011003a00580698001f
:1025b800690698007c0090008c089000e10f4000ac
:1025c800e08f48000600320061005000e0805800ab
:1025d80070069800010e980010c0b300504698008d
:1025e8000801be00040037006011b800020037007f
:1025f8000081eb008081eb000200be004f067800ee
:102608004f05be004f04be000080fa00000006001f
:10261800881f78000004780062025100e0825900a7
:10262800e00890005008900062005000e0805800d8
:102638006011b800800f5200818f5a0009003100e4
:10264800284190000281fb00030020000400be0026
:10265800b5f7070058119000e811900000014100fb
:10266800818149000200be004f0478000000060086
:10267800889fbe008a1f78000004be0021049800cd
:1026880030019000c0019000e10f5100e08f590027
:10269800490032001002780054089000e4089000c5
:1026a800800f5100818f590043003100e00f510025
:1026b800e08f590017003a0030c0b300944f100063
:1026c80005003a0034119000c4119000e00f510049
:1026d800e08f59000f003a006000b80050049800dd
:1026e800610498009800780041009000808f5400a1
:1026f800310031004448de0031119000c1119000d2
:1027080000004100e080490070049800010c980026
:102718001f003700244090000080fb004405dd00c6
:10272800100037001800780005fe07000001be0001
:10273800e10f4000e08f48001d003200e10f50001b
:10274800e08f58001c00360018007800e008900060
:1027580050089000800f5100818f590016003100f9
:102768008a8454008a8f5400eeff31005204980086
:102778006304980018007800a5ff07004449de00ac
:1027880002014000e081480072049800030c9800a0
:1027980020032000980040006f8064004500dd00a1
:1027a80080804000110c98000000eb000300370007
:1027b8001000200001003700200020004f0578009d
:1027c8004f04be0000000600889fbe008a9fbe001e
:1027d8008c9fbe008e1f780080047800010478006a
:1027e800200090008006e80079003200790090000f
:1027f80089089000e00f5000e08f58007400320004
:102808006f8766006a003a0061004000e080480077
:10281800f0049800810c980059019000e90190009b
:10282800e00f5100e08f590005003a0019007800c8
:1028380040009000808f56005d003900640037002a
:1028480019027800c468de00244090000080fb0074
:102858000000e9008080600055003a00040078001c
:10286800b7fd07000005be00e10f5000e08f5800db
:1028780059003600e10f4000e08f48005800320050
:102888001902780054089000e4089000800f550061
:10289800818f5d003f0039000800e0004c003200e5
:1028a80059019000e901900004007800e5fe070056
:1028b8000005be0070002000e00f5500e08f5d00ad
:1028c80048003200e10f5500e08f5d004200320001
:1028d800e10f4500e08f4d00410032006011b80063
:1028e8001900780017fd0700000678000000e000d6
:1028f8003b003a00210320001980400002202000fc
:102908008c0078005bfc0700190478000a01be00ff
:10291800080078003eff070070149800011c98001a
:102928000c0478000f00370010c0b3004042980034
:102938006011b8001900780002fd07000804e800db
:102948000000e00026003a0019017800721090009b
:102958008218900061004000e080480070119800e3
:10296800011998001902780024409000804f540003
:10297800edff39000881fb0003002000741090006f
:10298800841890000200500083805800701298004c
:10299800011a9800da049800eb0498000a01be00b6
:1029a800190078001aff0700f0049800810c9800bd
:1029b800ad0498002103200019804000c570dd0097
:1029c80001004000900c98000000eb000500370063
:1029d80040002000030037002000200001003700dd
:1029e800100020004f0778004f06be004f05be00bc
:1029f8004f04be0000000600889fbe008a9fbe00ec
:102a08008c1f780000067800810478001180fb0094
:102a1800f00bb2006d00b9006d0450001a002000e0
:102a28004bc228001b80fb0060807c000a00e0008d
:102a38000c003200fe1b070000057800e0072000ac
:102a4800800f540017003c000800440060007e001e
:102a58000804e800f61b0700800f55000400320048
:102a680010003700e10f40000e003a000005eb00af
:102a78008b05e80010c32800808f5500e9ff3a0055
:102a88001980fb000068a300080032000a00e0007b
:102a980006003200080044000c0040001000e0006e
:102aa800020032000000eb00010037001000200097
:102ab8004f0678004f05be004f04be000000060018
:102ac800881f780000037800010278001180fb005d
:102ad800f003b2006d00b900ed00500013002000b3
:102ae80045c22800e807200017c328001580fb000e
:102af80060017a000300e00007003200888f500070
:102b080017003c000180400002307b008100e80093
:102b18008201780003003700e10f410010003a00fd
:102b28008001eb008502e800878f5200efff3a0032
:102b38001480fb00120020000068a3000900320086
:102b4800e0072000808f500005003c008180400095
:102b58000000eb0080307b001200200001003700ed
:102b68000001eb00020078004f0478000000060026
:102b7800881f7800000478000103780082437800f9
:102b8800d3489800f0c0b300b04898000040eb006c
:102b9800c04898008000eb00510b98000240780074
:102ba800d2c0b3000440bc006d01510002004100d6
:102bb80080024400040037000402e800e18f41006d
:102bc800050032008582e800950178000201e800de
:102bd80040c22800008240001480fb0003307b00c4
:102be8000300e00001003a008081eb008100e8006a
:102bf800ec8f5000f0ff3400e18f410004003200f8
:102c080002004100080040001000e00001003a0006
:102c18000764a000074b78004f0478000000060006
:102c28000800fa00889fbe008a1f78000005780017
:102c38008204780003047800b200200080fb0700bb
:102c4800e50f5400040036000800d30019044000c2
:102c58005900e000fcff3a007200200091c3b30065
:102c68006f4064000043b000814f500001003600ff
:102c780067404000ee815700807179000201e90049
:102c88004444de00f6ff3a00e0c7b300ee0051000e
:102c980080f07f008800780003c2b300010037008d
:102ca8008100e800828f500003003d006ac0780070
:102cb800834f5000faff3a000100450003c2b300f9
:102cc800e70f510003003c006e025100e4c17f0091
:102cd8000201e800035878008100e800e78f5000ff
:102ce800f6ff34004f0578004f04be000080fa005c
:102cf80000000600800178000040eb00b2002000d0
:102d08000080fb008000d1004700dd0080c040004b
:102d180033c040000201e900f9ff3a000080fb00df
:102d280000000600889fbe008a9fbe008c1f7800a6
:102d3800000578008000eb004dfe07000000e00071
:102d480048003a0000c6eb008c4578007a019000f4
:102d58008a0990001a007800fafb07000000e000da
:102d680040003a009a0c9000194478000804e000ea
:102d78003900320039489000f043b200fb4f44005c
:102d88002e0032000038a30003003200ef4f50003d
:102d98002a003a0002003700ef4f500016003a00b0
:102da8003a0890000000e000250032000868a300ff
:102db80005003200594e90000864a1002a009000d6
:102dc800400d9800020037008b4f54001b003a005a
:102dd80059489000804f560018003a003a08900071
:102de8008900780004ff07000000e00013003200ab
:102df8008845e900120037000b04e00004003a009f
:102e080009007800bbff0700804f5600140032000d
:102e18000080eb00400d9800aa089000314890000f
:102e28000008a30005003a00b2002000090078005d
:102e380017fb07000000e0000900320080c5eb0026
:102e48008000eb000a0078005ffe07000000e00049
:102e580004003a00bdff37004000200001003700a1
:102e68000000eb004f0678004f05be004f04be007f
:102e780000000600889fbe008a9fbe00800478007c
:102e880000c5eb008a457800440020003a0037006e
:102e980019007800abfb0700000278000000e00092
:102ea8003c003a0099089000114478000804e000ba
:102eb80002003a00440020003600370031489000f4
:102ec800f043b200fb4f4400240032000038a30056
:102ed80003003200ef4f500020003a000200370094
:102ee800ef4f500012003a000868a30005003200b6
:102ef800d14d90000864a10029009000c00c9800f2
:102f0800020037008a4f540014003a0051489000dc
:102f180080cf550011003a0039089000e8fe0700fc
:102f28000000e0000d0032000845e9000c00370001
:102f38000a04e00005003a00010078006dff070070
:102f48000002eb0080cf5500150032000080eb0036
:102f5800c00c98000002eb001100370000c5eb0020
:102f68008000eb000900780017fe070000027800d7
:102f78000000e00007003a007901900089099000fc
:102f8800e00f5100e08f5900c1ff3a000400e00053
:102f9800030032006000b800f0049800810c98002b
:102fa800040078004f05be004f04be000000060074
:102fb8000c00fa00889fbe008a9fbe008c9fbe004e
:102fc80080047800a00d9000300e9000c200200010
:102fd8008b0078007880570099fa07003ff0970037
:102fe8006a0020000058a3008d003a000008a300e2
:102ff8001a003200eb864500804eeb000000eb0023
:10300800b00c980018002000880178000c017800a6
:10301800f88057000b00780001ff070009007800ce
:1030280040ff0700000578000000e00006003a00b5
:103038000804e80040062000800f5400f2ff3a0020
:103048007a00200076003700e40f500074003a0040
:103058003ff09700804e7800bc0c98001b002000c1
:103068003ff097000018a3000b0032008c00780096
:103078000000eb00010037000000e8003100e0002c
:10308800fdff3a0079004000d2002000110009003d
:103098000280d800800578008000eb0009007800e5
:1030a80073fd0700000578000000e0005c003a00ae
:1030b8000006780080067800790190008909900060
:1030c800190078001ffb0700000578000000e000e9
:1030d80053003a001908900010407800fb4f400058
:1030e800040032000004e000020032000a04780004
:1030f800060037000c00e00001003a00a906900025
:103108000c04e8008b0f54003c0032001100200032
:1031180009007800acfd0700000578000000e00019
:103128003f003a0008067800e3ff37008d0078007a
:10313800090078004efd0700000578000000e00057
:1031480037003a0029089000eafe07008045780019
:103158000a04780079019000890990001900780024
:10316800f8fa0700000578000000e0002c003a009b
:103178000841560099089000390890008b41780062
:103188007bfe07009900780010c0b300c04098008b
:103198008a007800090078008bfd07000005780098
:1031a8000000e0001e003a000804e8008c0f5400fc
:1031b80014003200e7ff3700190c900002022000cb
:1031c8008000eb00080078002afa0700a9089000a0
:1031d800b20020000800780019fa070029089000ba
:1031e8003048900078406000404c98009900780082
:1031f80010c0b300c040980009003700e18f5500a7
:10320800caff3e00790190008909900019007800f2
:10321800ccfa0700000578000000e000e6ff320065
:103228000a0078004f06be004f05be004f04be00de
:103238000080fa0000000600889fbe0000047800a5
:10324800a0049000c0089000e18f400001003a00ff
:10325800890078000800780005fd07000001780063
:103268000000e00019003a007801900088099000f9
:1032780018007800b3fa0700000178000000e000a9
:103288000f003a009808900050ceb30080487800ac
:103298009800780010c0b300c04098002800900043
:1032a800890f5000090031008000eb000800780009
:1032b80045fd0700000178000000e000eaff320049
:1032c800e40f510001003a002200200002007800bb
:1032d8004f04be0000000600e8874700889fbe0034
:1032e8008a9fbe008c9fbe008e1f78000007780062
:1032f8000106780091057800b00e90000d05780061
:103308008001eb00ebc079000101fb008304e800b9
:10331800ff0f51001b003600f0c2b30080cf5000f1
:1033280018003200c0c5b30080cf5000150032002d
:1033380000082000808f5400e0003200020078006e
:10334800f00fb200110020009a190700000478005d
:103358000000e000d9003200f0072000800f540080
:1033680005003e008800780010cb2800d7f9070038
:103378000000e000d1003a00081d780089017800bb
:10338800e0ff3700098e45004ac0b300ff0f510027
:10339800010036000045eb00e18f510005003a00be
:1033a800e00220009d0f10000c003200830478001a
:1033b8001e003700e28f51000200320083047800bb
:1033c800260037009d009000e0022000808f50000a
:1033d80015003a009d8f100013003a0083804100c9
:1033e8000000eb0080b07e00000178002e089000fd
:1033f80000004100e1c2b300830f51000100350015
:1034080001c2b300014878000201e800eb0f510047
:10341800f6ff3a00ae0890000a4078000054a00079
:1034280000f17800a300370029002000e9b79f00c9
:1034380009814400028046000086e9009c0078006b
:1034480000022000808f5000030032006e00400010
:10345800808f500004003a008904e9000900e00068
:10346800f2ff3a00950037000004eb0008b17e0037
:103478002e089000b2002000010220007df907000c
:103488008d0078008805780003022000e202200001
:10349800020037008b05e8008180e8001100780001
:1034a800830f5000fbff3200820f5000f9ff3200fb
:1034b8000b00e000830032003a40b300810037007f
:1034c8003a40b3005e0037008904e9008100e80053
:1034d8000281e9006fb09700808f5000030032002e
:1034e800e0022000920f1000f7ff3a008000eb0086
:1034f80081bf9f000146780080002000f0b79f0040
:103508000b80450060847e008b05e8000800e00021
:103518004b00320000022000800f540005003200ea
:103528006e004000800f540004003a00898f550057
:10353800020032003a40b300f1ff37008fb897001d
:103548007fb09700808f500002003d00898f5500a2
:103558000f003a00ffb09700eb8f5000d8ff320001
:10356800898f5500010032003a40b300898f550019
:1035780033003c004266dd008905780080002000a9
:1035880080bf9f00b1002000f1b79f00dcff37002b
:10359800f0072000800f54000e0036008000eb007a
:1035a8000800780003190700000478000000e00014
:1035b8000500320000f82f000000440011c3280065
:1035c80060c078000084fb000a14a0000800e00036
:1035d8000500320088007800a0cb28003bf90700de
:1035e8000000e000030032003a40b300f805200074
:1035f8000d003700f0fb2f0000004400f90f5000c9
:1036080002003e000c14a00007003700f0f92f005c
:1036180000004400f90f500003003e000c04a00015
:1036280000fe2f00000444002e0890008fb8970079
:10363800887078008100e80081bf9f00b0ff3700e4
:10364800ae08900050ceb300914f100002003a002f
:1036580050c0b30080487800ffb09700e88f500052
:1036680001003a004266dd008c80fb006c8160003e
:10367800ec0f51000300320063806000e30f50003c
:1036880001003a000a14a0000a18a30007003a0033
:1036980063806000e10f500001003a000a44a00076
:1036a800e40f510001003a000a34a0002e089000ef
:1036b8003a4898000000eb00050037006000200041
:1036c800030037000c0178008000eb0084ff37000e
:1036d8004f0778004f06be004f05be004f04be00de
:1036e8008f00b10000000600889fbe008a9fbe00c0
:1036f8008002780081047800e98140008008900009
:1037080070009000e00f5000e08f58003600320043
:1037180015099000c24b90000002eb000ac2b300ea
:1037280068836300f8cbb300e2407a008acf500088
:103738000d003200e5cf500001003a0051ceb30031
:103748000600e0000400320008c04000f94f5000b5
:1037580001003e000142b000815978000402e800ef
:10376800e80f5200f0ff3a008248900000c2b30010
:1037780080cf5000130032006e404000805978001e
:103788008400200008c2b30070836300f7cbb30045
:10379800e2407a0088cf50000a0032000600e000bc
:1037a8000400320007c04000f94f500001003e00fd
:1037b8000142b000815978000402e800eb0f520082
:1037c800f3ff3a0032489000804c9800620890005d
:1037d800f2089000808cbe00c2089000a1049800f6
:1037e80032099000b20498008049eb00390d90002e
:1037f8000a00e0001d003200750090008508900066
:10380800e00f5000e08f5800150032004508900086
:10381800e10f400012003200b50d90000004eb00eb
:103828000b0037008000eb0062180700800078006a
:103838000000e0000a003200490890000000e9009a
:10384800800f540006003d0001757c000804e80064
:103858003b0078000000e000f2ff3a00010037006a
:103868000004eb000040eb0000747d004f05be0033
:103878004f04be00000006000200fa00881f78000e
:1038880000047800e1bf9f000101780091407800b2
:10389800f0c2b30080cf500003003200c0c5b300af
:1038a80080cf500006003a000201e800e2bf9f0006
:1038b8006000b80030049800410498000500370003
:1038c8001800780030099000c00990003204980070
:1038d800430498006fb89700f3c1b30090cf11006c
:1038e80007003e008000eb000800780060fb07003e
:1038f800800078000000eb00100c980033003700bf
:10390800e48057000800780073fe07008000780004
:103918000000e0002d003a000800780001fd0700d3
:103928008000780028089000304890000100e000ee
:1039380012003200e48f500024003a000081fb009e
:103948000258a300090032006000b8003004980053
:10395800410498000000eb00100c98000228a30016
:10396800e7ff32008000780018003700410020008f
:103978000228a30015003a00130037000028a3000e
:103988000f003a0018099000324890000048a30040
:103998000d0032002208900001002000c000dd0068
:1039a800000020005209900003002000020070006f
:1039b800838070003004980041049800d0ff3700dd
:1039c8008000eb0001003700510020000100780062
:1039d8004f0478000080fa0000000600889fbe00af
:1039e80028032000000444001040900014c0b300d5
:1039f8008800780047130700320020000000e0002c
:103a080022003a00f8b891002200200050a52a00b0
:103a1800808f50001d003a0038199000c819900096
:103a2800f90f2000038064006102b800c020dd00a7
:103a3800000020006112b80004007000858070004a
:103a48006614240047052000860f5000878f580011
:103a58000d00320018299000a82990000380640006
:103a68006102b800c020dd00000020006112b8002b
:103a7800040070008580700012002000860f50003e
:103a8800878f580001003a000001eb00020078001f
:103a98004f04be0000000600ea874700889fbe006a
:103aa8008a9fbe008c9fbe008e1f78000002be0059
:103ab80002447800100178009200fb0000fd2f00fe
:103ac80080814000e98f510006003e00924090003e
:103ad800a0c3b30080cf500002003a00028ae80079
:103ae80002003700eccebf008081fb00b10020004f
:103af8000300e00013013a007a7780008a0a780010
:103b0800c10020000a00e0000e0132001a04e000a3
:103b18000a0032001a409000f71207000080fb00ec
:103b28000008a30005003a000804e0000201320082
:103b38000028a300fe003a00ff0037000040eb0019
:103b4800004d7800104598006a12070031002000e7
:103b58000008a300fb003a000804e000020032005d
:103b68000028a300f2003a006011b8000a007800ab
:103b78009aff07006011b800f2b79f0083bf9f004b
:103b8800e14f50000c003a00210320008a804000d9
:103b980021c093000004e000e900320031a2910046
:103ba800c1a29100f4b79f0085bf9f000401be0029
:103bb8000a00780089ff070011002000e34f500039
:103bc800e00032000004e000dd003a002b03200092
:103bd8008a854500eb80450000202000910f1000e9
:103be800d7003a004a2090006102b8000000e000c7
:103bf80002003a002b129000bb129000740d98003e
:103c0800051598002ac19000324598000240e90045
:103c1800e14f5000ca003e000281fb000300200073
:103c28000400be0040f20700d0b79f00e1b79f0034
:103c38007a789000204598000004e000c000320027
:103c48000080fb008000e90001006000bc003a0031
:103c58007180450010017800420598006f006100ee
:103c6800b7003a0073804500100078006102b80080
:103c78000000e00002003a000b1290009b12900036
:103c88007b0090000000e000ad0032006106b80043
:103c98005fb39700efb397000c0043008d804b0093
:103ca8004411de0002044000e0844800880f5200fe
:103cb800898f5a00a20039000800520089805a00f2
:103cc8002a4190000281fb00030020003bf207001c
:103cd800e00f5000e08f5800990032001ec0b3007a
:103ce80057ff2000870f5000e08f5800050036006e
:103cf8003ec0b300eb0f4000e08f580001003e00cb
:103d08002ec0b30062024000e0824800540d9800c3
:103d1800650d98007fb197008fb9970002004400a5
:103d280083804c0050159800611598007fb3970068
:103d38008fbb97000601460087814e001215980038
:103d480023159800e34f57000c003a004a009000f2
:103d58000000e0007a003a006b109000fb10900021
:103d680030159800411598004228dd00ce20de006d
:103d7800810070004220dd001b0037004a009000df
:103d88000000e0006e0032005fb29700efb29700cb
:103d98000200420083804a003015980041159800bf
:103da800e24f570005003a005a089000ea089000d0
:103db80000004000818048000b0037005a0c90003a
:103dc800ea0c900032002000030020000800be002a
:103dd800d5f107008100d1000080d30061046400a0
:103de80008004000e0804800f01fb0000180b000eb
:103df800c70add004900de0000807200c908de0045
:103e08007a0990008a119000800f5100818f590023
:103e18004b0039000080eb008080eb0070059800b3
:103e2800010d98006000b8005005980061059800e1
:103e3800e34f570029003a000040eb005045980036
:103e48000b1990007fb397008fbb970002014300c6
:103e5800e0814b00120d9800230d98001a40900045
:103e680014c0b3008b0078002a1207000000e0009d
:103e78001a003a00fbb8910050a52a00808f500024
:103e880016003a001a199000aa199000202525005a
:103e980011162400800f5100818f59000f003a003d
:103ea8002bb19100bbb191002027270011142600e7
:103eb800800f5100818f590008003a006bb09100c3
:103ec800fbb0910050059800610598004bb1910036
:103ed800dbb1910072059800030d98000e4d780033
:103ee800f00eec0080778800300598006011b8006b
:103ef80072159800031d98000040eb00404598009b
:103f0800320d9800430d9800802320000a004000dd
:103f18008000eb000001eb00020878008100e80057
:103f280068004000e28f500003003200faff3700bb
:103f3800a1002000030037008000eb0001003700db
:103f4800d1002000010078004f0778004f06be001e
:103f58004f05be004f04be00af00b10000000600d0
:103f6800000178000000e0000c0032001004e000be
:103f78000a00320030009000810f500007003a001c
:103f880012409000dc110700310020000008a30057
:103f980003003a008000eb00010037009100200088
:103fa8000100780000000600b20020000004e000d4
:103fb80009003a00707780000000e000010032003c
:103fc8000048eb000100e000010032008048eb00ef
:103fd800717788000001eb000200780000000600fd
:103fe800cf02b000889fbe008a9fbe008c9fbe0093
:103ff8008e1f780080bf9f00f1b79f000008eb007c
:10400800ff4661007e41610040fd2f000f04400023
:1040180088007800728057009ffe070080007800b3
:1040280082fc2f000f014100c2b79f00c0de2000b4
:10403800d0b79f000100e00004003a00ffb09700ed
:10404800080078000cfe0700800078003fb6970053
:104058000100e0000c003a00610020000c00e000c4
:10406800090032008000eb000d007800e00fb2007c
:10407800010032001100200043fd2f000f80410095
:104088009df60700800078007c8066004c003200b6
:104098000100e00010003200e48f500009003a00ef
:1040a8002fa89700c2f60700210120000000e000b9
:1040b8000400320041fd2f000f804000bcfb0700c8
:1040c800800078000d34a0003fb697000100e000a2
:1040d800080032007b003700810020000d28a30073
:1040e80078003a003c4890007100600071002000a0
:1040f80074003a000d38a3003c0032006b0a070038
:1041080070069800010e98000040eb00304e9800b1
:104118006000b800600e9800710e980074024600a6
:10412800fa0246001401780003002000c011dd00e7
:104138000200200015007800010020000004710032
:10414800818471000000eb00000a7800800a780082
:1041580042fd2f000f0741009e00780010c0b300f9
:10416800c0409800e00f5400e08f5c001f00320050
:104178001e00780070159000801d90000801be0098
:1041880076f80700800078000000e0004d003a0053
:104198001e01780061005400e0805c005001980026
:1041a800610198000a01be001e007800e5f60700cc
:1041b800800078000000e0000c0032004100370069
:1041c8000100e0003f003a003c4890004100200018
:1041d8000048a3003b003a000d18a300030032007a
:1041e800710020000008a30036003a007e806600b7
:1041f800010032000d54a0002fa897007011900004
:10420800801990008fb89700d2089800e3089800aa
:10421800fc0898008000eb000d007800e00fb20069
:10422800010032001100200042fd2f000f00410064
:104238006df607008fb997009011980021002000b3
:104248000000e0001f0032000fb897004d409800b2
:104258002c08900001002000c000dd0000002000b4
:104268005c09900003002000020070008380700049
:104278000fb9970070019800010998006c08900028
:10428800fc0890000fb99700500198006101980050
:104298006000b8003001980041019800300998008a
:1042a800410998008000eb000111980043fd2f00a0
:1042b8000f8041001009780010007800300090004d
:1042c80010019800010078004f0778004f06be00e3
:1042d8004f05be004f04be00cf02b100000006002b
:1042e800e6874700889fbe008a9fbe008c9fbe005d
:1042f8008e1f7800800478000207780083bf9f0033
:10430800f1b79f008009eb00900090001000780042
:1043180013ff07000000e000ad003a00c94090001c
:10432800200020000104e000a900350070002000f2
:104338000108a300a60032000a0037004940900097
:104348000074a000c044980020002000a00037009e
:10435800494090000074a000c0449800100020005c
:104368009b00370059009000e90090003901900047
:10437800c901900002015000838158006170b800a3
:10438800820f5000838f58008e0036000207780095
:104398008c00370039029000c902900004007800b0
:1043a800f01fb2006e003a00990078004728dd003f
:1043b8004921de0002017000c929de002140900079
:1043c8000040e9008246600012003a00e00f520007
:1043d800e08f5a0003003a007900900089089000a5
:1043e8000400370019099000a9099000010078001d
:1043f800d3f60700e10f5000e08f5800cfff3600da
:10440800e10f4000e08f4800d1ff3200900c980087
:10441800a10c98001906780019099000a9099000c4
:104428000c0078007af807000001be00e00f500089
:10443800e08f5800c1ff32000d80fb000100200012
:1044480002054000838548004974de0025003200db
:10445800ac4090000d81fb00080041008180fb000a
:10446800810f500001003600028450001c4090006b
:10447800084278000a01be00ffb09700a5100700a7
:104488000000e000b2ff3a00494090000068a30035
:104498001200320039089000c90890000a01500043
:1044a8008b8158006140b800800f5100818f5900fe
:1044b8000a0031004102200089804000491add00cd
:1044c800c711de00830172004911dd007fb2970039
:1044d800020042000220200059f507004944dd008f
:1044e8002c003700494090000068a3000c003200ff
:1044f80039099000c90990004102200089804000d4
:104508001c40900014c0b300c41007000000e00075
:104518008fff3a00494090000064a100c044980011
:1045280039089000c90890008a0f50008b8f5800f6
:1045380009003200410220008980400019007800fb
:104548001040900014c0b3000a01be0071100700ab
:104558000000e0007eff3a00ba0c9800cb0c9800ef
:1045680039019000f21fb200002020000204500020
:104578008e0f5400010036000e047800410220001e
:104588008980400082804000080178007fb0970051
:104598002bf507007fb0970008004000f0b79f0098
:1045a80039009000c900900008004000e0804800f1
:1045b800b0049800c10498000fba9700140a440088
:1045c800080757000e00e00072ff3a000e0078005e
:1045d8004f0778004f06be004f05be004f04be00cf
:1045e8006f00b10000000600e6874700889fbe0004
:1045f8008a9fbe008c9fbe008e1f78000004780042
:104608008206780083bf9f00f1b79f008009eb0006
:10461800900090001000780051fe07000000e000b4
:10462800cb003a00c8409000200020000104e000c0
:10463800c7003500700020000118a300c400320034
:104648000a003700484090000074a00040449800d9
:1046580020002000be003700484090000074a000f1
:104668004044980010002000b9003700580190001d
:10467800e80190000d004100e0804900820f5000e1
:10468800838f5800a5003900a20037003802900037
:10469800c802900004007800f01fb20081003a00c0
:1046a800980078004728dd004921de0002017000eb
:1046b800c929de00214090000040e900024760005f
:1046c8001e003a00e00f5200e08f5a000b003a003b
:1046d8007801900088099000e00f5100e08f5900a0
:1046e8000e003a000100780056f707000001be00ee
:1046f80070049800010c9800050037001809900014
:10470800a8099000010078004ef707000001be00dc
:10471800e00f5100e08f590080003200e10f510096
:10472800e08f5900c7ff3200e10f4100e08f4900d8
:10473800c9ff3200120c9800230c980048409000e2
:104748000068a3000d00320038099000c8099000e5
:10475800180078001040900014c0b30041022000f7
:10476800888040002d1007000000e000baff3a00e2
:10477800484090000064a100404498001806780062
:1047880018099000a80990000c007800a0f707000d
:104798000001be00e00f5000e08f5800a9ff320072
:1047a8000e80fb00010020000205400083854800c0
:1047b800c96cde0025003200ac4090000e81fb0081
:1047c800090041008180fb00810f50000100360084
:1047d800828450001c409000094278000a01be0003
:1047e800ffb097000d1007000000e0009aff3a00a4
:1047f80038089000c80890000a0150008b815800c2
:104808006148b800800f5100818f59000d003100b8
:104818004918dd00c710de00810070004910dd0076
:104828007fb1970080004100022020004002200054
:104838000800400082f40700484090000064a1008e
:1048480040449800c94cdd00260037003808900025
:10485800c80890008a0f50008b8f58000f00320054
:1048680038019000c801900058009000e8009000be
:10487800800f5100818f5900080031001c409000c2
:1048880014c0b3000a01be00410220008880400025
:10489800a00f07000000e0006fff3a003a0c9800f4
:1048a8004b0c9800b8009000f11fb20000202000c7
:1048b800810450008d8f5400010036008d0478006b
:1048c8004002200008004000010040000901780073
:1048d800ffb097005af40700484090000064a00019
:1048e800404498007fb0970009004000f0b79f004f
:1048f80038009000c800900009004000e08048009f
:1049080030049800410498000fb9970012894400b8
:10491800898656000d00e0005cff3a0038019000df
:10492800c801900058009000e8009000800f5100e6
:10493800818f5900020036005204980063049800e1
:10494800484090000054a000404498000000eb004c
:104958004f0778004f06be004f05be004f04be004b
:104968006f00b10000000600889fbe008004780038
:10497800900090001000780079fd07008000780012
:104988000000e00032003a00494090000080fb003f
:104998000058a3002e0032000068a3000e00320069
:1049a80039099000c909900041022000898040001f
:1049b800190078001040900014c0b300970f07004a
:1049c800110020000000e00021003a00494090005a
:1049d8000064a100c044980059099000e9099000ba
:1049e80019007800d7f40700800078000000e00084
:1049f80017003a00790c90006b0044001054a00096
:104a080059009000e9009000600c9800710c980023
:104a1800f9009000510c980009089000200c9800ab
:104a280022080700300c9800410c9800494090007b
:104a38000054a100c04498009900780010c0b30049
:104a4800c04098001900780003f50700800078003e
:104a5800010078004f04be0000000600881f78009f
:104a680000047800c0ff07000000e00006003a00dc
:104a780098109000180078009df407000000e000ee
:104a880001003a00000c78004f047800000006008e
:104a9800b10020000004e00002003a00ec6eef00d4
:104aa8008000eb0001007800000006002800fa00f2
:104ab800881f7800e0bf9f007e8457000041eb000c
:104ac8008800780064805700f3fb07000001780035
:104ad8000000e00027003a0060fd2f000f004000b2
:104ae800b0bf9f00c0de2000c0bf9f00efb8970096
:104af8000800780060fb0700000178000000e00073
:104b080019003a00afb997000300e00006003a0028
:104b1800180078004fb29700dfb297003408980069
:104b28004508980013003700334890000048a30058
:104b38000f0032002308900001002000c000dd00b3
:104b480000002000530990000300200002007000bc
:104b5800838070001fb197003009980041099800c0
:104b68000001eb0003003700e40f500001003a0099
:104b780052002000020078004f0478000080fa00fc
:104b8800000006001000fa00889fbe008a9fbe0041
:104b98008c9fbe00000578000206be0090009000c1
:104ba80010007800eefc07000000e0007a013a00ef
:104bb8004a419000200020000204e0007601350000
:104bc8000200370010012000440037000a1090004e
:104bd8000000e0009b0032003001be00c2b79f0019
:104be800d3b79f0080057800e10f4600e08f4e00a4
:104bf8003d003a007a0490008a0c9000e00f5400bf
:104c0800e08f5c00340032004fb29700dfb29700ab
:104c1800e30f5200e08f5a00eaff36000806be0094
:104c28006000b800e0b79f00f1b79f006fb1970030
:104c3800ffb1970061014100e0814900e2b79f00a0
:104c4800f3b79f000c01be001a007800bcf40700ff
:104c58000001be00e10f5000e08f5800430136000c
:104c6800e10f4000e08f4800450132006100460036
:104c7800e0804e00800f5100818f590002003a00f9
:104c88000206be00e9ff37006fb29700ffb2970037
:104c9800848dbe00a8059800b9059800e8854500f0
:104ca8004fb09700dfb0970062005000e0805800d6
:104cb800c0b79f00d1b79f001a007800e0089000a5
:104cc80050089000800f5100818f59000200310078
:104cd8000204be00ccff37000000eb00800deb00a3
:104ce800bb1578002c0137005a009000ea009000ac
:104cf800800f5600818f5e00010036000006be005e
:104d08003c0598004d059800e00f5600e08f5e00c6
:104d18002001320061005600e0805e00c90cde0010
:104d28004709dd004904de00080471001a00780014
:104d3800204190000281fb00030020000800be0013
:104d48001eee07000b0178003202be00e00f520091
:104d5800e08f5a0005013200840f5000858f5800fb
:104d6800040039000400500085805800e88545009b
:104d7800f4ff370032024000a28248000401be005e
:104d8800140d9800250d98009a0578002b40900086
:104d98000040e900084460000b0078001cf607009a
:104da8000001be00e00f5000e08f5800ef00320015
:104db8000880fb00010020000204400083844800b2
:104dc8003a009000f01fb200f20032003a09900059
:104dd800ca099000820f5400838f5c00ed003200f6
:104de8004a4090000068a3000a00320041022000f7
:104df8008a8040001b40900014c0b300870e070053
:104e08000000e000de003a004a4090000064a10083
:104e180040459800410220008a8040001a0078002e
:104e28001040900014c0b3000801be00390e0700fe
:104e38000000e000d2003a00380d9800490d9800b3
:104e4800d40037005a009000ea009000800f560006
:104e5800818f5e00030036000218a30001003a00ab
:104e68000006be003a019000ca0190006000b80038
:104e78003005980041059800e00f5600e08f5e006d
:104e88008b0032009a0578002b4090000080fb00d0
:104e980001002000490add00c702de008502720019
:104ea8004902dd00a4b79f00b5b79f00e00f51008d
:104eb800e08f59002600320061015100e08159005d
:104ec80082bf9f0093bf9f0061005600e0805e0094
:104ed8000401be00b9ed07000004be002fb1970021
:104ee800bfb197000fb897009fb89700b3ed0700c0
:104ef800800f5400818f5c00150039002fb1970096
:104f0800bfb1970060001100e08019008fb99700c9
:104f1800030160001fba9700048060006102b800b6
:104f2800c020dd00000020006112b80004007000fd
:104f380085807000300598004105980000065600ed
:104f480081865e001a099000aa09900012003700b5
:104f58007a0190008a099000e00f5100e08f590013
:104f68000b003a000b00780036f507000001be0080
:104f7800e10f5000e08f58007c003200e10f400044
:104f8800e08f48007e00320070059800010d9800ff
:104f9800120d9800230d9800e00f5100e08f590082
:104fa80028003a00420037004a4090000018a30049
:104fb800090032001a00780022f507000001be003f
:104fc800e00f5000e08f580006003a002fb6970017
:104fd800bfb69700200037001a007800d8f3070002
:104fe8000001be00e10f4100e08f4900640032007b
:104ff800e10f5100e08f59005c0036001a0078007c
:10500800e008900050089000800f5100818f5900ef
:1050180056003100120d9800230d98003a009000b8
:10502800ca0090002fb29700bfb29700040040005a
:105038008580480030059800410598000406560010
:1050480085865e002fb09700bfb09700800f56008e
:10505800818f5e00d4ff3e003a009000ca009000a5
:105068000c0040008d8048003005980041059800ec
:105078000c007800f01fb2000d0032001a00780012
:1050880063f507000001be00e00f5000e08f5800f4
:1050980036003200476add004960de000000720019
:1050a800c968de000204400083844800010037001c
:1050b8006044b8003a009000f01fb2001e003200b1
:1050c8003a099000ca099000820f5400838f5c004f
:1050d800190032004a4090000068a3000b0032001b
:1050e800410220008a8040001a0078001040900099
:1050f80014c0b300c90d07000000e00020003a000a
:105108004a4090000064a1004045980041022000f8
:105118008a8040001a0078001040900014c0b30044
:105128000801be007b0d07000000e00014003a00f3
:10513800380d9800490d98003a019000ca01900076
:105148005a009000ea009000800f5100818f5900aa
:105158001000360052059800630598004a409000f8
:105168000054a000404598000a0037004a409000cb
:105178000074a00040459800200020000600370079
:105188004a4090000074a00040459800100020009c
:10519800010037000000eb004f06be004f05be00bf
:1051a8004f04be000080fa00000006000e00fa005e
:1051b800881f780000047800e1bf9f000041eb00e1
:1051c800800078006480570033fa07000000e00090
:1051d80022003a0070805700200c9800c0de2000a2
:1051e800300c9800efb8970008007800a2f9070083
:1051f8000000e00016003a00180990000200e000e4
:105208000d003200324890000048a300120032001e
:105218002208900001002000c000dd0000002000ee
:105228005209900003002000020070008380700083
:10523800300498004104980018007800300090006d
:10524800100498008000eb000800780008f50700bb
:10525800e40f500001003a00500020004f0478008d
:105268000080fa00000006000c00fa00889fbe00cb
:105278000004be00900090001000780038fb070082
:105288000000e0001f003a000900e00004003a00b6
:105298008000780008007800f5f40700190037004e
:1052a80070805700200c9800c0de2000300c980059
:1052b80008007800eff60700e40f500004003a00f9
:1052c8006000b80070049800010c980002003700d4
:1052d8000000e0000b003a000800be0002f90700d9
:1052e8008000eb000800780037f50700e40f500055
:1052f80004003a006000b80070049800010c98009f
:105308000000eb004f04be000080fa000000060019
:105318002800fa00889fbe00d0bf9f008104780053
:1053280000fe2f000f0440000041eb0088007800c9
:1053380066805700d8f90700800078000000e00078
:1053480014003a0042fd2f000f014100a2bf9f0048
:10535800c0de2000b0bf9f00dfb8970008007800cb
:1053680045f90700800078000000e00009003a00d5
:10537800610020001fb897000000e000050032001f
:105388008900780002fe2f000f004100d6f80700c0
:105398008000eb00010078004f04be000080fa0096
:1053a80000000600ea874700889fbe008a9fbe006b
:1053b8008c9fbe008e1f7800d0b79f0081bf9f00d2
:1053c800020678000041eb008c00780076805700d8
:1053d800b1f90700800178000000e0006c003a0095
:1053e8001c01780072029000820a9000520c900012
:1053f800e20c900062005400e0805c00800f5200d4
:10540800818f5a0003003e000fb897000488be0041
:105418005f00370012477800e14f57001a003a0042
:105428006055b80028002000090020000801be00cf
:105438001c007800c2f20700e10f4000e08f48002e
:1054480015003200e10f5000e08f580014003200c0
:10545800e00f5000e08f580002003a006105450057
:10546800e0854d0061044400e0844c001c00780095
:10547800e008900050089000800f5400818f5c0075
:1054880038003100e9ff3700a21190001211900096
:105498006055b800090037001300200032003700bb
:1054a80023002000300037000d00e00010003a0013
:1054b8000604be006fb19700ffb19700610041007c
:1054c800e0804900e0b79f00f1b79f001c0078001a
:1054d8001cf20700800178000000e00022003a007a
:1054e800210320009c8140000803be000d202000fd
:1054f800e24f570007003a001300e00002003a00ac
:1055080061054500e0854d008381e8008d86e9004e
:10551800110037001301780013009000f1ff2000fc
:10552800010060006102b800c020dd00000020001a
:105538006112b8000400700085807000e00f500010
:10554800e08f580002003a0061054500e0854d00f3
:10555800e4814100e486560061035300e0835b0068
:10556800d1ff3a008001eb001c0078007a00980017
:105578000b089800e34f570003003a009c0078009e
:1055880010c0b300d04098000fb897000a88be003a
:10559800030078004f0778004f06be004f05be0095
:1055a8004f04be00af00b10000000600881f78005d
:1055b8008a9fbe00000478009000900010007800d8
:1055c80067fa0700800078000000e0004a003a000f
:1055d80048409000210020000004e000460035000b
:1055e800710020000018a300430032003a00370081
:1055f8005204980063049800484090000054a000aa
:105608004044980038059000c8059000e00f550008
:10561800e08f5d0008003a0078019000880990004a
:10562800180078004df30700800078007a0498008d
:105638000b0c98002000370018099000a80990006a
:10564800180078003ef207000005be001100200097
:10565800e10f4500e08f4d001900320021002000c5
:10566800e10f5500e08f5d00150032001803780047
:1056780056089000e6089000800f5500818f5d0065
:105688001300310018099000a8099000f4ff2f00ba
:10569800f5ff200006007800a0f2070080007800df
:1056a8000000e00006003a000a01be001800780079
:1056b8002af30700800078000100e0000e003200a5
:1056c800484090000074a000404498000a00370049
:1056d8008000eb000800370038019000c8019000f6
:1056e80058009000e8009000820f5000838f580007
:1056f800bfff3e00f6ff3700010078004f05be00ef
:105708004f047800000006004200fa00889fbe009f
:105718008a1f7800c0bf9f00e8fd2f000f044400d7
:1057280012c0b3008800780068805700daf80700d4
:10573800000278000000e00066003a0080fb2f00bd
:105748000f00400090bf9f00c0de2000a0bf9f0058
:10575800cfb897000800780047f8070000027800e3
:105768000000e0005b003a001fb897003048900046
:10577800640020000058a30056003a004700370094
:105788008fba9700640020000500e0000500320091
:1057980035489000740020000008a30001003a007a
:1057a8000002eb002509900003002000c011dd0075
:1057b800020020005508900001002000000471003c
:1057c800818471000400e00042003a0035489000ee
:1057d8000048a3003900320024002000e10f5400e3
:1057e800e08f5c003b00360080fb2f000f0040007c
:1057f8006c054000a2012000800078006102b00022
:105808000a0078008ef00700d8a79f00e9a79f003c
:10581800210020000a00780095f3070000027800b4
:105828000000e0002b003a000a00780091f507001c
:10583800000278000000e000160032001a0078002c
:10584800c008900030089000800f5400818f5c00e1
:1058580010003200e40f52001e003a001700370013
:10586800e00f5400e08f5c00060032000801be0023
:105878007fa89700b9f20700000278000000e00056
:1058880014003a007fa8970073f10700000278001f
:1058980010003700740020000e003700210020009f
:1058a800e0fd2f000f00400093f007000002780091
:1058b8000000e000b2ff320006003700e0fd2f00d4
:1058c8000f0040005cf60700000278000000e000ce
:1058d800e3ff3200040078004f0578004f04be0053
:1058e8000080fa00000006004f03b000889fbe0049
:1058f8008a9fbe008c9fbe008e1f7800b0b79f00a5
:105908006a040700c0b79f00d1b79f00c0fc2f00f2
:105918008f04400012c0b300890078007a805700d5
:105928005df80700000478000000e000a2003a00db
:1059380001fc2f008f80400081b79f00c0de20004f
:1059480090b79f00bfb0970009007800caf707001a
:10595800000478000000e00002003a0088002000ff
:1059680095003700e40f500093003a000fb09700fd
:1059780030489000680020000058a3008e003a00cc
:105988006011b8006fa09700aef207000005be00d6
:1059980078002000e00f5000e08f5800050032002a
:1059a80028002000e10f5000e08f58006c00320002
:1059b8000004eb00e10f4500e08f4d0002003a00c3
:1059c80018002000660037000800e00064003a0074
