:020000040000FA
:0600000095EF29F012004B
:0600080004EF08F01200F5
:060018000CEF08F01200DD
:0610000095EF29F012003B
:021006001200D6
:0610080089EF21F0120047
:02100E000000E0
:081010000000000000000001D7
:06101800D4EF21F01200EC
:02101E000200CE
:101020000E100000E20200000A000000CD50000097
:08103000BE0E000001000000EB
:08103800D9CFE6FFE1CFD9FF9B
:10104000050EE12672BA08D0E66AE66AE66AE66A42
:10105000060EE66E1FDA07D0E66AE66AE66AE66A18
:10106000060EE66E4FD8EECF10F0EECF11F0EECFB9
:1010700012F0EECF13F0EECF14F0156E050EE15E18
:10108000155010C0DFFF010E11C0DBFF020E12C0B1
:10109000DBFF030E13C0DBFF040E14C0DBFFD9CF50
:1010A000E9FFDACFEAFFEE50ED1009E073EC0FF044
:1010B0000E01AF5102E1010E03D0000E01D0010E6E
:1010C000106E050EE15C02E2E16AE552E16E10503D
:1010D000E552E7CFD9FF1200ACCEF3FFADCEF4FF5F
:1010E0001200A8CE04F0A9CE05F0AACE06F0ABCE31
:1010F00007F01200818093901200AEEC0EF0818018
:101100009380000CD9CFE6FFE1CFD9FF0E0EE12688
:10111000080EDE6EDD6A8190FE0EDB50040DF3CF0B
:10112000F6FFF4CFF7FF560EF626520EF722080010
:101130000D0EF5CFDBFFD950FA0FE96EFF0EDA2066
:10114000EA6E090EEECFDBFF0A0EEECFDBFF0B0ED1
:10115000EECFDBFF0C0EEECFDBFFFE0EDB50040DFF
:10116000F3CFF6FFF4CFF7FF560EF626520EF72216
:10117000F62A000EF7220800080EF5CFDBFF0D0E51
:10118000DB8CDBCFE6FFB0EC0EF0E5520C0EDBCFD4
:10119000E6FFB0EC0EF0E5520B0EDBCFE6FFB0EC55
:1011A0000EF0E5520A0EDBCFE6FFB0EC0EF0E55292
:1011B000090EDBCFE6FFB0EC0EF0E552080EDBCFF8
:1011C000E6FFB0EC0EF0E552FE0EDB50040DF3CF5F
:1011D000F6FFF4CFF7FF560EF626520EF722020E58
:1011E000F626000EF7220800F55026E0FE0EDB5032
:1011F000040DF3CFF6FFF4CFF7FF560EF626520E8E
:10120000F722020EF626000EF7220800F55001081C
:1012100013E0FE0EDB50040DF3CFF6FFF4CFF7FF23
:10122000560EF626520EF722020EF626000EF72272
:101230000800F550040816E1C7EC0EF0E76E030E47
:10124000E7CFDBFFDF06010E01E2DB06030EDB501A
:10125000FF0829E1D9CFE9FFDACFEAFFEE50ED1020
:10126000EBE121D0FE0EDB50040DF3CFF6FFF4CFFF
:10127000F7FF560EF626520EF722020EF626000E45
:10128000F7220800F55002080EE1C7EC0EF0C7EC9B
:101290000EF0E76E040EE7CFDBFFC7EC0EF0E76E53
:1012A000030EE7CFDBFFFE0EDB50040DF3CFF6FF9E
:1012B000F4CFF7FF560EF626520EF722020EF62650
:1012C000000EF7220800F550010828E1030EDB6A42
:1012D000020EDB6AFF0EF36E020EDBCFF4FFF3505B
:1012E000F45C1CE2030EDB5019E1DE68DD68C7EC3C
:1012F0000EF0E76E030EE7CFDBFFDF06010E01E223
:10130000DB06030EDB5007E1D9CFE9FFDACFEAFFB6
:10131000EE50ED10ECE1020EDB2ADCD7FE0EDB50C6
:10132000040DF3CFF6FFF4CFF7FF560EF626520E5C
:10133000F722020EF626000EF7220800F5500408E8
:1013400069E1C7EC0EF0106E116A126A136A180E8A
:101350001F0B07E0D8901036113612361336E80608
:10136000F9E1040E10C0DBFF050E11C0DBFF060E15
:1013700012C0DBFF070E13C0DBFFC7EC0EF0106ED0
:10138000116A126A136A100E1F0B07E0D89010360C
:10139000113612361336E806F9E1D950040FE96E1A
:1013A000DACFEAFF1050EE261150EE221250EE2254
:1013B0001350EE22C7EC0EF0106E116A126A136A17
:1013C000080E1F0B07E0D890103611361236133670
:1013D000E806F9E1D950040FE96EDACFEAFF1050C0
:1013E000EE261150EE221250EE221350EE22C7ECE0
:1013F0000EF0106E116A126A136AD950040FE96E6A
:10140000DACFEAFF1050EE261150EE221250EE22F3
:101410001350EE22E668B0EC0EF0E552FE0EDB5003
:10142000040DF3CFF6FFF4CFF7FF560EF626520E5B
:10143000F722030EF626000EF7220800F55001E110
:101440008180030EDBCF10F0040EDBCF11F0050E10
:10145000DBCF12F0060EDBCF13F0070EDBCF14F05C
:10146000D9CFE9FFDACFEAFFED50ED5014C0EDFF20
:1014700013C0EDFF12C0EDFF11C0EDFF10C0EFFF74
:101480000E0EE15C02E2E16AE552E16EE552E7CF61
:10149000D9FF1200D9CFE6FFE1CFD9FF0E0EE1262A
:1014A000080EDE6EDD6A8190FE0EDB50040DF3CF78
:1014B000F6FFF4CFF7FF560EF626520EF72208007D
:1014C0000D0EF5CFDBFFD950FA0FE96EFF0EDA20D3
:1014D000EA6E090EEECFDBFF0A0EEECFDBFF0B0E3E
:1014E000EECFDBFF0C0EEECFDBFFFE0EDB50040D6C
:1014F000F3CFF6FFF4CFF7FF560EF626520EF72283
:10150000F62A000EF7220800080EF5CFDBFF0D0EBD
:10151000DB8CDBCFE6FFEBEC0EF0E5520C0EDBCF05
:10152000E6FFEBEC0EF0E5520B0EDBCFE6FFEBEC4B
:101530000EF0E5520A0EDBCFE6FFEBEC0EF0E552C3
:10154000090EDBCFE6FFEBEC0EF0E552080EDBCF29
:10155000E6FFEBEC0EF0E552FE0EDB50040DF3CF90
:10156000F6FFF4CFF7FF560EF626520EF722020EC4
:10157000F626000EF7220800F55026E0FE0EDB509E
:10158000040DF3CFF6FFF4CFF7FF560EF626520EFA
:10159000F722020EF626000EF7220800F550010889
:1015A00013E0FE0EDB50040DF3CFF6FFF4CFF7FF90
:1015B000560EF626520EF722020EF626000EF722DF
:1015C0000800F550040816E12AEC0FF0E76E030E50
:1015D000E7CFDBFFDF06010E01E2DB06030EDB5087
:1015E000FF0829E1D9CFE9FFDACFEAFFEE50ED108D
:1015F000EBE121D0FE0EDB50040DF3CFF6FFF4CF6C
:10160000F7FF560EF626520EF722020EF626000EB1
:10161000F7220800F55002080EE12AEC0FF02AEC40
:101620000FF0E76E040EE7CFDBFF2AEC0FF0E76E5A
:10163000030EE7CFDBFFFE0EDB50040DF3CFF6FF0A
:10164000F4CFF7FF560EF626520EF722020EF626BC
:10165000000EF7220800F550010827E1030EDB6AAF
:10166000020EDB6AFF0EF36E020EDBCFF4FFF350C7
:10167000F45C1BE2030EDB5018E1DE68DD68EADB98
:10168000E76E030EE7CFDBFFDF06010E01E2DB06AC
:10169000030EDB5007E1D9CFE9FFDACFEAFFEE50C6
:1016A000ED10EDE1020EDB2ADDD7FE0EDB50040D5E
:1016B000F3CFF6FFF4CFF7FF560EF626520EF722C1
:1016C000020EF626000EF7220800F550040865E128
:1016D000C1DB106E116A126A136A180E1F0B07E045
:1016E000D8901036113612361336E806F9E1040E9A
:1016F00010C0DBFF050E11C0DBFF060E12C0DBFFC2
:10170000070E13C0DBFFA6DB106E116A126A136AA4
:10171000100E1F0B07E0D890103611361236133614
:10172000E806F9E1D950040FE96EDACFEAFF10506C
:10173000EE261150EE221250EE221350EE228ADBDA
:10174000106E116A126A136A080E1F0B07E0D89018
:101750001036113612361336E806F9E1D950040F67
:10176000E96EDACFEAFF1050EE261150EE22125049
:10177000EE221350EE226EDB106E116A126A136AAB
:10178000D950040FE96EDACFEAFF1050EE2611505F
:10179000EE221250EE221350EE22E6681CDBE552D8
:1017A000FE0EDB50040DF3CFF6FFF4CFF7FF560E1D
:1017B000F626520EF722030EF626000EF722080038
:1017C000F55001E18180030EDBCF10F0040EDBCF7A
:1017D00011F0050EDBCF12F0060EDBCF13F0070E73
:1017E000DBCF14F0D9CFE9FFDACFEAFFED50ED50AF
:1017F00014C0EDFF13C0EDFF12C0EDFF11C0EDFFEF
:1018000010C0EFFF0E0EE15C02E2E16AE552E16E0C
:10181000E552E7CFD9FF1200D9CFE6FFE1CFD9FFDC
:101820000F0EE126010EF36E0A0EF3CFDBFF0E0161
:10183000AE5123E1FB0EDBCF10F0FC0EDBCF11F03D
:10184000FD0EDBCF12F0FE0EDBCF13F0090E1F0BE7
:1018500007E0D8901036113612361336E806F9E153
:101860000B0E10C0DBFF0C0E11C0DBFF0D0E12C003
:10187000DBFF0E0E13C0DBFF12D0D950FB0FE96E59
:10188000FF0EDA20EA6E0B0EEECFDBFF0C0EEECF72
:10189000DBFF0D0EEECFDBFF0E0EEECFDBFFD950E0
:1018A0000B0FE96EDACFEAFFEECFE6FFEECFE6FFF1
:1018B000EECFE6FFEFCFE6FF080EE66E23DCEECFBD
:1018C00010F0EECF11F0EECF12F0EECF13F0EECF1E
:1018D00014F0156E050EE15E1550040E10C0DBFF0E
:1018E000050E11C0DBFF060E12C0DBFF070E13C092
:1018F000DBFF080E14C0DBFF040EDB5033E0D950D1
:101900000B0FE96EDACFEAFFEECFE6FFEECFE6FF90
:10191000EECFE6FFEFCFE6FF080EE66E82EC08F0B2
:10192000EECF10F0EECF11F0EECF12F0EECF13F0BD
:10193000EECF14F0156E050EE15E1550040E10C0CA
:10194000DBFF050E11C0DBFF060E12C0DBFF070E2A
:1019500013C0DBFF080E14C0DBFF040EDB5002E0F7
:10196000000E8CD0DE68020EDD6E400EF36E020EAD
:10197000F3CFDBFF030EDB6AD950020FE96EDACF3B
:10198000EAFFEE50ED1006E0020EDB06030EF4E275
:10199000DB06F2D7FCD9E76E090EE7CFDBFFDF06E7
:1019A000010E01E2DB06400EF36E020EF3CFDBFF09
:1019B000030EDB6AD950020FE96EDACFEAFFEE5070
:1019C000ED1006E0020EDB06030EF4E2DB06F2D7B2
:1019D000090EDB50FF0807E1D9CFE9FFDACFEAFFB4
:1019E000EE50ED10D7E1D9CFE9FFDACFEAFFEE50A4
:1019F000ED1004E0090EDB50FE0803E00A0EDB6A7E
:101A000037D0DE6ADD6ADECF10F0DDCF11F00E01D7
:101A1000AC51105CAD51115825E2D950F90FE96E67
:101A2000FF0EDA20EA6EEE50ED1016E0090E75CFCB
:101A3000DBFFA49E7568A4AEFED7F90EDBCF10F0D5
:101A4000FA0EDBCF11F0DE501024E96EDD501120CC
:101A5000EA6E75CFEFFF01D09AD9DF2A010ED3E3EA
:101A6000DB2AD1D7E6687CD9E552E66879D9E55218
:101A7000E66876D9E55281800A0EDB50106E0F0EB3
:101A8000E15C02E2E16AE552E16E1050E552E7CF17
:101A9000D9FF1200D9CFE6FFE1CFD9FF0D0EE12625
:101AA000010EF36E0C0EF3CFDBFFFB0EDBCF10F05D
:101AB000FC0EDBCF11F0FD0EDBCF12F0FE0EDBCF04
:101AC00013F0105011101210131006E1F80EDB5035
:101AD00003E10C0EDB6AF3D00E01AE5131E1FB0ED7
:101AE000DBCF15F0FC0EDBCF16F0FD0EDBCF17F0D1
:101AF000FE0EDBCF18F0090E1F0B07E0D89015364D
:101B0000163617361836E806F9E115C0E6FF16C096
:101B1000E6FF17C0E6FF18C0E6FF0A0EE66E82EC8D
:101B200008F0EECF10F0EECF11F0EECF12F0EECFC6
:101B300013F0EECF14F0196E050EE15E195020D0AF
:101B4000D950FB0FE96EFF0EDA20EA6EEECFE6FF0A
:101B5000EECFE6FFEECFE6FFEFCFE6FF0A0EE66E32
:101B600082EC08F0EECF10F0EECF11F0EECF12F0D5
:101B7000EECF13F0EECF14F0156E050EE15E1550AA
:101B8000070E10C0DBFF080E11C0DBFF090E12C0EC
:101B9000DBFF0A0E13C0DBFF0B0E14C0DBFF070ECA
:101BA000DB5003E00C0EDB6A89D0FE0EE66ED8D85F
:101BB000E552DE6ADD6ADECF10F0DDCF11F00E01F6
:101BC000AC51105CAD5111581CE2060E75CFDBFF15
:101BD000A49EF90EDBCF10F0FA0EDBCF11F0DE5031
:101BE0001024E96EDD501120EA6EEF50756EA4AE40
:101BF000FED7060E75CFDBFFDF2A010EDCE3DB2A02
:101C0000DAD7E668ADD8E552E668AAD8E552BFD87B
:101C1000E76E060EE7CFDBFFDB500F0B050849E14F
:101C2000950EF36E020EF3CFDBFFEE0EF36E030E96
:101C3000F3CFDBFF080EF36E040EF3CFDBFF050ED0
:101C4000DB6A060E75CFDBFFA49E7568D950020FC4
:101C5000E96EDACFEAFFEE06000EEE5AEE5AEE5AC1
:101C6000A4AEFED7060E75CFDBFFDB5011E1020EEE
:101C7000DBCF10F0030EDBCF11F0040EDBCF12F040
:101C8000050EDBCF13F01050111012101310D9E114
:101C9000020EDBCF10F0030EDBCF11F0040EDBCF12
:101CA00012F0050EDBCF13F01050111012101310AC
:101CB00002E10C0EDB6AE66853D8E55281800C0E17
:101CC000DB50106E0D0EE15C02E2E16AE552E16E5E
:101CD0001050E552E7CFD9FF1200000CD9CFE6FF34
:101CE000E1CFD9FF050EE126FE0EDB50DF6EDF509F
:101CF000DF06000927E06B0EF36E010EF3CFDBFF6A
:101D0000170EF36E020EF3CFDBFF030EDB6A040E39
:101D1000DB6AD950010FE96EDACFEAFFEFCF10F09E
:101D2000EE06000EEFCF11F0EE5AEFCF12F0EE5AA2
:101D3000EFCF13F0EF5A105011101210131001E0F2
:101D4000E8D7D5D7000000D0050EE15C02E2E16AD9
:101D5000E552E16EE552E7CFD9FF1200729A120008
:101D6000D9CFE6FFE1CFD9FFE6527550DF6EA49ED2
:101D7000FE0EDB50756E72AE02D0FF0E03D0A4AE25
:101D8000FED7000EE552E552E7CFD9FF1200D9CFBA
:101D9000E6FFE1CFD9FFE6527550DF6EA49E75686D
:101DA000A4AEFED77550E552E552E7CFD9FF120039
:101DB000D9CFE6FFE1CFD9FF736A726AFE0EDB501E
:101DC0007212728E738C939493929386728AE552F8
:101DD000E7CFD9FF1200D9CFE6FFE1CFD9FF020E3E
:101DE000E1268A948A8293949392DF6A080EDF5CDC
:101DF00023E28A94FE0EDBAE02D08A8201D08A9260
:101E0000DB50020DFE0EF3CFDBFFDE52010EDD6E66
:101E1000010EDBCFF3FFDB06F3500009F9E18A8402
:101E2000DE52010EDD6E010EDBCFF3FFDB06F35059
:101E30000009F9E1DF2ADAD78A94000E106E020E4B
:101E4000E15C02E2E16AE552E16E1050E552E7CF53
:101E5000D9FF1200D9CFE6FFE1CFD9FF040EE1266A
:101E6000030EDB6A8A82939293868A949394DF6A44
:101E7000080EDF5C29E28A94010EF36E020EF3CFA6
:101E8000DBFF020EDBCFF3FFDB06F3500009F9E1C5
:101E90008A84010EF36E020EF3CFDBFF020EDBCF5E
:101EA000F3FFDB06F3500009F9E1030EDB50020DEE
:101EB000030EF3CFDBFF81A602D0DB2A03D0DE5274
:101EC000010EDD6EDF2AD4D78A94030EDB50106E2C
:101ED000040EE15C02E2E16AE552E16E1050E55267
:101EE000E7CFD9FF1200D9CFE6FFE1CFD9FF230E0C
:101EF000E1260E01AF6BB06BA86BA96BAA6BAB6B45
:101F00008180010EE66EEADEE552726ADE6ADD6A03
:101F1000DECF10F0DDCF11F00A0E105C000E11586C
:101F200008E2E66858DFE552DF2A010EF1E3DB2A1A
:101F3000EFD78190010EE66ED1DEE552E66AE66AE1
:101F4000E66AE66AE66A4AEC0AF0EECF10F0EECFF7
:101F500011F0EECF12F0EECF13F0EECF14F0156EBD
:101F6000050EE15E1550020E10C0DBFF030E11C01E
:101F7000DBFF040E12C0DBFF050E13C0DBFF060EF5
:101F800014C0DBFF020EDB50FF0805E0020EDB5041
:101F9000F70B010805E081800E01020EAF6F1DD323
:101FA000AA0EE66E010EE66EE66AE66A020EE66EBE
:101FB0004AEC0AF0EECF10F0EECF11F0EECF12F0B7
:101FC000EECF13F0EECF14F0156E050EE15E155056
:101FD000020E10C0DBFF030E11C0DBFF040E12C0A7
:101FE000DBFF050E13C0DBFF060E14C0DBFF10681D
:101FF0000F0E116E126A136AD950030FE96EDACF11
:10200000EAFFEE501016EE501116EE501216EE507A
:102010001316AA0E101801E094D0010E111801E059
:1020200090D0125001E08DD0135001E08AD0D950E9
:10203000020FE96EDACFEAFFEF50040B01E081D026
:10204000DE680F0EDD6EE66AE66AE66A400EE66E50
:10205000010EE66E4AEC0AF0EECF10F0EECF11F072
:10206000EECF12F0EECF13F0EECF14F0156E050E9A
:10207000E15E1550020E10C0DBFF030E11C0DBFF46
:10208000040E12C0DBFF050E13C0DBFF060E14C0EA
:10209000DBFFDF06010E01E2DB06020EDB5007E08C
:1020A000D9CFE9FFDACFEAFFEE50ED10CCE1E66AD6
:1020B000E66AE66AE66A100EE66E4AEC0AF0EECFD1
:1020C00010F0EECF11F0EECF12F0EECF13F0EECF16
:1020D00014F0156E050EE15E1550020E10C0DBFF08
:1020E000030E11C0DBFF040E12C0DBFF050E13C090
:1020F000DBFF060E14C0DBFF106A116A126AC00E05
:10210000136ED950030FE96EDACFEAFFEE501016C6
:10211000EE501116EE501216EE50131610500EE13E
:1021200011500CE112500AE1C00E131807E1020E23
:10213000DB5004E10E01010EAE6F3BD00E01AE6B21
:1021400038D00E01AE6BDE680F0EDD6EE66AE66A11
:10215000E66AE66A010EE66E4AEC0AF0EECF10F08F
:10216000EECF11F0EECF12F0EECF13F0EECF14F071
:10217000156E050EE15E1550020E10C0DBFF030E5A
:1021800011C0DBFF040E12C0DBFF050E13C0DBFF26
:10219000060E14C0DBFFDF06010E01E2DB06020EB5
:1021A000DB5007E0D9CFE9FFDACFEAFFEE50ED10C0
:1021B000CDE1D9CFE9FFDACFEAFFEE50ED1005E12E
:1021C0000E01020EAF6F818008D2020EE66E86DD30
:1021D000E552E66AEDDDE552DE680F0EDD6EE66A79
:1021E000E66AE66AE66A030EE66E82EC08F0EECF77
:1021F00010F0EECF11F0EECF12F0EECF13F0EECFE5
:1022000014F0156E050EE15E1550020E10C0DBFFD6
:10221000030E11C0DBFF040E12C0DBFF050E13C05E
:10222000DBFF060E14C0DBFFDF06010E01E2DB065A
:10223000020EDB5007E0D9CFE9FFDACFEAFFEE501C
:10224000ED10CDE11C0EDB6A1B0EDB6A140EF36E83
:102250001B0EDBCFF4FFF350F45C20E298DDE66E5A
:10226000D950070F106EDACF11F01C0EDB500F01A2
:102270001024E96E000EDA20EA6EE552E750EF6EA8
:102280001C0EDB2A1B0EDB5006E1070EDB50FE089E
:1022900002E11C0EDB6A1B0EDB2AD8D70E01AC6BE9
:1022A000020EAD6FB081ACCEB1FEB26F070EDB5047
:1022B000C00B5AE00E0EDBCF10F0116A126A136ADF
:1022C0003F0E1016116A126A136A100E1F0B07E0F8
:1022D000D8901036113612361336E806F9E10F0E93
:1022E000DBCF14F014C015F0146A166A176A145084
:1022F0001012155011121650121217501312100E00
:10230000DBCF18F0196A1A6A1B6A1850101219509C
:1023100011121A5012121B5013121D0E10C0DBFFA7
:102320001E0E11C0DBFF1F0E12C0DBFF200E13C0FC
:10233000DBFF1D0EDBCFA8FE1E0EDBCFA9FE1F0E9E
:10234000DBCFAAFE200EDBCFABFE0E01A82B000ECA
:10235000A923AA23AB230A0ED890A837A937AA37F6
:10236000AB37E806F9E1DFD00D0EDBCF10F0116AD4
:10237000126A136A100E1F0B07E0D8901036113640
:1023800012361336E806F9E10E0EDBCF14F014C056
:1023900015F0146A166A176A1450101215501112AB
:1023A00016501212175013120F0EDBCF18F0196AC5
:1023B0001A6A1B6A18501012195011121A50121270
:1023C0001B5013121D0E10C0DBFF1E0E11C0DBFFD1
:1023D0001F0E12C0DBFF200E13C0DBFFD9501D0FF4
:1023E000E96EDACFEAFFC00EEE16EE52030EEE16DD
:1023F000EE6A1D0EDBCF10F01E0EDBCF11F01F0EAC
:10240000DBCF12F0200EDBCF13F0060ED890133284
:10241000123211321032E806F9E11D0E10C0DBFF56
:102420001E0E11C0DBFF1F0E12C0DBFF200E13C0FB
:10243000DBFF100EDB50030BE824106E110EDB5097
:10244000800BE844010B1010E76E210EE7CFDBFF95
:102450000C0EDB500F0BE76E220EE7CFDBFFDB50DD
:10246000F70F106E010E105204E0E846FE0B100646
:10247000FCE1E76E220EE7CFDBFFDBCF1CF01D6A2D
:102480001E6A1F6A210EDB50020FA3EC29F0F3CF66
:1024900018F0F4CF19F01A6A1B6A010E146E156A4F
:1024A000166A176AD9501D0FE96EDACFEAFFEE50AF
:1024B0001426EE501522EE501622EE50172214C0AC
:1024C00004F015C005F016C006F017C007F0F3CFF2
:1024D00009F0F4CF0AF01AC00BF01BC00CF0F3ECBB
:1024E00028F000C010F001C011F002C012F003C0CB
:1024F00013F000C004F001C005F002C006F003C0F4
:1025000007F01CC009F01DC00AF01EC00BF01FC070
:102510000CF0F3EC28F000C0A8FE01C0A9FE02C038
:10252000AAFE03C0ABFE0E01A807000EA95BAA5BC2
:10253000AB5BE66AE66AE66AE66A110EE66E82EC74
:1025400008F0EECF10F0EECF11F0EECF12F0EECF9C
:1025500013F0EECF14F0156E050EE15E1550020E6D
:1025600010C0DBFF030E11C0DBFF040E12C0DBFF47
:10257000050E13C0DBFF060E14C0DBFFACCE15F05A
:10258000ADCE16F0176A186AACCEE6FFADCEE6FF08
:1025900017C0E6FF18C0E6FF070EE66E82EC08F0F3
:1025A000EECF10F0EECF11F0EECF12F0EECF13F031
:1025B000EECF14F0196E050EE15E1950020E10C038
:1025C000DBFF030E11C0DBFF040E12C0DBFF050EA4
:1025D00013C0DBFF060E14C0DBFFAF0E106E0E0E35
:1025E000116E10C0F3FFF46E230EE15C02E2E16AAB
:0C25F000E552E16EE552E7CFD9FF120082
:0425FC00D9CFE6FF4E
:10260000E1CFD9FFE652A098636A626A0F01266B98
:10261000030EE66EE66AE66A270EE66E0F0EE66EBB
:10262000D9EC28F0106E050EE15E10500F01160E69
:10263000396F9F0E376F7B0E366FDF6ADF50106E7B
:10264000116A100E105C000E115810E2DF50040DDC
:10265000F3CFE9FFF4CFEAFF000EE926040EEA22E9
:10266000EE6AEE6AEE6AEE6ADF2AE8D7658C0F0141
:10267000386B6598659C62A607D062960401976BDB
:102680009C6B9D6B9E6BF7D70401010EB26FB36F0D
:10269000B46BB56BA46BDF6A040EDF5C26E2EA6AFA
:1026A000DF34FE0BEA36E96E8B0EE926040EEA22D1
:1026B000EE6AED6AEA6ADF34FE0BEA36E96E830EF3
:1026C000E926040EEA22EE6AED6ADF50EA6AA80FF4
:1026D000E96E040EEA22EF6ADF50EA6AAC0FE96E97
:1026E000040EEA22EF6ADF2AD7D70401080E8B6FA7
:1026F000040E8C6F0F01160E266F0401400E026F40
:10270000040E036F080E016F840E006F04017D6BD1
:102710007C6BE552E552E7CFD9FF1200D9CFE6FF37
:10272000E1CFD9FFE65204017C0509E165BA07D083
:10273000626A0F01368136890401020E7C6F625095
:10274000040B06E00F013651040B02E06294CED870
:1027500065B25CD06250010B0AE00F013651010BEB
:1027600006E04CDFA0880401040E7C6F629062508A
:10277000100B06E00F013651100B02E0A1D8629851
:1027800062AC1AD00F0136AD0FD0010EE66EE66ACC
:10279000000EE66EE66A730EE66EE66A82EC25F0DF
:1027A000106E060EE15E1050629C0401B05101E013
:1027B000B007B05101E151DB6250200B05E00F0181
:1027C0003651200B01E062D86250020B14E00F0179
:1027D0003651020B10E0010EE66EE66A000EE66E60
:1027E000E66AE6687F0EE66E82EC25F0106E060E55
:1027F000E15E1050636A040E0401E76E7C19E8AED6
:1028000002D0E73402D0E7507C5D02E2A19839D0D3
:102810000F0136A735D0DF6A040EDF5C31E262A615
:102820002FD064CFA5F40401A551780BE842E8420B
:10283000E842A66F6296A5B506D0A651EA6AAC0F2B
:10284000E96E040E05D0A651EA6AA80FE96E040EDF
:10285000EA22EF70A65102E161D810D0000EE66EB8
:10286000E66AA50EE66E040EE66E720EE66EE66A87
:1028700082EC25F0106E060EE15E1050DF2ACCD7F8
:10288000A198E552E552E7CFD9FF12000F0126A12A
:1028900015D07FC4E9FF80C4EAFFEF5080080DE146
:1028A0008BC4E9FF8CC4EAFFEF50840806E17FC4C3
:1028B000E9FF80C4EAFF8C0EEF6E2691629A120047
:1028C0000F013685629865820401010EA46F000E27
:1028D000E66EE66AE66EE66A750EE66EE66A82EC1B
:1028E00025F0106E060EE15E105012000401A46B7C
:1028F000000EE66EE66AE66EE66A740EE66EE66A5C
:1029000082EC25F0106E060EE15E105065920F010C
:10291000369562A402D06294FCD71200D9CFE6FFAC
:10292000E1CFD9FFE65204012D0EB06FFD0EA515C3
:1029300053E17E0EA515E8407F0B040DF3CF7FF425
:10294000F4CF80F4000E7F27040E80237FC481F42F
:1029500080C482F481757FC4E9FF80C4EAFFEF5030
:102960003C0BE842E8420D0835E1DF6A080EDF5C07
:1029700023E27FC4E9FF80C4EAFF020EE926000ECD
:10298000EA22EE50EFCFEAFFE96EEF50E66EDF503D
:10299000EA6A400FE96E040EEA22E552E750EF6E54
:1029A0007FC4E9FF80C4EAFF020EE926000EEA2296
:1029B000EE2AEF22DF2ADAD77FC4E9FF80C4EAFFDC
:1029C000020EE926000EEA22400EEE6E040EED6EB7
:1029D0000DD807D03AD805D0FD0EA515040801E1A1
:1029E00059D8E552E552E7CFD9FF12000401936BA5
:1029F000B16BB46BB56BA76B946B8BC4E9FF8CC4E4
:102A0000EAFFEF9E8B758BC4E9FF8CC4EAFFEF9E53
:102A10008B7581C4E9FF82C4EAFFEF9E976B986BC8
:102A2000996B9C6B9D6B9E6B8FD8000EE66EE66A71
:102A3000E66EE66A030EE66EE66A82EC25F0106E3C
:102A4000060EE15E105073EF18F0020E0401945D63
:102A500002E133EF19F0946BA7511AE181C4E9FF49
:102A600082C4EAFFEE52080EEF6E81C4E9FF82C411
:102A7000EAFF020EE926000EEA22400EEE6E040E78
:102A8000ED6E81C4E9FF82C4EAFF8C0EEF6E120086
:102A9000A76B1200D9CFE6FFE1CFD9FFE6528BC476
:102AA000E9FF8CC4EAFFEF50400B01E0010EDF6E3E
:102AB00004018B75080E7C5D0BE142C438FF0F01E9
:102AC000385103E00401100E02D00401040E7C6FA3
:102AD000940526E18BC4E9FF8CC4EAFF020EE926C7
:102AE000000EEA22480EEE6E040EED6E5DDB020E65
:102AF0000401935D06E18BC4E9FF8CC4EAFF840EF8
:102B00000DD0DF5006E18BC4E9FF8CC4EAFFC80E8C
:102B100005D08BC4E9FF8CC4EAFF880EEF6E0FD09E
:102B20009CAF0CD09F51A01107E005D0A0C4FAFFC4
:102B300004019F51F96EFADF04019C9F946BE552EA
:102B4000E552E7CFD9FF120004014051600BE84283
:102B5000E842E842E842E842000901E0120041513F
:102B60000C0A50E00B0A3FE00C0A31E0010A22E0B7
:102B70000B0A1EE0020A1CE0030A18E0080A10E033
:102B8000010A0CE00F0A08E0030A01E01200040148
:102B9000978F080E7C6F1200BCEF17F0D2EF19F080
:102BA00004017D0E956F040E966F0CD019EF18F08E
:102BB00003EF16F044510401956F966B7E0E952736
:102BC000040E96239781010E986F978F12000401CF
:102BD000978F04014451EA6A7E0FE96E040EEA22DF
:102BE00042C4EFFF1200000EE66EE66AE66EE66A89
:102BF000020EE66EE66A82EC25F0106E060EE15ECD
:102C0000105012001200D9CFE6FFE1CFD9FF030E1A
:102C1000E1260401420510E140511F0B00090CE1BF
:102C20000401978F030E0401415D04E10401010ECC
:102C3000A36F02D00401A36B0401425101E003D150
:102C400040511F0B020801E0FED044510F0B000958
:102C500001E1F9D044510F0B030801E2F4D0200E3A
:102C600004017C5D01E0EFD0978F040144BF16D0D2
:102C700044510F0BE96EEA6AD890E936EA36830EC2
:102C8000E926040EEA22EECFDEFFEDCFDDFF445150
:102C90000F0BEA6AAC0FE96E040E15D044510F0B0E
:102CA000E96EEA6AD890E936EA368B0EE926040E18
:102CB000EA22EECFDEFFEDCFDDFF44510F0BEA6AD3
:102CC000A80FE96E040EEA22020EEFCFDBFFD95007
:102CD000020FE96EDACFEAFFEF50010B03E1000EBD
:102CE000DF9401D0DF8444BF0BD044510F0BE96E59
:102CF000EA6AD890E936EA36830EE926040E0AD04D
:102D000044510F0BE96EEA6AD890E936EA368B0E29
:102D1000E926040EEA22DECFEEFFDDCFEDFF030E43
:102D2000415D20E1DECFE9FFDDCFEAFFEF50800B10
:102D300011E044BF07D044510F0BEA6AAC0FE96EB3
:102D4000040E06D044510F0BEA6AA80FE96E040E78
:102D5000EA22EF82840EDECFE9FFDDCFEAFFE85002
:102D6000EF1271D0DF74DECFE9FFDDCFEAFFEF5065
:102D7000800B1BE0DECFE9FFDDCFEAFFEF9EDECF69
:102D8000E9FFDDCFEAFFEF8C020EE66EE66ADECFEA
:102D9000E6FFDDCFE6FF050EE66EE66A82EC25F083
:102DA000106E060EE15E105005D0DECFE9FFDDCFDC
:102DB000EAFFEF8CDF74D950020FE96EDACFEAFF39
:102DC000EF50020B0EE1DECFE9FFDDCFEAFFEF505F
:102DD000800B32E0DECFE9FFDDCFEAFFEF50040BDE
:102DE0002BE1040144BF07D044510F0BEA6AAC0F3A
:102DF000E96E040E06D044510F0BEA6AA80FE96E83
:102E0000040EEA22EF923B0E106EDECFE9FFDDCF1B
:102E1000EAFFE850EF16020EE66EE66ADECFE6FF46
:102E2000DDCFE6FF050EE66EE66A82EC25F0106E59
:102E3000060EE15E105007D03B0EDECFE9FFDDCF7E
:102E4000EAFFE850EF16030EE15C02E2E16AE552A8
:102E5000E16EE552E7CFD9FF12000401B2514DE116
:102E6000010EB26FB35149E1010EB36F020E945DD2
:102E70000DE18BC4E9FF8CC4EAFFEE52EF6A8BC40C
:102E8000E9FF8CC4EAFFC80EEF6E1200940535E12D
:102E9000A76B7FC4E9FF80C4EAFFEE52080EEF6E15
:102EA0007FC4E9FF80C4EAFF020EE926000EEA2291
:102EB000400EEE6E040EED6E7FC4E9FF80C4EAFFA3
:102EC000840EEF6E010EA76F81C4E9FF82C4EAFF92
:102ED000EE52080EEF6E81C4E9FF82C4EAFF020ED3
:102EE000E926000EEA22400EEE6E040EED6E81C45D
:102EF000E9FF82C4EAFF800EEF6E12000401B46B9A
:102F0000B56B020E945D18E181C4E9FF82C4EAFF4B
:102F1000EE52080EEF6E81C4E9FF82C4EAFF020E92
:102F2000E926000EEA22480EEE6E040EED6E81C414
:102F3000E9FF82C4EAFF1DD098510401465D0401F7
:102F400099510401475904E246C498F447C499F4DE
:102F50002BD98BC4E9FF8CC4EAFF020EE926000ED0
:102F6000EA22480EEE6E040EED6E8BC4E9FF8CC4AF
:102F7000EAFFC80EEF6E1200800E0401405D58E1BA
:102F80000401C00E976F04014351030A2FE0010AA8
:102F900009E0030A4BE10401E80E956F4F0E966FAE
:102FA000120E3ED04251F66EF76AD890F636F736DA
:102FB000C50EF626500EF7220900F5CF95F40A004B
:102FC000F5CF96F4020E0401F76A9525F66E965138
:102FD000F7220800F5CF98F4030EF76A9525F66EF0
:102FE0009651F7220800F5CF99F41200030E425DC6
:102FF0001AE24251F66EF76AD890F636F736C70EE7
:10300000F626500EF7220900F5CF95F40A00F5CF09
:1030100096F495C4F6FF96C4F7FF0800F550040136
:10302000986F996B12000401976B12000401976B63
:103030001200D9CFE6FFE1CFD9FF020EE12604014D
:10304000486B496B40511F0B020A11E0030A0CE068
:10305000010A35E10401978F040148810401A305A9
:103060002EE1040148832BD00401978F28D004015E
:10307000978F040144BF0BD044510F0BE96EEA6AED
:10308000D890E936EA36830EE926040E0AD0445178
:103090000F0BE96EEA6AD890E936EA368B0EE9261C
:1030A000040EEA22EECFDEFFEDCFDDFFDECFE9FF3B
:1030B000DDCFEAFFEF50040B02E0010E486F040180
:1030C00097AF07D0480E956F040E966F9781020E4A
:1030D000986F020EE15C02E2E16AE552E16EE552B0
:1030E000E7CFD9FF12006598040197BF2BD09CAFA2
:1030F00009D0020E946FB55101E100DF0401B36BFA
:10310000B26B120081C4E9FF82C4EAFFEE52080EDE
:10311000EF6E81C4E9FF82C4EAFF020EE926000EC9
:10312000EA22400EEE6E040EED6E81C4E9FF82C409
:10313000EAFF8C0EEF6E8BC4E9FF8CC4EAFF840EAD
:10314000EF6E1200040140AF0DD00401010E946F28
:10315000B45101E1D3DE0401B36BB26BB15123E191
:103160002DEF17F00401020E946F81C4E9FF82C4B1
:10317000EAFFEE52080EEF6E81C4E9FF82C4EAFF57
:10318000020EE926000EEA22400EEE6E040EED6EEF
:1031900081C4E9FF82C4EAFF840EEF6EB36BB26BA9
:1031A000B15101E15ADE1200D9CFE6FFE1CFD9FFDC
:1031B000E652080EDF6E0401985D000E99590AE28E
:1031C00098C4DFFF935102E1010E03D0930502E1A1
:1031D000020E936FDF50116AE850985D986F11509E
:1031E0009959996F8BC4E9FF8CC4EAFFEE52DFCF87
:1031F000EFFF480EA16F040EA26F97B118D0DF50F9
:103200002DE095C4F6FF96C4F7FF952B000E96238C
:103210000800F550E66EA1C4E9FFA2C4EAFFA12BA5
:10322000000EA223E552E750EF6EDF06E8D7DF502D
:1032300015E095C4E9FF96C4EAFF952B000E96238E
:10324000EF50E66EA1C4E9FFA2C4EAFFA12B000E75
:10325000A223E552E750EF6EDF06E9D7E552E552CB
:10326000E7CFD9FF1200D9CFE6FFE1CFD9FF020E99
:10327000E1267FC4E9FF80C4EAFFEE52EFCFDFFF13
:10328000DFCF10F0105004019D5D000E9E5902E248
:103290009DC4DFFFDF50106E116AE8509D5D9D6F89
:1032A00011509E599E6F010EDB6ADF50F36E010EC6
:1032B000DBCFF4FFF350F45C16E2010EDB50EA6A58
:1032C000480FE96E040EEA22EF50E66E9AC4E9FF59
:1032D0009BC4EAFF9A2B000E9B23E552E750EF6E4A
:1032E000010EDB2AE2D7000ED8809D55000E9E55B8
:1032F00027E281C4E9FF82C4EAFFEE52080EEF6EB6
:1033000081C4E9FF82C4EAFF020EE926000EEA2228
:10331000480EEE6E040EED6E7FC4E9FF80C4EAFF36
:10332000EF50400B06E181C4E9FF82C4EAFFC80EFA
:1033300005D081C4E9FF82C4EAFF880EEF6E28D071
:1033400081C4E9FF82C4EAFFEE52080EEF6E81C429
:10335000E9FF82C4EAFF020EE926000EEA22400ECF
:10336000EE6E040EED6E81C4E9FF82C4EAFF840EA6
:10337000EF6E9F51A01107E005D0A0C4FAFF040131
:103380009F51F96EFADF04019C9FB15101E165DDA7
:10339000020EE15C02E2E16AE552E16EE552E7CF3E
:1033A000D9FF1200D9CFE6FFE1CFD9FFE6520401E1
:1033B000978F030EE66EE66AE66A270EE66E0F0E3C
:1033C000E66ED9EC28F0106E050EE15E1050DF6A53
:1033D000DF50106E116A100E105C000E115810E2D2
:1033E000DF50040DF3CFE9FFF4CFEAFF000EE9262A
:1033F000040EEA22EE6AEE6AEE6AEE6ADF2AE8D787
:10340000658C010EE66EE66AE66A7E0EE66E040ED6
:10341000E66ED9EC28F0106E050EE15E1050659C4A
:103420000401080E8B6F040E8C6F000E7F6F040E6C
:10343000806F7FC481F4826F42C47DF47D5102E1CC
:10344000100E12D0010EE66EE66A7D0EE66E040ED8
:10345000E66E010EE66EE66A82EC25F0106E060E50
:10346000E15E10500401200E7C6FE552E552E7CF7B
:10347000D9FF1200D9CFE6FFE1CFD9FF020EE12636
:10348000000EDE6E040EDD6EFD0EDB50E824126EC3
:10349000FE0EDB50040DF3501224040DF4CF11F096
:1034A000D9CFE9FFDACFEAFFF350EE261150ED2233
:1034B000DECFE9FFDDCFEAFFEF9EFD0EDB500AE134
:1034C000FE0EEA6ADB34FE0BEA36E96E830EE9266D
:1034D000040E09D0FE0EEA6ADB34FE0BEA36E96E12
:1034E0008B0EE926040EEA22DECFEEFFDDCFEDFFE4
:1034F000DECFE9FFDDCFEAFFEF9CDECFE9FFDDCFD6
:10350000EAFF040EE926000EEA22EF8C020EE15CCF
:1035100002E2E16AE552E16EE552E7CFD9FF12001F
:10352000D9CFE6FFE1CFD9FF020EE126FD0EDBA4E5
:1035300007D0E66AFE0EDBCFE6FF9CDFE552E552E0
:10354000FD0EDBA208D0010EE66EFE0EDBCFE6FF1D
:1035500091DFE552E552FE0EDB50116A260F106E28
:103560000F0E112210C0DEFF11C0DDFFDECFE9FF1C
:10357000DDCFEAFFFD0EDBCFEFFF020EE15C02E2E2
:10358000E16AE552E16EE552E7CFD9FF1200D9CFEB
:10359000E6FFE1CFD9FF020EE126FE0EDB5020E16F
:1035A00081C4E9FF82C4EAFFEE52080EEF6E81C4C7
:1035B000E9FF82C4EAFF020EE926000EEA22400E6D
:1035C000EE6E040EED6E81C4E9FF82C4EAFF8C0E3C
:1035D000EF6E8BC4E9FF8CC4EAFF840EEF6E3BD024
:1035E000FD0EDB50E824126EFE0EDB50040DF3508E
:1035F0001224040DF3CF10F0F4CF11F0000E1026BA
:10360000040E112210C0DEFF11C0DDFF840EDECFDC
:10361000E9FFDDCFEAFFE850EF12FD0EDB50E824B2
:10362000126EFE0EDB50040DF3501224010F040D38
:10363000F3CF10F0F4CF11F0000E1026040E11227B
:1036400010C0DEFF11C0DDFF840EDECFE9FFDDCF4D
:10365000EAFFE850EF12020EE15C02E2E16AE55295
:10366000E16EE552E7CFD9FF1200D9CFE6FFE1CFF7
:10367000D9FF020EE126FD0EDB500AE0FE0EEA6ADB
:10368000DB34FE0BEA36E96E8B0EE926040E09D018
:10369000FE0EEA6ADB34FE0BEA36E96E830EE9269B
:1036A000040EEA22EECFDEFFEDCFDDFFD9CFE9FF3A
:1036B000DACFEAFFEE50ED1003E1F36AF46A44D08A
:1036C000DECFE9FFDDCFEAFF020EE926000EEA2297
:1036D000FB0EDBCFEEFFFC0EDBCFEDFFDECFE9FF15
:1036E000DDCFEAFFEE52FA0EDBCFEFFF400EDECF6A
:1036F000E9FFDDCFEAFFE850EF16880EDECFE9FFE5
:10370000DDCFEAFFE850EF12FD0EDB500AE0FE0EBF
:10371000EA6ADB34FE0BEA36E96E8B0EE926040E0C
:1037200009D0FE0EEA6ADB34FE0BEA36E96E830E40
:10373000E926040EEA22EF74DECF10F0DDCF11F09F
:1037400010C0F3FF11C0F4FF020EE15C02E2E16A77
:10375000E552E16EE552E7CFD9FF1200D9CFE6FF7F
:10376000E1CFD9FF65A84ED0FE0EEA6ADB34FE0B2E
:10377000EA36E96E8B0EE926040EEA22EE50EFCF10
:10378000EAFFE96E400EEE16EE6AEE6AEE6AFE0E93
:10379000EA6ADB34FE0BEA36E96E8B0EE926040E8C
:1037A000EA22EE50EFCFEAFFE96EEE7CFE0EEA6A07
:1037B000DB34FE0BEA36E96E8B0EE926040EEA22B4
:1037C000EF74400E106EFE0EEA6ADB34FE0BEA3632
:1037D000E96E8B0EE926040EEA22EE50EFCFEAFFE7
:1037E000E96E1050EF16FE0EEA6ADB34FE0BEA3685
:1037F000E96E8B0EE926040EEA22EE50EFCFEAFFC7
:10380000E96EEF7CE552E7CFD9FF1200656A0F0140
:10381000366B04017C6B120004017C5114E1656A73
:103820000F01366B160E396F9F0E376F7B0E366F9A
:10383000D08EA288A088F28E65B602D06586FCD7AD
:083840000401010E7C6F12006F
:083848000201CD6BCE6B400EB6
:10385000E66E500EE66E040EE66EE66A010EE66E49
:1038600035EC1BF0106E050EE15E1050F3CFCBF27D
:10387000F4CFCCF20201936B0E01BE690201946B8E
:10388000956BDA6BDB6BDC6BDD6BDE6BDF6BE06B40
:10389000E16BD16BD26BA46B010EA45D22E2A4514B
:1038A000EA6AD30FE96E020EEA22EF6A1CEC08F016
:1038B000000912E073EC0FF0F3CF10F0F4CF11F029
:1038C000F350F41009E00201A451A3EC29F0F350E5
:1038D0000201D113F450D21367EC21F00201A42BA2
:1038E000DBD71200040140511F0B010801E0120058
:1038F000445101E012004151FE0A0BE0010A01E0CF
:1039000012000201936B0E01BE690201946B956B6C
:1039100012000401486B0401480E956F040E966F67
:10392000010E986F996BC10E976F1200D9CFE6FF09
:10393000E1CFD9FFE65202019351030A01E1B7D06A
:10394000010A01E1A3D0030A01E19CD0010A01E0D0
:10395000F6D0CB51CC1102E1000E08D0CBC2E9FF6A
:10396000CCC2EAFFEF50800B01E0010E000901E03C
:10397000E7D050C497F251C498F252C499F253C49C
:103980009AF254C49BF255C49CF256C49DF257C49B
:103990009EF258C49FF259C4A0F25AC4A1F25BC46B
:1039A000A2F25CC4A3F25DC4A4F25EC4A5F2DF6A15
:1039B00004015E51DF5C13E2DF50EA6A5F0FE96EDB
:1039C000040EEA22EF50E66EDF50EA6AA60FE96EB7
:1039D000020EEA22E552E750EF6EDF2AE9D7CBC2AA
:1039E000E9FFCCC2EAFFEE52EFCFB6F21F0E0201A2
:1039F000B65D01E0A5D0550E971901E0A1D0530E98
:103A0000981901E09DD0420E991901E099D0430E1A
:103A10009A1901E095D0A4510F0801E291D0A55167
:103A2000100801E28DD0010EA55D01E289D0A351FD
:103A300004E0800EA35D01E083D09BC273F49CC2BE
:103A400074F49DC275F49EC276F40401550E6F6F36
:103A5000530E706F420E716F530E726F0201966BB0
:103A6000030EA65D06E0B991B993B995B997C36BFA
:103A7000C46B800EA35D02E1010E17D0A35160E17B
:103A8000020E13D026DAFF085BE10DD022DAFF0820
:103A900057E104017B5107E17751781179117A11CF
:103AA00002E0020E7B6F0201030E936F49D0CD51ED
:103AB000CE1102E1000E08D0CDC2E9FFCEC2EAFF6E
:103AC000EF50800B01E0010E00093AE10D0EE66EA9
:103AD0006F0EE66E040EE66E010EE66EE66E35ECD7
:103AE0001BF0106E050EE15E1050F3CFCDF2F4CF57
:103AF000CEF20201CB51CC1102E1000E08D0CBC2B4
:103B0000E9FFCCC2EAFFEF50800B01E0010E000993
:103B100013E11F0EE66E500EE66E040EE66EE66AC8
:103B2000010EE66E35EC1BF0106E050EE15E1050D6
:103B3000F3CFCBF2F4CFCCF20201936B01D0936BB5
:103B400002019351E552E552E7CFD9FF1200D9CFD8
:103B5000E6FFE1CFD9FF090EE1260E01BE51FE0AB4
:103B600001E1FBD0030A01E1CDD0D20A01E1C1D0CD
:103B7000340A01E1BED01B0A01E1B0D01E0A01E106
:103B80009DD0040A01E18FD0190A69E0290A62E098
:103B9000020A5BE00D0A22E0370A06E0ED0A01E0C6
:103BA000DCD0A6C2BEFEECD0240EE66EE66AE60EBF
:103BB000106E520E116E126A10C0E6FFE66E12C051
:103BC000E6FF000EE66E060EE66EB6EC28F0136E0B
:103BD000070EE15E13500401240E5FD004017B6BDD
:103BE00071EC08F0050E04C0DBFF060E05C0DBFF1C
:103BF000070E06C0DBFF080E07C0DBFF6CEC08F009
:103C0000010EF3CFDBFF020EF4CFDBFF030EDB6A06
:103C1000040EDB6A080EDBCF00F6070EDBCF01F6E1
:103C2000060EDBCF02F6050EDBCF03F6040EDBCF6C
:103C300004F6030EDBCF05F6020EDBCF06F6010E0F
:103C4000DBCF07F60401080E37D090D9000901E058
:103C500097D055D04ADA000901E092D050D0DF6AFF
:103C6000DF50106E116A120E105C000E115813E234
:103C7000DF50EA6AB70FE96E020EEA22EF50E66EF5
:103C8000DF50EA6A000FE96E060EEA22E552E750BD
:103C9000EF6EDF2AE5D70401120E776F786B796B30
:103CA0007A6B7B6B6AD00601020E006F016B026BB0
:103CB000036B04017B6B040E776F5CD01CEC08F087
:103CC000000917E10201B991B983B995B9973A0E84
:103CD000C36FC46B0401010E7B6F11D00201B95197
:103CE0000F0B060803E104017B0509E0F0DA04018B
:103CF00002D004017B6B776B786B796B7A6B0E016A
:103D0000BE693ED00201CD51CE1102E1000E08D0B5
:103D1000CDC2E9FFCEC2EAFFEF50800B01E0010EF9
:103D200000092EE177C4E6FF000EE66E060EE66E91
:103D3000010EE66EE66E35EC1BF0106E050EE15ED0
:103D40001050F3CFCDF2F4CFCEF20E01BE690401D4
:103D5000776B786B796B7A6B13D0B9DA0201B98122
:103D6000B993B985B997200EC36FC46B0401010ED6
:103D70007B6F776B786B796B7A6B0E01FD0EBE6F84
:103D8000090EE15C02E2E16AE552E16EE552E7CF3D
:103D9000D9FF1200D9CFE6FFE1CFD9FFE6520E01DD
:103DA000BE51FD0A5AE0020A55E0ED0A31E00C0A64
:103DB00001E185D01E0A01E182D0030A01E078D03A
:103DC00086DA0201B991B983B995B9973A0EC36FF2
:103DD000C46BDF6ADF50106E116A120E105C000EA9
:103DE000115813E2DF50EA6AB70FE96E020EEA22B9
:103DF000EF50E66EDF50EA6A000FE96E060EEA2227
:103E0000E552E750EF6EDF2AE5D70401120E19D014
:103E1000240EE66EE66AE60E106E520E116E126AFF
:103E200010C0E6FFE66E12C0E6FF000EE66E060E5C
:103E3000E66EB6EC28F0136E070EE15E1350040137
:103E4000240E776F786B796B7A6B7B6B0E01FD0EAE
:103E5000BE6F3AD0A6C2BEFE37D00201CD51CE1100
:103E600002E1000E08D0CDC2E9FFCEC2EAFFEF505A
:103E7000800B01E0010E000927E177C4E6FF000E88
:103E8000E66E060EE66E010EE66EE66E35EC1BF093
:103E9000106E050EE15E1050F3CFCDF2F4CFCEF2EE
:103EA0000E01BE690401776B786B796B7A6B0CD06D
:103EB000010EE66EE66EC7EC1AF0E552E55204011B
:103EC000010E7B6F0E01BE69E552E552E7CFD9FFC7
:103ED00012001CEC08F0000909E00201A451EA6A92
:103EE000D30FE96E020EEA22EF0410E10201A451A1
:103EF000A3EC29F0F3CF10F0F4CF11F0101E111E37
:103F000010500201D1171150D2172AD0A451A3EC9E
:103F100029F00201D151F314106ED251F414116E34
:103F2000105011101FE173EC0FF0F3CF10F0F4CF2D
:103F300011F0F350F41014E00201A451A3EC29F0A5
:103F4000F3500201D113F450D213B991B983B9855A
:103F5000B997280EC36FC46B0401010E7B6F02D0AA
:103F600019DF01D0F4DD0E01BE511200020194519F
:103F7000040A01E17BD0070A6CE0010A23E0030A8E
:103F800018E0010A01E0AAD0A8C2D9F2A9C2D8F269
:103F9000AAC2D7F2ABC2D6F2ADC2D5F2AEC2D4F24B
:103FA00004017B6B776B786B796B7A6B0201010E86
:103FB000946FD451D51101E195D0D407000ED55B93
:103FC000020E946FCD51CE1102E1000E08D0CDC289
:103FD000E9FFCEC2EAFFEF50800B01E0010E0009BD
:103FE00001E081D0000EE66E060EE66ED6C2E6FF58
:103FF000D7C2E6FFD8C2E6FFD9C2E6FF0CEC0CF050
:10400000106E060EE15E1050010810E0640E020111
:10401000965D02E2962B67D00401010E7B6F0201D0
:10402000B981B983B995B997C36BC46B0201D62B1B
:10403000000ED723D823D9230401776B020E786FA3
:10404000796B7A6B0201000EC96F060ECA6F030E00
:10405000946F04017751781179117A1104E102010A
:10406000010E946F40D00201040E946FCD51CE1119
:1040700002E1000E08D0CDC2E9FFCEC2EAFFEF5048
:10408000800B01E0010E00092EE1400EE66EC9C270
:10409000E6FFCAC2E6FF010EE66EE66E35EC1BF0E7
:1040A000106E050EE15E1050F3CFCDF2F4CFCEF2DC
:1040B0000201030E946F400E9F5F000EA05BA15B98
:1040C000A25B400E0401775F000E785B795B7A5B40
:1040D000400E0201C927000ECA2305D00401020EBA
:1040E0007B6F0201946B9451120002019551020AF8
:1040F00001E1AAD0060A6DE0070A26E0020A14E0F0
:10410000010A01E0DDD0A8C2D9F2A9C2D8F2AAC240
:10411000D7F2ABC2D6F2ADC2D5F2AEC2D4F2040130
:104120007B6B0201010E936FD451D51101E1CCD00C
:10413000030E956F000EC96F060ECA6F0401776BF0
:10414000020E786F796B7A6BD880000E0401775578
:10415000000E7855000E7955000E7A5528E20201BE
:10416000CB51CC1102E1000E08D0CBC2E9FFCCC28A
:10417000EAFFEF50800B01E0010E000901E0A5D03D
:10418000400EE66EC9C2E6FFCAC2E6FFE66A010E4D
:10419000E66E35EC1BF0106E050EE15E1050F3CFAD
:1041A000CBF2F4CFCCF20201040E956F12D06DEC7D
:1041B0000EF000090BE00401010E7B6F0201B991C2
:1041C000B983B995B997270EC36FC46B0201020E6C
:1041D00075D0CB51CC1102E1000E08D0CBC2E9FF63
:1041E000CCC2EAFFEF50800B01E0010E00096DE147
:1041F000CBC2E9FFCCC2EAFFEE52EFCF10F0116A5A
:10420000126A136A10509F5F1150A05B1250A15B9D
:104210001350A25BCBC2E9FFCCC2EAFFEE52EFCF54
:1042200010F0116A126A136A10500401775F11507E
:10423000785B1250795B13507A5B400E0201C927FC
:10424000000ECA23030E3AD004017B512EE1020175
:10425000D651D711D811D91102E1010E01D0000EAB
:10426000E66E000EE66E060EE66ED6C2E6FFD7C21A
:10427000E6FFD8C2E6FFD9C2E6FF4AEC0DF0106EA9
:10428000070EE15E1050010810E0640E0201965D19
:1042900002E2962B1AD00401010E7B6F0201B98154
:1042A000B983B995B997C36BC46B0201D62B000EC5
:1042B000D723D823D923D407D55B010E956F05D01A
:1042C0000401020E7B6F0201956B955112000201F1
:1042D000B791B793B795B797B789B78BB78DB79F96
:1042E000B86BB991B993B995B997B99BB99DB99F75
:1042F000BA6BBB6BBC6BBD6B0A0EBE6FBF6BC06B8A
:10430000C16BC26BC36BC46BC56BC66BC76BC86B31
:02431000120099
:0E431200DACFE4FFE2CFDAFFE9CFE4FFEACF33
:10432000E4FFF6CFE4FFF7CFE4FFF5CFE4FFF3CFF0
:10433000E4FFF4CFE4FFFACFE4FF00EE00F0100E4C
:10434000E80403E3EECFE4FFFBD700EE10F0100E1D
:10435000E80403E3EECFE4FFFBD7E6528EEC13F064
:10436000E55200EE1FF0100EE80403E3E5CFEDFF89
:10437000FBD700EE0FF0100EE80403E3E5CFEDFFEE
:10438000FBD7E5CFFAFFE5CFF4FFE5CFF3FFE5CFAD
:10439000F5FFE5CFF7FFE5CFF6FFE5CFEAFFE5CF85
:1043A000E9FFE5CFDAFF1100D8CFE4FFE0CFE4FF6B
:1043B000E46EDACFE4FFE9CFE4FFEACFE4FFE652B0
:1043C0009EAA17D0ACA205D0AC98AFCF51F2AC8862
:1043D00002D0AFCF51F20201E451EA6A000FE96E58
:1043E000020EEA2251C2EFFFE42BE451500801E231
:1043F000E46B9DA817D00201E6510DE09E50100B12
:104400000AE001014551EA6A000FE96E010EEA2255
:10441000EF50AE6E452B01014451455D03E30201AF
:10442000E66B9D98A4A605D00201E35101E0E307E5
:10443000A496E552E5CFEAFFE5CFE9FFE5CFDAFF45
:10444000E550E5CFE0FFE5CFD8FF1000D9CFE6FF7C
:10445000E1CFD9FF020EE126DE6ADD6A02D90CEC5B
:104460001CF001D8FED7D9CFE6FFE1CFD9FF030E6C
:10447000E1260EDB200E0401E76E7C19E8AE02D0C7
:10448000E73402D0E7507C5D01E296D06550020B24
:1044900001E092D00201E65115E1400EE66E000EF9
:1044A000E66E010EE66E4FEC26F0E552E552E5525F
:1044B0000101446F4451000805E20201010EE66F5C
:1044C0000101456B0201E65107E09E50100B04E02C
:1044D0009D50100B01E19D88E551E45D1FE0400E09
:1044E0000101435D1BE20201E551EA6A000FE96E3A
:1044F000020EEA22EF50E66E01014351EA6A890F8B
:10450000E96E010EEA22E552E750EF6E432B0201FD
:10451000E52BE5515008E0E2E56BDED701014151A2
:10452000421132E0010EDB6A020EDB6A3F0E435D90
:1045300029E24151421126E0010EDBCFE9FF020ED4
:10454000DBCFEAFF520EE926020EEA22EF50E66EBA
:104550004351EA6A890FE96E010EEA22E552E750FB
:10456000EF6E432B010EDB2A020E01E3DB2A41072B
:10457000000E425B4351EA6A890FE96E010EEA229E
:10458000EF6AD4D7416B426B0E01905111E10101EA
:10459000435100080DE243C1E6FF890EE66E010EAD
:1045A000E66EAFEC26F0E552E552E5520101436BB1
:1045B0004DEC27F096EC1CF0030EE15C02E2E16AA0
:1045C000E552E16EE552E7CFD9FF12000201E25158
:1045D000020A23E0030A0DE0010A1FE182A005D0D0
:1045E00094908B90020EE26F18D094948B94E22BEF
:1045F00014D082A012D09350040B0FE19350080BFB
:104600000CE09350020B09E08150010B06E09490FE
:104610008B90020EE26F94848B84020EE25D01E1C6
:10462000010C000C0201E251020A11E0030A15E13B
:10463000E35113E1E26BE36B94808B8094848B8471
:10464000938081808A828A849384938206D08BB0FF
:10465000F1D7190EE36F010EE26FE25101E0010C98
:10466000000CD9CFE6FFE1CFD9FF020EE1260F0EF5
:10467000C112580EDE6E020EDD6E9B8CDFCF10F085
:10468000DF06010EDBCF11F001E2DB061050111046
:10469000F5E10F01FC0E486F1F0E496F24D80E0183
:1046A000060EFB6F0A0ECB6F090ECA6F050EFC6F6C
:1046B000870E76146009766EFC0E76140309766E0A
:1046C000FA0E776E7684A596A3867AEC08F0FEEC57
:1046D00012F0020EE15C02E2E16AE552E16EE5529F
:1046E000E7CFD9FF1200D9CFE6FFE1CFD9FFE652DD
:1046F0001FD8DF6ADF50106E116A410E105C000E89
:10470000115809E2DF50EA6A890FE96E010EEA22C8
:10471000EF6ADF2AEFD70101436B446B466B476BAF
:10472000CC6BCB6BCA6BE552E552E7CFD9FF1200D9
:10473000D9CFE6FFE1CFD9FFE652948E949C240EA8
:10474000AD6E900EAC6E710EB06E020E7F6E9D8AD5
:104750009F9A9F98F28C380E7E6EAF50DF6EE552B6
:10476000E552E7CFD9FF1200D9CFE6FFE1CFD9FF5D
:10477000FE0EDB50AE6EE552E7CFD9FF1200D9CF67
:10478000E6FFE1CFD9FF220EE126D880800E0E0190
:104790000055840E01551E0E0255000E035501E210
:1047A00059D100CE88FE01CE89FE02CE8AFE03CE0C
:1047B0008BFE146A1B0E156EB70E166E176A14C0A8
:1047C00004F015C005F0066E17C007F088CE09F09A
:1047D00089CE0AF08ACE0BF08BCE0CF04FEC29F08C
:1047E00004C010F005C011F006C012F007C013F0AD
:1047F0001006000E115A125A135A10C0DFFF010E94
:1048000011C0DBFF020E12C0DBFF030E13C0DBFF83
:10481000010E146E156A166A176AD9CFE9FFDACF4E
:10482000EAFFEE501426EE501522EE501622EE50FE
:104830001722106A1B0E116EB70E126E136A10C08B
:1048400004F011C005F0066E13C007F014C009F0A3
:1048500015C00AF016C00BF017C00CF04FEC29F091
:10486000100E04C0DBFF110E05C0DBFF120E06C0E8
:10487000DBFF130E07C0DBFFD950100FE96EDACF54
:10488000EAFF0E018851EE5C106E8951EE58116EF0
:104890008A51EE58126E8B51EE58136E080E10C0EE
:1048A000DBFF090E11C0DBFF0A0E12C0DBFF0B0E8F
:1048B00013C0DBFF106A1B0E116EB70E126E136A67
:1048C00010C004F011C005F0066E13C007F088CECA
:1048D00009F089CE0AF08ACE0BF08BCE0CF04FECAB
:1048E00029F0040E04C0DBFF050E05C0DBFF060E39
:1048F00006C0DBFF070E07C0DBFF010E146E156A52
:10490000166A176AD950040FE96EDACFEAFFEE5043
:104910001426EE501522EE501622EE501722106A81
:104920001B0E116EB70E126E136A10C004F011C088
:1049300005F0066E13C007F014C009F015C00AF0A8
:1049400016C00BF017C00CF04FEC29F0140E04C089
:10495000DBFF150E05C0DBFF160E06C0DBFF170ED2
:1049600007C0DBFFD950140FE96EDACFEAFFEE5033
:104970000E01885D106EEE508959116EEE508A5905
:10498000126EEE508B59136E0C0E10C0DBFF0D0E25
:1049900011C0DBFF0E0E12C0DBFF0F0E13C0DBFFDA
:1049A0000C0EDBCF10F00D0EDBCF11F00E0EDBCFB7
:1049B00012F00F0EDBCF13F0D950080FE96EDACFEB
:1049C000EAFFEE50105CEE501158EE501258EE50C7
:1049D000135836E2D9CFE9FFDACFEAFF040EDBCF76
:1049E000EEFF050EDBCFEEFF060EDBCFEEFF070E70
:1049F000DBCFEEFFD950140FE96EDACFEAFF100ECD
:104A0000EECFDBFF110EEECFDBFF120EEECFDBFFA2
:104A1000130EEECFDBFFD9500C0FE96EDACFEAFFB1
:104A2000080EEECFDBFF090EEECFDBFF0A0EEECF56
:104A3000DBFF0B0EEECFDBFF2D0EF36E210E03D04E
:104A4000200EF36E180EF3CFDBFFDF50B06E010EB9
:104A5000DB507F6E220EE15C02E2E16AE552E16E1C
:104A6000E552E7CFD9FF1200D9CFE6FFE1CFD9FF5A
:104A7000E652ACA205D0AC98AF50DF6EAC8802D045
:104A8000AF50DF6EDF50E552E552E7CFD9FF12009D
:104A90001200120012001200120072EC1CF0CCEF97
:104AA00025F012001E0EE66E010EE66E90EC1AF076
:104AB000E552E55224EC1CF01CEF26F00401A3059E
:104AC00020E10401A4051DE1A098E4DF6592040142
:104AD000A46B0101100ECD6F0E0ECE6FCD07000E30
:104AE000CE5BCD51CE11FAE16584080ECD6F070E75
:104AF000CE6FCD07000ECE5BCD51CE11FAE165949D
:104B0000A0881200D9CFE6FFE1CFD9FFFD0EDBCFA1
:104B100006F0FE0EDBCF07F0050E061801E1075088
:104B200036E0E868061802E17F0E07182FE0030E52
:104B3000061801E1075028E0020E061801E10750AF
:104B400021E0010E061801E107501AE0740E061864
:104B500001E1075013E0750E061801E107500CE063
:104B6000730E061801E1075005E0720E06180FE1FA
:104B700007500DD090DF0BD08CDF09D08BDF07D032
:104B800091DF05D08EDF03D088DF01D085DF010EF5
:084B9000E552E7CFD9FF120046
:084B9800040140511F0B01084C
:104BA00001E012004051600BE842E842E842E8426E
:104BB000E842010801E01200440503E0440501E079
:104BC00012004151220A33E0030A26E0010A15E0EF
:104BD000210A0DE0010A01E012000401A00E956F08
:104BE0000E0E966F080E986F996B978123D0040173
:104BF000A00E956F0E0E966F1DD046C49DF447C44F
:104C00009EF40401000E9A6F0E0E9B6F7E0E9F6F36
:104C1000470EA06F9C8F12000401880E956F0E0E38
:104C2000966F070E986F996BC10E976F120042C472
:104C30009BFE0401978F12000E01886B4B0E896F4B
:104C40008A6B8B6B8C6B8D6B080E8E6F8F6B1A0E55
:104C5000E66E020EE66E90EC1AF0E552E5521E0E7C
:104C6000E66E030EE66E90EC1AF0E552E552400E49
:104C7000E66E080EE66E0E0EE66EE66A030EE66E51
:104C800035EC1BF0106E050EE15E1050F3CF97FE71
:104C9000F4CF98FE0E01996B9A6B906B1200D9CFEE
:104CA000E6FFE1CFD9FF0E018F6B9751981102E11A
:104CB000000E08D097CEE9FF98CEEAFFEF50800BA8
:104CC00001E0010E000945E1FC0EDBCF10F097CEAC
:104CD000E9FF98CEEAFFEE52EF50D880105408E278
:104CE00097CEE9FF98CEEAFFEE52FC0EEFCFDBFF46
:104CF0008F6BFC0EDB508F5D19E28F51EA6A080F53
:104D0000E96E0E0EEA22EF50E66E8F51E76EFD0E51
:104D1000DBCFE9FFFE0EDBCFEAFFE750E926000E0E
:104D2000EA22E552E750EF6E8F2BE3D7400EE66E96
:104D3000080EE66E0E0EE66EE66A030EE66E35ECC3
:104D40001BF0106E050EE15E1050F3CF97FEF4CF0E
:104D500098FE0E018F51E552E7CFD9FF1200D9CF4F
:104D6000E6FFE1CFD9FFA0980E0190510CE1FD0EB6
:104D7000DBCF91FEFE0EDBCF92FEFC0EDBCF95FE6D
:104D8000010E966F906FA088E552E7CFD9FF120011
:104D9000D9CFE6FFE1CFD9FF030EE126A0980E019F
:104DA00090512DE1DF6AFD0EDBCF06F0FE0EDBCF6A
:104DB00007F0DE5206C0DEFF07C0DDFFDD52DF2A4E
:104DC000DF50106E116AFF0E101802E111500BE057
:104DD000010EDBCFE9FFDB2A020EDBCFEAFF01E3A6
:104DE000DB2AEF50ECE1FD0EDBCF91FEFE0EDBCFB8
:104DF00092FEDF040E01956F010E966F906FA088F2
:104E0000030EE15C02E2E16AE552E16EE552E7CFB2
:104E1000D9FF1200D9CFE6FFE1CFD9FF030EE1267B
:104E2000A0980E0190512EE1DF6AFD0EDBCF06F057
:104E3000FE0EDBCF07F0DE5206C0DEFF07C0DDFF4F
:104E4000DD52DF2ADF50106E116AFF0E101802E1EA
:104E500011500CE0010EDBCFF6FFDB2A020EDBCF98
:104E6000F7FF01E3DB2A0800F550EBE1FD0EDBCF95
:104E700091FEFE0EDBCF92FEDFCF95FE0E01966B0C
:104E8000010E906FA088030EE15C02E2E16AE55238
:104E9000E16EE552E7CFD9FF1200D9CFE6FFE1CFAF
:104EA000D9FF020EE126A0980E0199519A1102E154
:104EB000000E08D099CEE9FF9ACEEAFFEF50800BA2
:104EC00001E0010E000906E1030E905D01E1906B27
:104ED000905102E1A0887ED0020E905D16E1E66A54
:104EE000000EE66EE66A010EE66E030EE66E35EC27
:104EF0001BF0106E050EE15E1050F3CF99FEF4CF5B
:104F00009AFE0E01030E906F64D0900562E1400E90
:104F1000106E116A9551105C000E115803E2400E9C
:104F2000DF6E02D095CEDFFFDF50955D956F480EA6
:104F3000936F0E0E946F010EDFCFDBFF965116E1DB
:104F4000010EDB5028E091CEF6FF92CEF7FF08006D
:104F5000F55093CEE9FF94CEEAFFEF6E932B000E4F
:104F60009423912B9223010EDB06EAD7010EDB502E
:104F700012E091CEE9FF92CEEAFFEF5093CEE9FF27
:104F800094CEEAFFEF6E932B000E9423912B922385
:104F9000010EDB06EBD70E01955107E1400EDF5CF9
:104FA00002E1020E01D0030E906FDFCFE6FF480E44
:104FB000E66E0E0EE66E010EE66E030EE66E35EC44
:104FC0001BF0106E050EE15E1050F3CF99FEF4CF8A
:104FD0009AFEA088020EE15C02E2E16AE552E16E0F
:084FE000E552E7CFD9FF1200F2
:084FE8001201000200000008A4
:104FF000D804570001000102000109025900020112
:1050000002C0E10904000002080650000705810201
:1050100040000107050102400001080B01010202E6
:10502000010009040100030202010005240010012F
:1050300004240202052406010105240100010705DC
:1050400082030800010705030240000007058302F0
:105050004000000403090434034D0069006300723A
:10506000006F006300680069007000200054006554
:1050700000630068006E006F006C006F00670079CD
:1050800000200049006E0063002E003A034D0069C5
:1050900000630072006F0063006800690070002008
:1050A0000043006F006D0070006F007300690074B2
:1050B000006500200044006500760069006300651B
:0D50C0000000000000FA4F535057508B5075
:0150CD00FFE3
:0250CE001E0EB4
:1050D000F66E100EF76E000EF86E0E010900F55018
:1050E000B96F0900F550BA6F03E1B96701D03DD03F
:1050F0000900F550B46F0900F550B56F0900F5507F
:10510000B66F09000900F550E96E0900F550EA6E26
:10511000090009000900F550B76F0900F550B86F94
:1051200009000900F6CFBBFEF7CFBCFEF8CFBDFEED
:10513000B4CEF6FFB5CEF7FFB6CEF8FF0E01B753EB
:1051400002E1B85307E00900F550EE6EB707F8E248
:10515000B807F9D7BBCEF6FFBCCEF7FFBDCEF8FF40
:0C5160000E01B907000EBA5BBFD71200A9
:04516C00FB0EE3CF84
:10517000F6FFFC0EE3CFF7FFFD0EE3CFF8FFFE0EC8
:10518000E3CFE9FFFF0EE3CFEAFFE9CFF3FFEACF7A
:10519000F4FFF90EE35003E1FA0EE35009E0F90ED3
:1051A000E30602E2FA0EE3060900F5CFEEFFF1D7BF
:1051B0001200FE0EE3CFE9FFFF0EE3CFEAFFE9CFD7
:1051C000F3FFEACFF4FFFB0EE35003E1FC0EE350E4
:1051D00009E0FB0EE30602E2FC0EE306FD0EE350DF
:0651E000EE6EF1D7120093
:0A51E60004500902F3CF00F0F4CFEB
:1051F00001F00A02F3500126000EF420026E045062
:105200000B02F3500226000EF420036E04500C0231
:10521000F350032605500902F3500126F4500222F0
:10522000000E032205500A02F3500226F450032216
:1052300005500B02F350032606500902F3500226D4
:10524000F450032206500A02F350032607500902C5
:06525000F35003261200DA
:0A5256000095000001F90000088730
:10526000040009AF00010A1B00010CC300000DAFD0
:10527000020010FF000011FF000112FF000118FFE3
:10528000000119FF000120FF000021FF000026DFC0
:0E5290000100377300003A2504003B250000A2
:02529E00036AA1
:1052A000026A016A006A200EE76ED890043605365D
:1052B0000636073600360136023603360950005CE2
:1052C0000A5001580B5002580C50035809E309507A
:1052D000005E0A50015A0B50025A0C50035A042A1D
:0652E000E72EE4D71200E6
:0A52E60000800402200000004D6962
:1052F00063726F6368704D6173732053746F726172
:0A5300006765202020203030303196
:06530A00C00EF36E00EE80
:1053100000F00E0E01D81200EA6002D0EE6AFCD74F
:0A532000F350E9601200EE6AFCD7BA
:06532A001DEE00F02DEE67
:1053300000F0F86A0F9C67EC28F003EC08F026EC0C
:0653400022F0FBD7120071
:0A534600F36AF46AF32A0F0B05E086
:0C535000D890F336F436E804FBE11200BC
:01FFF800AA5E
:01FFF900F710
:01FFFA001DE9
:01FFFB00FF06
:01FFFC0063A1
:01FFFD00F80B
:01FFFE008181
:01FFFF00F110
:00000001FF
