:020000040000fa
:080000000002040000000000f2
:020000040000fa
:100400000fb02200007f27000001880000000000dc
:100410000c000700c00b24000100200011000700a1
:10042000000020000000e000020032000000020096
:1004300000000000e4b80200000000000040da0004
:100440000000fe004440a900a09220000000e0004f
:100450000300320000002000a00188004440a800f2
:100460000000060091018800800078000000eb0089
:1004700015003700e280400032a0b4009101ba00bc
:10048000e280400032a0b4009102ba00e280400055
:1004900032a0b4000002eb00472bde00f507b200eb
:1004a000602ce10004003a000059eb008301e900f0
:1004b000fdff3e00040037006128e100010032002a
:1004c0000082eb00040007001101ba000200e00006
:1004d000e8ff3a00000006003159ba008301e90044
:1004e0000c0032002159ba008301e90008003200f3
:1004f0000400e00003003a00e280400032a0b400b3
:10050000f5ff370011d9ba008301e900faff3a007c
:100510008100e800e180400032a0b4000000060045
:1005200074910400000000007c91040000000000b1
:10053000bc910400000000002892040000000000ac
:100540007092040000000000b4920400000000005b
:100550000093040000000000aaa9040000000000ad
:10056000c6a904000000000098a9040000000000d3
:10057000d6a9040000000000eca90400000000005f
:1005800034aa0400000000006aaa04000000000071
:10059000a2aa040000000000c8aa04000000000095
:1005a000ec5b040000000000f060040000000000ac
:1005b00088850400000000000e71040000000000a7
:1005c000e402040000000000881f780002047800a4
:1005d0002d000700080040004f04780000000600ce
:1005e0000000fa00881f7800000478003fb99700e7
:1005f000ea81570080007800402e20002900070083
:10060000800078000000e000020035000040eb00b0
:1006100000f47800010078004f0478000080fa00b0
:10062000000006008001eb000200370081717800b5
:100630008301e800828f5100fcff3a0000000600b1
:10064000000278000000eb000b00370094417800b6
:1006500091cf5100030032000080eb000900390007
:10066000100005000000e8000304e0000400320070
:100670000402e8008100e800820f5000f3ff3a0016
:100680000000eb00000006008001eb0002003700d4
:1006900061f079008301e800828f5100fcff3a008d
:1006a000000006006200fa00889fbe008a9fbe001c
:1006b0000004be00020578008300780060f92f0076
:1006c0000f004000b000070088979f0099979f0097
:1006d0000000eb00a09f9f009a4578000b80fb0074
:1006e0000000ea00cf04de0050c2b30080cf550006
:1006f0000200320009047800010037000904e90013
:100700000800e0000b0034001f90970008017800fb
:100710008a0078008f9197000300010090979f0056
:100720000000e000930032002f9897000000440082
:10073000a09f9f000905450050c2b30080cf55001f
:10074000040032000b04e000e3ff3a002f9897000a
:10075000890037000000eb00809f9f00f0979f000a
:10076000e0979f00d0979f00c0979f00b0979f0091
:10077000c09f9f000900370020b921000080500071
:100780000000400061b82100e10078004f98970018
:1007900001007000c09f9f000a05e8001a4478001d
:1007a0008800fb0020b921007c0007008000780051
:1007b0000000e000f0ff3a00a0c2b300804f5400f8
:1007c0000e003a00bf8897000180e900b08f9f00bb
:1007d00010007800b09f9f000000e00005003d0081
:1007e0000000ea00b09f9f004f9897000020a000f3
:1007f000c09f9f000a05e80010003700b19f9f00ce
:1008000003fd2f00f4ff2700080037003f989700f2
:10081000840f5000040032006a00b900000041005b
:1008200003004000b09f9f000a05e8001a01fb008a
:1008300003004100e90f5000f4ff3600e0c2b300ae
:100840009a4f1000040032000080eb00909f9f0040
:100850008a0478001c0037008a04e800a0c2b300b4
:10086000994f100007003a00bf8897000180e90007
:10087000b08f9f0010007800909f9f008a84e8004e
:10088000110037000000eb00909f9f0003fd2f0038
:10089000f4ff2700080037001f989700840f5000ce
:1008a000040032006a00b90000004100030040006b
:1008b000909f9f008904e8001901fb00030041009c
:1008c000e90f5000f4ff3600194478008800fb005f
:1008d00060de2100310007000000e00002003a0065
:1008e00000447800010037008904e800a87f9f00d9
:1008f00080c6b300804f540004003a00994f1400a2
:100900000a003a006640500006003700c0c6b30037
:10091000804f540005003a00994f140003003a003c
:1009200065404000a07f9f008904e8000905e800b9
:10093000cbfb2f008f8545001901fb0060f92f00cc
:100940000f0040000084e8008b01780080007800f0
:10095000080078001a0007000000e00005003a00d7
:100960008b00780008007800580107000000e000c4
:1009700059ff3d000080eb004f05be004f04be0054
:100980000080fa00000006000200fa00f1bf9f009c
:10099000010878000080fa0000000600040037001b
:1009a0000204e00001003a00000005000000e80039
:1009b00010417800814f5100f9ff3a000000060015
:1009c000889fbe008a1f780000047800010278002a
:1009d0008244780003057800e0c6b300804f5100e0
:1009e000d200320015003c006b405000804f510097
:1009f000240032000a003c0070405000804f51003b
:100a00000f01320065404000804f510074003200f9
:100a100050c2b300804f510020013a001c01370042
:100a200040c6b300804f51001b00320065404000bb
:100a3000804f510019013a001700370030c7b3004a
:100a4000804f5100fe00320007003c00644050001f
:100a5000804f5100620032000040e800804f51009a
:100a60000e013a00e700370050c7b300804f510035
:100a70005b00320063404000804f510007013a00a4
:100a8000570037009180e900010a78007800900053
:100a90009171780007013700a8609000c0c6b300cc
:100aa00080cf50000a003a00940078006480500023
:100ab000000a78001000be004f89de00cf91de00f2
:100ac0000002be00020378008203780013003700a2
:100ad00010c7b30080cf500003003200a0c6b3009f
:100ae00080cf500006003a009400780068805000e3
:100af000000a78003002be002003be000700370065
:100b00001480e900000a78001000780000027800e4
:100b1000cfa2de000503780086037800049cbe00a7
:100b20000694be00a860900080c6b30080cf50003d
:100b30000e00320020c6b30080cf500005003a00fe
:100b40000400fb00cf80de00010178008201780004
:100b50000a00370040c7b30080cf500003003200c6
:100b60006640400080cf500006003a000400780044
:100b7000cf80de000101780082017800009cbe0079
:100b80000294be003800be002801be00e00f5000f5
:100b9000e08f5800e00f5900e08f590003003d003e
:100ba00078009000d1c2b3000a003700081090000e
:100bb0000018a3000300320078009000b1c2b30017
:100bc000040037000008a3005300320078009000b2
:100bd00001c2b300017578000000e8004d00370045
:100be000a8609000c0c6b30080cf500006003a0055
:100bf0009400780064805000000a78001002be0063
:100c00006033b8001300370010c7b30080cf500026
:100c100003003200a0c6b30080cf500006003a00a7
:100c20009400780068805000000a78003002be000e
:100c30002003be00070037001480e900000a780096
:100c40001000780000027800050020000600200057
:100c500007002000049cbe000694be00a86090001f
:100c600080c6b30080cf50000e00320020c6b30013
:100c700080cf500005003a000480fb0001002000f6
:100c800002002000030020000a00370040c7b30024
:100c900080cf5000030032006640400080cf5000fb
:100ca00006003a0004007800010020000200200045
:100cb00003002000009cbe000294be0008109000bb
:100cc0000038a300140032003800be002801be0026
:100cd000e00f5000e08f5800e00f5900e08f5900fe
:100ce0000d00320080c7b30080cf540003003200f3
:100cf00080c5b30080cf540007003a007800900010
:100d000001c3b300017578008000e80009f57800a0
:100d10000080e80070049800780090000000450012
:100d2000600498008940780042003700a860900075
:100d3000c0c6b30080cf5000250032000a003c003e
:100d40006440500080cf50002800320000c0e8000e
:100d500080cf5000140032006840500080cf500017
:100d600022003a000a00370040c7b30080cf50008d
:100d70001e0032006640400080cf50001b00320051
:100d80006940500080cf500018003a00060037003c
:100d90001480e900000a780010007800485c900098
:100da00008487800450037001480e900000a780000
:100db0001002780068089000cf80de000101780002
:100dc00082017800009abe000292be003b0037000c
:100dd0001480e900000a780010017800680890008b
:100de000cf80de000089be00340037001480e900a7
:100df000000a780010007800680c9000080878005d
:100e00002e0037001180e90080087800100078007b
:100e1000cf80de000101780082017800009cbe00d6
:100e20000294be0078009000000045006004980025
:100e300081c7b30008007800ee0007001f003700ec
:100e40001480e900000a780010007800600498001f
:100e5000580990000200e00002003d006e02070009
:100e6000090037008000eb00720207008000780064
:100e70000000e00003003200680090000080500095
:100e80000100370058089000100c98000b00370044
:100e90007800900002757800060037007800900016
:100ea000800045000904e00001003a0059c2b30087
:100eb000894878000000e800700498000000eb000a
:100ec0004f0578004f04be00000006000400fa0041
:100ed000889fbe008a9fbe008c1f780000047800a7
:100ee0000106780070089000f800900001005000a2
:100ef0008808900001005000980890000100500000
:100f0000a808900001005000b808900001005000af
:100f1000c8089000810550000002220090bf9f0089
:100f200000032300a0bf9f00081090000028a3002a
:100f300018003a000b00e000160034008b04780023
:100f400009057800e28f5400020036002a002000d4
:100f5000020037000900e0000b0034005800900048
:100f6000c80190000a017800ee80570003000100dc
:100f7000500498000000e0009600320068089000dd
:100f800000004500600c98008a8454004240a9008b
:100f9000ebff3c00780190000200e0000b00340001
:100fa00058009000c80190008c00780003000100f8
:100fb000500498000000e0008600320068089000ad
:100fc000f800900001004000600c9800880c900030
:100fd0000900e0001500340009057800e28f540094
:100fe000020036002a002000020037000900e0005d
:100ff0000b00340058009000c80190000a017800ee
:10100000ec80570003000100500498000000e0004d
:10101000700032006808900000004500600c9800e5
:101020008a8454004240a900ebff3c00180990005c
:101030000200e0000b003400e8009000580090002f
:10104000c801900003000100500498000000e00077
:10105000600032006808900098089000010040008d
:10106000600c9800a80c90000900e0001500340006
:1010700009057800e28f5400020036002a002000a3
:10108000020037000900e0000b0034005800900017
:10109000c80190000a017800ec80570003000100ad
:1010a000500498000000e0004a00320068089000f8
:1010b00000004500600c98008a8454004240a9005a
:1010c000ebff3c00380990000200e0000d00340006
:1010d000e8009000180890008080400058009000c0
:1010e000c801900003000100500498000000e000d7
:1010f0003800320068089000b808900001004000f5
:10110000600c9800c80c90000900e0001500340045
:1011100009057800e28f5400020036002a00200002
:10112000020037000900e0000b0034005800900076
:10113000c80190000a017800ec805700030001000c
:10114000500498000000e00022003200680890007f
:1011500000004500600c98008a8454004240a900b9
:10116000ebff3c00081090000028a3001b00320099
:101170000b00e000190034008b04780009057800aa
:10118000e28f5400020036002a00200002003700df
:101190000900e0000b00340058009000c8019000e6
:1011a0000a017800ee805700030001005004980007
:1011b0000000e000070032006808900000004500d1
:1011c000600c98008a8454004240a9000300340057
:1011d000eaff37000080eb00010037000000eb0061
:1011e0004f0678004f05be004f04be000080fa0095
:1011f000000006002f03b000889fbe008a9fbe003b
:101200008c9fbe008e1f78000007780090ba2100e6
:10121000c0b79f0080c5b30080cf500008003200e7
:1012200082b92100c2b79f007740400080cf5000b4
:1012300003003a0083002000b3b79f000a00370084
:1012400080c7b30080cf500005003200a40020000a
:10125000b4b79f0080c5b30080cf500002003a00b1
:1012600005012000b5b79f003e04be002e05be005c
:1012700040c6b30080cf50000300320065404000fc
:1012800080cf50000b003a00e00f5400e08f5c006c
:10129000e00f5d00e08f5d0006003d006000b800db
:1012a0006011b80008045000898458000a055900ec
:1012b0008b855900bfb39700e88f530003003200bd
:1012c000f08f530045003a0002003700360020003e
:1012d0000100370046002000e00f5400e08f5c0062
:1012e000e00f5d00e08f5d0005003a005e089000b1
:1012f00081012000a1b79f000000e000080032003b
:101300003fb197000200e90008006000cfb19700ec
:101310006340780090df9f0074012000a4b79f0015
:10132000860278008502e900050033008b05d100b4
:101330000a85d3008984d3000884d300f9ff3700dd
:10134000089fbe000a97be00afb397000700e900f0
:1013500021fc2f008f804000008240003fb19700a9
:101360008202e90012003700afb397008703e9005b
:10137000a7b79f0000806200cfb09700615278004d
:101380003e00be002e01be00860378008703e90000
:10139000050033008381d1000281d3008180d30016
:1013a0000080d300f9ff3700009fbe000297be0007
:1013b0003e00be002e01be00e00f5000e08f58003e
:1013c000e00f5900e08f5900d6003400afb397000a
:1013d0000700e000e4ff3c00d2003700ae60900060
:1013e00080c6b30080cf50000b00320006003c00e6
:1013f0000104e000080032006640500080cf500039
:1014000073003a0004003700c0c6b30080cf50001c
:101410006f003a0031003700080178000800e00052
:1014200005003a005e08900081012000a1b79f00ee
:101430000000e00009003200bfb197001100090070
:101440000381d8008000fd004fb29700644078000f
:1014500090df9f0075012000a5b79f00bfb39700e4
:10146000110009000781d80080017800afb0970013
:101470000100e90022fc2f000f01410000024100a1
:101480000c003700bfb29700110009008501d80099
:1014900000017800afb397008703e900a7b79f006a
:1014a0000590b90000805100cfb0970061527800dc
:1014b000820178000300e000030034002fb19700a0
:1014c0000200e000efff3c0003007800cf80de0068
:1014d00001017800820178003a0037000806be005a
:1014e000e00f5400e08f5c0005003a005e089000b9
:1014f00083012000a3b79f000000e0000900320034
:101500003fb297006121b9000c00be00a5020700a0
:10151000cfb297006540780090df9f0077012000f0
:10152000a7b79f003fb297006121b9000c00be0031
:101530005f0107000006be00afb297000500e9009a
:1015400027fc2f008f8343008083430097b79f00c1
:10155000110037003fb197006114b9000801be00c7
:101560000c00be00c30007000005be00afb197002d
:101570008301e900a3b79f000801be00b700070080
:10158000000056001fb29700cfb297006552780056
:1015900094b79f000a06be00e00f5600e08f5e0081
:1015a00003003400afb397000700e000e9ff3c0000
:1015b0004feade00cfa2de000c00be00040178007e
:1015c00084017800009fbe000297be0055003700de
:1015d000e00f5400e08f5c00e00f5d00e08f5d00e5
:1015e00005003a005e08900081012000a1b79f002d
:1015f0000000e0000d0032003fb1970002027800c9
:10160000cfa2de0005037800860378000800be0044
:101610000a01be00e70207004fb29700644078005d
:1016200090df9f0075012000a5b79f003fb1970094
:1016300002027800cfa2de0005037800860378005e
:101640000800be000a01be00d3020700009fbe00d2
:101650000297be00afb197000300e90024fc2f0001
:101660000f0242000006420020003700bfb2970080
:1016700005047800cfc4de00090578008a057800eb
:101680000802be000a03be005fa89700efa89700fb
:101690007fa997008fb19700ca020700d0b79f00bb
:1016a000e1b79f00f2b79f0083bf9f00afb39700e1
:1016b0008703e900a7b79f000802be000a03be0027
:1016c000460307005faa970000005200cfb29700c0
:1016d000655678005fb09700efb097007fb1970034
:1016e0008fb99700009fbe000297be003e00be006b
:1016f0002e01be00d0af9f00e1af9f00f2af9f0070
:1017000083b79f00e00f5000e08f5800e00f5900b2
:10171000e08f590003003400afb097000100e000f3
:10172000d2ff3c003fb19700e80f510013003a0090
:101730000e1090000038a30010003200afb19700e7
:10174000f78f510006003e0024fc2f000f024200dc
:101750008300420000c3b300914f10000700320025
:10176000afb297008502e900a5b79f0000c3b300a0
:1017700027fc2f008f83430080f37a00afb19700de
:1017800078811100120f98006e00900024fc2f0049
:101790000f02420083004200bbfb07001e099000bd
:1017a0005e089000800f510006003d0002005000ce
:1017b000000f98000e1090000040a1000017980044
:1017c0000f0037000000e0000d003d000e109000fb
:1017d00074006000f00f500009003a007e0890008d
:1017e000fe009000010050008e08900001005000a3
:1017f000020050004240a90001003400000f980090
:101800004f0778004f06be004f05be004f04be00d4
:101810002f03b100000006008000780001003700af
:101820000000e8001004e000fdff3a000100500055
:10183000000006008001eb00040037008301e8008f
:1018400090cf1000040032000000e800828f5100a9
:10185000faff3a000000eb0000000600020ab9009f
:10186000001bb9000200b800810042008100430063
:1018700000000600839f68000100e00002003d00b8
:1018800060001000e08018000300e00002003d004e
:1018900060011100e0811900850007004f00e000a1
:1018a00002003b0060001000e0801800000006000d
:1018b000889fbe008a9fbe00010578000100e000fd
:1018c0000400350008003c000000e0002000320069
:1018d0000500370060001000e080180002003b00a7
:1018e00001f02c001a0037000004be006011b8009f
:1018f0006b0920000982cf00020039000882cf0066
:101900000441b000694252000e00320008003b0062
:1019100082817100610164008904d1000884d300d0
:101920008b05e8000442e800f9ff3a0005003700a3
:101930000804440089844c008b05e9000442e90056
:10194000fbff3a00290107000af0a70001f0a00000
:101950004f05be004f04be0000000600889fbe0079
:101960008a9fbe008c1f7800460107004d0133009e
:1019700003866c006450e100240032006420e10022
:10198000270032006150e100220032006120e100b6
:10199000210032008b854200eb07b1000134b80012
:1019a000003ab8000804420089844a00013ab800ad
:1019b0000030b8008880400009014a00040033006c
:1019c0000000400081804800020149008b05e900c9
:1019d000c909dd00830170000100320013002000fe
:1019e000c814de004814dd004709de001200b20012
:1019f000c808de0008847000fc00070001f0a100a8
:101a00000cf0a70001f0a0002f0137006120e100d9
:101a1000310132000801be000200be00f7ff3700ae
:101a20006150e100fcff3a002b0137000001be00cd
:101a30002c0107000470a70003f0a1006509b100a4
:101a4000160032000d0035006828e1000600350060
:101a5000f0ff2f00f1ff27000300e00013003b0020
:101a600001002800000005000000400081804800bf
:101a70008502e900fcff3a0008003700f88f4200b9
:101a800002003c008000eb00000005008100d10056
:101a90000080d3008502e800fcff3a000300e0006c
:101aa00002003b0060001000e0801800000006000b
:101ab0006022b800060220000000d0008180d20021
:101ac0000482d2008582d2000000a00002025200ef
:101ad00083825a00030031000202420083824a00de
:101ae0000000a1000603e900f3ff3a000000060031
:101af000889fbe008a9fbe008c1f7800e10007000f
:101b0000e800330003866c006450e1002e003200d0
:101b10006420e100330032006150e1002f00320008
:101b20006120e1003100320085855500eb07b000ef
:101b300009002000080420000500370008044400c4
:101b400089844c000a0031000603430087834b0060
:101b50000001530081815b00f8ff33000203be00e7
:101b60000800a0000804440089844c00f6ff3900f6
:101b7000c639dd008301730001003200130020002c
:101b80008904d1000884d3000998a300050032001d
:101b90000800a7000300a0008904d1000884d30036
:101ba0008b05e8008904d1000884d3000001eb0014
:101bb0000281d2008d00070001f0a1000cf0a70007
:101bc00001f0a000c00037006420e100c200320034
:101bd0000801be000200be00f7ff37006120e100ef
:101be000bd0032006000b800f3ff370000002000a5
:101bf00001f82700f0ff370003f0a200889fbe0025
:101c00008a9fbe008c1f78009e000700a50033004d
:101c10006450e1004f0032006420e10052003200c5
:101c200003826c0007003b000905d0000306d000ca
:101c3000820f54000c065d000200390002003200e1
:101c400089017800030678008582550004003d0074
:101c50000003fd008103fd008502ea008b85420040
:101c6000840f720002003b0060001000e08018004a
:101c70006011b8000005eb007a28e1000a00390085
:101c800006007800c75ddd00f707b20087807500a9
:101c90002d003700828171000a0178006105600023
:101ca0008180d1000080d3008502e900f9ff3b006c
:101cb000060440008784480002003b0060041400d2
:101cc000e0841c000988a300070032008a817100ab
:101cd00082817100610164008904d1000884d3000d
:101ce0008b05e800170037000978a30013003a00bd
:101cf0000b00e000130034008b05e90008044400e9
:101d000089844c000a4474000978a3000d003a004d
:101d10000b00e000070034008b05e90008044400d4
:101d200089844c0001003a000b0020000978a300d0
:101d3000f7ff32000001eb000200370082817100e2
:101d40000a017800290007000cf0a70001f0a000ac
:101d50005d0037006420e10002003a00838f6c00d0
:101d60005d0033000801be000200be0056003700cf
:101d70001400200070003700f4ff2f006e003700c1
:101d80000001be00570007000470a70003f0a10087
:101d900003f8a30013003a006509b10010003200f7
:101da000090035006928e100020035000100280023
:101db0000000050000004000818048008502e90025
:101dc000fcff3a0000000600f88f420005003500d5
:101dd0008100d1000080d3008502e800fcff3a00ba
:101de000000006008000eb000000050081002000dc
:101df000618055000b003d000b00200061fe2f00ac
:101e00000100e1001d003400828171006101640065
:101e10008904d1000884d3000000e800faff3a00ea
:101e20007100200061006400030070000200600087
:101e30000900320061044400e0844c000988a500d8
:101e4000050032008b05e8006808e10002003a0056
:101e50008904d1000884d300f20f20000258e10069
:101e600005003d00c75ddd00f907b20089807500ff
:101e700008007800000006000bf827008b007800af
:101e8000000005000004be00160007000003be00ad
:101e90000405be000200be0012000700844f75005a
:101ea000000006000200be006450e100050036009c
:101eb0006420e100020036000968a30001003a0036
:101ec0000800be000160a0004f0678004f05be006c
:101ed0004f04be0000000600f0ff2f00f1ff2700b6
:101ee000f9ff3700c70ade00f107b200f50fb200b4
:101ef00008003200e1cf4200020032000170a00071
:101f000024000500810f7000010032000408050064
:101f100044000500810f700002003a001400050023
:101f20008502e9000000400081c04800fcff3b0042
:101f30000170a00024000500889fbe008a9fbe009b
:101f4000841f7800cfff07004f0078001100330096
:101f5000f0ff2f00838f6c0006003b000405650036
:101f60000a00a7000800370009f0a60010002000b2
:101f700008003700820f5400838f5c000300390093
:101f80001000200001003e000000200009f0a70022
:101f90000000ea004f05be004f04be000000e00054
:101fa00000000600c2fe07000400be00000006009c
:101fb000881f7800000478005001be004000be0079
:101fc00004004000858048000601490087814900df
:101fd000009cbe000294be000400e1000588e10000
:101fe0000690e1000798e10002003100680044001b
:101ff0001008e8004f04780000000600f48747004e
:10200000889fbe008a9fbe008c9fbe008e1f7800f6
:102010000205be000004be00d4b79f00e5b79f00d4
:10202000f6b79f0087bf9f000000eb00c0b79f007e
:10203000b0b79f00a0b79f0090b79f0080b79f00e8
:102040000d042000bfb097004fb097000001400082
:102050000000e0000f003d004f08de0000007100ae
:10206000c0b79f009e00070001003d001200200045
:10207000a100070001003d0012002000a60007009b
:10208000b1000700b60007000f004000c8ff0700be
:10209000220037004f08de0000067100ccb79f0019
:1020a0008f00070001003d00120020009200070091
:1020b00001003d001200200097000700a200070069
:1020c0000fb297009fb297002fb39700bfb397004e
:1020d000a90007000000520081805a0002015b0045
:1020e00083815b0080b79f0091b79f00a2b79f00dc
:1020f000b3b79f000007eb009f0007000020e1003e
:1021000001a8e10002b0e10003b8e10001003100e4
:102110001e0020000e005600c0b79f004fb297006f
:102120000400e0000700350010002000010020003e
:102130006011b80008047000898470000a057100fd
:102140008b8571008d06e900beff3a000400e000b7
:1021500003003d00820007000f00400094ff0700cd
:102160004fa897000000e00004003a000fb4970069
:102170009fb497002fb59700bfb597009400070054
:102180004f0778004f06be004f05be004f04be004b
:102190004f01b10000000600881f780018002000e1
:1021a000881f780095ff07008f87e9004f047800ab
:1021b00000000600801feb0090ff07008f87e900fa
:1021c00000000600889fbe008a9fbe008c1f78001a
:1021d0006e00070007003d0073000700e00f5b0082
:1021e000e08f5b0007003d00320007000006eb00b7
:1021f000040037003400070002003d002a000700f9
:102200001c00200072000700e3ff07000203be006d
:102210000002be000c00e0000100320022000700b6
:102220000400be000601be004f0678004f05be0048
:102230004f04be0000000600889fbe008a9fbe00bb
:102240008c1f78005100070005003d005600070074
:10225000e00f5b00e08f5b0006003d0004003700ec
:102260001900070003003d006000b8006011b800cd
:102270001000070056000700ceff07000203be0053
:102280000002be000c00e000010032000600070062
:102290000400be000601be004f0678004f05be00d8
:1022a0004f04be00000006006000b8006011b800d6
:1022b00000003700040250008582580006035900d0
:1022c00087835900000006000006eb00e00f520073
:1022d000e08f5a00e00f5b00e08f5b00000006001b
:1022e0000180400090b79f000001eb008fb0970085
:1022f0000100e000000006000200700090b79f009f
:102300000180400080b79f000001eb00ffa897000c
:102310000100e000000006000200700080b79f008e
:10232000018040006faa9700cf20de0001007000fe
:10233000f0af9f0004024200250007004f18de00a6
:102340000002720000000600e4af9f000804440091
:1023500089844c000a054d008b854d000000060065
:102360003fb29700cfb297005fb39700efb39700eb
:1023700000fe2f00000006003fb09700cfb097008e
:102380005fb19700efb19700000006000205be00a4
:102390000004be00e00f5000e08f5800e00f59002d
:1023a000e08f5900000006006000b8006011b8001e
:1023b00008045000898458000a0559008b8559008b
:1023c0001c002000e00f5200e08f5a0000000600c1
:1023d0000800be000a01be0000000600889fbe0083
:1023e0008a9fbe008c1f78000205be000004be005c
:1023f0000006eb00e00f5000e08f5800e00f59009e
:10240000e08f590007003d006000b8006011b8007f
:1024100008045000898458000a0559008b8559002a
:102420001c002000e00f5200e08f5a00e00f5b001c
:10243000e08f5b0002003d000f0007000c00a200cf
:102440000800be000a01be00120007000203be0021
:102450000002be000c00e000010032000600070090
:102460000400be000601be004f0678004f05be0006
:102470004f04be00000006006000b8006011b80004
:1024800004025000858258000603590087835900d2
:1024900000000600889fbe008a9fbe008c9fbe0081
:1024a0000404b8000506b8008904460060854e00a3
:1024b0000606b8000a054600e0854e000706b8008b
:1024c0008b054600040eb800890446000a854e00bc
:1024d000e0854d00050eb8000a0546008b854e00cc
:1024e000060eb8008b0546000416b8000a05460023
:1024f0008b854e000516b8008b054600041eb800fb
:102500008b0546000800be000a01be004f06be0053
:102510004f05be004f04be00000006004400f80056
:10252000040f2000240288000000e9001201c3000b
:10253000008008000200000031027800b20278003a
:102540001201c0000000cd004400f90000000600a8
:102550004400f800040f20002402880001027800e3
:102560000000e9000080080004000000b2027800ca
:102570000500ca00b30278000500c9003100cc0094
:10258000040078004400f900000006004400f80050
:10259000040f200024028800811f78000000e90059
:1025a000030278000080080002000000b2027800f8
:1025b0001301c0003100cd004f0078004400f90045
:1025c00000000600889fbe008a9fbe008c9fbe0050
:1025d0004400f8000d0f20002d02880083067800cb
:1025e0000106e9008205e900818040000201410006
:1025f0000000e90010003500050578000b80080098
:102600000a000000040478008a0478001201c30064
:102610000c8008000300000038037800990378005c
:102620001201c600828444003300cd000a85e80010
:1026300001024200eeff37000d0078004400f9006f
:102640004f06be004f05be004f04be00000006004e
:102650000100b8000000e9004400f800010f20006c
:102660002102880082007800008008000400000039
:10267000b30278000500ca00b40278000500c90062
:102680003200cc00010078004400f9000000060090
:102690004400f800020f2000220288000000e90038
:1026a0001201c30000800800010000003102780020
:1026b0001001f0000000cd004400f9000000060009
:1026c0004400f800040f2000240288000102780072
:1026d0000000e9000080080005000000b202780058
:1026e0000500ca00b30278000580ca000030cb00a4
:1026f0003100cc00040078004400f900000006001e
:10270000810178000000e90000800900b21878001b
:08271000030078000000060040
:020000040000fa
:0200000401f009
:04000000ffff0000fe
:020000040000fa
:0200000401f009
:04000400ffff0000fa
:020000040000fa
:0200000401f009
:04000800ffff0000f6
:020000040000fa
:0200000401f009
:04000c0078ff000079
:020000040000fa
:0200000401f009
:040010007cff000071
:020000040000fa
:0200000401f009
:040014007fff00006a
:020000040000fa
:0200000401f009
:04001800fdff0000e8
:020000040000fa
:0200000401f009
:04001c00deff000003
:020000040000fa
:1000080016b9000012b900000eb900000ab90000c4
:1000180006b9000016b9000016b9000016b90000ac
:1000280016b90000867600002857000094af00003b
:100038004e8c0000ba760000545700007476000019
:10004800c854000016b9000016b90000e693000075
:100058000695000016b90000608d000016b9000072
:1000680016b9000016b9000016b9000016b900004c
:10007800d45e000016b90000d27700000a780000ac
:1000880016b9000080570000ac5700002eb00000e1
:100098000eb00000cc610000cc950000c8960000ae
:1000a80016b9000016b9000016b9000016b900000c
:1000b80016b90000f27600002a7700006277000087
:1000c8009a770000d8570000045800003058000004
:1000d8005c58000016b9000016b9000016b90000f7
:1000e80016b9000016b90000da6a000016b9000057
:1000f80016b9000016b9000016b9000016b90000bc
:1001080016b9000016b9000016b9000016b90000ab
:1001180016b9000016b9000016b9000016b900009b
:1001280016b9000016b9000016b9000016b900008b
:1001380016b9000016b9000016b9000016b900007b
:1001480016b9000016b9000016b9000016b900006b
:1001580016b9000016b9000016b9000016b900005b
:1001680016b9000016b9000016b9000016b900004b
:1001780016b9000016b9000016b9000016b900003b
:1001880016b9000016b9000016b9000016b900002b
:1001980016b9000016b9000016b9000016b900001b
:1001a80016b9000016b9000016b9000016b900000b
:1001b80016b9000016b9000016b9000016b90000fb
:1001c80016b9000016b9000016b9000016b90000eb
:1001d80016b9000016b9000016b9000016b90000db
:1001e80016b9000016b9000016b9000016b90000cb
:0801f80016b9000016b9000061
:020000040000fa
:1002080016b9000012b900000eb900000ab90000c2
:1002180006b9000016b9000016b9000016b90000aa
:1002280016b90000867600002857000094af000039
:100238004e8c0000ba760000545700007476000017
:10024800c854000016b9000016b90000e693000073
:100258000695000016b90000608d000016b9000070
:1002680016b9000016b9000016b9000016b900004a
:10027800d45e000016b90000d27700000a780000aa
:1002880016b9000080570000ac5700002eb00000df
:100298000eb00000cc610000cc950000c8960000ac
:1002a80016b9000016b9000016b9000016b900000a
:1002b80016b90000f27600002a7700006277000085
:1002c8009a770000d8570000045800003058000002
:1002d8005c58000016b9000016b9000016b90000f5
:1002e80016b9000016b90000da6a000016b9000055
:1002f80016b9000016b9000016b9000016b90000ba
:1003080016b9000016b9000016b9000016b90000a9
:1003180016b9000016b9000016b9000016b9000099
:1003280016b9000016b9000016b9000016b9000089
:1003380016b9000016b9000016b9000016b9000079
:1003480016b9000016b9000016b9000016b9000069
:1003580016b9000016b9000016b9000016b9000059
:1003680016b9000016b9000016b9000016b9000049
:1003780016b9000016b9000016b9000016b9000039
:1003880016b9000016b9000016b9000016b9000029
:1003980016b9000016b9000016b9000016b9000019
:1003a80016b9000016b9000016b9000016b9000009
:1003b80016b9000016b9000016b9000016b90000f9
:1003c80016b9000016b9000016b9000016b90000e9
:1003d80016b9000016b9000016b9000016b90000d9
:1003e80016b9000016b9000016b9000016b90000c9
:0803f80016b9000016b900005f
:020000040000fa
:1027180050490000445f0000526f00006c6c0000dc
:102728004b50000000000000000000000000000006
:102738000000000000000000cdcc0000cc3e0000ee
:102748006c0800000100000050490000445f0000d0
:10275800526f00006c6c00004b4400000000000049
:102768000000000000000000000000000000000061
:10277800cdcc0000cc3e00006e0800000100000037
:1027880050490000445f000059610000774b000089
:1027980050410000494c000000000000000000000b
:1027a8000000000000000000cdcc0000cc3e00007e
:1027b800580800000100000050490000445f000074
:1027c80059610000774b000044410000494c00006b
:1027d80000000000000000000000000000000000f1
:1027e800cdcc0000cc3e00006a08000001000000cb
:1027f80050490000445f0000506900007463000005
:1028080068670000616900006e00000000000000b9
:102818000000000000000000cdcc0000cc3e00000d
:102828005e0800000100000050490000445f0000fd
:102838005069000074630000684b00004400000009
:102848000000000000000000000000000000000080
:10285800cdcc0000cc3e0000600800000100000064
:1028680050490000445f000059610000774b0000a8
:1028780044720000756400000000000000000000c1
:102888000000000000000000cdcc0000cc3e00009d
:10289800740a00000100000050490000445f000075
:1028a800526f00006c6c00004b5000007275000005
:1028b80064000000000000000000000000000000ac
:1028c800cdcc0000cc3e0000760a000001000000dc
:1028d8004d4c00005f53000079730000494400002c
:1028e80000000000000000000000000000000000e0
:1028f80000000000803f0000000000007e43000050
:10290800820a0000060000004d4c00005f430000f2
:102918006f6d0000704900004400000000000000d6
:10292800000000000000000000000000000000009f
:10293800000000007f430000830a0000060000003a
:102948004d4c00005f5200006177000053650000a5
:102958006e7300006f72000073000000000000003a
:102968000000000000000000000000007a430000a2
:10297800870a0000060000004d4c00005f5200006e
:1029880043430000686100006e6e0000656c000043
:1029980073000000000000000000000000000000bc
:1029a800000000007a430000880a000006000000ca
:1029b8004d4c00005f45000078740000656e000013
:1029c80064530000746100007400000000000000ff
:1029d8000000000000000000000000007a43000032
:1029e800890a0000060000004d4c00005f520000fc
:1029f80061770000436f00006e740000726f000082
:102a08006c00000000000000000000000000000052
:102a1800000000007a4300008a0a00000600000057
:102a28004d4c00005f5000006f7300006974000097
:102a3800696f00006e000000000000000000000048
:102a48000000000000000000000000007a430000c1
:102a58008b0a0000060000004d4c00005f52000089
:102a68006174000065450000787400007261000020
:102a7800310000000000000000000000000000001d
:102a8800000000007a4300008c0a000006000000e5
:102a98004d4c00005f520000617400006545000065
:102aa800787400007261000032000000000000002d
:102ab8000000000000000000000000007a43000051
:102ac8008d0a0000060000004d4c00005f52000017
:102ad80061740000654500007874000072610000b0
:102ae80033000000000000000000000000000000ab
:102af800000000007a4300008e0a00000600000073
:102b08004d4c00005f760000657200003100000047
:102b180000000000000000000000000000000000ad
:102b28000000000000000000000000007f430000db
:102b3800920a0000060000004d4c00005f7400007f
:102b480079700000653100000000000000000000fe
:102b5800000000000000000000000000000000006d
:102b6800000000007f430000930a000006000000f8
:102b78004d4c00005f610000646400007265000055
:102b88007373000031000000000000000000000026
:102b9800000000000045000000c00000ff460000e3
:102ba800900a0000040000004d4c00005f76000011
:102bb8006572000032000000000000000000000004
:102bc80000000000000000000000000000000000fd
:102bd800000000007f430000960a00000600000085
:102be8004d4c00005f7400007970000065320000f1
:102bf80000000000000000000000000000000000cd
:102c08000000000000000000000000007f430000fa
:102c1800970a0000060000004d4c00005f610000ac
:102c280064640000726500007373000032000000e5
:102c38000000000000000000000000000045000047
:102c480000c00000ff460000940a000004000000d5
:102c58004d4c00005f7600006572000033000000f4
:102c6800000000000000000000000000000000005c
:102c78000000000000000000000000007f4300008a
:102c88009a0a0000060000004d4c00005f74000026
:102c980079700000653300000000000000000000ab
:102ca800000000000000000000000000000000001c
:102cb800000000007f4300009b0a0000060000009f
:102cc8004d4c00005f610000646400007265000004
:102cd80073730000330000000000000000000000d3
:102ce800000000000045000000c00000ff46000092
:102cf800980a00000400000043460000475f0000f7
:102d080044450000434c0000494e0000000000000c
:102d180000000000000000000000000000c30000e8
:102d280000000000fe4200007c0a000007000000ce
:102d380043460000475f0000444500004378000018
:102d480043480000000000000000000000000000f0
:102d5800000000000000000000000000803f0000ac
:102d6800de1a00000500000043460000475f00002f
:102d78004445000043780000534300000000000071
:102d880000000000000000000000000080bf0000fc
:102d980000000000803f0000e01a0000030000006f
:102da80043460000475f00004445000043790000a7
:102db8005343000000000000000000000000000075
:102dc8000000000080bf000000000000803f0000fd
:102dd800e21a0000030000001f0000005379000001
:102de80073740000656d00002054000061720000db
:102df80067650000742000004368000065630000f8
:102e08006b20000046610000696c000065640000ea
:102e18003a200000307800000020000030780000e0
:102e2800000d00000a0000000d0a000041630000c8
:102e3800746900006f6e00003a20000045450000ec
:102e480020530000746f0000726100006765000085
:102e5800205200006561000064200000000d0000a1
:102e68000a4900004c4c000045470000414c000056
:102e78002041000043540000494f00004e3a000032
:102e8800204e00006f200000454500002c20000067
:102e98006275000073790000206f00007220000046
:102ea8006e6f0000742000006d6100006e750000f8
:102eb800616c00002e0000000d0a00004163000054
:102ec800746900006f6e00003a200000454500005c
:102ed80020530000746f00007261000067650000f5
:102ee800205700007269000074650000200000008f
:102ef8000d0a000041630000746900006f6e000055
:102f08003a20000052650000636f00007264000000
:102f1800696e0000672000006163000063650000bf
:102f28006c2000002f20000067790000726f0000fd
:102f3800206f00006666000073650000747300006f
:102f48002e0000000d0a0000494c00004c4500000e
:102f5800474100004c200000414300005449000054
:102f68004f4e00003a2000004f6e00006c790000c0
:102f780020770000686500006e2000006e6f00007a
:102f8800742000006d6f0000766900006e67000015
:102f9800206900006e2000006d6100006e75000061
:102fa800616c00002e0000000d0a0000616c00003a
:102fb80072650000616400007920000073650000fc
:102fc8006e640000696e00006720000077610000f1
:102fd800797000006f6900006e740000732e0000a5
:102fe800000d00000a730000656e000064690000af
:102ff8006e6700002077000061790000706f0000a4
:10300800696e000074730000202600002063000031
:103018006f7500006e740000000d00000a77000054
:1030280061790000706f0000696e00007420000074
:10303800726500007175000065730000740000007f
:1030480020250000642e0000000d00000a77000013
:1030580061790000706f0000696e00007420000044
:10306800616300006b2000000065000072720000c0
:103078006f7200002e0000006f6b00002e00000031
:103088000d0a000077610000797000006f69000088
:103098006e740000206300006f7500006e740000fd
:1030a8002072000065630000656900007665000015
:1030b80064200000000d00000a770000617900001c
:1030c800706f0000696e000074200000636c0000df
:1030d8006561000072200000616c00006c00000057
:1030e8000d0a000077610000797000006f69000028
:1030f8006e740000207300006574000020630000f7
:1031080075720000726500006e74000000200000f7
:10311800256400002028000025640000292e0000f6
:10312800000d00000a77000061790000706f000050
:10313800696e00007420000072650000636500007d
:1031480069760000656400002000000066610000e8
:10315800696c000065640000207400006172000062
:103168006765000074200000737900007374000024
:10317800656d00002063000068650000636b000057
:10318800206f00006e200000706100007261000076
:103198006d65000074650000722000007365000012
:1031a800742000000d0a000000430000464700009c
:1031b8005f440000454300004c4900004e000000f9
:1031c80000280000140d00000a080000070600008f
:1031d8000504000003020000010000002450000064
:1031e8005352000046310000303000002c300000ff
:1031f8002c31000039320000303000002c3800003b
:103208002c3100002c3000002a330000390d00005a
:103218000a0000000900000086000000004b0000c2
:10322800000800000100000000000000191d000057
:10323800181d0000171d0000161d00001d1d0000b0
:103248001c1d00001b1d00001a1d0000211d000090
:10325800201d00001f1d00001e1d0000231d000072
:10326800221d0000251d0000241d0000271d000050
:10327800261d0000281d0000141d0000291d000047
:10328800141d0000141d0000141d0000141d000072
:10329800141d0000141d00002a1d0000141d00004c
:1032a800141d0000141d0000141d0000141d000052
:1032b800141d0000141d0000141d0000141d000042
:1032c800141d0000141d0000141d0000141d000032
:1032d800141d00003d1d00003c1d00003f1d0000a6
:1032e8003e1d0000471d0000461d00003b1d00005c
:1032f8003a1d0000391d0000381d0000141d000093
:10330800141d0000141d0000141d0000141d0000f1
:10331800141d0000141d0000141d0000141d0000e1
:10332800141d0000141d0000141d00002f1d0000b6
:103338002e1d00002d1d00002c1d0000331d000057
:10334800321d0000311d0000301d0000141d00005a
:10335800141d0000141d0000141d0000371d00007e
:10336800361d0000351d0000341d0000141d00002e
:10337800411d0000401d0000431d0000421d0000cb
:10338800141d0000141d0000451d0000441d000010
:10339800141d0000141d0000141d0000141d000061
:1033a800141d0000141d0000141d0000141d000051
:1033b800141d0000141d0000141d0000141d000041
:1033c800141d0000141d0000141d0000141d000031
:1033d800141d0000141d0000141d0000141d000021
:1033e800141d0000141d0000141d0000141d000011
:1033f800141d0000141d0000141d0000141d000001
:10340800141d0000141d0000141d0000141d0000f0
:10341800141d0000141d0000141d0000141d0000e0
:10342800141d0000141d0000141d0000141d0000d0
:10343800141d0000481d0000141d0000141d00008c
:10344800141d000032000000000000000000000011
:10345800000000004b000000c00000000000000059
:103468000000000000000000000000000000000054
:103478000000000000000000000000000000000044
:1034880000000000000000006400000000000000d0
:1034980000000000000000004b00000000000000d9
:1034a8000000000000000000000000000000000014
:1034b8000000000000000000000000000000000004
:1034c8000000000000000000000000006400000090
:1034d8000000000064000000000000004b00000035
:1034e80000000000000000000000000000000000d4
:1034f80000000000000000000000000000000000c4
:1035080000000000000000000000000000000000b3
:10351800000000000000000064000000000000003f
:103528004b00000002000000000000000000000046
:103538000000000000000000000000000000000083
:103548000000000000000000000000000000000073
:103558000000000000000000000000000000000063
:10356800000000004b000000000000000000000008
:103578000000000000000000000000000000000043
:103588000000000000000000000000000000000033
:1035980000000000000000003200000000000000f1
:1035a80032000000000000004b000000e0000000b6
:1035b8000000000000000000000000000000000003
:1035c80000000000000000000000000000000000f3
:1035d80000000000000000000000000003020000de
:1035e80001000000070600000504000009080000ab
:1035f8000b0a00000f0e00000d0c00001312000053
:10360800111000001514000000000000013c00002b
:103618000400000003000000023d00000506000051
:1036280003000000bf07000000000000013c00008c
:103638000403000000110000600100000300000006
:103648000f00000000000000013c0000040300001f
:103658000012000060010000030000000f000000dd
:1036680000000000013c00000403000000100000fe
:1036780060020000030000000f00000000000000ce
:10368800013c000004030000001800006000000076
:10369800030000000f0000000000000001a6000069
:1036a800040000003200000002a700000507000027
:1036b80003000000bf0800000000000001a6000091
:1036c80004010000318f0000030000000f0000001b
:1036d8000000000001a60000040e00001dff00000d
:1036e8000000000000000000000000007f7f0000d4
:1036f8007f0000007f7f00000000000002a600009d
:10370800040400002c0e0000008000007f00000070
:1037180002a6000004010000310f000002a600000c
:103728000401000038bf0000030000000f00000083
:103738000000000001a60000040e00001dff0000ac
:103748000000000000000000000000007f7f000073
:103758007f0000007f7f00000000000002a600003c
:10376800040400002c0e000008020000fd00000008
:1037780002a6000004010000310f000002a60000ac
:103788000401000038a10000030000000f00000041
:10379800000000009201000024030000b5040000ae
:1037a80046060000d607000064090000f10a000080
:1037b8007c0c0000060e00008d0f000012110000a6
:1037c800941200001314000090150000091700005f
:1037d8007e180000ef1900005d1b0000c61c0000e9
:1037e8002b1e00008c1f0000e72000003d22000077
:1037f8008e230000da240000202600006027000045
:103808009a280000ce290000fb2a0000212c000085
:10381800412d00005a2e00006c2f00007630000069
:10382800793100007432000068330000533400001e
:103838003735000012360000e5360000b0370000ca
:10384800713800002b390000db390000823a000093
:10385800213b0000b63b0000423c0000c53c000094
:103868003f3d0000af3d0000153e0000723e0000e5
:10387800c53e00000f3f00004f3f0000853f00009d
:10388800b13f0000d43f0000ec3f0000fb3f0000c8
:10389800004000000000000001ae0000140000001d
:1038a80003000000070000000000000001ae000057
:1038b800140100000300000001af00000500000033
:1038c80003000000c70000002e0000004153000064
:1038d8005047000020560000256400002e250000f7
:1038e800640000000000000000010000101000004b
:1038f8000421000011110000244900005252000068
:10390800aa54000055550000d5550000755d00000b
:103918007577000077770000777f00007f7f0000d1
:10392800ffff00009a1d000009080000990500002b
:10393800200300003e000000dd03000011fb000032
:10394800a8020000dbfc00000000000009010000e4
:103958000300000007000000646f00006e650000af
:043968002e0000002d
:020000040000fa
:103a0000140000001800000018000000150000005d
:103a10000c000000feff0000e8ff0000cbff0000ec
:103a2000a9ff000082ff00005aff000034ff0000e1
:103a300014ff0000fffe0000fbfe00000cff000072
:103a400038ff000082ff0000ecff0000770000005c
:103a500023010000ed010000cf020000c3030000bd
:103a6000c1040000bf050000b2060000900700007e
:103a700050080000e8080000520900008809000012
:103a80008809000052090000e80800005008000002
:103a900090070000b2060000bf050000c10400004e
:103aa000c3030000cf020000ed010000230100006d
:103ab00077000000ecff000082ff000038ff0000ec
:103ac0000cff0000fbfe0000fffe000014ff0000e2
:103ad00034ff00005aff000082ff0000a9ff000031
:103ae000cbff0000e8ff0000feff00000c0000001c
:103af000150000001800000018000000140000006d
:020000040000fa
:103980000b00000004000000e6ff0000a4ff0000a0
:1039900045ff0000defe00009efe0000c1fe0000ac
:1039a00088ff00002101000099030000c506000007
:1039b000480a0000a20d000044100000b7110000ea
:1039c000b711000044100000a20d0000480a0000da
:1039d000c5060000990300002101000088ff0000d7
:1039e000c1fe00009efe0000defe000045ff00005c
:1039f000a4ff0000e6ff0000040000000b00000030
:020000040000fa
:103b00000200fa00000f78001e00780030009000dc
:103b10000000e000040032001e0078003000900039
:103b2000e90f5000210036009e0078000040eb00b5
:103b3000804878009e0078000040eb00904098009c
:103b40009e0078000040eb00a04098009e007800a6
:103b50000040eb00b04098009e0078000040eb0071
:103b6000c04098009e0078000000eb00b000980074
:103b70009e0078000040eb00804898009e0078008e
:103b80000000eb00f00098009e0078000000eb00c1
:103b9000e00098009e0078000040eb0090489800fc
:103ba0009e0078000040eb00a04898000080fa00da
:103bb000000006000000fa0000202c001100200088
:103bc000e33b07000080fa00000006000400fa0052
:103bd00020479800ae40900023d021000001eb0068
:103be0000040eb0007000700000f78001e00e00017
:103bf000020032001e007800c90307000080fa00ae
:103c0000000006001200fa00604798007147980013
:103c100042079800530798006e4090006301070028
:103c2000b7ff07006e4090008080fb0070102000fe
:103c30000088b90080007800a0bb2100008040000f
:103c4000200798006e409000580107001007980068
:103c50000000eb00000f78009e0090000040eb0099
:103c6000a04098001e009000300090006101b80054
:103c700072079800030f98009000200001002000b8
:103c80007e0190008e099000800f5100818f5900b5
:103c9000c7003e007e0090008e089000006001008a
:103ca0000900370008003700110037003c003700da
:103cb00031003700440037004d0037005e00370008
:103cc0007400370091003700fe40900050c5b300eb
:103cd00080cf5000b6003a009e00900020002000e7
:103ce000b00098002e0090001d010700b0003700c2
:103cf0001e009000204090000004e00011003200ff
:103d00001e009000304090008040e8001e009000af
:103d1000314098001e009000404090008040e80034
:103d20001e009000414098009e0090000040eb0073
:103d3000a04098009e00900010002000b000980065
:103d40009b0037002e009000fe409000314098000c
:103d50009e0090000040eb0080489800fe409000dc
:103d60002e009000cb0007009e0090004000200035
:103d7000b00098008e0037002e0090007e41900029
:103d800042409800fe4090002e009000c1000700c5
:103d90009e00900030002000b000980084003700a2
:103da0002e009000fe41900053409800fe4090008d
:103db0002e009000b70007009e00900050002000e9
:103dc000b00098007a0037002e009000fe4090006e
:103dd00061409800fe4090002e009000ad0007006a
:103de0009e00900060002000b00098007000370036
:103df0002e0090007e41900072409800fe4090009e
:103e00002e009000a30007002e009000304090008c
:103e10000004e00004003a009e00900080002000b2
:103e2000b0009800620037009e00900070002000f3
:103e3000b00098005e0037001e009000004990001e
:103e40000280fb00ae00900068004000fe41900040
:103e500003f078008240e8001e00900001489800be
:103e6000fe4090002e0090008a0007001e00900087
:103e7000804890002e0090003040900080cf50008d
:103e80004b003a009e00900080002000b000980097
:103e9000470037002e009000904078007e40900050
:103ea00080cf5000150032001e009000404090006e
:103eb0008040e8001e009000414098009e00900065
:103ec0000040eb00a04098009e00900010002000f1
:103ed000b0009800fe40900050c5b30080cf500065
:103ee00033003a009e00900020002000b0009800af
:103ef0002e0090009a0007002d0037009e009000d1
:103f000090002000b0009800290037002e0090009b
:103f1000904090007e40900080cf5000150032000d
:103f20001e009000404090008040e8001e0090007d
:103f3000414098009e0090000040eb00a040980097
:103f40009e00900010002000b0009800fe409000fd
:103f500050c5b30080cf500015003a009e0090007d
:103f600020002000b00098002e0090007c00070088
:103f70000f0037009e00900010c0b300a0409800d2
:103f80009e00900010002000b00098004e009000ad
:103f90000000e00006003200ce0090002e009000ed
:103fa00006010900b05878007110b1007010b1001e
:103fb0001e0fe8001e00900020409000e14f5000ce
:103fc00010003a002e009000c04090001e009000ab
:103fd000114898001e009000600090000000e00072
:103fe00003003a009e0090000000eb00f0009800f3
:103ff0001e009000600090008000e8001e0090000d
:10400000610098001e009000104890000040e800f9
:10401000804078005e009000114898001e009000db
:10402000e00090005e009000610098001e0090008b
:10403000404090008080fb005e009000710098007e
:104040009e0090000040eb00c04098001e009000d1
:1040500020409000e14f500009003a004e009000cf
:104060000000e000030032004e009000600798005e
:1040700005003700ae00900061079800020037008d
:104080000001eb00620798006e0090000080fa00cb
:10409000000006000600fa0010079800414798004b
:1040a0001e00900010407800004f78001e00900025
:1040b00010409000104798008e0078004e4090000d
:1040c000080007009e4078001e009000014878001c
:1040d0009e4090001e009000114098000080fa0061
:1040e000000006000600fa0020479800210798000b
:1040f0002e00900010007800804078002e40900044
:1041000000cf68001e80fb004400dd008040780086
:104110001e40780000c06800004f78002e0090001c
:1041200010007800c800de001e80fb004800dd00a3
:10413000808068001e80fb004300dd0080806800f6
:104140001e80fb004400de000080fb0080806800d1
:104150002e009000010878000080fa0000000600a0
:104160000400fa00100798000e007800080007000d
:104170009e4078001e009000014878009e4090000c
:104180001e009000114098000080fa000000060018
:104190000200fa00000f78009e0078000080eb001b
:1041a000800878000080fa00000006000200fa0093
:1041b000004f78001e80fb004400dd008000780086
:1041c00020cc2100008040000080fa0000000600a2
:1041d0001800fa00881f780060479800714798001f
:1041e00042079800530798006e4090008080fb00c3
:1041f00080b78400808f500093013d007e40900086
:104200000004e000cf003a006e4090000080fb0008
:104210007c00b900fa004000c0382900008040004e
:10422000104078000080fb00700798007e0090002e
:10423000e30f500047003200fe009000e38f500073
:104240000a003c007e019000e10f51001f00320087
:10425000fe019000e18f51002d003c007e00900097
:104260000000e0000e003200a2003700fe009000c7
:10427000e58f50005e0032007e019000e50f510096
:1042800041003500fe019000e68f510066003200cb
:104290007e009000e70f50007e003200950037004e
:1042a0006e4090000080fb007c00b900f8004000e8
:1042b000c038290000804000100078001001be00c6
:1042c00012079800230798008d0037006e40900079
:1042d0000080fb007c00b900f8004000c0382900d5
:1042e0000080400010007800100f78001e00780059
:1042f000cf80de006ef50700020020000368240076
:10430000fbf5070010079800210798007c00370094
:104310006e4090000080fb007c00b900f800400077
:10432000c03829000080400010007800100f78008d
:104330001e007800cf80de005df5070002e02f0050
:10434000f36f2400eaf50700100798002107980092
:104350006b0037006e4090000080fb007c00b900cd
:10436000f8004000c03829000080400010007800ac
:1043700010007800cf80de004df507001007980090
:10438000210798005e0037006e4090000080fb001f
:104390007c00b900f8004000c038290000804000cf
:1043a00010007800100478006140b90040f5070063
:1043b000000f9800110f98000800e00007003d0072
:1043c00002002000037824000e0890009e08900050
:1043d0000af60700000f9800110f98000e089000d1
:1043e0009e089000100798002107980044003700ad
:1043f0006e4090000080fb007c00b900f800400097
:10440000c03829000080400010007800104078007b
:104410000000fb00cf80de0025f5070010079800a4
:1044200021079800360037006e4090000080fb00a6
:104430007c00b900f8004000c0382900008040002e
:1044400010007800104478000800fb00cf80de00e8
:1044500017f50700200f9800310f98000804e000be
:1044600007003d0002002000033824002e089000c1
:10447000be089000e1f50700200f9800310f98006a
:104480002e099000be09900012079800230798009b
:104490001b0037006e4090000080fb007c00b900dc
:1044a000f8004000c038290000804000100078006b
:1044b000104078000000fb00cf80de00fcf4070015
:1044c00010079800210798001e009000ae00900091
:1044d000020020004333240020f5070002002000e2
:1044e0000330240082f50700100798002107980088
:1044f000030037006000b8001007980021079800fb
:104500006e4090000081fb0080b78400800178003d
:104510006e4090000080fb007c00b90080007800b5
:10452000c0382900808040008202780003027800b1
:104530001e019000ae0190000000eb00c5000700d6
:10454000c10037006e4090000080fb007c00b90085
:10455000f4004000c0382900008040001000be0078
:104560004e019000de01900001f607000000e0001f
:10457000b50035006e4090000080fb007c00b90063
:10458000f0004000c0382900008040001000be004c
:104590004e019000de019000f7f507000000e000fa
:1045a000a9003c006e4090000080fb007c00b90038
:1045b000fa004000c0382900008040001040780018
:1045c0000080fb0060079800ee019000e38f51002f
:1045d000450032006e009000e30f50000a003c00de
:1045e000ee009000e18f50001f0032006e0190003d
:1045f000e10f51002c003c00ee0190000300e000b0
:104600000e0032008d0037006e009000e50f500064
:104610004d003200ee009000e58f50003e00350066
:104620006e019000e60f510053003200ee01900041
:10463000e78f51005c003200800037006e40900030
:104640000080fb007c00b900f8004000c038290061
:1046500000804000100078004e019000de019000c4
:104660000288be00780037000200200003682400a2
:104670004e009000de009000b8f40700ebf4070055
:10468000000f78006e4090000080fb007c00b900b5
:10469000f8004000c0382900008040001000780079
:1046a0001e0878006800370002e02f00f36f240036
:1046b0004e009000de009000a8f40700dbf4070035
:1046c000000f78006e4090000080fb007c00b90075
:1046d000f8004000c0382900008040001000780039
:1046e0001e087800580037006e4090000080fb00e4
:1046f0007c00b900f8004000c0382900008040006c
:10470000100478004e009000de009000c7f407000f
:10471000000c78004c0037006e4090000080fb00d9
:104720007c00b900f8004000c0382900008040003b
:10473000100478004e009000de00900090f5070015
:10474000000c7800400037006e4090000080fb00b5
:104750007c00b900f8004000c0382900008040000b
:10476000100478004e009000de009000aff40700c7
:10477000004c7800340037006e4090000080fb0051
:104780007c00b900f8004000c038290000804000db
:10479000100478004e009000de00900078f50700cd
:1047a000004c78002800370002002000433324002a
:1047b0004e009000de0090006ff507000000e00062
:1047c00001003c00070037004e009000de00900022
:1047d00002002000433b240007f507004007980033
:1047e000510798004e009000de009000020020006b
:1047f0000330240059f40700020020004333240052
:10480000bbf4070040079800510798006e409000e5
:104810000080fb007c00b900f8004000c03829008f
:1048200000804000100478004e009000de009000f0
:104830007ef40700004c7800030037006000b800e9
:1048400010079800210798004f0478000080fa00b4
:10485000000006001801fa0060079900710799002e
:10486000020f9900130f9900240f9900350f99003a
:1048700064004700680f40009e0078007e009100b1
:104880000f000900b05878000101b1000001b1002b
:104890001e0078000e0991009e0991000208980000
:1048a000130898001e007800ae09910023089800b4
:1048b0001e007800be08910031089800e40047000f
:1048c00050c5b300a0409800e400470080c1b30089
:1048d000b0409800e400470060c1b300f040980089
:1048e00021a82000914078006400470051409800c2
:1048f00031a8200091407800640047006140980092
:104900006e00910029fe0700a04890006400470057
:10491000414098006e00910024fe0700800078005e
:1049200064004700404090000040e800a048980024
:1049300064004700304090000080fb00e50040002c
:104940006400470027000700100798001e00900031
:104950008040780064004700014878001e00900005
:104960004800de0080407800640047001140980055
:10497000e40047006e009100020007000080fa008a
:10498000000006000400fa00000f780011079800ec
:104990009e00900050c5b300a04098001e009000fb
:1049a0000080e80061002000983807001e00900099
:1049b000304090008080fb001e00900068004000a6
:1049c000923807001e00900010407800e73807007a
:1049d0001e00900010409000e43807000080fa00ac
:1049e000000006000a00fa0030079800410798000e
:1049f0003e009000630040001007980064004700ec
:104a0000e3fd07000000eb00000f7800090037000d
:104a10001e009000104178001e0090000000e80089
:104a200010079800e400470002407800adfd070041
:104a30001e0fe800400020009e0f1000f4ff34001d
:104a40003e00900068004000100798000900370001
:104a50001e009000104178001e0090000000e80049
:104a600010079800e4004700024078009dfd070011
:104a70001e0fe8004e0090009e0f1000f4ff35005e
:104a80002e0090000080fa00000006000400fa00ea
:104a9000004f78001147980082cabf009e4f500017
:104aa00003003a001000200010079800190037009a
:104ab000206f2900813807001e80fb004400de00c3
:104ac0000043b000a93807001e4078006f40600026
:104ad0000043b000a538070010712900773807009f
:104ae0001e4090000080fb004400de000043b00048
:104af0009e3807001e4090006f4060000043b000e9
:104b00009a380700507129006c3807000000eb004c
:104b1000100798001e0090000080fa0000000600b8
:104b2000d200fa00889fbe008a9fbe008c9fbe0004
:104b3000509f98005e989000704090000080fb00ad
:104b40006101b90042a7980053a7980020042000f3
:104b5000010020004ea39000dea39000800f5300c0
:104b6000818f5b0006033e004ea09000dea0900007
:104b700000600100420037000103370000033700e6
:104b8000ff023700fe023700fd023700fc0237004b
:104b9000fb023700fa023700f9023700a70037009e
:104ba000f7023700f6023700f5023700f40237004b
:104bb000f3023700f2023700f1023700f00237004b
:104bc000ef023700ee023700a0023700ec02370098
:104bd000ad023700ea023700e9023700e802370089
:104be000e7023700e6023700e5023700e40237004b
:104bf000e3023700e2023700e1023700e00237004b
:104c0000df023700de023700dd023700dc0237004a
:104c10003f0237003e01370019023700d802370043
:104c20001b013700c6013700f1013700d4023700fd
:104c3000a8013700d2023700d1023700d002370076
:104c4000cf023700ce023700cd023700cc0237004a
:104c5000cb023700ca023700c9023700c80237004a
:104c6000c7023700c6023700c5023700c40237004a
:104c7000c3023700c2023700c1023700010037000b
:104c800000000000ee0047005e989000aa040700b4
:104c90006e004700904090006e0047001040780082
:104ca0007aff07000004e000b50232000000eb00cc
:104cb000600798006e004700504090000004e0003c
:104cc00003003a000000eb0060079800070037007f
:104cd0006e00470050409000e14f5000a8023a009b
:104ce0006e00470010009000600798006e004700bb
:104cf000404090000080fb0030a79800bea09000cc
:104d0000e48f50003f0032003ea19000e40f5100bc
:104d100011003c00bea19000e18f51003000320034
:104d20003ea39000e10f530004003c00bea390009e
:104d30000700e00019003200400037003ea090005c
:104d4000e20f500029003200bea09000e38f500017
:104d500029003200390037003ea19000ea0f5100cf
:104d60002e003200bea19000ea8f510004003c00ea
:104d70003ea39000e60f5300250032002f003700bd
:104d8000bea39000eb8f5300270032003ea090009e
:104d9000ec0f500027003200280037006e00900012
:104da00087eab7006e00900089eab7006e009000b5
:104db00088eab7006e0090008aeab7006e009000a3
:104dc0008beab7006e0090008ceab7006e0090008e
:104dd0008deab7006e0090008eeab700170037002a
:104de0006e00900087eab700140037006e00900054
:104df00089eab700110037006e00900088eab7001a
:104e00000e0037006e0090008aeab7000b003700f2
:104e10006e0090008beab700080037006e0090002b
:104e20008ceab700050037006e0090008deab700ed
:104e3000020037006e0090008eeab700f4004700d1
:104e40005e9890002b04070074004700904090008b
:104e500074004700104078000cff07000004e000d9
:104e60004702320074004700204090000080fb00a1
:104e70006101b9000080eb008080eb00020140007e
:104e80008381480062a7980073a798002001200042
:104e9000010020006ea19000fea19000800f510043
:104ea000818f590036023e006ea39000fea3900051
:104eb000066001003202370031023700300237004d
:104ec0002f0237002e0237002d0237002c02370048
:104ed0002b0237002a023700290237002802370048
:104ee0002702370026023700050037002d00370063
:104ef00023023700550037002102370053003700e6
:104f000038d5bf000004e0001f00320010ef800021
:104f100001022000010060000000e0001a003200e1
:104f2000e0ec800001802000010060000000e00053
:104f300015003200e0ec8000700060000000e0002e
:104f400011003a00e0ec8000010220000100600046
:104f50000000e0000c003a00e0ec8000640060001b
:104f60000000e00008003a00e0ec8000680060000b
:104f70000000e00004003a00807129004f3707006c
:104f80009c9da800fe013700e0ec800070006000ee
:104f90000000e000fa013a003073290047370700ab
:104fa000f701370038d5bf000004e0001f003200d1
:104fb00010ef800001022000010060000000e0000e
:104fc0001a003200e0ec8000018020000100600047
:104fd0000000e00015003200e0ec8000700060008e
:104fe0000000e00011003a00e0ec80000102200027
:104ff000010060000000e0000c003a00e0ec8000de
:10500000640060000000e00008003a00e0ec80006e
:10501000680060000000e00004003a00007629000b
:10502000263707009cbda800d5013700e0ec8000c2
:1050300001022000010060000000e000d0013a0001
:10504000307329001d370700cd01370010ef8000b5
:1050500001022000010060000000e00009003200b1
:10506000e0ec800001802000010060000000e00012
:1050700004003200c077290010370700ff3e070008
:10508000bf013700607a29000c370700bc013700e8
:1050900010ef8000680060000000e00003003200b4
:1050a000807d290005370700b5013700507f2900b2
:1050b00002370700f80047005e9890008103070060
:1050c0009e5890000e58900070fe07000004e0000b
:1050d000ab0132005e9890005040900030fbb7006a
:1050e0005e9890006040900031fbb700161f0700eb
:1050f00012b321001241780001b3210091407800e1
:10510000800178000000eb002c0307009c013700b1
:1051100010812900e9360700fc0047005e989000e6
:105120001a030700de5890004e58900057fe070003
:105130000004e000920132007e089000010220008d
:105140008e804000801f780040822900801f7800f8
:105150000100780022ed0700e487570000022000dc
:105160000e004000d536070000bf20004007980021
:10517000eecbbf00e34f500005003a004e00900018
:10518000900090007e089000808f50000400320054
:10519000e0be2000020420008000eb0021ed0700ab
:1051a0007e089000e1be2000fc1e0700500798001a
:1051b0005e0090000000e00071013500de0090000c
:1051c0004e00900011009800ce00900010c0b30077
:1051d000f0409800ce0090000040eb00e0409800c6
:1051e0004e00900000139000901390004e0090002d
:1051f000600c9000f00c90004e009000400d90006c
:10520000d00d90004e009000200e9000b00e900047
:105210004e009000000990009009900012a798009d
:1052200023a798004e00900060019000f0019000cc
:105230004e00900040029000d00290004e0090007e
:10524000f04090004e0090006040900000c7990030
:105250004e00900050409000707f99004e009000ea
:1052600040409000607f99004e0090001000900038
:1052700000af980031dbbf00507f990030dbbf00ea
:10528000407f9900869fbe00889fbe008a9fbe0017
:105290008c9fbe001ea39000aea39000869fbe0010
:1052a000829fbe00849fbe00814378000ec39100a0
:1052b000fe7a91006e7a91008ea990005e7991003d
:1052c000ce7891000000eb003b020700fc875700fe
:1052d0002b01370090822900783607004103200017
:1052e0008e8040005e98900022020700400320005c
:1052f0000e00400090409000400320000e0040004f
:1053000010407800e1fd07000004e0001c013200bd
:10531000400320000e004000204090000004e00008
:105320000300320090832900643607000200370032
:105330000084290061360700e27da90010013700d2
:10534000408429005d360700810320008e804000e4
:105350005e989000db0207005e189000c1032000f9
:105360008e804000801f780040822900801f7800d6
:10537000010078009aec0700e4875700c003200082
:105380000e0040004d3607005e189000f053880074
:105390000040eb002efbb700f05380000000e0005f
:1053a0000b0034002edbbf000081fb005e989000f4
:1053b000604290005e989000d0409000820178009a
:1053c000044178000000eb00a8010700ec00370062
:1053d0005e989000604190005e989000d0409000f0
:1053e0008041eb000000eb005e010700e4003700a5
:1053f000f085290031360700010520008e8040002d
:105400005e9890004c010700000520000e0040004f
:1054100090409000000520000e00400010407800f1
:105420009afd07000004e000d50032000080eb0088
:10543000005488000000eb00f05388000000eb00ef
:10544000300798000a0037005e9890006041900095
:105450005e989000d04090008041eb000000eb008f
:10546000400107003e0090000000e800300798006f
:105470003e009000e20f5000f3ff3400c000370000
:10548000408729000d360700210520008e8040004e
:105490005e9890001c010700bed090002ed09000b6
:1054a0007afd07000004e000b50032002e289000cd
:1054b000f1538000810f5000b1003e002e28900073
:1054c000a61c0700200798002e28900061052000e8
:1054d0008e804000ae039000871f7800801f780008
:1054e000b0882900801f7800010078003cec07009c
:1054f000e6875700600520000e004000ef350700ea
:10550000ae0090000000eb00c50007009c003700d3
:1055100050892900e9350700610920008e8040008c
:105520005e989000b2000700600920000e00400065
:1055300090409000600920000e004000104078006c
:1055400052fd07000004e0008d00320060092000d9
:105550000e00400010009000a10620008e80400048
:10556000801f780040822900801f780001007800a9
:105570001bec0700e4875700a00620000e00400047
:10558000ce350700e0be2000020420008000eb00c2
:1055900024ec070030c0b300eeebb70030c0b3001e
:1055a000efebb700600920000e00400001bf2000b3
:1055b00023000900b05878004002b10060092000c3
:1055c0000e00400010009000e1be2000091f0700ff
:1055d0000000eb0000548800600920000e0040002d
:1055e000100090008000e800f0538000808f500091
:1055f00009003a009cbda8005e98900060419000b0
:105600005e989000d04090008041eb000000eb00dd
:10561000d40007005a003700600920000e00400047
:10562000100090000001e8005e9890006042900039
:105630005e989000d040900082017800044178008c
:105640000000eb00090107004d003700e1072000d2
:105650008e8040005e9890005a000700e00720000e
:105660000e00400090409000e00720000e00400037
:105670001040780005fd0700e14f500040003a005f
:10568000e25da8003e003700010820008e80400047
:105690005e9890003f000700000820000e004000c8
:1056a00090409000000820000e004000104078005c
:1056b000f6fc07000004e00003003a00a08a29007d
:1056c0007e3507002e003700000820000e00400045
:1056d0000080e800100798000000eb00000f780041
:1056e0000000eb00000f7800220037001e00780059
:1056f0007c00b90080007800c0382900008040009c
:1057000080007800f20020001e009000cceb070023
:105710000000e00016003a00000820000e004000e3
:1057200010099000a00990001e00780011c0b3007d
:10573000a7fa070010ef8000620060000000e000a0
:1057400003003a001e0078002ffbb700e23da800de
:10575000a2002000918d29001e009000b8eb0700e8
:105760000000e00002003200982907003e4ba8002c
:105770001e0fe80080b784009e0f1000dbff35008d
:105780004f06be004f05be004f04be000080fa0069
:10579000000006000400fa00000f780011079800ce
:1057a0001e007800e80040001e009000150009006f
:1057b000315878006001b1006101b1000080fa0049
:1057c000000006000400fa00000f7800110798009e
:1057d0001e007800e80040001e009000114878008c
:1057e00011419000124098000080fa00000006006d
:1057f0000400fa00000f7800110798001e007800de
:10580000e80040001e009000230009003158780095
:105810004002b1004102b1000080fa000000060021
:105820001001fa00600799007107990064004700b1
:10583000680f40001e007800fe009100010878000b
:10584000e400470050c5b300a0409800e4004700c2
:1058500020c0b300b0409800e4004700a0c2b300ed
:10586000f040980021a82000914078006400470093
:105870005140980031a82000914078006400470012
:10588000614098006e00910048fa0700a04890001f
:1058900064004700414098006e00910043fa070001
:1058a0008000780064004700404090000040e8001d
:1058b000a048980064004700304090000080fb0042
:1058c000e50040006400470046fc07001007980010
:1058d0001e00900080407800640047000148780076
:1058e0001e0090004800de00804078006400470001
:1058f00011409800e40047006e00910021fc070071
:105900000080fa00000006000400fa00000f780092
:10591000110798001e007800e80040001e0090006b
:1059200003000900315878004000b1004100b10087
:105930000080fa00000006000400fa00000f780062
:10594000110798001e007800e80040001e0090003b
:105950001148780011419000124098000080fa0030
:10596000000006001201fa0060079900614f9a00da
:10597000724f9a0003579a0064004700680f400076
:105980001e007800ee489200014878001e00780062
:10599000fe489200114098001e0078008e50920040
:1059a00021409800e400470050c5b300a040980093
:1059b000e400470030c0b300b0409800e400470066
:1059c000f0c2b300f040980021a820009140780078
:1059d000640047005140980031a8200091407800b1
:1059e00064004700614098006e009100eff90700e5
:1059f000a048900064004700414098006e0091006c
:105a0000eaf90700800078006400470040409000f9
:105a10000040e800a0489800640047003040900033
:105a20000080fb00e500400064004700edfb07003c
