:020000040000FA
:06000000AEEF18F0120043
:0600080004EF08F01200F5
:060018000CEF08F01200DD
:06100000AEEF18F0120033
:021006001200D6
:0610080080EF11F0120060
:02100E000000E0
:03101000000000DD
:06101800CBEF11F0120005
:02101E000100CF
:0C1020000E100000F204000005000000AB
:04102C00D9CFE6FF33
:10103000E1CFD9FFE652A098636A626A0F01266B7E
:10104000020EE66EE66AE66A270EE66E0F0EE66EA2
:1010500084EC18F0106E050EE15E10500F01160EB4
:10106000396F9F0E376F7B0E366FDF6ADF50106E61
:10107000116A0C0E105C000E115810E2DF50040DC6
:10108000F3CFE9FFF4CFEAFF000EE926040EEA22CF
:10109000EE6AEE6AEE6AEE6ADF2AE8D7658C0F0127
:1010A000386B6598659C62A607D062960001776BE5
:1010B0007C6B7D6B7E6BF7D70001010E906F916F9B
:1010C000926B936B846BDF6A030EDF5C26E2EA6A45
:1010D000DF34FE0BEA36E96E6D0EE926000EEA22D9
:1010E000EE6AED6AEA6ADF34FE0BEA36E96E670EF5
:1010F000E926000EEA22EE6AED6ADF50EA6A880FFE
:10110000E96E000EEA22EF6ADF50EA6A8B0FE96EA1
:10111000000EEA22EF6ADF2AD7D70001080E6D6FB2
:10112000040E6E6F0F01160E266F0401300E026F53
:10113000040E036F080E016F840E006F0001616BD7
:10114000606BE552E552E7CFD9FF1200D9CFE6FF39
:10115000E1CFD9FFE6520001600509E165BA07D089
:10116000626A0F01368136890001020E606F62509B
:10117000040B06E00F013651040B02E06294D3D851
:1011800065A202D0A1989AD06250010B0AE00F012B
:101190003651010B06E04ADFA0880001040E606FA3
:1011A00062906250100B06E00F013651100B02E006
:1011B000A4D8629862AC1AD00F0136AD0FD0010EE0
:1011C000E66EE66A000EE66EE66A730EE66EE66AA4
:1011D00028EC15F0106E060EE15E1050629C0001C6
:1011E0008E5101E08E078E5101E16DDB6250200BC4
:1011F00005E00F013651200B01E065D86250020B6B
:1012000014E00F013651020B10E0010EE66EE66AA3
:10121000000EE66EE66AE6687F0EE66E28EC15F0D4
:10122000106E060EE15E1050636A040E0001E76E58
:101230006019E8AE02D0E73402D0E750605D02E208
:10124000A1983CD00F0136A738D0DF6A040EDF5CCE
:1012500034E262A631D064CF85F000018551780B6D
:10126000E842E842E842866F629685B508D086512A
:10127000EA6A8B0FE96E000EEA22EF7007D0865102
:10128000EA6A880FE96E000EEA22EF70865102E1E9
:1012900062D810D0000EE66EE66A850EE66E000E8D
:1012A000E66E720EE66EE66A28EC15F0106E060E1B
:1012B000E15E1050DF2ACAD700D0A198E552E5526E
:1012C000E7CFD9FF12000F0126A115D063C0E9FFB7
:1012D00064C0EAFFEF5080080DE16DC0E9FF6EC009
:1012E000EAFFEF50840806E163C0E9FF64C0EAFF4B
:1012F0008C0EEF6E2691629A12000F01368562986D
:1013000065820001010E846F000EE66EE66AE66EED
:10131000E66A750EE66EE66A28EC15F0106E060EAB
:10132000E15E105012000001846B000EE66EE66A6A
:10133000E66EE66A740EE66EE66A28EC15F0106E4C
:10134000060EE15E105065920F01369562A402D040
:101350006294FCD71200D9CFE6FFE1CFD9FFE65265
:1013600000012D0E8E6FFD0E851553E17E0E851545
:10137000E8407F0B040DF3CF63F0F4CF64F0000E70
:101380006327040E642363C065F064C066F065756E
:1013900063C0E9FF64C0EAFFEF503C0BE842E8425B
:1013A0000D0835E1DF6A080EDF5C23E263C0E9FF68
:1013B00064C0EAFF020EE926000EEA22EE50EFCFEB
:1013C000EAFFE96EEF50E66EDF50EA6A300FE96E31
:1013D000040EEA22E552E750EF6E63C0E9FF64C0F5
:1013E000EAFF020EE926000EEA22EE2AEF22DF2AA9
:1013F000DAD763C0E9FF64C0EAFF020EE926000EF7
:10140000EA22300EEE6E040EED6E0DD801D03AD801
:1014100005D0FD0E8515040801E15AD8E552E552C4
:10142000E7CFD9FF12000001736B8F6B926B936B48
:10143000876B746B6DC0E9FF6EC0EAFFEF9E6D7540
:101440006DC0E9FF6EC0EAFFEF9E6D7565C0E9FFF4
:1014500066C0EAFFEF9E776B786B796B7C6B7D6B78
:101460007E6B93D8000EE66EE66AE66EE66A030EC1
:10147000E66EE66A28EC15F0106E060EE15E10507E
:10148000B5EF0DF0020E0001745D03E178EC0EF093
:101490001ED0746B87511AE165C0E9FF66C0EAFF90
:1014A000EE52080EEF6E65C0E9FF66C0EAFF020E5D
:1014B000E926000EEA22300EEE6E040EED6E65C0D7
:1014C000E9FF66C0EAFF8C0EEF6E01D0876B120059
:1014D000D9CFE6FFE1CFD9FFE6526DC0E9FF6EC07C
:1014E000EAFFEF50400B01E0010EDF6E00016D7569
:1014F000080E605D0CE132C438FF0F01385104E082
:101500000001100E606F03D00001040E606F7405BF
:1015100028E16DC0E9FF6EC0EAFF020EE926000E69
:10152000EA22380EEE6E040EED6E80DB020E000134
:10153000735D07E16DC0E9FF6EC0EAFF840EEF6ED8
:101540000FD0DF5007E16DC0E9FF6EC0EAFFC80EA3
:10155000EF6E06D06DC0E9FF6EC0EAFF880EEF6E39
:101560000FD07CAF0CD07F51801107E005D080C038
:10157000FAFF00017F51F96EFADF00017C9F746B66
:10158000E552E552E7CFD9FF120004013051600B5C
:10159000E842E842E842E842E842000901E059D066
:1015A00031510C0A55E00B0A44E00C0A36E0010AFE
:1015B00027E00B0A23E0020A21E0030A1DE0080AE3
:1015C00011E0010A0CE00F0A08E0030A01E040D034
:1015D0000001778F080E606F3CD006DA3AD018EC25
:1015E0000FF037D00001610E756F000E766F7781B6
:1015F000010E786F778F2DD057DA2BD02BD829D0CA
:1016000034510001756F766B620E7527000E7623DC
:101610007781010E786F778F1CD00001778F0401DE
:101620003451EA6A620FE96E000EEA2232C4EFFF1B
:1016300010D0000EE66EE66AE66EE66A020EE66E10
:10164000E66A28EC15F0106E060EE15E105001D02F
:1016500000D01200D9CFE6FFE1CFD9FF030EE1267B
:101660000401320510E130511F0B00090CE10001AB
:10167000778F030E0401315D04E10001010E836FD9
:1016800002D00001836B0401325101E012D13051CC
:101690001F0B020801E00DD134510F0B000901E1CD
:1016A00008D134510F0B020801E203D1200E0001D2
:1016B000605D01E0FED0778F040134BF1AD0345151
:1016C0000F0BE96EEA6AD890E936EA36670EE9262A
:1016D000000EEA22EECFDEFFEDCFDDFF34510F0B1F
:1016E000EA6A8B0FE96E000EEA22020EEFCFDBFFF3
:1016F00019D034510F0BE96EEA6AD890E936EA3610
:101700006D0EE926000EEA22EECFDEFFEDCFDDFF03
:1017100034510F0BEA6A880FE96E000EEA22020EBE
:10172000EFCFDBFFD950020FE96EDACFEAFFEF50BF
:10173000010B03E1000EDF9401D0DF8434BF10D031
:1017400034510F0BE96EEA6AD890E936EA36670E33
:10175000E926000EEA22DECFEEFFDDCFEDFF0FD04F
:1017600034510F0BE96EEA6AD890E936EA366D0E0D
:10177000E926000EEA22DECFEEFFDDCFEDFF030EFD
:10178000315D23E1DECFE9FFDDCFEAFFEF50800BD3
:1017900013E034BF09D034510F0BEA6A8B0FE96EA6
:1017A000000EEA22EF8208D034510F0BEA6A880F4C
:1017B000E96E000EEA22EF82840E106EDECFE9FFA2
:1017C000DDCFEAFF1050EF1274D0DF74DECFE9FFF7
:1017D000DDCFEAFFEF50800B1BE0DECFE9FFDDCF6E
:1017E000EAFFEF9EDECFE9FFDDCFEAFFEF8C020ECE
:1017F000E66EE66ADECFE6FFDDCFE6FF050EE66EBB
:10180000E66A28EC15F0106E060EE15E105005D069
:10181000DECFE9FFDDCFEAFFEF8CDF74D950020F96
:10182000E96EDACFEAFFEF50020B0EE1DECFE9FFFF
:10183000DDCFEAFFEF50800B34E0DECFE9FFDDCFF4
:10184000EAFFEF50040B2DE1040134BF09D03451FD
:101850000F0BEA6A8B0FE96E000EEA22EF9208D0B6
:1018600034510F0BEA6A880FE96E000EEA22EF92FC
:101870003B0E106EDECFE9FFDDCFEAFF1050EF1612
:10188000020EE66EE66ADECFE6FFDDCFE6FF050E6E
:10189000E66EE66A28EC15F0106E060EE15E10505A
:1018A00008D03B0E106EDECFE9FFDDCFEAFF10500F
:1018B000EF16030EE15C02E2E16AE552E16EE552E9
:1018C000E7CFD9FF1200000190514DE1010E906F5A
:1018D000915149E1010E916F020E745D0DE16DC0F1
:1018E000E9FF6EC0EAFFEE52EF6A6DC0E9FF6EC01D
:1018F000EAFFC80EEF6E37D0740535E1876B63C021
:10190000E9FF64C0EAFFEE52080EEF6E63C0E9FF24
:1019100064C0EAFF020EE926000EEA22300EEE6EE7
:10192000040EED6E63C0E9FF64C0EAFF840EEF6E43
:10193000010E876F65C0E9FF66C0EAFFEE52080E30
:10194000EF6E65C0E9FF66C0EAFF020EE926000EF1
:10195000EA22300EEE6E040EED6E65C0E9FF66C041
:10196000EAFF800EEF6E12000001926B936B020E85
:10197000745D1AE165C0E9FF66C0EAFFEE52080E29
:10198000EF6E65C0E9FF66C0EAFF020EE926000EB1
:10199000EA22380EEE6E040EED6E65C0E9FF66C0F9
:1019A000EAFFC80EEF6E1FD078510401365D0001CA
:1019B00079510401375904E236C478F037C479F01C
:1019C00035D96DC0E9FF6EC0EAFF020EE926000EB0
:1019D000EA22380EEE6E040EED6E6DC0E9FF6EC0A9
:1019E000EAFFC80EEF6E1200800E0401305D5BE16D
:1019F0000001C00E776F04013351030A34E0010A7D
:101A00000EE0030A03E00001776B4DD00001580E91
:101A1000756F2F0E766F120E786F796B44D032513E
:101A2000F66EF76AD890F636F736190EF626300EAF
:101A3000F7220900F5CF75F00A00F5CF76F0020E17
:101A40000001F76A7525F66E7651F7220800F5CF8A
:101A500078F0030EF76A7525F66E7651F7220800C6
:101A6000F5CF79F020D0030E325D1AE23251F66ED6
:101A7000F76AD890F636F7361B0EF626300EF722A8
:101A80000900F5CF75F00A00F5CF76F075C0F6FFC6
:101A900076C0F7FF0800F5500001786F796B02D02F
:101AA0000001776B00D01200D9CFE6FFE1CFD9FF5C
:101AB000020EE1260401386B396B30511F0B020A0C
:101AC00012E0030A0DE0010A01E03BD00001778F2C
:101AD000040138810001830502E10401388331D01B
:101AE0000001778F2ED00001778F040134BF10D012
:101AF00034510F0BE96EEA6AD890E936EA36670E80
:101B0000E926000EEA22EECFDEFFEDCFDDFF0FD09B
:101B100034510F0BE96EEA6AD890E936EA366D0E59
:101B2000E926000EEA22EECFDEFFEDCFDDFFDECFAD
:101B3000E9FFDDCFEAFFEF50040B02E0010E386F42
:101B400000D0000177AF07D0380E756F040E766FA6
:101B50007781020E786F020EE15C02E2E16AE552E3
:101B6000E16EE552E7CFD9FF12006598000177BF1B
:101B70002BD07CAF09D0020E746F935101E1F4DEDB
:101B80000001916B906B1FD065C0E9FF66C0EAFF52
:101B9000EE52080EEF6E65C0E9FF66C0EAFF020E66
:101BA000E926000EEA22300EEE6E040EED6E65C0E0
:101BB000E9FF66C0EAFF8C0EEF6E6DC0E9FF6EC0F4
:101BC000EAFF840EEF6E31D0040130AF0DD000017A
:101BD000010E746F925101E1C7DE0001916B906BB1
:101BE0008F5101E170DE21D00001020E746F65C0DB
:101BF000E9FF66C0EAFFEE52080EEF6E65C0E9FF2E
:101C000066C0EAFF020EE926000EEA22300EEE6EF2
:101C1000040EED6E65C0E9FF66C0EAFF840EEF6E4C
:101C2000916B906B8F5101E14EDE1200D9CFE6FF30
:101C3000E1CFD9FFE652080EDF6E0001785D000E9D
:101C400079590BE278C0DFFF735103E1010E736F26
:101C500004D0730502E1020E736FDF50106E116A3B
:101C60001050785D786F11507959796F6DC0E9FF28
:101C70006EC0EAFFEE52DFCFEFFF380E816F040E29
:101C8000826F77B119D0DF5016E075C0F6FF76C0CD
:101C9000F7FF752B000E76230800F550E66E81C025
:101CA000E9FF82C0EAFF812B000E8223E552E75054
:101CB000EF6EDF06E8D717D0DF5015E075C0E9FFFB
:101CC00076C0EAFF752B000E7623EF50E66E81C0DA
:101CD000E9FF82C0EAFF812B000E8223E552E75024
:101CE000EF6EDF06E9D7E552E552E7CFD9FF1200E4
:101CF000D9CFE6FFE1CFD9FF020EE12663C0E9FFAD
:101D000064C0EAFFEE52EFCFDFFFDFCF10F01050DC
:101D100000017D5D000E7E5902E27DC0DFFFDF50D5
:101D2000106E116A10507D5D7D6F11507E597E6F6F
:101D3000010EDB6ADF50F36E010EDBCFF4FFF350D0
:101D4000F45C16E2010EDB50EA6A380FE96E040E0D
:101D5000EA22EF50E66E7AC0E9FF7BC0EAFF7A2BF9
:101D6000000E7B23E552E750EF6E010EDB2AE2D72F
:101D7000000ED8807D55000E7E5528E265C0E9FF33
:101D800066C0EAFFEE52080EEF6E65C0E9FF66C05E
:101D9000EAFF020EE926000EEA22380EEE6E040E6D
:101DA000ED6E63C0E9FF64C0EAFFEF50400B07E14E
:101DB00065C0E9FF66C0EAFFC80EEF6E06D065C0D9
:101DC000E9FF66C0EAFF880EEF6E28D065C0E9FF24
:101DD00066C0EAFFEE52080EEF6E65C0E9FF66C00E
:101DE000EAFF020EE926000EEA22300EEE6E040E25
:101DF000ED6E65C0E9FF66C0EAFF840EEF6E7F51AD
:101E0000801107E005D080C0FAFF00017F51F96E14
:101E1000FADF00017C9F8F5101E155DD020EE15C8C
:101E200002E2E16AE552E16EE552E7CFD9FF120026
:101E3000D9CFE6FFE1CFD9FFE6520001778F020E3E
:101E4000E66EE66AE66A270EE66E0F0EE66E84EC34
:101E500018F0106E050EE15E1050DF6ADF50106E54
:101E6000116A0C0E105C000E115810E2DF50040DC8
:101E7000F3CFE9FFF4CFEAFF000EE926040EEA22D1
:101E8000EE6AEE6AEE6AEE6ADF2AE8D7658C010E2A
:101E9000E66EE66AE66A620EE66E000EE66E84ECB8
:101EA00018F0106E050EE15E1050659C0001080EE2
:101EB0006D6F040E6E6F000E636F040E646F63C06F
:101EC00065F064C066F032C461F0615103E1100E48
:101ED000606F13D0010EE66EE66A610EE66E000ECC
:101EE000E66E010EE66EE66A28EC15F0106E060E40
:101EF000E15E10500001200E606FE552E552E7CF21
:101F0000D9FF1200D9CFE6FFE1CFD9FF020EE126BB
:101F1000000EDE6E040EDD6EFD0EDB50E824126E48
:101F2000FE0EDB50040DF3501224040DF3CF10F01D
:101F3000F4CF11F0D9CFE9FFDACFEAFF1050EE2647
:101F40001150ED22DECFE9FFDDCFEAFFEF9EFD0E5F
:101F5000DB500FE1FE0EEA6ADB34FE0BEA36E96E77
:101F6000670EE926000EEA22DECFEEFFDDCFEDFFA1
:101F70000ED0FE0EEA6ADB34FE0BEA36E96E6D0E19
:101F8000E926000EEA22DECFEEFFDDCFEDFFDECF49
:101F9000E9FFDDCFEAFFEF9CDECFE9FFDDCFEAFF0F
:101FA000040EE926000EEA22EF8C020EE15C02E24A
:101FB000E16AE552E16EE552E7CFD9FF1200D9CFD1
:101FC000E6FFE1CFD9FF020EE126FD0EDBA407D02C
:101FD000E66AFE0EDBCFE6FF95DFE552E552FD0E29
:101FE000DBA208D0010EE66EFE0EDBCFE6FF8ADF35
:101FF000E552E552FE0EDB50116A260F106E0F0EF1
:10200000112210C0DEFF11C0DDFFDECFE9FFDDCF02
:10201000EAFFFD0EDBCFEFFF020EE15C02E2E16AB8
:10202000E552E16EE552E7CFD9FF1200D9CFE6FFC6
:10203000E1CFD9FF020EE126FE0EDB5020E165C0A4
:10204000E9FF66C0EAFFEE52080EEF6E65C0E9FFD9
:1020500066C0EAFF020EE926000EEA22300EEE6E9E
:10206000040EED6E65C0E9FF66C0EAFF8C0EEF6EF0
:102070006DC0E9FF6EC0EAFF840EEF6E3DD0FD0E2D
:10208000DB50E824126EFE0EDB50040DF3501224D8
:10209000040DF3CF10F0F4CF11F0000E1026040E53
:1020A000112210C0DEFF11C0DDFF840E106EDECFE6
:1020B000E9FFDDCFEAFF1050EF12FD0EDB50E82400
:1020C000126EFE0EDB50040DF3501224010F040DAE
:1020D000F3CF10F0F4CF11F0000E1026040E1122F1
:1020E00010C0DEFF11C0DDFF840E106EDECFE9FFF1
:1020F000DDCFEAFF1050EF12020EE15C02E2E16A6E
:10210000E552E16EE552E7CFD9FF1200D9CFE6FFE5
:10211000E1CFD9FF020EE126FD0EDB500FE0FE0EEF
:10212000EA6ADB34FE0BEA36E96E6D0EE926000E34
:10213000EA22EECFDEFFEDCFDDFF0ED0FE0EEA6A23
:10214000DB34FE0BEA36E96E670EE926000EEA2262
:10215000EECFDEFFEDCFDDFFD9CFE9FFDACFEAFF2B
:10216000EE50ED1003E1F36AF46A49D0DECFE9FFE7
:10217000DDCFEAFF020EE926000EEA22FB0EDBCFDE
:10218000EEFFFC0EDBCFEDFFDECFE9FFDDCFEAFF98
:10219000EE52FA0EDBCFEFFF400E106EDECFE9FFFE
:1021A000DDCFEAFF1050EF16880E106EDECFE9FF8C
:1021B000DDCFEAFF1050EF12FD0EDB500CE0FE0EFB
:1021C000EA6ADB34FE0BEA36E96E6D0EE926000E94
:1021D000EA22EF740BD0FE0EEA6ADB34FE0BEA361D
:1021E000E96E670EE926000EEA22EF74DECF10F0EA
:1021F000DDCF11F010C0F3FF11C0F4FF00D0020ECC
:10220000E15C02E2E16AE552E16EE552E7CFD9FF17
:102210001200D9CFE6FFE1CFD9FF65A84ED0FE0E60
:10222000EA6ADB34FE0BEA36E96E6D0EE926000E33
:10223000EA22EE50EFCFEAFFE96E400EEE16EE6AAC
:10224000EE6AEE6AFE0EEA6ADB34FE0BEA36E96EEF
:102250006D0EE926000EEA22EE50EFCFEAFFE96E9E
:10226000EE7CFE0EEA6ADB34FE0BEA36E96E6D0E9A
:10227000E926000EEA22EF74400E106EFE0EEA6AA6
:10228000DB34FE0BEA36E96E6D0EE926000EEA221B
:10229000EE50EFCFEAFFE96E1050EF16FE0EEA6A3D
:1022A000DB34FE0BEA36E96E6D0EE926000EEA22FB
:1022B000EE50EFCFEAFFE96EEF7CE552E7CFD9FFB2
:1022C0001200656A0F01366B0001606B00D01200CE
:1022D0000001605114E1656A0F01366B160E396F0B
:1022E0009F0E376F7B0E366FD08EA288A088F28E3D
:1022F00065B602D06586FCD70001010E606F120042
:10230000DACFE4FFE2CFDAFFE9CFE4FFEACFE4FF80
:10231000F6CFE4FFF7CFE4FFF5CFE4FFF3CFE4FF20
:10232000F4CFE4FFFACFE4FF00EE00F0100EE80473
:1023300003E3EECFE4FFFBD700EE10F0080EE80455
:1023400003E3EECFE4FFFBD7E652A6EC08F0E5523C
:1023500000EE17F0080EE80403E3E5CFEDFFFBD72E
:1023600000EE0FF0100EE80403E3E5CFEDFFFBD71E
:10237000E5CFFAFFE5CFF4FFE5CFF3FFE5CFF5FFBB
:10238000E5CFF7FFE5CFF6FFE5CFEAFFE5CFE9FFC1
:10239000E5CFDAFF1100D8CFE4FFE0CFE4FFE46E31
:1023A000DACFE4FFE2CFDAFFE9CFE4FFEACFE4FFE0
:1023B000E6529EAA17D0ACA205D0AC98AFCF92F14E
:1023C000AC8802D0AFCF92F10401F251EA6A820FD9
:1023D000E96E010EEA2292C1EFFFF22BF2510F08D3
:1023E00001E2F26BE552E5CFEAFFE5CFE9FFE5CF89
:1023F000DAFFE550E5CFE0FFE5CFD8FF100005D8C4
:1024000068EC11F004DAFED71200D9CFE6FFE1CF75
:10241000D9FF020EE1260F0EC112580EDE6E020E1B
:10242000DD6E9B8CDFCF10F0DF06010EDBCF11F0ED
:1024300001E2DB061050111001E0F4D70F01FC0E91
:10244000486F49690CD816EC08F0020EE15C02E214
:10245000E16AE552E16EE552E7CFD9FF1200D9CF2C
:10246000E6FFE1CFD9FFE6521CD8DF6ADF50106EDD
:10247000116A410E105C000E115809E2DF50EA6A41
:10248000000FE96E010EEA22EF6ADF2AEFD70101A1
:10249000D56BD66BD86BD96BE552E552E7CFD9FF38
:1024A0001200D9CFE6FFE1CFD9FFE652948E949C7B
:1024B000240EAD6E900EAC6E710EB06E020E7F6E7D
:1024C0009D8A9F9AF28C380E7E6EAF50DF6EE55279
:1024D000E552E7CFD9FF1200D9CFE6FFE1CFD9FF10
:1024E000FE0EDB50AE6EE552E7CFD9FF1200D9CF1A
:1024F000E6FFE1CFD9FF220EE126D880800E04014D
:102500004055840E41551E0E4255000E435501E2C2
:102510005FD140C4C8F441C4C9F442C4CAF443C43E
:10252000CBF4146A1B0E156EB70E166E176A14C024
:1025300004F015C005F016C006F017C007F0C8C4B7
:1025400009F0C9C40AF0CAC40BF0CBC40CF060ECAB
:1025500018F004C010F005C011F006C012F007C05A
:1025600013F01006000E115A125A135A10C0DFFF52
:10257000010E11C0DBFF020E12C0DBFF030E13C001
:10258000DBFF010E146E156A166A176AD9CFE9FFD0
:10259000DACFEAFFEE501426EE501522EE50162246
:1025A000EE501722106A1B0E116EB70E126E136AD0
:1025B00010C004F011C005F012C006F013C007F0FF
:1025C00014C009F015C00AF016C00BF017C00CF0CB
:1025D00060EC18F0100E04C0DBFF110E05C0DBFF2D
:1025E000120E06C0DBFF130E07C0DBFFD950100F21
:1025F000E96EDACFEAFF0401C851EE5C106EC951F2
:10260000EE58116ECA51EE58126ECB51EE58136E41
:10261000080E10C0DBFF090E11C0DBFF0A0E12C04E
:10262000DBFF0B0E13C0DBFF106A1B0E116EB70E23
:10263000126E136A10C004F011C005F012C006F04B
:1026400013C007F0C8C409F0C9C40AF0CAC40BF02B
:10265000CBC40CF060EC18F0040E04C0DBFF050ED8
:1026600005C0DBFF060E06C0DBFF070E07C0DBFF61
:10267000010E146E156A166A176AD950040FE96EB6
:10268000DACFEAFFEE501426EE501522EE50162255
:10269000EE501722106A1B0E116EB70E126E136ADF
:1026A00010C004F011C005F012C006F013C007F00E
:1026B00014C009F015C00AF016C00BF017C00CF0DA
:1026C00060EC18F0140E04C0DBFF150E05C0DBFF34
:1026D000160E06C0DBFF170E07C0DBFFD950140F24
:1026E000E96EDACFEAFFEE500401C85D106EEE50DD
:1026F000C959116EEE50CA59126EEE50CB59136E75
:102700000C0E10C0DBFF0D0E11C0DBFF0E0E12C051
:10271000DBFF0F0E13C0DBFF0C0EDBCF10F00D0E36
:10272000DBCF11F00E0EDBCF12F00F0EDBCF13F06C
:10273000D950080FE96EDACFEAFFEE50105CEE5088
:102740001158EE501258EE50135838E2D9CFE9FF25
:10275000DACFEAFF040EDBCFEEFF050EDBCFEEFF94
:10276000060EDBCFEEFF070EDBCFEEFFD950140FC6
:10277000E96EDACFEAFF100EEECFDBFF110EEECFDF
:10278000DBFF120EEECFDBFF130EEECFDBFFD950D7
:102790000C0FE96EDACFEAFF080EEECFDBFF090E71
:1027A000EECFDBFF0A0EEECFDBFF0B0EEECFDBFF33
:1027B0002D0EF36E210EF3CFDBFF05D0200EF36E4E
:1027C000180EF3CFDBFFDF50B06E010EDB507F6ED3
:1027D000220EE15C02E2E16AE552E16EE552E7CFEA
:1027E000D9FF1200D9CFE6FFE1CFD9FFE652ACA264
:1027F00005D0AC98AF50DF6EAC8802D0AF50DF6E22
:10280000DF5000D0E552E552E7CFD9FF1200D9CF13
:10281000E6FFE1CFD9FF020EE126BBD8200E000172
:10282000E76E6019E8AE02D0E73402D0E750605D91
:1028300003E36550020B01E0A2D00401F45115E15D
:10284000400EE66E410EE66E010EE66EFDEC15F0F2
:10285000E552E552E5520101D66FD651000805E276
:102860000401010EF46F0101D76B0401F45115E06E
:102870009E50100B12E00101D751EA6A410FE96E38
:10288000010EEA22EF50E66E27DEE5520101D72B5A
:10289000D651D75D02E10401F46B0401F351F25DFE
:1028A00027E03F0E0101D55D23E20401F351EA6AFE
:1028B000820FE96E010EEA22EF50E66E0101D5515A
:1028C000EA6A000FE96E010EEA22E552E750EF6E68
:1028D000D52B0401F32BF3510F0801E2F36B010137
:1028E000D551EA6A000FE96E010EEA22EF6AD5D7E8
:1028F0000101D351D4112DE0DE6ADD6A3F0ED55DB2
:1029000026E2D351D41123E0DECFE9FFDDCFEAFF89
:10291000930EE926010EEA22EF50E66ED551EA6ADF
:10292000000FE96E010EEA22E552E750EF6ED52B5B
:10293000DF2A010E01E3DB2AD307000ED45BD55159
:10294000EA6A000FE96E010EEA22EF6AD7D7D36B6D
:10295000D46B0401D05111E10101D55100080DE201
:10296000D5C1E6FF000EE66E010EE66E5EEC16F0D7
:10297000E552E552E5520101D56B02EC17F0020E6B
:10298000E15C02E2E16AE552E16EE552E7CFD9FF90
:1029900012000401F551F61104E1100EF56F270E37
:1029A000F66FF507000EF65B65A205D0F551F6113E
:1029B00001E100D01FD00001605101E11BD0600592
:1029C00001E118D0020E605D01E114D0040E605DDB
:1029D00001E110D0100E605D05E10401F551F61122
:1029E00000E108D0200E605D05E10401F551F6110B
:1029F00001E100D01200120012001200120077EF65
:102A000015F01200CAEF15F00001830520E1000166
:102A100084051DE1A098F0DF65920001846B01013F
:102A2000100EDA6F0E0EDB6FDA07000EDB5BDA5189
:102A3000DB11FAE16584080EDA6F070EDB6FDA0747
:102A4000000EDB5BDA51DB11FAE16594A08812001D
:102A5000D9CFE6FFE1CFD9FFFD0EDBCF06F0FE0EAA
:102A6000DBCF07F0050E061801E1075039E0E868F2
:102A7000061802E17F0E071831E0030E061801E187
:102A800007502AE0020E061801E1075023E0010E6C
:102A9000061801E107501CE0740E061801E107500A
:102AA00015E0750E061801E107500EE0730E0618CA
:102AB00001E1075007E0720E061801E1075001E03E
:102AC00010D00FD09ADF0DD096DF0BD095DF09D054
:102AD00099DF07D096DF05D092DF03D08FDF01D0DA
:0E2AE00000D0010E00D0E552E7CFD9FF120062
:022AEE000401E1
:102AF00030511F0B010801E04CD03051600BE8420F
:102B0000E842E842E842E842010801E042D034519C
:102B100003E0340501E03DD03151220A35E0030ADB
:102B200028E0010A17E0210A0EE0010A01E031D095
:102B30000001E00E756F040E766F080E786F796BEA
:102B40007781778F26D00001E00E756F040E766FC7
:102B5000778F1FD036C47DF037C47EF00001400E61
:102B60007A6F040E7B6FEE0E7F6F240E806F7C8F6A
:102B700010D00001C80E756F040E766F070E786FC7
:102B8000796BC10E776F05D032C4DBF40001778F0B
:102B900000D012000401C86B4B0EC96FCA6BCB6B1F
:102BA000CC6BCD6B080ECE6FCF6B1A0EE66E010E9E
:102BB000E66EDFEC0FF0E552E5521E0EE66E020EF9
:102BC000E66EDFEC0FF0E552E552400EE66E480E81
:102BD000E66E040EE66EE66A020EE66E86EC10F015
:102BE000106E050EE15E1050F3CFD7F4F4CFD8F499
:102BF0000401D96BDA6BD06B1200D9CFE6FFE1CFBD
:102C0000D9FF0401CF6BD751D81102E1000E08D0D3
:102C1000D7C4E9FFD8C4EAFFEF50800B01E0010EF2
:102C2000000945E1FC0EDBCF10F0D7C4E9FFD8C4A2
:102C3000EAFFEE52EF50D880105408E2D7C4E9FF03
:102C4000D8C4EAFFEE52FC0EEFCFDBFFCF6BFC0ED9
:102C5000DB50CF5D19E2CF51EA6A480FE96E040EEE
:102C6000EA22EF50E66ECF51E76EFD0EDBCFE9FFB3
:102C7000FE0EDBCFEAFFE750E926000EEA22E5521E
:102C8000E750EF6ECF2BE3D7400EE66E480EE66EB0
:102C9000040EE66EE66A020EE66E86EC10F0106E2A
:102CA000050EE15E1050F3CFD7F4F4CFD8F4040151
:102CB000CF5100D0E552E7CFD9FF1200D9CFE6FFC0
:102CC000E1CFD9FFA0980401D0510CE1FD0EDBCF7C
:102CD000D1F4FE0EDBCFD2F4FC0EDBCFD5F4010E27
:102CE000D66FD06FA088E552E7CFD9FF1200D9CFB9
:102CF000E6FFE1CFD9FF030EE126A0980401D051F1
:102D000002E0A0882FD0DF6AFD0EDBCF06F0FE0EBA
:102D1000DBCF07F0DE5206C0DEFF07C0DDFFDD526D
:102D2000DF2ADF50106E116AFF0E101801E11150FA
:102D300001E10BD0010EDBCFE9FFDB2A020EDBCF76
:102D4000EAFF01E3DB2AEF50EBE1FD0EDBCFD1F42C
:102D5000FE0EDBCFD2F4DF040401D56F010ED66F77
:102D6000D06FA088030EE15C02E2E16AE552E16EF9
:102D7000E552E7CFD9FF1200D9CFE6FFE1CFD9FF67
:102D8000030EE126A0980401D05102E0A08830D0C3
:102D9000DF6AFD0EDBCF06F0FE0EDBCF07F0DE5262
:102DA00006C0DEFF07C0DDFFDD52DF2ADF50106EF8
:102DB000116AFF0E101801E1115001E10CD0010E53
:102DC000DBCFF6FFDB2A020EDBCFF7FF01E3DB2AC6
:102DD0000800F550EAE1FD0EDBCFD1F4FE0EDBCFAB
:102DE000D2F4DFCFD5F40401D66B010ED06FA088EA
:102DF000030EE15C02E2E16AE552E16EE552E7CFE3
:102E0000D9FF1200D9CFE6FFE1CFD9FF020EE126AC
:102E1000A0980401D951DA1102E1000E08D0D9C4FA
:102E2000E9FFDAC4EAFFEF50800B01E0010E000970
:102E300002E0A08887D0030ED05D01E1D06BD051B5
:102E400002E1A0887FD0020ED05D16E1E66A000E96
:102E5000E66EE66A010EE66E020EE66E86EC10F095
:102E6000106E050EE15E1050F3CFD9F4F4CFDAF412
:102E70000401030ED06F65D0D00563E1400E106EE3
:102E8000116AD551105C000E115803E2400EDF6E3E
:102E900002D0D5C4DFFFDF50D55DD56F880ED36F6C
:102EA000040ED46F010EDFCFDBFFD65117E1010E08
:102EB000DB5013E0D1C4F6FFD2C4F7FF0800F55091
:102EC000D3C4E9FFD4C4EAFFEF6ED32B000ED423A2
:102ED000D12BD223010EDB06EAD715D0010EDB5031
:102EE00012E0D1C4E9FFD2C4EAFFEF50D3C4E9FF36
:102EF000D4C4EAFFEF6ED32B000ED423D12BD22300
:102F0000010EDB06EBD7D55108E1400EDF5C03E193
:102F1000020ED06F02D0030ED06FDFCFE6FF880E17
:102F2000E66E040EE66E010EE66E020EE66E86ECAE
:102F300010F0106E050EE15E1050F3CFD9F4F4CF0F
:102F4000DAF4A088020EE15C02E2E16AE552E16E89
:082F5000E552E7CFD9FF1200A2
:082F5800120100020200000852
:102F6000D8040A0000010102000109024300020125
:102F700000C0C8090400000102020100052400107D
:102F800001042402020524060001052401000107B2
:102F900005810308000209040100020A000000077D
:102FA00005020240000007058202400000040309F8
:102FB0000434034D006900630072006F0063006811
:102FC0000069007000200054006500630068006E16
:102FD000006F006C006F0067007900200049006EF0
:102FE0000063002E003403430044004300200052DD
:102FF0000053002D00320033003200200045006DE8
:103000000075006C006100740069006F006E0020A4
:1030100000440065006D006F006A2FAD2FB12FE5F1
:013020002F80
:0E3022001E0EF66E100EF76E000EF86E040114
:103030000900F550ED6F0900F550EE6F03E1ED6703
:1030400001D03DD00900F550E86F0900F550E96F57
:103050000900F550EA6F09000900F550E96E090012
:10306000F550EA6E090009000900F550EB6F090000
:10307000F550EC6F09000900F6CFEFF4F7CFF0F44C
:10308000F8CFF1F4E8C4F6FFE9C4F7FFEAC4F8FFAB
:103090000401EB5302E1EC5307E00900F550EE6E3A
:1030A000EB07F8E2EC07F9D7EFC4F6FFF0C4F7FF3F
:1030B000F1C4F8FF0401ED07000EEE5BBFD712006C
:1030C000036A026A016A006A200EE76ED89004362D
:1030D0000536063607360036013602360336095005
:1030E000005C0A5001580B5002580C50035809E379
:1030F0000950005E0A50015A0B50025A0C50035AF4
:08310000042AE72EE4D71200B7
:08310800FE0EE3CFE9FFFF0E0C
:10311000E3CFEAFFE9CFF3FFEACFF4FFFB0EE35082
:1031200003E1FC0EE35009E0FB0EE30602E2FC0EB5
:0C313000E306FD0EE350EE6EF1D7120036
:04313C00C00EF36E60
:1031400000EE00F00E0E01D81200EA6002D0EE6A26
:0C315000FCD7F350E9601200EE6AFCD7D7
:04315C001DEE00F074
:103160002DEE00F0F86A0F9C11EC18F003EC08F05B
:08317000FFEC11F0FBD7120087
:01FFF800AA5E
:01FFF900F710
:01FFFA001DE9
:01FFFB00FF06
:01FFFC0063A1
:01FFFD00F80B
:01FFFE008181
:01FFFF00F110
:00000001FF
