:020000040000fa
:080000000002040000000000f2
:020000040000fa
:100400000f902200005f270000018800000000001c
:100410000c000700c0a0210001002000110007000f
:10042000000020000000e000020032000000020096
:1004300000000000d8ae0200000000000040da001a
:100440000000fe004440a900006820000000e00019
:100450000300320000002000a00188004440a800f2
:100460000000060091018800800078000000eb0089
:1004700015003700e280400032a0b4009101ba00bc
:10048000e280400032a0b4009102ba00e280400055
:1004900032a0b4000002eb00472bde00f507b200eb
:1004a000602ce10004003a000059eb008301e900f0
:1004b000fdff3e00040037006128e100010032002a
:1004c0000082eb00040007001101ba000200e00006
:1004d000e8ff3a00000006003159ba008301e90044
:1004e0000c0032002159ba008301e90008003200f3
:1004f0000400e00003003a00e280400032a0b400b3
:10050000f5ff370011d9ba008301e900faff3a007c
:100510008100e800e180400032a0b4000000060045
:100520005878040000000000e050040000000000c3
:10053000f055040000000000d89f040000000000f7
:10054000f49f040000000000c69f040000000000ab
:1005500004a00400000000001aa004000000000035
:1005600062a004000000000098a004000000000049
:10057000d0a0040000000000f6a00400000000006d
:10058000108c040000000000188c04000000000023
:10059000568c040000000000c08c04000000000025
:1005a000068d040000000000488d040000000000db
:1005b000928d040000000000405e04000000000076
:1005c000e402040000000000881f780002047800a4
:1005d0002d000700080040004f04780000000600ce
:1005e0000000fa00881f7800000478003fb99700e7
:1005f000ea81570080007800402e20002900070083
:10060000800078000000e000020035000040eb00b0
:1006100000f47800010078004f0478000080fa00b0
:10062000000006008001eb000200370081717800b5
:100630008301e800828f5100fcff3a0000000600b1
:10064000000278000000eb000b00370094417800b6
:1006500091cf5100030032000080eb000900390007
:10066000100005000000e8000304e0000400320070
:100670000402e8008100e800820f5000f3ff3a0016
:100680000000eb00000006008001eb0002003700d4
:1006900061f079008301e800828f5100fcff3a008d
:1006a000000006006200fa00889fbe008a9fbe001c
:1006b0000004be00020578008300780060f92f0076
:1006c0000f004000b000070088979f0099979f0097
:1006d0000000eb00a09f9f009a4578000b80fb0074
:1006e0000000ea00cf04de0050c2b30080cf550006
:1006f0000200320009047800010037000904e90013
:100700000800e0000b0034001f90970008017800fb
:100710008a0078008f9197000300010090979f0056
:100720000000e000930032002f9897000000440082
:10073000a09f9f000905450050c2b30080cf55001f
:10074000040032000b04e000e3ff3a002f9897000a
:10075000890037000000eb00809f9f00f0979f000a
:10076000e0979f00d0979f00c0979f00b0979f0091
:10077000c09f9f0009003700607c2100008050006e
:1007800000004000a17b2100e10078004f98970015
:1007900001007000c09f9f000a05e8001a4478001d
:1007a0008800fb00607c21007c000700800078004e
:1007b0000000e000f0ff3a00a0c2b300804f5400f8
:1007c0000e003a00bf8897000180e900b08f9f00bb
:1007d00010007800b09f9f000000e00005003d0081
:1007e0000000ea00b09f9f004f9897000020a000f3
:1007f000c09f9f000a05e80010003700b19f9f00ce
:1008000003fd2f00f4ff2700080037003f989700f2
:10081000840f5000040032006a00b900000041005b
:1008200003004000b09f9f000a05e8001a01fb008a
:1008300003004100e90f5000f4ff3600e0c2b300ae
:100840009a4f1000040032000080eb00909f9f0040
:100850008a0478001c0037008a04e800a0c2b300b4
:10086000994f100007003a00bf8897000180e90007
:10087000b08f9f0010007800909f9f008a84e8004e
:10088000110037000000eb00909f9f0003fd2f0038
:10089000f4ff2700080037001f989700840f5000ce
:1008a000040032006a00b90000004100030040006b
:1008b000909f9f008904e8001901fb00030041009c
:1008c000e90f5000f4ff3600194478008800fb005f
:1008d000006c2700310007000000e00002003a0031
:1008e00000447800010037008904e800a87f9f00d9
:1008f00080c6b300804f540004003a00994f1400a2
:100900000a003a006640500006003700c0c6b30037
:10091000804f540005003a00994f140003003a003c
:1009200065404000a07f9f008904e8000905e800b9
:10093000cbfb2f008f8545001901fb0060f92f00cc
:100940000f0040000084e8008b01780080007800f0
:10095000080078001a0007000000e00005003a00d7
:100960008b00780008007800580107000000e000c4
:1009700059ff3d000080eb004f05be004f04be0054
:100980000080fa00000006000200fa00f1bf9f009c
:10099000010878000080fa0000000600040037001b
:1009a0000204e00001003a00000005000000e80039
:1009b00010417800814f5100f9ff3a000000060015
:1009c000889fbe008a1f780000047800010278002a
:1009d0008244780003057800e0c6b300804f5100e0
:1009e000d200320015003c006b405000804f510097
:1009f000240032000a003c0070405000804f51003b
:100a00000f01320065404000804f510074003200f9
:100a100050c2b300804f510020013a001c01370042
:100a200040c6b300804f51001b00320065404000bb
:100a3000804f510019013a001700370030c7b3004a
:100a4000804f5100fe00320007003c00644050001f
:100a5000804f5100620032000040e800804f51009a
:100a60000e013a00e700370050c7b300804f510035
:100a70005b00320063404000804f510007013a00a4
:100a8000570037009180e900010a78007800900053
:100a90009171780007013700a8609000c0c6b300cc
:100aa00080cf50000a003a00940078006480500023
:100ab000000a78001000be004f89de00cf91de00f2
:100ac0000002be00020378008203780013003700a2
:100ad00010c7b30080cf500003003200a0c6b3009f
:100ae00080cf500006003a009400780068805000e3
:100af000000a78003002be002003be000700370065
:100b00001480e900000a78001000780000027800e4
:100b1000cfa2de000503780086037800049cbe00a7
:100b20000694be00a860900080c6b30080cf50003d
:100b30000e00320020c6b30080cf500005003a00fe
:100b40000400fb00cf80de00010178008201780004
:100b50000a00370040c7b30080cf500003003200c6
:100b60006640400080cf500006003a000400780044
:100b7000cf80de000101780082017800009cbe0079
:100b80000294be003800be002801be00e00f5000f5
:100b9000e08f5800e00f5900e08f590003003d003e
:100ba00078009000d1c2b3000a003700081090000e
:100bb0000018a3000300320078009000b1c2b30017
:100bc000040037000008a3005300320078009000b2
:100bd00001c2b300017578000000e8004d00370045
:100be000a8609000c0c6b30080cf500006003a0055
:100bf0009400780064805000000a78001002be0063
:100c00006033b8001300370010c7b30080cf500026
:100c100003003200a0c6b30080cf500006003a00a7
:100c20009400780068805000000a78003002be000e
:100c30002003be00070037001480e900000a780096
:100c40001000780000027800050020000600200057
:100c500007002000049cbe000694be00a86090001f
:100c600080c6b30080cf50000e00320020c6b30013
:100c700080cf500005003a000480fb0001002000f6
:100c800002002000030020000a00370040c7b30024
:100c900080cf5000030032006640400080cf5000fb
:100ca00006003a0004007800010020000200200045
:100cb00003002000009cbe000294be0008109000bb
:100cc0000038a300140032003800be002801be0026
:100cd000e00f5000e08f5800e00f5900e08f5900fe
:100ce0000d00320080c7b30080cf540003003200f3
:100cf00080c5b30080cf540007003a007800900010
:100d000001c3b300017578008000e80009f57800a0
:100d10000080e80070049800780090000000450012
:100d2000600498008940780042003700a860900075
:100d3000c0c6b30080cf5000250032000a003c003e
:100d40006440500080cf50002800320000c0e8000e
:100d500080cf5000140032006840500080cf500017
:100d600022003a000a00370040c7b30080cf50008d
:100d70001e0032006640400080cf50001b00320051
:100d80006940500080cf500018003a00060037003c
:100d90001480e900000a780010007800485c900098
:100da00008487800450037001480e900000a780000
:100db0001002780068089000cf80de000101780002
:100dc00082017800009abe000292be003b0037000c
:100dd0001480e900000a780010017800680890008b
:100de000cf80de000089be00340037001480e900a7
:100df000000a780010007800680c9000080878005d
:100e00002e0037001180e90080087800100078007b
:100e1000cf80de000101780082017800009cbe00d6
:100e20000294be0078009000000045006004980025
:100e300081c7b30008007800ee0007001f003700ec
:100e40001480e900000a780010007800600498001f
:100e5000580990000200e00002003d006e02070009
:100e6000090037008000eb00720207008000780064
:100e70000000e00003003200680090000080500095
:100e80000100370058089000100c98000b00370044
:100e90007800900002757800060037007800900016
:100ea000800045000904e00001003a0059c2b30087
:100eb000894878000000e800700498000000eb000a
:100ec0004f0578004f04be00000006000400fa0041
:100ed000889fbe008a9fbe008c1f780000047800a7
:100ee0000106780070089000f800900001005000a2
:100ef0008808900001005000980890000100500000
:100f0000a808900001005000b808900001005000af
:100f1000c8089000810550000002220090bf9f0089
:100f200000032300a0bf9f00081090000028a3002a
:100f300018003a000b00e000160034008b04780023
:100f400009057800e28f5400020036002a002000d4
:100f5000020037000900e0000b0034005800900048
:100f6000c80190000a017800ee80570003000100dc
:100f7000500498000000e0009600320068089000dd
:100f800000004500600c98008a8454004240a9008b
:100f9000ebff3c00780190000200e0000b00340001
:100fa00058009000c80190008c00780003000100f8
:100fb000500498000000e0008600320068089000ad
:100fc000f800900001004000600c9800880c900030
:100fd0000900e0001500340009057800e28f540094
:100fe000020036002a002000020037000900e0005d
:100ff0000b00340058009000c80190000a017800ee
:10100000ec80570003000100500498000000e0004d
:10101000700032006808900000004500600c9800e5
:101020008a8454004240a900ebff3c00180990005c
:101030000200e0000b003400e8009000580090002f
:10104000c801900003000100500498000000e00077
:10105000600032006808900098089000010040008d
:10106000600c9800a80c90000900e0001500340006
:1010700009057800e28f5400020036002a002000a3
:10108000020037000900e0000b0034005800900017
:10109000c80190000a017800ec80570003000100ad
:1010a000500498000000e0004a00320068089000f8
:1010b00000004500600c98008a8454004240a9005a
:1010c000ebff3c00380990000200e0000d00340006
:1010d000e8009000180890008080400058009000c0
:1010e000c801900003000100500498000000e000d7
:1010f0003800320068089000b808900001004000f5
:10110000600c9800c80c90000900e0001500340045
:1011100009057800e28f5400020036002a00200002
:10112000020037000900e0000b0034005800900076
:10113000c80190000a017800ec805700030001000c
:10114000500498000000e00022003200680890007f
:1011500000004500600c98008a8454004240a900b9
:10116000ebff3c00081090000028a3001b00320099
:101170000b00e000190034008b04780009057800aa
:10118000e28f5400020036002a00200002003700df
:101190000900e0000b00340058009000c8019000e6
:1011a0000a017800ee805700030001005004980007
:1011b0000000e000070032006808900000004500d1
:1011c000600c98008a8454004240a9000300340057
:1011d000eaff37000080eb00010037000000eb0061
:1011e0004f0678004f05be004f04be000080fa0095
:1011f000000006002f03b000889fbe008a9fbe003b
:101200008c9fbe008e1f780000077800d07d2100e3
:10121000c0b79f0080c5b30080cf500008003200e7
:10122000c27c2100c2b79f007740400080cf5000b1
:1012300003003a0083002000b3b79f000a00370084
:1012400080c7b30080cf500005003200a40020000a
:10125000b4b79f0080c5b30080cf500002003a00b1
:1012600005012000b5b79f003e04be002e05be005c
:1012700040c6b30080cf50000300320065404000fc
:1012800080cf50000b003a00e00f5400e08f5c006c
:10129000e00f5d00e08f5d0006003d006000b800db
:1012a0006011b80008045000898458000a055900ec
:1012b0008b855900bfb39700e88f530003003200bd
:1012c000f08f530045003a0002003700360020003e
:1012d0000100370046002000e00f5400e08f5c0062
:1012e000e00f5d00e08f5d0005003a005e089000b1
:1012f00081012000a1b79f000000e000080032003b
:101300003fb197000200e90008006000cfb19700ec
:101310006340780090df9f0074012000a4b79f0015
:10132000860278008502e900050033008b05d100b4
:101330000a85d3008984d3000884d300f9ff3700dd
:10134000089fbe000a97be00afb397000700e900f0
:1013500021fc2f008f804000008240003fb19700a9
:101360008202e90012003700afb397008703e9005b
:10137000a7b79f0000806200cfb09700615278004d
:101380003e00be002e01be00860378008703e90000
:10139000050033008381d1000281d3008180d30016
:1013a0000080d300f9ff3700009fbe000297be0007
:1013b0003e00be002e01be00e00f5000e08f58003e
:1013c000e00f5900e08f5900d6003400afb397000a
:1013d0000700e000e4ff3c00d2003700ae60900060
:1013e00080c6b30080cf50000b00320006003c00e6
:1013f0000104e000080032006640500080cf500039
:1014000073003a0004003700c0c6b30080cf50001c
:101410006f003a0031003700080178000800e00052
:1014200005003a005e08900081012000a1b79f00ee
:101430000000e00009003200bfb197001100090070
:101440000381d8008000fd004fb29700644078000f
:1014500090df9f0075012000a5b79f00bfb39700e4
:10146000110009000781d80080017800afb0970013
:101470000100e90022fc2f000f01410000024100a1
:101480000c003700bfb29700110009008501d80099
:1014900000017800afb397008703e900a7b79f006a
:1014a0000590b90000805100cfb0970061527800dc
:1014b000820178000300e000030034002fb19700a0
:1014c0000200e000efff3c0003007800cf80de0068
:1014d00001017800820178003a0037000806be005a
:1014e000e00f5400e08f5c0005003a005e089000b9
:1014f00083012000a3b79f000000e0000900320034
:101500003fb297006121b9000c00be00a5020700a0
:10151000cfb297006540780090df9f0077012000f0
:10152000a7b79f003fb297006121b9000c00be0031
:101530001e0207000006be00afb297000500e900da
:1015400027fc2f008f8343008083430097b79f00c1
:10155000110037003fb197006114b9000801be00c7
:101560000c00be00c30007000005be00afb197002d
:101570008301e900a3b79f000801be00b700070080
:10158000000056001fb29700cfb297006552780056
:1015900094b79f000a06be00e00f5600e08f5e0081
:1015a00003003400afb397000700e000e9ff3c0000
:1015b0004feade00cfa2de000c00be00040178007e
:1015c00084017800009fbe000297be0055003700de
:1015d000e00f5400e08f5c00e00f5d00e08f5d00e5
:1015e00005003a005e08900081012000a1b79f002d
:1015f0000000e0000d0032003fb1970002027800c9
:10160000cfa2de0005037800860378000800be0044
:101610000a01be00e70207004fb29700644078005d
:1016200090df9f0075012000a5b79f003fb1970094
:1016300002027800cfa2de0005037800860378005e
:101640000800be000a01be00d3020700009fbe00d2
:101650000297be00afb197000300e90024fc2f0001
:101660000f0242000006420020003700bfb2970080
:1016700005047800cfc4de00090578008a057800eb
:101680000802be000a03be005fa89700efa89700fb
:101690007fa997008fb19700ca020700d0b79f00bb
:1016a000e1b79f00f2b79f0083bf9f00afb39700e1
:1016b0008703e900a7b79f000802be000a03be0027
:1016c000460307005faa970000005200cfb29700c0
:1016d000655678005fb09700efb097007fb1970034
:1016e0008fb99700009fbe000297be003e00be006b
:1016f0002e01be00d0af9f00e1af9f00f2af9f0070
:1017000083b79f00e00f5000e08f5800e00f5900b2
:10171000e08f590003003400afb097000100e000f3
:10172000d2ff3c003fb19700e80f510013003a0090
:101730000e1090000038a30010003200afb19700e7
:10174000f78f510006003e0024fc2f000f024200dc
:101750008300420000c3b300914f10000700320025
:10176000afb297008502e900a5b79f0000c3b300a0
:1017700027fc2f008f83430080f37a00afb19700de
:1017800078811100120f98006e00900024fc2f0049
:101790000f02420083004200bbfb07001e099000bd
:1017a0005e089000800f510006003d0002005000ce
:1017b000000f98000e1090000040a1000017980044
:1017c0000f0037000000e0000d003d000e109000fb
:1017d00074006000f00f500009003a007e0890008d
:1017e000fe009000010050008e08900001005000a3
:1017f000020050004240a90001003400000f980090
:101800004f0778004f06be004f05be004f04be00d4
:101810002f03b100000006008000780001003700af
:101820000000e8001004e000fdff3a000100500055
:10183000000006008001eb00040037008301e8008f
:1018400090cf1000040032000000e800828f5100a9
:10185000faff3a000000eb0000000600020ab9009f
:10186000001bb9000200b800810042008100430063
:1018700000000600839f68000100e00002003d00b8
:1018800060001000e08018000300e00002003d004e
:1018900060011100e0811900440107004f00e000e1
:1018a00002003b0060001000e0801800000006000d
:1018b000889fbe008a9fbe008c1f78004b010700e6
:1018c0005201330003866c006450e10024003200b2
:1018d0006420e100270032006150e1002200320064
:1018e0006120e100210032008b854200eb07b1004e
:1018f0000134b800003ab8000804420089844a0064
:10190000013ab8000030b8008880400009014a0060
:1019100004003300000040008180480002014900bb
:101920008b05e900c909dd00830170000100320068
:1019300013002000c814de004814dd004709de0053
:101940001200b200c808de00088470003f010700e2
:1019500001f0a1000cf0a70001f0a0003401370055
:101960006120e100360132000801be000200be0025
:10197000f7ff37006150e100fcff3a00300137000b
:101980000001be00570107000470a70003f0a1008a
:101990006509b100160032000d0035006828e1002d
:1019a00006003500f0ff2f00f1ff27000300e000e4
:1019b00013003b000100280000000500000040006b
:1019c000818048008502e900fcff3a0008003700ea
:1019d000f88f420002003c008000eb000000050090
:1019e0008100d1000080d3008502e800fcff3a00ae
:1019f0000300e00002003b0060001000e0801800df
:101a000000000600889fbe008a9fbe000105780086
:101a10000100e0000400350008003c000000e00088
:101a2000200032000500370060001000e080180040
:101a300002003b0001f02c001a0037000004be0039
:101a40006011b8006b0920000982cf000200390044
:101a50000882cf000441b000694252000e003200fb
:101a600008003b0082817100610164008904d1009b
:101a70000884d3008b05e8000442e800f9ff3a002f
:101a8000050037000804440089844c008b05e900f8
:101a90000442e900fbff3a00ec0007000af0a7004f
:101aa00001f0a0004f05be004f04be00000006007c
:101ab000889fbe008a9fbe008c1f7800cb00070065
:101ac000d200330003866c006450e1002e00320027
:101ad0006420e100330032006150e1002f00320049
:101ae0006120e1003100320085855500eb07b00030
:101af0000900200008042000050037000804440005
:101b000089844c000a0031000603430087834b00a0
:101b10000001530081815b00f8ff33000203be0027
:101b20000800a0000804440089844c00f6ff390036
:101b3000c639dd008301730001003200130020006c
:101b40008904d1000884d3000998a300050032005d
:101b50000800a7000300a0008904d1000884d30076
:101b60008b05e8008904d1000884d3000001eb0054
:101b70000281d200b500070001f0a1000cf0a7001f
:101b800001f0a000aa0037006420e100ac003200a0
:101b90000801be000200be00f7ff37006120e1002f
:101ba000a70032006000b800f3ff370000002000fb
:101bb00001f82700f0ff370003f0a200889fbe0065
:101bc0008a9fbe008c1f7800880007008f003300ba
:101bd0006450e1004f0032006420e1005200320006
:101be00003826c0007003b000905d0000306d0000b
:101bf000820f54000c065d00020039000200320022
:101c000089017800030678008582550004003d00b4
:101c10000003fd008103fd008502ea008b85420080
:101c2000840f720002003b0060001000e08018008a
:101c30006011b8000005eb007a28e1000a003900c5
:101c400006007800c75ddd00f707b20087807500e9
:101c50002d003700828171000a0178006105600063
:101c60008180d1000080d3008502e900f9ff3b00ac
:101c7000060440008784480002003b006004140012
:101c8000e0841c000988a300070032008a817100eb
:101c900082817100610164008904d1000884d3004d
:101ca0008b05e800170037000978a30013003a00fd
:101cb0000b00e000130034008b05e9000804440029
:101cc00089844c000a4474000978a3000d003a008e
:101cd0000b00e000070034008b05e9000804440015
:101ce00089844c0001003a000b0020000978a30011
:101cf000f7ff32000001eb00020037008281710023
:101d00000a017800510007000cf0a70001f0a000c4
:101d1000470037006420e10002003a00838f6c0026
:101d2000470033000801be000200be00400037003b
:101d30001400200080003700f4ff2f007e003700e1
:101d40000001be00670007000470a70003f0a100b7
:101d500003f8a30013003a006509b1001000320037
:101d6000090035006928e100020035000100280063
:101d70000000050000004000818048008502e90065
:101d8000fcff3a0000000600f88f42000500350015
:101d90008100d1000080d3008502e800fcff3a00fa
:101da000000006008000eb00000005006022b80083
:101db000060220000000d0008180d2000482d20000
:101dc0008582d2000000a0000202520083825a00e5
:101dd000030031000202420083824a000000a10099
:101de0000603e900f3ff3a00000006000004be000d
:101df0003c0007000003be000405be000200be0058
:101e000038000700844f7500000006000200be0085
:101e10006450e100050036006420e1000200360055
:101e20000968a30001003a000800be000160a0009c
:101e30004f0678004f05be004f04be0000000600ac
:101e4000f0ff2f00f1ff2700f9ff3700810020008d
:101e5000618055000b003d000b00200061fe2f004b
:101e60000100e1001d003400828171006101640005
:101e70008904d1000884d3000000e800faff3a008a
:101e80007100200061006400030070000200600027
:101e90000900320061044400e0844c000988a50078
:101ea000050032008b05e8006808e10002003a00f6
:101eb0008904d1000884d300f20f20000258e10009
:101ec00005003d00c75ddd00f907b200898075009f
:101ed00008007800000006000bf827008b0078004f
:101ee00000000500c70ade00f107b200f50fb200de
:101ef00008003200e1cf4200020032000170a00071
:101f000024000500810f7000010032000408050064
:101f100044000500810f700002003a001400050023
:101f20008502e9000000400081c04800fcff3b0042
:101f30000170a00024000500889fbe008a9fbe009b
:101f4000841f7800a9ff07004f00780011003300bc
:101f5000f0ff2f00838f6c0006003b000405650036
:101f60000a00a7000800370009f0a60010002000b2
:101f700008003700820f5400838f5c000300390093
:101f80001000200001003e000000200009f0a70022
:101f90000000ea004f05be004f04be000000e00054
:101fa0000000060081ff07000400be0000000600dc
:101fb000881f7800000478005001be004000be0079
:101fc00004004000858048000601490087814900df
:101fd000009cbe000294be000400e1000588e10000
:101fe0000690e1000798e10002003100680044001b
:101ff0001008e8004f04780000000600f48747004e
:10200000889fbe008a9fbe008c9fbe008e1f7800f6
:102010000205be000004be00d4b79f00e5b79f00d4
:10202000f6b79f0087bf9f000000eb00c0b79f007e
:10203000b0b79f00a0b79f0090b79f0080b79f00e8
:102040000d042000bfb097004fb097000001400082
:102050000000e0000f003d004f08de0000007100ae
:10206000c0b79f009e00070001003d001200200045
:10207000a100070001003d0012002000a60007009b
:10208000b1000700b60007000f004000c8ff0700be
:10209000220037004f08de0000067100ccb79f0019
:1020a0008f00070001003d00120020009200070091
:1020b00001003d001200200097000700a200070069
:1020c0000fb297009fb297002fb39700bfb397004e
:1020d000a90007000000520081805a0002015b0045
:1020e00083815b0080b79f0091b79f00a2b79f00dc
:1020f000b3b79f000007eb009f0007000020e1003e
:1021000001a8e10002b0e10003b8e10001003100e4
:102110001e0020000e005600c0b79f004fb297006f
:102120000400e0000700350010002000010020003e
:102130006011b80008047000898470000a057100fd
:102140008b8571008d06e900beff3a000400e000b7
:1021500003003d00820007000f00400094ff0700cd
:102160004fa897000000e00004003a000fb4970069
:102170009fb497002fb59700bfb597009400070054
:102180004f0778004f06be004f05be004f04be004b
:102190004f01b10000000600881f780018002000e1
:1021a000881f780095ff07008f87e9004f047800ab
:1021b00000000600801feb0090ff07008f87e900fa
:1021c00000000600889fbe008a9fbe008c1f78001a
:1021d0006e00070007003d0073000700e00f5b0082
:1021e000e08f5b0007003d00320007000006eb00b7
:1021f000040037003400070002003d002a000700f9
:102200001c00200072000700e3ff07000203be006d
:102210000002be000c00e0000100320022000700b6
:102220000400be000601be004f0678004f05be0048
:102230004f04be0000000600889fbe008a9fbe00bb
:102240008c1f78005100070005003d005600070074
:10225000e00f5b00e08f5b0006003d0004003700ec
:102260001900070003003d006000b8006011b800cd
:102270001000070056000700ceff07000203be0053
:102280000002be000c00e000010032000600070062
:102290000400be000601be004f0678004f05be00d8
:1022a0004f04be00000006006000b8006011b800d6
:1022b00000003700040250008582580006035900d0
:1022c00087835900000006000006eb00e00f520073
:1022d000e08f5a00e00f5b00e08f5b00000006001b
:1022e0000180400090b79f000001eb008fb0970085
:1022f0000100e000000006000200700090b79f009f
:102300000180400080b79f000001eb00ffa897000c
:102310000100e000000006000200700080b79f008e
:10232000018040006faa9700cf20de0001007000fe
:10233000f0af9f0004024200250007004f18de00a6
:102340000002720000000600e4af9f000804440091
:1023500089844c000a054d008b854d000000060065
:102360003fb29700cfb297005fb39700efb39700eb
:1023700000fe2f00000006003fb09700cfb097008e
:102380005fb19700efb19700000006000205be00a4
:102390000004be00e00f5000e08f5800e00f59002d
:1023a000e08f5900000006006000b8006011b8001e
:1023b00008045000898458000a0559008b8559008b
:1023c0001c002000e00f5200e08f5a0000000600c1
:1023d0000800be000a01be0000000600889fbe0083
:1023e0008a9fbe008c1f78000205be000004be005c
:1023f0000006eb00e00f5000e08f5800e00f59009e
:10240000e08f590007003d006000b8006011b8007f
:1024100008045000898458000a0559008b8559002a
:102420001c002000e00f5200e08f5a00e00f5b001c
:10243000e08f5b0002003d000f0007000c00a200cf
:102440000800be000a01be00120007000203be0021
:102450000002be000c00e000010032000600070090
:102460000400be000601be004f0678004f05be0006
:102470004f04be00000006006000b8006011b80004
:1024800004025000858258000603590087835900d2
:1024900000000600889fbe008a9fbe008c9fbe0081
:1024a0000404b8000506b8008904460060854e00a3
:1024b0000606b8000a054600e0854e000706b8008b
:1024c0008b054600040eb800890446000a854e00bc
:1024d000e0854d00050eb8000a0546008b854e00cc
:1024e000060eb8008b0546000416b8000a05460023
:1024f0008b854e000516b8008b054600041eb800fb
:102500008b0546000800be000a01be004f06be0053
:102510004f05be004f04be00000006004400f80056
:10252000040f2000240288000000e9001201c3000b
:10253000008008000200000031027800b20278003a
:102540001201c0000000cd004400f90000000600a8
:102550004400f800040f20002402880001027800e3
:102560000000e9000080080004000000b2027800ca
:102570000500ca00b30278000500c9003100cc0094
:10258000040078004400f900000006004400f80050
:10259000040f200024028800811f78000000e90059
:1025a000030278000080080002000000b2027800f8
:1025b0001301c0003100cd004f0078004400f90045
:1025c00000000600889fbe008a9fbe008c9fbe0050
:1025d0004400f8000d0f20002d02880083067800cb
:1025e0000106e9008205e900818040000201410006
:1025f0000000e90010003500050578000b80080098
:102600000a000000040478008a0478001201c30064
:102610000c8008000300000038037800990378005c
:102620001201c600828444003300cd000a85e80010
:1026300001024200eeff37000d0078004400f9006f
:102640004f06be004f05be004f04be00000006004e
:102650000100b8000000e9004400f800010f20006c
:102660002102880082007800008008000400000039
:10267000b30278000500ca00b40278000500c90062
:102680003200cc00010078004400f9000000060090
:102690004400f800020f2000220288000000e90038
:1026a0001201c30000800800010000003102780020
:1026b0001001f0000000cd004400f9000000060009
:1026c0004400f800040f2000240288000102780072
:1026d0000000e9000080080005000000b202780058
:1026e0000500ca00b30278000580ca000030cb00a4
:1026f0003100cc00040078004400f900000006001e
:10270000810178000000e90000800900b21878001b
:08271000030078000000060040
:020000040000fa
:0200000401f009
:04000000ffff0000fe
:020000040000fa
:0200000401f009
:04000400ffff0000fa
:020000040000fa
:0200000401f009
:04000800ffff0000f6
:020000040000fa
:0200000401f009
:04000c0078ff000079
:020000040000fa
:0200000401f009
:040010007cff000071
:020000040000fa
:0200000401f009
:040014007fff00006a
:020000040000fa
:0200000401f009
:04001800fdff0000e8
:020000040000fa
:0200000401f009
:04001c00deff000003
:020000040000fa
:0200000401f009
:04002000ffff0000de
:020000040000fa
:0200000401f009
:04002400ffff0000da
:020000040000fa
:0200000401f009
:04002800ffff0000d6
:020000040000fa
:0200000401f009
:04002c00ffff0000d2
:020000040000fa
:1000080090af00008caf000088af000084af000004
:1000180080af000090af000090af000090af0000ec
:1000280090af0000b6630000104c0000bea50000b1
:10003800aa830000ea6300003e4c0000a4630000ad
:10004800a249000090af000090af0000fa860000bf
:100058001a88000090af000090af000090af000039
:1000680090af000090af000090af000090af00008c
:10007800d4530000aa840000026500003a6500001d
:1000880090af00006c4c00009a4c000058a600008d
:1000980038a60000cc560000e0880000dc8900008b
:1000a80090af000090af000090af000090af00004c
:1000b80090af0000226400005a64000092640000bf
:1000c800ca640000c84c0000f64c0000244d000033
:1000d800524d000090af000090af000090af0000bc
:1000e80090af000090af00000c58000090af0000e7
:1000f80090af000090af000090af000090af0000fc
:1001080090af000090af000090af000090af0000eb
:1001180090af000090af000090af000090af0000db
:1001280090af000090af000090af000090af0000cb
:1001380090af000090af000090af000090af0000bb
:1001480090af000090af000090af000090af0000ab
:1001580090af000090af000090af000090af00009b
:1001680090af000090af000090af000090af00008b
:1001780090af000090af000090af000090af00007b
:1001880090af000090af000090af000090af00006b
:1001980090af000090af000090af000090af00005b
:1001a80090af000090af000090af000090af00004b
:1001b80090af000090af000090af000090af00003b
:1001c80090af000090af000090af000090af00002b
:1001d80090af000090af000090af000090af00001b
:1001e80090af000090af000090af000090af00000b
:0801f80090af000090af000081
:020000040000fa
:1002080090af00008caf000088af000084af000002
:1002180080af000090af000090af000090af0000ea
:1002280090af0000b6630000104c0000bea50000af
:10023800aa830000ea6300003e4c0000a4630000ab
:10024800a249000090af000090af0000fa860000bd
:100258001a88000090af000090af000090af000037
:1002680090af000090af000090af000090af00008a
:10027800d4530000aa840000026500003a6500001b
:1002880090af00006c4c00009a4c000058a600008b
:1002980038a60000cc560000e0880000dc89000089
:1002a80090af000090af000090af000090af00004a
:1002b80090af0000226400005a64000092640000bd
:1002c800ca640000c84c0000f64c0000244d000031
:1002d800524d000090af000090af000090af0000ba
:1002e80090af000090af00000c58000090af0000e5
:1002f80090af000090af000090af000090af0000fa
:1003080090af000090af000090af000090af0000e9
:1003180090af000090af000090af000090af0000d9
:1003280090af000090af000090af000090af0000c9
:1003380090af000090af000090af000090af0000b9
:1003480090af000090af000090af000090af0000a9
:1003580090af000090af000090af000090af000099
:1003680090af000090af000090af000090af000089
:1003780090af000090af000090af000090af000079
:1003880090af000090af000090af000090af000069
:1003980090af000090af000090af000090af000059
:1003a80090af000090af000090af000090af000049
:1003b80090af000090af000090af000090af000039
:1003c80090af000090af000090af000090af000029
:1003d80090af000090af000090af000090af000019
:1003e80090af000090af000090af000090af000009
:0803f80090af000090af00007f
:020000040000fa
:1027180050490000445f0000526f00006c6c0000dc
:102728004b50000000000000000000000000000006
:102738000000000000000000cdcc0000cc3e0000ee
:10274800800a00000100000050490000445f0000ba
:10275800526f00006c6c00004b4400000000000049
:102768000000000000000000000000000000000061
:10277800cdcc0000cc3e0000820a00000100000021
:1027880050490000445f000059610000774b000089
:1027980050410000494c000000000000000000000b
:1027a8000000000000000000cdcc0000cc3e00007e
:1027b8007a0a00000100000050490000445f000050
:1027c80059610000774b000044410000494c00006b
:1027d80000000000000000000000000000000000f1
:1027e800cdcc0000cc3e00007e0a000001000000b5
:1027f80050490000445f0000506900007463000005
:1028080068670000616900006e00000000000000b9
:102818000000000000000000cdcc0000cc3e00000d
:10282800660a00000100000050490000445f0000f3
:102838005069000074630000684b00004400000009
:102848000000000000000000000000000000000080
:10285800cdcc0000cc3e0000680a0000010000005a
:1028680050490000445f000059610000774b0000a8
:1028780044720000756400000000000000000000c1
:102888000000000000000000cdcc0000cc3e00009d
:10289800720a00000100000050490000445f000077
:1028a800526f00006c6c00004b5000007275000005
:1028b80064000000000000000000000000000000ac
:1028c800cdcc0000cc3e0000740a000001000000de
:1028d8004d4c00005f53000079730000494400002c
:1028e80000000000000000000000000000000000e0
:1028f80000000000803f0000000000007e43000050
:10290800580a0000060000004d4c00005f4300001c
:102918006f6d0000704900004400000000000000d6
:10292800000000000000000000000000000000009f
:10293800000000007f430000590a00000600000064
:102948004d4c00005f5200006177000053650000a5
:102958006e7300006f72000073000000000000003a
:102968000000000000000000000000007a430000a2
:102978005d0a0000060000004d4c00005f52000098
:1029880043430000686100006e6e0000656c000043
:1029980073000000000000000000000000000000bc
:1029a800000000007a4300005e0a000006000000f4
:1029b8004d4c00005f45000078740000656e000013
:1029c80064530000746100007400000000000000ff
:1029d8000000000000000000000000007a43000032
:1029e8005f0a0000060000004d4c00005f52000026
:1029f80061770000436f00006e740000726f000082
:102a08006c00000000000000000000000000000052
:102a1800000000007a430000600a00000600000081
:102a28004d4c00005f5000006f7300006974000097
:102a3800696f00006e000000000000000000000048
:102a48000000000000000000000000007a430000c1
:102a5800610a0000060000004d4c00005f520000b3
:102a68006174000065450000787400007261000020
:102a7800310000000000000000000000000000001d
:102a8800000000007a430000620a0000060000000f
:102a98004d4c00005f520000617400006545000065
:102aa800787400007261000032000000000000002d
:102ab8000000000000000000000000007a43000051
:102ac800630a0000060000004d4c00005f52000041
:102ad80061740000654500007874000072610000b0
:102ae80033000000000000000000000000000000ab
:102af800000000007a430000640a0000060000009d
:102b080043460000475f000044450000434c000076
:102b1800494e000000000000000000000000000016
:102b28000000000000c3000000000000fe4200009a
:102b3800880a00000700000043460000475f0000c5
:102b480044450000437800004348000000000000ae
:102b5800000000000000000000000000000000006d
:102b680000000000803f0000021700000500000080
:102b780043460000475f00004445000043780000da
:102b880053430000000000000000000000000000a7
:102b98000000000080bf000000000000803f00002f
:102ba800041700000300000043460000475f0000d0
:102bb8004445000043790000534300000000000032
:102bc80000000000000000000000000080bf0000be
:102bd80000000000803f000006170000030000000e
:102be800160000005379000073740000656d000042
:102bf8002054000061720000676500007420000026
:102c080043680000656300006b2000004661000017
:102c1800696c0000656400003a200000307800000c
:102c28000020000030780000000d00000a000000bd
:102c38000d0a000041630000746900006f6e000017
:102c48003a2000004545000020530000746f000042
:102c58007261000067650000205200006561000095
:102c6800640d00000a0000000d0a0000494c000035
:102c78004c450000474100004c2000004143000043
:102c8800544900004f4e00003a200000454500001e
:102c980020530000746f0000726100006765000037
:102ca8002052000065610000640d00000a00000069
:102cb8000d0a000041630000746900006f6e000097
:102cc8003a2000004545000020530000746f0000c2
:102cd80072610000676500002057000072690000fb
:102ce800746500000d0a0000000d00000a4900008c
:102cf8004c4c000045470000414c000020410000ba
:102d080043540000494f00004e3a0000204500009f
:102d180045200000537400006f72000061670000d6
:102d2800652000005772000069740000650d0000fe
:102d38000a00000077610000797000006f690000e8
:102d48006e74000020610000636b00000d0a000033
:102d580000660000616900006c65000064200000e6
:102d68007461000072670000657400002073000041
:102d780079730000746500006d200000636800002e
:102d8800656300006b2000006f6e0000207000007b
:102d980061720000616d00006574000065720000da
:102da8002073000065740000200d00000a00000078
:102db80000280000140d00000a08000007060000a3
:102dc8000504000003020000010000002450000078
:102dd8005352000046310000303000002c30000013
:102de8002c31000039320000303000002c3800004f
:102df8002c3100002c3000002a330000390d00006f
:102e08000a0000000900000086000000004b0000d6
:102e18000008000001000000000000000708000092
:102e28000608000005080000040800000b08000060
:102e38000a08000009080000080800000f08000040
:102e48000e0800000d0800000c0800001108000022
:102e58001008000013080000120800001508000000
:102e680014080000160800000208000017080000f7
:102e78000208000002080000020800000208000022
:102e880002080000020800001808000002080000fc
:102e98000208000002080000020800000208000002
:102ea80002080000020800000208000002080000f2
:102eb80002080000020800000208000002080000e2
:102ec800020800002b0800002a0800002d08000056
:102ed8002c0800003508000034080000290800000c
:102ee8002808000027080000260800000208000043
:102ef80002080000020800000208000002080000a2
:102f08000208000002080000020800000208000091
:102f18000208000002080000020800001d08000066
:102f28001c0800001b0800001a0800002108000007
:102f3800200800001f0800001e080000020800000a
:102f4800020800000208000002080000250800002e
:102f580024080000230800002208000002080000de
:102f68002f0800002e08000031080000300800007b
:102f780002080000020800003308000032080000c0
:102f88000208000002080000020800000208000011
:102f98000208000002080000020800000208000001
:102fa80002080000020800000208000002080000f1
:102fb80002080000020800000208000002080000e1
:102fc80002080000020800000208000002080000d1
:102fd80002080000020800000208000002080000c1
:102fe80002080000020800000208000002080000b1
:102ff80002080000020800000208000002080000a1
:103008000208000002080000020800000208000090
:103018000208000002080000020800000208000080
:10302800020800003608000002080000020800003c
:103038000208000000000000013c0000040000003d
:1030480003000000023d0000050600000300000028
:10305800bf07000000000000013c0000040300005e
:103068000011000020010000030000000f00000014
:1030780000000000013c00000403000000120000f2
:1030880020010000030000000f0000000000000005
:10309800013c0000040300000010000020020000b2
:1030a800030000000f00000000000000013c0000c9
:1030b80004030000001800002000000003000000c6
:1030c8000f0000000000000001a60000040000003e
:1030d8003200000002a700000507000003000000fe
:1030e800bf0800000000000001a600000401000065
:1030f800318e0000030000000f00000000000000f7
:1031080001a60000040e00001dff000000000000e2
:1031180000000000000000007f7f00007f0000002a
:103128007f7f00000000000002a6000004040000e9
:103138002c0e0000008000007f00000002a60000a6
:1031480004010000310c000002a600000401000088
:1031580038bf0000030000000f000000000000005e
:1031680001a60000040e00001dff00000000000082
:1031780000000000000000007f7f00007f000000ca
:103188007f7f00000000000002a600000404000089
:103198002c0e000008020000fd00000002a600003e
:1031a80004010000310f000002a600000401000025
:1031b80038a10000030000000f000000000000001c
:1031c8009201000024030000b50400004606000038
:1031d800d607000064090000f10a00007c0c00001a
:1031e800060e00008d0f000012110000941200005e
:1031f8001314000090150000091700007e18000045
:10320800ef1900005d1b0000c61c00002b1e00000b
:103218008c1f0000e72000003d2200008e230000e4
:10322800da24000020260000602700009a28000009
:10323800ce290000fb2a0000212c0000412d0000af
:103248005a2e00006c2f0000763000007931000003
:103258007432000068330000533400003735000032
:1032680012360000e5360000b03700007138000063
:103278002b390000db390000823a0000213b0000b6
:10328800b63b0000423c0000c53c00003f3d00004a
:10329800af3d0000153e0000723e0000c53e000034
:1032a8000f3f00004f3f0000853f0000b13f000086
:1032b800d43f0000ec3f0000fb3f0000004000004e
:1032c80000000000000000000000000000000000f6
:1032d8004b0000000000000000000000000000009b
:1032e80000000000000000000000000032000000a4
:1032f8000000000000000000000000003200000094
:10330800c0000000000000000000000000000000f5
:10331800000000000000000003020000010000009f
:103328000706000005040000090800000b0a000059
:103338000f0e00000d0c0000131200001110000009
:10334800151400000000000001ae00001400000089
:1033580003000000070000000000000001ae0000ac
:10336800140100000300000001af00000500000088
:1033780003000000c7000000415300005047000050
:1033880020560000256400002e250000640000007f
:1033980000000000000100001010000004210000df
:1033a800111100002449000052520000aa540000e4
:1033b80055550000d5550000755d00007577000073
:1033c80077770000777f00007f7f0000ffff000015
:1033d8009a1d00000908000099050000200300005c
:1033e8003e000000dd03000011fb0000a802000001
:1033f800dbfc0000000000000901000003000000e1
:103408000700000008000000040000000800000099
:020000040000fa
:10341800c6160000100000000200000000000000b6
:103428000000000014000000000000000000000080
:1034380000000000001c0000000400000200000062
:103448000000000000000000000000000000000074
:103458000000000000000000000000000000000064
:103468000000000000000000000000000000000054
:103478000000000000000000000000000000000044
:103998000000000000000000d6160000040000002f
:1039a800020000000000000000000000e21a000011
:1039b80004000000000000009e0e00000a00000045
:1039c80002000000000000000000000000000000ed
:1039d800000000008a0a0000020000000200000047
:1039e800000000005008000008000000020000006d
:1039f80001005000088a0a0000000000da160000e2
:103a0800020000000200000000000000580800004a
:103a180000020000020000008310cc007f000000bc
:103a2800000000000000000000000000000000008e
:103a380000000000000000004c1dac000d881300c1
:103a48001027930004cc7f00000000000000000055
:103a5800000000000000000000000000001e000040
:103a680099194c001dac0d00a00ff8002aa30800fe
:103a7800cc7f0000000000000000000000000000f3
:103a8800000000000000000000000000004c1d00c5
:103a9800ac0da0000ff82a00b30ccc007f0000008a
:103aa800000000000000000000000000000000000e
:103ab80000000000000000004c1dac000da00f002d
:103ac800f82ad50000ff7f00000000000000000079
:103ad80000000000000000000000000000000000de
:103ae80000004c001dac0d00a00ff8002a93040044
:103af800cc7f000000000000000000000000000073
:103b080000000000009919001d009900194c1d00c3
:103b180054f2a0000ff82a00e114c0007f00000052
:103b2800000000000000000000000000000000008d
:103b380000000000000000004c1dac000da00f00ac
:103b4800f82af10018c07f00000000000000000003
:103b5800000000000000000000000000000000005d
:103b680000004c001dac0d00a00ff8002a0000005a
:103b7800000000000000000000000000000000003d
:103b8800000000000000000000000000000000002d
:103b9800000000000000000000000000000000001d
:103ba800000000000000000000000000000000000d
:103bb80000000000000000000000000000000000fd
:103bc80000000000000000000000000000000000ed
:103bd80000000000000000000000000000000000dd
:103be80000000000000000000000000000000000cd
:103bf80000000000000000000000000000000000bd
:103c080000000000000000000000000000000000ac
:103c1800000000000000000000000000000000009c
:103c2800000000000000000000000000000000008c
:103c3800000000000000000000000000000000007c
:103c4800000000000000000000000000000000006c
:103c5800000000000000000000000000000000005c
:103c6800000000000000000000000000000000004c
:103c7800000000000000000000000000000000003c
:103c8800000000000000000000000000000000002c
:103c9800000000000000000000000000000000001c
:103ca800000000000000000000000000000000000c
:103cb80000000000000000000000000000000000fc
:103cc800000000008c0a00006200000002000000f2
:103cd80000006400990100000000000000000000de
:103ce80000000000000000000000000000000000cc
:103cf80000000000000000000000000000000000bc
:103d080000000000000000000000000000000000ab
:103d1800000000000000000000000000000000009b
:103d2800000000000000000000000000000000008b
:103d3800000000000000000000000000000000007b
:103d4800000000000000000000000000000000006b
:103d580000000000dc160000020000000200000065
:103d680000000000ee0a000004000000020000004d
:103d78000000000000000000ee1a00000200000031
:103d880000000000580a00000e00000002000000b9
:103d980001c800000000010001010800080000003f
:103da80000000000de1600001e00000002000000f7
:103db80000000000000000000000000000000000fb
:103dc80000000000000000000000000000000000eb
:103dd80000000000000000000020000000020000b9
:103de80002000000000000000000000000000000c9
:103df80000000000000000000000000000000000bb
:103e080000000000000000000000000000000000aa
:103e1800000000000000000000000000000000009a
:103e2800000000000000000000000000000000008a
:10409800361900001801000000000000660a000040
:1040a8000c000000020000009909cc0013cc0c00a1
:1040b800334f0000206606004a0800000600000092
:1040c80000000000f20a00002a00000002000000c0
:1040d80000000000000000000000000000000000d8
:1040e8000000000000000000004000004000400008
:1040f80000000000000000000000000000000000b8
:104108000000000000000000fc160000160000007f
:104118000200000000000000000000000100ff0095
:10412800ff01000000000000000000000000000087
:1041380000000000b41a0000100000000000000099
:104148001c0b0000500000000200000000000000ee
:104158000000000000000000000000000000000057
:104168000000000000000000000000000000000047
:104178000000000000000000000000000000000037
:104188000000000000000000000000000000000027
:104198000000000000000000000000000000000017
:1041a8000000000000000000000000000000000007
:1041b80000000000000000006c0b000082000000fe
:1041c80002000000000000000000000000000000e5
:1041d80000000000000000000000000000000000d7
:1041e80000000000000000000000000000000000c7
:1041f80000000000000000000000000000000000b7
:1042080000000000000000000000000000000000a6
:104218000000000000000000000000000000000096
:104228000000000000000000000000000000000086
:104238000000000000000000000000000000000076
:104248000000000000000000000000000000000066
:104258000000000000000000000000000000000056
:104268000000000000000000000000000000000046
:104278000000000012170000040000000200000007
:1042880000000000000000003808000012000000d4
:1042980000000000161700000200000002000000e5
:1042a80000000000c41a00000c000000000000001c
:1042b800661700002a00000002000000200000002d
:1042c800af3faf0001000000773f77000077200084
:1042d8000000af003faf0100004077007f7740004b
:1042e8007720000000af3f00af0100008077bf00db
:1042f8007780770000770000c0000000020000000f
:1043080000000000000000000000000000000000a5
:104318000000000000000000000000000000000095
:104328000000000000000000000000000000000085
:104338000000000000000000000000000000000075
:104348000000000000000000000000000000000065
:104358000000000000000000000000000000000055
:104368000000000000000000000000000000000045
:104378000000000000000000000000000000000035
:104388000000000000000000000000000000000025
:104398000000000000000000000000000000000015
:1043a8000000000000000000000000000000000005
:1043b80000000000000000000000000000000000f5
:1043c80000000000000000000000000000000000e5
:1043d80000000000000000000000000000000000d5
:1043e80000000000000000000000000000000000c5
:1043f80000000000000000000000000000000000b5
:10440800ee0b000014000000020000000000000095
:104418000000000000000000000000000000000094
:104428000000000000000000020c00000401000071
:104438000200000000000000000000000000000072
:104448000000000000000000000000000000000064
:104458000000000000000000000000000000000054
:104468000000000000000000000000000000000044
:104478000000000000000000000000000000000034
:104488000000000000000000000000000000000024
:104498000000000000000000000000000000000014
:1044a8000000000000000000000000000000000004
:1044b80000000000000000000000000000000000f4
:1044c80000000000000000000000000000000000e4
:1044d80000000000000000000000000000000000d4
:1044e80000000000000000000000000000000000c4
:1044f80000000000000000000000000000000000b4
:1045080000000000000000000000000000000000a3
:104518000000000000000000000000000000000093
:104528000000000000000000000000000000000083
:104538000000000000000000000000000000000073
:104548000000000000000000000000000000000063
:104558000000000000000000000000000000000053
:104568000000000000000000000000000000000043
:104578000000000000000000000000000000000033
:104588000000000000000000000000000000000023
:1045980018170000020000000200000000000000e0
:1045a800a80e000000060000020000000000c00085
:1045b80000000000000000000000000000000000f3
:1045c80000000000000000000000000000000000e3
:1045d80000000000000000000000000000000000d3
:1045e8000000000000000000000000000000c00003
:1045f80001c0860008000000000000000000000064
:1046080000000000000000000000000000000000a2
:104618000000000000000000000000000000000092
:104628000000000000000000000000000000c000c2
:1046380000c0960009000000000000000000000013
:104648000000000000000000000000000000000062
:104658000000000000000000000000000000000052
:104668000000000000000000000000000000c00082
:1046780000c0a6000a0000000000000000000000c2
:104688000000000000000000000000000000000022
:104698000000000000000000000000000000000012
:1046a8000000000000000000000000000000c00042
:1046b80000c0b6000b000000000000000000000071
:1046c80000000000000000000000000000000000e2
:1046d80000000000000000000000000000000000d2
:1046e8000000000000000000000000000000c00002
:1046f80000c0c6000c000000000000000000000020
:1047080000000000000000000000000000000000a1
:104718000000000000000000000000000000000091
:104728000000000000000000000000000000c000c1
:1047380000c0d6000d0000000000000000000000ce
:104748000000000000000000000000000000000061
:104758000000000000000000000000000000000051
:104768000000000000000000000000000000c00081
:1047780000c0e6000e00000000000000000000007d
:104788000000000000000000000000000000000021
:104798000000000000000000000000000000000011
:1047a8000000000000000000000000000000c00041
:1047b8000000f7004f0000000000000000000000ab
:1047c80000000000000000000000000000000000e1
:1047d80000000000000000000000000000000000d1
:1047e80000000000000000000000000000000000c1
:1047f8000060060001010000000000000000000049
:1048080000000000000000000000000000000000a0
:104818000000000000000000000000000000000090
:104828000000000000000000000000000000000080
:1048380000601600020100000000000000000000f7
:104848000000000000000000000000000000000060
:104858000000000000000000000000000000000050
:104868000000000000000000000000000000000040
:1048780000602600030100000000000000000000a6
:104888000000000000000000000000000000000020
:104898000000000000000000000000000000000010
:1048a8000000000000000000000000000000000000
:1048b8000060360004010000000000000000000055
:1048c80000000000000000000000000000000000e0
:1048d80000000000000000000000000000000000d0
:1048e80000000000000000000000000000000000c0
:1048f8000060460005010000000000000000000004
:10490800000000000000000000000000000000009f
:10491800000000000000000000000000000000008f
:10492800000000000000000000000000000000007f
:1049380000605600060100000000000000000000b2
:10494800000000000000000000000000000000005f
:10495800000000000000000000000000000000004f
:10496800000000000000000000000000000000003f
:104978000060660007010000000000000000000061
:10498800000000000000000000000000000000001f
:10499800000000000000000000000000000000000f
:1049a80000000000000000000000000000000000ff
:1049b80000a0760048010000000000000000000090
:1049c80000000000000000000000000000000000df
:1049d80000000000000000000000000000000000cf
:1049e8000000000000000000000000000000c000ff
:1049f8000030450018000000000000000000000022
:104a0800000000000000000000000000000000009e
:104a1800000000000000000000000000000000008e
:104a28000000000000000000000000000000c000be
:104a380000303500190000000000000000000000f0
:104a4800000000000000000000000000000000005e
:104a5800000000000000000000000000000000004e
:104a68000000000000000000000000000000c0007e
:104a7800003025001a0000000000000000000000bf
:104a8800000000000000000000000000000000001e
:104a9800000000000000000000000000000000000e
:104aa8000000000000000000000000000000c0003e
:104ab800003015001b00000000000000000000008e
:104ac80000000000000000000000000000000000de
:104ad80000000000000000000000000000000000ce
:104ae8000000000000000000000000000000c000fe
:104af800003054001c00000000000000000000000e
:104b0800000000000000000000000000000000009d
:104b1800000000000000000000000000000000008d
:104b28000000000000000000000000000000c000bd
:104b38000030fc001d000000000000000000000024
:104b4800000000000000000000000000000000005d
:104b5800000000000000000000000000000000004d
:104b68000000000000000000000000000000c0007d
:104b78000030e0001e0000000000000000000000ff
:104b8800000000000000000000000000000000001d
:104b9800000000000000000000000000000000000d
:104ba8000000000000000000000000000000c0003d
:104bb8000030f0001f0000000000000000000000ae
:104bc80000000000000000000000000000000000dd
:104bd80000000000000000000000000000000000cd
:104be8000000000000000000000000000000c000fd
:104bf800001062002000000000000000000000001b
:104c0800000000000000000000000000000000009c
:104c1800000000000000000000000000000000008c
:104c28000000000000000000000000000000c000bc
:104c380000107200210000000000000000000000c9
:104c4800000000000000000000000000000000005c
:104c5800000000000000000000000000000000004c
:104c68000000000000000000000000000000c0007c
:104c780000100200220000000000000000000000f8
:104c8800000000000000000000000000000000001c
:104c9800000000000000000000000000000000000c
:104ca8000000000000000000000000000000c0003c
:104cb80000101200230000000000000000000000a7
:104cc80000000000000000000000000000000000dc
:104cd80000000000000000000000000000000000cc
:104ce8000000000000000000000000000000c000fc
:104cf8000010320024000000000000000000000046
:104d0800000000000000000000000000000000009b
:104d1800000000000000000000000000000000008b
:104d28000000000000000000000000000000c000bb
:104d380000104200250000000000000000000000f4
:104d4800000000000000000000000000000000005b
:104d5800000000000000000000000000000000004b
:104d6800000000000000000000000000000000003b
:104d7800000000000000000000000000000000002b
:104d8800000000000000000000000000000000001b
:104d9800000000000000000000000000000000000b
:104da800000000000000000000000000f21a0000ef
:104db8000200000000000000720a00000800000065
:104dc80002000000ff7f000004cc0c00334f0000fd
:104dd8007a0a0000040000000200000066060000d5
:104de80004000000060d00001a0000000200000088
:104df80000000000000000000000000000000000ab
:104e0800000000000000000000000000000000009a
:104e1800000000001a170000060000000200000051
:104e2800c69f1800000000000008000038000000bd
:104e380000000000901700002a0000000200000097
:104e480020004000af7faf0001000000763f7600f1
:104e5800007620000040af007faf010000407600e0
:104e68007f7640007620000040af7f00af01000051
:104e78008076bf007680760000760000c0000000d3
:104e88000200000000000000000000000000000018
:104e9800000000000000000000000000000000000a
:104ea80000000000000000000000000000000000fa
:104eb80000000000000000000000000000000000ea
:104ec80000000000000000000000000000000000da
:104ed80000000000000000000000000000000000ca
:104ee80000000000000000000000000000000000ba
:104ef80000000000000000000000000000000000aa
:104f08000000000000000000000000000000000099
:104f18000000000000000000000000000000000089
:104f28000000000000000000000000000000000079
:104f38000000000000000000000000000000000069
:104f48000000000000000000000000000000000059
:104f58000000000000000000000000000000000049
:104f68000000000000000000000000000000000039
:104f78000000000000000000000000000000000029
:104f8800000000007e0a00000a0000000200000085
:104f98005c3f000010992700d70fd7000f000000d2
:104fa800201700000200000002000000852f00000a
:104fb800200d0000a40000000200000000400000d6
:104fc8000000000000000000400000000000000099
:104fd8000000400000400000000000000000000049
:104fe8004000000000000000000040000000000039
:104ff80000000000000000000000000000000000a9
:105008000000000000000000000000000000000098
:105018000000000000000000000000000000000088
:105028000000000000000000000000000000000078
:105038000000000000000000000000000000000068
:1050480000480800000000002000000000000000e8
:105058002000000000000000000000000000000028
:105068000000000000000000000000000000000038
:105078000000000000000000000000000000000028
:105088000000000000000000000000000000000018
:105098000000000000000000880a00000200000074
:1050a800020000000d000000861a00002e0000001b
:1050b80000000000ee17000048010000000000009a
:1050c800c40d000004000000020000000000000001
:1050d800000000002217000002000000020000008b
:1050e80000000000c80d00001000000002000000d1
:1050f8000000000040000000000000000000000068
:105108000000000000000000241700000400000058
:1051180002000000000010008c000000d01a0000ff
:105128000c00000000000000281700000600000026
:10513800020000000000000000000000ea1a000061
:105148000400000000000000d80d00008a000000e4
:105158000200000000000000000000000000000045
:105168000000000000000000000000000000000037
:105178000000000000000000000000000000000027
:105188000000000000000000000000000000000017
:105198000000000000000000000000000000000007
:1051a80000000000000000000000000000000000f7
:1051b80000000000000000000000000000000000e7
:1051c80000000000000000000000000000000000d7
:1051d80000000000000000000000000000000000c7
:1051e80000000000000000000000000000000000b7
:1051f80000000000000000000000000000000000a7
:105208000000000000000000000000002e17000051
:10521800040000000200000001000000000000007f
:10522800002200000007000002000000000000004b
:105238000000000000000000000000000000000066
:105248000000000000000000000000000000000056
:105258000000000000000000000000000000000046
:105268000000000000000000000000000000000036
:105b8800000000004e1a000038000000000000006d
:105b9800007800004001000000000000007a0000ca
:105ba8004001000000000000807b00000c000000a5
:105bb80000000000807900000c00000000000000d8
:105bc800321700000800000002000000000000007a
:105bd8000000000000000000f41a000002000000ad
:105be80000000000a81400001e02000002000000cf
:105bf800000000000000000000000000000000009d
:105c0800000000000000000000000000000000008c
:105c1800000000000000000000000000000000007c
:105c2800000000000000000000000000000000006c
:105c3800000000000000000000000000000000005c
:105c4800000000000000000000000000000000004c
:105c5800000000000000000000000000000000003c
:105c6800000000000000000000000000000000002c
:105c7800000000000000000000000000000000001c
:105c8800000000000000000000000000000000000c
:105c980000000000000000000000000000000000fc
:105ca80000000000000000000000000000000000ec
:105cb80000000000000000000000000000000000dc
:105cc80000000000000000000000000000000000cc
:105cd80000000000000000000000000000000000bc
:105ce80000000000000000000000000000000000ac
:105cf800000000000000000000000000000000009c
:105d0800000000000000000000000000000000008b
:105d1800000000000000000000000000000000007b
:105d2800000000000000000000000000000000006b
:105d3800000000000000000000000000000000005b
:105d4800000000000000000000000000000000004b
:105d5800000000000000000000000000000000003b
:105d6800000000000000000000000000000000002b
:105d7800000000000000000000000000000000001b
:105d8800000000000000000000000000000000000b
:105d980000000000000000000000e60015a8140044
:105da80000000000000000000000000000000000eb
:105db80000000000000000000000000000000000db
:105dc8000000040016a814000000000000000000f5
:105dd80000000000000000000000000000000000bb
:105de80000000000000000000000220016a81400b7
:105df800000000000000000000000000000000009b
:105e0800000000000000000000000000000000008a
:105e18000000400016a81400000000000000000068
:105e2800000000000000000000000000000000006a
:105e3800000000000000000000005e0016a814002a
:105e4800000000000000000000000000000000004a
:105e5800000000000000000000000000000000003a
:105e680000007c0016a814000000000000000000dc
:105e7800000000000000000000000000000000001a
:105e8800000000000000000000009a0016a814009e
:105e980000000000000000000000000000000000fa
:105ea80000000000000000000000000000000000ea
:105eb8000000b80016a81400000000000000000050
:105ec800000000003a17000018000000020000005f
:105ed800405e40005e405e00405e40005e405e0006
:105ee800405e40005e00000000000000000000006e
:105ef800dc1a000006000000000000005217000035
:105f08001200000002000000000000000000000075
:105f18000000000000000000000000000001000078
:105f280064170000020000000200000028000000c2
:105f3800620e00003c0000000200000000000000ab
:105f48000000000000000000000000000000000049
:105f58000000000000000000000000000000000039
:105f68000000000000000000000000000000000029
:105f78000000000000000000000000000000000019
:105f8800000000000000000000000000ba17000038
:105f980012000000020000000100020000040000de
:105fa8000800100000000000202b2d002330000006
:105fb800c07600000800000002000000686a6c005b
:105fc800747a4c0000000000cc170000220000008a
:105fd80002000000303132003334350036373800e3
:105fe8003961620063646500660030003132330055
:105ff80034353600373839004142430044454600bd
:08600800000000000000000090
:020000040000fa
:106010000400fa00000f7800110798009e0090001d
:1060200050c5b300804878001e0090006100200039
:10603000802c07001e009000104090008080fb0024
:106040001e009000680040007a2c07001e0090009f
:1060500060409000cf2c07001e0090007040900020
:10606000cc2c07000080fa00000006000000fa00b7
:1060700000202c00110020003f2c07000080fa00b7
:10608000000006000200fa00004f78009e407800f1
:10609000e3a32100629321000040eb00be2707002c
:1060a0000004e00002003200609321002202070099
:1060b0000080fa00000006001800fa00881f78002f
:1060c000604798007147980042079800530798006e
:1060d0006e4090008080fb00a0af8400808f500055
:1060e000a1013d007e4090000004e000dd003a0088
:1060f0006e4090000080fb007c00b900fa00400078
:10610000c038290000804000104078000080fb006b
:10611000700798007e009000e30f500047003200a7
:10612000fe009000e38f50000a003c007e019000ca
:10613000e10f51001f003200fe019000e18f51007d
:106140002d003c007e0090000000e0000e003200b8
:10615000b0003700fe009000e58f50005e00320076
:106160007e019000e50f510041003500fe019000d6
:10617000e68f5100660032007e009000e70f50006d
:106180007e003200a30037006e4090000080fb00cc
:106190007c00b900f8004000c038290000804000b1
:1061a000100078001001be00120798002307980025
:1061b0009b0037006e4090000080fb007c00b9001f
:1061c000f8004000c038290000804000100078002e
:1061d000100f78001e007800cf80de0009ee070067
:1061e000020020000368240031ee07001007980029
:1061f000210798008a0037006e4090000080fb0065
:106200007c00b900f8004000c03829000080400040
:1062100010007800100f78001e007800cf80de009c
:10622000f8ed070002e02f00f36f240020ee0700d6
:106230001007980021079800790037006e40900001
:106240000080fb007c00b900f8004000c038290045
:10625000008040001000780010007800cf80de0041
:10626000e8ed070010079800210798006c00370040
:106270006e4090000080fb007c00b900f8004000f8
:10628000c038290000804000100078001004780019
:106290006140b900dbed0700000f9800110f980076
:1062a0000800e00007003d00020020000378240001
:1062b0000e0890009e08900040ee0700000f980026
:1062c000110f98000e0890009e089000100798008b
:1062d00021079800520037006e4090000080fb00bc
:1062e0007c00b900f8004000c03829000080400060
:1062f00010007800104078000000fb00cf80de0026
:10630000c0ed0700100798002107980044003700ef
:106310006e4090000080fb007c00b900f800400057
:10632000c038290000804000100078001044780038
:106330000800fb00cf80de00b2ed0700200f9800c0
:10634000310f98000804e00007003d000200200023
:10635000033824002e089000be08900017ee0700b6
:10636000200f9800310f98002e099000be09900070
:106370001207980023079800290037006e4090000c
:106380000080fb007c00b900f8004000c038290004
:106390000080400010007800104078000000fb00f2
:1063a000cf80de0097ed07001007980021079800c6
:1063b0001e009000ae009000020020004333240035
:1063c0003bed07000200200003302400b8ed070079
:1063d00010079800210798006011b8001e00900077
:1063e000ae00900052ee07000000e0000100350012
:1063f0000b00370002002000433324001e009000f1
:10640000ae009000eded07001007980021079800fe
:10641000030037006000b8001007980021079800bb
:106420006e4090000081fb00a0af840080017800e6
:106430006e4090000080fb007c00b9008000780076
:10644000c038290080804000820278000302780072
:106450001e019000ae0190000000eb00c500070097
:10646000c10037006e4090000080fb007c00b90046
:10647000f4004000c0382900008040001000be0039
:106480004e019000de01900029ee07000000e000c0
:10649000b50035006e4090000080fb007c00b90024
:1064a000f0004000c0382900008040001000be000d
:1064b0004e019000de0190001fee07000000e0009a
:1064c000a9003c006e4090000080fb007c00b900f9
:1064d000fa004000c03829000080400010407800d9
:1064e0000080fb0060079800ee019000e38f5100f0
:1064f000450032006e009000e30f50000a003c009f
:10650000ee009000e18f50001f0032006e019000fd
:10651000e10f51002c003c00ee0190000300e00070
:106520000e0032008d0037006e009000e50f500025
:106530004d003200ee009000e58f50003e00350027
:106540006e019000e60f510053003200ee01900002
:10655000e78f51005c003200800037006e409000f1
:106560000080fb007c00b900f8004000c038290022
:1065700000804000100078004e019000de01900085
:106580000288be0078003700020020000368240063
:106590004e009000de009000c5ec0700f8ec07000c
:1065a000000f78006e4090000080fb007c00b90076
:1065b000f8004000c038290000804000100078003a
:1065c0001e0878006800370002e02f00f36f2400f7
:1065d0004e009000de009000b5ec0700e8ec0700ec
:1065e000000f78006e4090000080fb007c00b90036
:1065f000f8004000c03829000080400010007800fa
:106600001e087800580037006e4090000080fb00a4
:106610007c00b900f8004000c0382900008040002c
:10662000100478004e009000de009000d4ec0700cb
:10663000000c78004c0037006e4090000080fb009a
:106640007c00b900f8004000c038290000804000fc
:10665000100478004e009000de009000b8ed0700b6
:10666000000c7800400037006e4090000080fb0076
:106670007c00b900f8004000c038290000804000cc
:10668000100478004e009000de009000bcec070083
:10669000004c7800340037006e4090000080fb0012
:1066a0007c00b900f8004000c0382900008040009c
:1066b000100478004e009000de009000a0ed07006e
:1066c000004c7800280037000200200043332400eb
:1066d0004e009000de00900097ed07000000e00003
:1066e00001003c00070037004e009000de009000e3
:1066f00002002000433b24002fed070040079800d4
:10670000510798004e009000de009000020020002b
:106710000330240066ec070002002000433324000d
:10672000e3ec070040079800510798006e40900086
:106730000080fb007c00b900f8004000c038290050
:1067400000804000100478004e009000de009000b1
:106750008bec0700004c7800030037006000b800a5
:1067600010079800210798004f0478000080fa0075
:10677000000006001801fa00881f780060079900e1
:1067800071079900020f9900130f9900240f9900c7
:10679000350f990064004700680f4000e40047008f
:1067a00060c1b300d0409800e400470080c1b3004e
:1067b000904098009e0078007e0091000f00090034
:1067c000b05878000101b1000001b1001e0078004e
:1067d0000e0991009e099100020898001308980084
:1067e0001e007800ae099100230898001e00780072
:1067f000be0891003108980081a5200091407800e2
:10680000640047003140980091a520009140780035
:1068100064004700414098006e0091002625070063
:10682000a048900064004700214098006e0091004d
:1068300021250700000478006e0091001e25070046
:10684000204890000040e800204c98006400470079
:10685000104090000080fb00e5004000640047000d
:10686000be240700100798001e00900080407800aa
:1068700064004700614098001e0090004800de0060
:10688000804078006400470071409800e4004700b1
:106890006e009100defd07004f0478000080fa00d2
:1068a000000006000400fa00004f7800114798002d
:1068b00058cabf009e4f500003003a00100020004d
:1068c0001007980019003700605f2900852a07002b
:1068d0001e80fb004400de000043b000ad2a07002c
:1068e0001e4078006f4060000043b000a92a0700f6
:1068f000506129007b2a07001e4090000080fb00a9
:106900004400de000043b000a22a07001e409000b1
:106910006f4060000043b0009e2a0700906129008c
:10692000702a07000000eb00100798001e0090007e
:106930000080fa00000006003400fa0040179800ba
:106940004e109000504090000080fb006101b900a3
:10695000621798007317980020042000010020009f
:106960006e119000fe119000800f5100818f590030
:1069700063013e006e109000fe1090000060010068
:10698000420037005e0137005d0137005c013700cf
:106990005b0137005a0137005901370058013700b1
:1069a0005701370056013700a70037005401370060
:1069b00053013700520137005101370050013700b1
:1069c0004f0137004e0137004d0137004c013700b1
:1069d0004b0137000d01370049013700170137001f
:1069e00047013700460137004501370044013700b1
:1069f00043013700420137004101370040013700b1
:106a00003f0137003e0137003d0137003c013700b0
:106a10003b0137003a0137003901370038013700b0
:106a200037013700360137003501370034013700b0
:106a3000330137003201370031013700f0003700f1
:106a40002f0137002e0137002d0137002c013700b0
