:020000040000FA
:0600000075EF21F0120073
:0600080004EF08F01200F5
:060018000CEF08F01200DD
:0610000075EF21F0120063
:021006001200D6
:06100800F4EF16F01200E7
:02100E000000E0
:081010000000000000010000D7
:0610180047EF17F0120083
:02101E000300CD
:1010200031430000FB050000030000000E1000002B
:10103000D90100000A000000ED3F0000FE0500009D
:0410400001000000AB
:0C104400D9CFE6FFE1CFD9FFE652A0981B
:10105000636A626A0F01266B030EE66EE66AE66A51
:10106000270EE66E0F0EE66E45EC20F0146E050EB0
:10107000E15E14500F01160E396F9F0E376F7B0E15
:10108000366FDF6ADF50146E156A100E145C000EA6
:10109000155810E2DF50040DF3CFE9FFF4CFEAFF5B
:1010A000000EE926040EEA22EE6AEE6AEE6AEE6AA5
:1010B000DF2AE8D7658C0F01386B6598659C62A6BE
:1010C00007D0629600017C6B816B826B836BF7D7D4
:1010D0000001010E986F996F9A6B9B6B8A6BDF6AA8
:1010E000040EDF5C26E2EA6ADF34FE0BEA36E96EC4
:1010F0006F0EE926000EEA22EE6AED6AEA6ADF3434
:10110000FE0BEA36E96E670EE926000EEA22EE6A69
:10111000ED6ADF50EA6A8E0FE96E000EEA22EF6A8E
:10112000DF50EA6A920FE96E000EEA22EF6ADF2AC8
:10113000D7D70001080E6F6F040E706F0F01160EE7
:10114000266F0401400E026F040E036F080E016F3C
:10115000840E006F0001616B606BE552E552E7CFD2
:10116000D9FF1200D9CFE6FFE1CFD9FFE652000147
:10117000600509E165BA07D0626A0F0136813689D8
:101180000001020E606F6250040B06E00F01365141
:10119000040B02E06294CED865B25CD06250010BC1
:1011A0000AE00F013651010B06E04CDFA088000178
:1011B000040E606F62906250100B06E00F01365112
:1011C000100B02E0A1D8629862AC1AD00F0136ADC4
:1011D0000FD0010EE66EE66A000EE66EE66A730E4A
:1011E000E66EE66AD2EC1AF0146E060EE15E14505A
:1011F000629C0001965101E09607965101E154DB93
:101200006250200B05E00F013651200B01E062D83F
:101210006250020B14E00F013651020B10E0010E78
:10122000E66EE66A000EE66EE66AE6687F0EE66E39
:10123000D2EC1AF0146E060EE15E1450636A040ECE
:101240000001E76E6019E8AE02D0E73402D0E75043
:10125000605D02E2A19839D00F0136A735D0DF6A70
:10126000040EDF5C31E262A62FD064CF8BF0000168
:101270008B51780BE842E842E8428C6F62968BB55E
:1012800006D08C51EA6A920FE96E000E05D08C519F
:10129000EA6A8E0FE96E000EEA22EF708C5102E1CD
:1012A00061D810D0000EE66EE66A8B0EE66E000E78
:1012B000E66E720EE66EE66AD2EC1AF0146E060E58
:1012C000E15E1450DF2ACCD7A198E552E552E7CF72
:1012D000D9FF12000F0126A115D063C0E9FF64C039
:1012E000EAFFEF5080080DE16FC0E9FF70C0EAFF30
:1012F000EF50840806E163C0E9FF64C0EAFF8C0E8A
:10130000EF6E2691629A12000F013685629865820F
:101310000001010E8A6F000EE66EE66AE66EE66A6E
:10132000750EE66EE66AD2EC1AF0146E060EE15EF9
:101330001450120000018A6B000EE66EE66AE66E3B
:10134000E66A740EE66EE66AD2EC1AF0146E060EC9
:10135000E15E145065920F01369562A402D062944A
:10136000FCD71200D9CFE6FFE1CFD9FFE65200014A
:101370002D0E966FFD0E8B1553E17E0E8B15E840FA
:101380007F0B040DF3CF63F0F4CF64F0000E6327FE
:10139000040E642363C065F064C066F0657563C0C5
:1013A000E9FF64C0EAFFEF503C0BE842E8420D0859
:1013B00035E1DF6A080EDF5C23E263C0E9FF64C049
:1013C000EAFF020EE926000EEA22EE50EFCFEAFF16
:1013D000E96EEF50E66EDF50EA6A400FE96E040EE8
:1013E000EA22E552E750EF6E63C0E9FF64C0EAFF0E
:1013F000020EE926000EEA22EE2AEF22DF2ADAD7D1
:1014000063C0E9FF64C0EAFF020EE926000EEA228B
:10141000400EEE6E040EED6E0DD807D03AD805D012
:10142000FD0E8B15040801E159D8E552E552E7CFCE
:10143000D9FF12000001776B976B9A6B9B6B8D6BDA
:10144000786B6FC0E9FF70C0EAFFEF9E6F756FC0E9
:10145000E9FF70C0EAFFEF9E6F7565C0E9FF66C0E7
:10146000EAFFEF9E7C6B7D6B7E6B816B826B836B87
:1014700092D8000EE66EE66AE66EE66A030EE66E47
:10148000E66AD2EC1AF0146E060EE15E1450E1EF3B
:101490000DF0020E0001785D02E1A4EF0EF0786B12
:1014A0008D511AE165C0E9FF66C0EAFFEE52080EF1
:1014B000EF6E65C0E9FF66C0EAFF020EE926000E86
:1014C000EA22400EEE6E040EED6E65C0E9FF66C0C6
:1014D000EAFF8C0EEF6E12008D6B1200D9CFE6FF83
:1014E000E1CFD9FFE6526FC0E9FF70C0EAFFEF50CD
:1014F000400B01E0010EDF6E00016F75080E605DAC
:101500000BE142C438FF0F01385103E00001100E17
:1015100002D00001040E606F780526E16FC0E9FF7C
:1015200070C0EAFF020EE926000EEA22480EEE6EB7
:10153000040EED6EA7DB020E0001775D06E16FC0C1
:10154000E9FF70C0EAFF840E0DD0DF5006E16FC0E6
:10155000E9FF70C0EAFFC80E05D06FC0E9FF70C098
:10156000EAFF880EEF6E12D081AF0FD08451851143
:10157000861109E007D086C0FBFF85C0FAFF000195
:101580008451F96EF8DF0001819F786BE552E552D6
:10159000E7CFD9FF120004014051600BE842E84256
:1015A000E842E842E842000901E0120041510C0A19
:1015B00050E00B0A3FE00C0A31E0010A22E00B0A7E
:1015C0001EE0020A1CE0030A18E0080A10E0010A03
:1015D0000CE00F0A08E0030A01E0120000017C8F12
:1015E000080E606F1200E3EF0CF046EF0FF0000101
:1015F000610E796F000E7A6F0CD087EF0DF02AEF35
:101600000BF044510001796F7A6B620E7927000E5E
:101610007A237C81010E7D6F7C8F120000017C8F0C
:1016200004014451EA6A620FE96E000EEA2242C4E4
:10163000EFFF1200000EE66EE66AE66EE66A020E44
:10164000E66EE66AD2EC1AF0146E060EE15E1450F5
:1016500012001200D9CFE6FFE1CFD9FF030EE12639
:101660000401420510E140511F0B00090CE100018B
:101670007C8F030E0401415D04E10001010E896FBE
:1016800002D00001896B0401425101E003D14051B5
:101690001F0B020801E0FED044510F0B000901E1CD
:1016A000F9D044510F0B030801E2F4D0200E0001E1
:1016B000605D01E0EFD07C8F040144BF16D044513F
:1016C0000F0BE96EEA6AD890E936EA36670EE9262A
:1016D000000EEA22EECFDEFFEDCFDDFF44510F0B0F
:1016E000EA6A920FE96E000E15D044510F0BE96EB5
:1016F000EA6AD890E936EA366F0EE926000EEA2249
:10170000EECFDEFFEDCFDDFF44510F0BEA6A8E0F07
:10171000E96E000EEA22020EEFCFDBFFD950020F76
:10172000E96EDACFEAFFEF50010B03E1000EDF9420
:1017300001D0DF8444BF0BD044510F0BE96EEA6A3D
:10174000D890E936EA36670EE926000E0AD04451F1
:101750000F0BE96EEA6AD890E936EA366F0EE92691
:10176000000EEA22DECFEEFFDDCFEDFF030E415D7E
:1017700020E1DECFE9FFDDCFEAFFEF50800B11E083
:1017800044BF07D044510F0BEA6A920FE96E000E76
:1017900006D044510F0BEA6A8E0FE96E000EEA2262
:1017A000EF82840EDECFE9FFDDCFEAFFE850EF12D3
:1017B00071D0DF74DECFE9FFDDCFEAFFEF50800BA1
:1017C0001BE0DECFE9FFDDCFEAFFEF9EDECFE9FFD2
:1017D000DDCFEAFFEF8C020EE66EE66ADECFE6FFB3
:1017E000DDCFE6FF050EE66EE66AD2EC1AF0146E67
:1017F000060EE15E145005D0DECFE9FFDDCFEAFF33
:10180000EF8CDF74D950020FE96EDACFEAFFEF50A8
:10181000020B0EE1DECFE9FFDDCFEAFFEF50800BD8
:1018200032E0DECFE9FFDDCFEAFFEF50040B2BE122
:10183000040144BF07D044510F0BEA6A920FE96ECE
:10184000000E06D044510F0BEA6A8E0FE96E000EAF
:10185000EA22EF923B0E146EDECFE9FFDDCFEAFF06
:10186000E850EF16020EE66EE66ADECFE6FFDDCF49
:10187000E6FF050EE66EE66AD2EC1AF0146E060E6E
:10188000E15E145007D03B0EDECFE9FFDDCFEAFF6B
:10189000E850EF16030EE15C02E2E16AE552E16E08
:1018A000E552E7CFD9FF1200000198514DE1010E3A
:1018B000986F995149E1010E996F020E785D0DE123
:1018C0006FC0E9FF70C0EAFFEE52EF6A6FC0E9FF38
:1018D00070C0EAFFC80EEF6E1200780535E18D6B1F
:1018E00063C0E9FF64C0EAFFEE52080EEF6E63C00A
:1018F000E9FF64C0EAFF020EE926000EEA22400E6C
:10190000EE6E040EED6E63C0E9FF64C0EAFF840E64
:10191000EF6E010E8D6F65C0E9FF66C0EAFFEE5203
:10192000080EEF6E65C0E9FF66C0EAFF020EE92609
:10193000000EEA22400EEE6E040EED6E65C0E9FF69
:1019400066C0EAFF800EEF6E120000019A6B9B6B7F
:10195000020E785D18E165C0E9FF66C0EAFFEE524D
:10196000080EEF6E65C0E9FF66C0EAFF020EE926C9
:10197000000EEA22480EEE6E040EED6E65C0E9FF21
:1019800066C0EAFF1DD07D510401465D00017E5115
:101990000401475904E246C47DF047C47EF072D981
:1019A0006FC0E9FF70C0EAFF020EE926000EEA22CE
:1019B000480EEE6E040EED6E6FC0E9FF70C0EAFFD8
:1019C000C80EEF6E1200800E0401405D01E09ED053
:1019D0000001C00E7C6F04014351030A57E0010A65
:1019E0000CE0030A01E090D00001040E796F3F0E75
:1019F0007A6F000E7B6F120E81D0E10E146E3F0ED7
:101A0000156E000E166E42C417F0186A196A030E9E
:101A10000C6E0D6A0E6A17C007F018C008F019C0E6
:101A200009F0AEEC20F014500424F36E155005209C
:101A3000F46E16500620F86EF4CFF7FFF3CFF6FFE2
:101A40000900F5CF79F00900F5CF7AF00800F5CF5D
:101A50007BF079C0F6FF7AC0F7FF7BC0F8FF020E7B
:101A6000F626000EF722F8220800F5CF7DF079C0A7
:101A7000F6FF7AC0F7FF7BC0F8FF030EF626000ED4
:101A8000F722F8220800F5CF7EF01200030E425D27
:101A900038E2E40E146E3F0E156E000E166E42C450
:101AA00017F0186A196A030E0C6E0D6A0E6A17C0D9
:101AB00007F018C008F019C009F0AEEC20F014507F
:101AC0000424F36E15500520F46E16500620F86EAF
:101AD000F4CFF7FFF3CFF6FF0900F5CF79F0090057
:101AE000F5CF7AF00800F5CF7BF079C0F6FF7AC029
:101AF000F7FF7BC0F8FF0800F55000017D6F7E6B9B
:101B0000120000017C6B120000017C6B1200D9CF27
:101B1000E6FFE1CFD9FF020EE1260401486B496BD5
:101B200040511F0B020A11E0030A0CE0010A35E1E3
:101B300000017C8F04014881000189052EE1040128
:101B400048832BD000017C8F28D000017C8F0401BA
:101B500044BF0BD044510F0BE96EEA6AD890E936C6
:101B6000EA36670EE926000E0AD044510F0BE96EE3
:101B7000EA6AD890E936EA366F0EE926000EEA22C4
:101B8000EECFDEFFEDCFDDFFDECFE9FFDDCFEAFFF9
:101B9000EF50040B02E0010E486F00017CAF07D04C
:101BA000480E796F040E7A6F7C81020E7D6F020EF3
:101BB000E15C02E2E16AE552E16EE552E7CFD9FF6E
:101BC0001200659800017CBF2BD081AF09D0020EB6
:101BD000786F9B5101E1B9DE0001996B986B12009F
:101BE00065C0E9FF66C0EAFFEE52080EEF6E65C001
:101BF000E9FF66C0EAFF020EE926000EEA22400E67
:101C0000EE6E040EED6E65C0E9FF66C0EAFF8C0E55
:101C1000EF6E6FC0E9FF70C0EAFF840EEF6E120036
:101C2000040140AF0DD00001010E786F9A5101E11F
:101C30008CDE0001996B986B975123E154EF0CF007
:101C40000001020E786F65C0E9FF66C0EAFFEE5240
:101C5000080EEF6E65C0E9FF66C0EAFF020EE926D6
:101C6000000EEA22400EEE6E040EED6E65C0E9FF36
:101C700066C0EAFF840EEF6E996B986B975101E195
:101C800013DE1200D9CFE6FFE1CFD9FFE652080EEE
:101C9000DF6E00017D5D000E7E590AE27DC0DFFF30
:101CA000775102E1010E03D0770502E1020E776F52
:101CB000DF50156AE8507D5D7D6F15507E597E6F4F
:101CC0006FC0E9FF70C0EAFFEE52DFCFEFFF480EB2
:101CD000876F040E886F7CB11BD0DF5030E079C075
:101CE000F6FF792B7AC0F7FF000E7A237BC0F8FF4E
:101CF0007B230800F550E66E87C0E9FF88C0EAFF45
:101D0000872B000E8823E552E750EF6EDF06E5D7FC
:101D1000DF5015E079C0E9FF7AC0EAFF792B000EA9
:101D20007A23EF50E66E87C0E9FF88C0EAFF872B71
:101D3000000E8823E552E750EF6EDF06E9D7E55243
:101D4000E552E7CFD9FF1200D9CFE6FFE1CFD9FFA7
:101D5000020EE12663C0E9FF64C0EAFFEE52EFCF56
:101D6000DFFFDFCF14F014500001825D000E8359B5
:101D700002E282C0DFFFDF50146E156AE850825D18
:101D8000826F15508359836F010EDB6ADF50F36E4B
:101D9000010EDBCFF4FFF350F45C16E2010EDB50D2
:101DA000EA6A480FE96E040EEA22EF50E66E7FC041
:101DB000E9FF80C0EAFF7F2B000E8023E552E75049
:101DC000EF6E010EDB2AE2D7000ED8808255000E9E
:101DD000835527E265C0E9FF66C0EAFFEE52080EB0
:101DE000EF6E65C0E9FF66C0EAFF020EE926000E4D
:101DF000EA22480EEE6E040EED6E63C0E9FF64C089
:101E0000EAFFEF50400B06E165C0E9FF66C0EAFF5C
:101E1000C80E05D065C0E9FF66C0EAFF880EEF6E08
:101E20002BD065C0E9FF66C0EAFFEE52080EEF6EE8
:101E300065C0E9FF66C0EAFF020EE926000EEA224D
:101E4000400EEE6E040EED6E65C0E9FF66C0EAFF5F
:101E5000840EEF6E84518511861109E007D086C08B
:101E6000FBFF85C0FAFF00018451F96EF8DF000125
:101E7000819F975101E118DD020EE15C02E2E16A07
:101E8000E552E16EE552E7CFD9FF1200D9CFE6FF68
:101E9000E1CFD9FFE65200017C8F030EE66EE66AC1
:101EA000E66A270EE66E0F0EE66E45EC20F0146E25
:101EB000050EE15E1450DF6ADF50146E156A100ED5
:101EC000145C000E155810E2DF50040DF3CFE9FF4B
:101ED000F4CFEAFF000EE926040EEA22EE6AEE6A6B
:101EE000EE6AEE6ADF2AE8D7658C010EE66EE66AD6
:101EF000E66A620EE66E000EE66E45EC20F0146EA9
:101F0000050EE15E1450659C0001080E6F6F040E13
:101F1000706F000E636F040E646F63C065F0666FD0
:101F200042C461F0615102E1100E12D0010EE66E62
:101F3000E66A610EE66E000EE66E010EE66EE66A79
:101F4000D2EC1AF0146E060EE15E14500001200E61
:101F5000606FE552E552E7CFD9FF1200D9CFE6FF17
:101F6000E1CFD9FF020EE126000EDE6E040EDD6E1B
:101F7000FD0EDB50E824166EFE0EDB50040DF35010
:101F80001624040DF4CF15F0D9CFE9FFDACFEAFF1C
:101F9000F350EE261550ED22DECFE9FFDDCFEAFF4C
:101FA000EF9EFD0EDB500AE1FE0EEA6ADB34FE0B0B
:101FB000EA36E96E670EE926000E09D0FE0EEA6ADF
:101FC000DB34FE0BEA36E96E6F0EE926000EEA22DC
:101FD000DECFEEFFDDCFEDFFDECFE9FFDDCFEAFFA5
:101FE000EF9CDECFE9FFDDCFEAFF040EE926000E0D
:101FF000EA22EF8C020EE15C02E2E16AE552E16E58
:10200000E552E7CFD9FF1200D9CFE6FFE1CFD9FFE4
:10201000020EE126FD0EDBA407D0E66AFE0EDBCF42
:10202000E6FF9CDFE552E552FD0EDBA208D0010E73
:10203000E66EFE0EDBCFE6FF91DFE552E552FE0EC7
:10204000DB50156A260F146E0F0E152214C0DEFF2A
:1020500015C0DDFFDECFE9FFDDCFEAFFFD0EDBCFF0
:10206000EFFF020EE15C02E2E16AE552E16EE55249
:10207000E7CFD9FF1200D9CFE6FFE1CFD9FF020E9B
:10208000E126FE0EDB5020E165C0E9FF66C0EAFFF5
:10209000EE52080EEF6E65C0E9FF66C0EAFF020E61
:1020A000E926000EEA22400EEE6E040EED6E65C0CB
:1020B000E9FF66C0EAFF8C0EEF6E6FC0E9FF70C0EB
:1020C000EAFF840EEF6E3BD0FD0EDB50E824166E67
:1020D000FE0EDB50040DF3501624040DF3CF14F064
:1020E000F4CF15F0000E1426040E152214C0DEFFE6
:1020F00015C0DDFF840EDECFE9FFDDCFEAFFE8503B
:10210000EF12FD0EDB50E824166EFE0EDB50040DC0
:10211000F3501624010F040DF3CF14F0F4CF15F093
:10212000000E1426040E152214C0DEFF15C0DDFFBC
:10213000840EDECFE9FFDDCFEAFFE850EF12020E9A
:10214000E15C02E2E16AE552E16EE552E7CFD9FFD8
:102150001200D9CFE6FFE1CFD9FF020EE126FD0E36
:10216000DB500AE0FE0EEA6ADB34FE0BEA36E96E6B
:102170006F0EE926000E09D0FE0EEA6ADB34FE0B74
:10218000EA36E96E670EE926000EEA22EECFDEFFA0
:10219000EDCFDDFFD9CFE9FFDACFEAFFEE50ED104A
:1021A00003E1F36AF46A44D0DECFE9FFDDCFEAFF52
:1021B000020EE926000EEA22FB0EDBCFEEFFFC0E3C
:1021C000DBCFEDFFDECFE9FFDDCFEAFFEE52FA0E07
:1021D000DBCFEFFF400EDECFE9FFDDCFEAFFE850B7
:1021E000EF16880EDECFE9FFDDCFEAFFE850EF12F1
:1021F000FD0EDB500AE0FE0EEA6ADB34FE0BEA3627
:10220000E96E6F0EE926000E09D0FE0EEA6ADB3495
:10221000FE0BEA36E96E670EE926000EEA22EF743D
:10222000DECF14F0DDCF15F014C0F3FF15C0F4FFBE
:10223000020EE15C02E2E16AE552E16EE552E7CFAF
:10224000D9FF1200D9CFE6FFE1CFD9FF65A84ED064
:10225000FE0EEA6ADB34FE0BEA36E96E6F0EE92603
:10226000000EEA22EE50EFCFEAFFE96E400EEE16C6
:10227000EE6AEE6AEE6AFE0EEA6ADB34FE0BEA36BE
:10228000E96E6F0EE926000EEA22EE50EFCFEAFF6C
:10229000E96EEE7CFE0EEA6ADB34FE0BEA36E96E8E
:1022A0006F0EE926000EEA22EF74400E146EFE0E49
:1022B000EA6ADB34FE0BEA36E96E6F0EE926000EA1
:1022C000EA22EE50EFCFEAFFE96E1450EF16FE0E51
:1022D000EA6ADB34FE0BEA36E96E6F0EE926000E81
:1022E000EA22EE50EFCFEAFFE96EEF7CE552E7CF4E
:1022F000D9FF1200656A0F01366B0001606B120096
:102300000001605114E1656A0F01366B160E396FDA
:102310009F0E376F7B0E366FD08EA288A088F28E0C
:1023200065B602D06586FCD70001010E606F120011
:102330000401B66BB76B400EE66E500EE66E040EEF
:10234000E66EE66A010EE66EA9EC10F0146E050E5C
:10235000E15E1450F3CFB4F4F4CFB5F404017C6B18
:102360000501FE6904017D6B7E6BC36BC46BC56B9D
:10237000C66BC76BC86BC96BCA6BBA6BBB6B8D6B1B
:10238000010E8D5D22E28D51EA6ABC0FE96E040EEA
:10239000EA22EF6A55EC1DF0000912E061EC1DF035
:1023A000F3CF14F0F4CF15F0F350F41009E004016A
:1023B0008D5183EC21F0F3500401BA13F450BB1398
:1023C000D2EC16F004018D2BDBD712000401405132
:1023D0001F0B010801E01200445101E012004151BD
:1023E000FE0A0BE0010A01E0120004017C6B05010A
:1023F000FE6904017D6B7E6B12000401486B0001D5
:10240000480E796F040E7A6F010E7D6F7E6BC10EE0
:102410007C6F1200D9CFE6FFE1CFD9FFE65204016D
:102420007C51030A01E1B7D0010A01E1A3D0030AFC
:1024300001E19CD0010A01E0F6D0B451B51102E1EE
:10244000000E08D0B4C4E9FFB5C4EAFFEF50800B1A
:1024500001E0010E000901E0E7D050C480F451C44E
:1024600081F452C482F453C483F454C484F455C434
:1024700085F456C486F457C487F458C488F459C404
:1024800089F45AC48AF45BC48BF45CC48CF45DC4D4
:102490008DF45EC48EF4DF6A04015E51DF5C13E2EA
:1024A000DF50EA6A5F0FE96E040EEA22EF50E66E33
:1024B000DF50EA6A8F0FE96E040EEA22E552E75018
:1024C000EF6EDF2AE9D7B4C4E9FFB5C4EAFFEE52E4
:1024D000EFCF9FF41F0E04019F5D01E0A5D0550EC4
:1024E000801901E0A1D0530E811901E09DD0420E68
:1024F000821901E099D0430E831901E095D08D51E6
:102500000F0801E291D08E51100801E28DD0010E2A
:102510008E5D01E289D08C5104E0800E8C5D01E07B
:1025200083D084C473F485C474F486C475F487C4FA
:1025300076F40401550E6F6F530E706F420E716F7B
:10254000530E726F04017F6B030E8F5D06E0A29144
:10255000A293A295A297AC6BAD6B800E8C5D02E14D
:10256000010E17D08C5160E1020E13D01DDAFF0866
:102570005BE10DD019DAFF0857E104017B5107E157
:102580007751781179117A1102E0020E7B6F040104
:10259000030E7C6F49D0B651B71102E1000E08D08E
:1025A000B6C4E9FFB7C4EAFFEF50800B01E0010EAB
:1025B00000093AE10D0EE66E6F0EE66E040EE66E51
:1025C000010EE66EE66EA9EC10F0146E050EE15EEB
:1025D0001450F3CFB6F4F4CFB7F40401B451B511ED
:1025E00002E1000E08D0B4C4E9FFB5C4EAFFEF5021
:1025F000800B01E0010E000913E11F0EE66E500E84
:10260000E66E040EE66EE66A010EE66EA9EC10F0C8
:10261000146E050EE15E1450F3CFB4F4F4CFB5F4AC
:1026200004017C6B01D07C6B04017C51E552E552C6
:10263000E7CFD9FF1200D9CFE6FFE1CFD9FF090ECE
:10264000E1260501FE51FE0A01E1F7D0030A01E18E
:10265000C9D0D20A01E1BDD0340A01E1BAD01B0AC7
:1026600001E1ACD01E0A01E199D0040A01E18BD04E
:10267000190A65E0290A5EE0020A57E00D0A1EE029
:10268000370A06E0ED0A01E0D8D08FC4FEF5E8D0A5
:10269000240EE66EE66AA60EE66E420EE66E000EAA
:1026A000E66E000EE66E060EE66E22EC20F0146E6C
:1026B000070EE15E14500401240E5FD004017B6B11
:1026C0005AEC1DF0050E06C0DBFF060E07C0DBFF4F
:1026D000070E08C0DBFF080E09C0DBFF56EC1DF03B
:1026E000010EF3CFDBFF020EF4CFDBFF030EDB6A3C
:1026F000040EDB6A080EDBCF00F6070EDBCF01F617
:10270000060EDBCF02F6050EDBCF03F6040EDBCFA1
:1027100004F6030EDBCF05F6020EDBCF06F6010E44
:10272000DBCF07F60401080E37D08BD9000901E092
:1027300097D055D045DA000901E092D050D0DF6A39
:10274000DF50146E156A120E145C000E155813E259
:10275000DF50EA6AA00FE96E040EEA22EF50E66E3F
:10276000DF50EA6A000FE96E060EEA22E552E750F2
:10277000EF6EDF2AE5D70401120E776F786B796B65
:102780007A6B7B6B6AD00601020E006F016B026BE5
:10279000036B04017B6B040E776F5CD055EC1DF06E
:1027A000000917E10401A291A283A295A2973A0E13
:1027B000AC6FAD6B0401010E7B6F11D00401A2510F
:1027C0000F0B060803E104017B0509E0EBDA0401C5
:1027D00002D004017B6B776B786B796B7A6B0501A8
:1027E000FE693ED00401B651B71102E1000E08D0D7
:1027F000B6C4E9FFB7C4EAFFEF50800B01E0010E59
:1028000000092EE177C4E6FF000EE66E060EE66EC6
:10281000010EE66EE66EA9EC10F0146E050EE15E98
:102820001450F3CFB6F4F4CFB7F40501FE690401F8
:10283000776B786B796B7A6B13D0B4DA0401A28171
:10284000A293A285A297200EAC6FAD6B0401010E7E
:102850007B6F776B786B796B7A6B0501FD0EFE6F82
:10286000090EE15C02E2E16AE552E16EE552E7CF72
:10287000D9FF1200D9CFE6FFE1CFD9FFE65205011B
:10288000FE51FD0A55E0020A50E0ED0A30E00C0A64
:1028900001E180D01E0A01E17DD0030A74E182DAF1
:1028A0000401A291A283A295A2973A0EAC6FAD6BE0
:1028B000DF6ADF50146E156A120E145C000E155894
:1028C00013E2DF50EA6AA00FE96E040EEA22EF502D
:1028D000E66EDF50EA6A000FE96E060EEA22E55264
:1028E000E750EF6EDF2AE5D70401120E15D0240E53
:1028F000E66EE66AA60EE66E420EE66E000EE66E26
:10290000000EE66E060EE66E22EC20F0146E070E48
:10291000E15E14500401240E776F786B796B7A6B4B
:102920007B6B0501FD0EFE6F3AD08FC4FEF537D0EC
:102930000401B651B71102E1000E08D0B6C4E9FF98
:10294000B7C4EAFFEF50800B01E0010E000927E158
:1029500077C4E6FF000EE66E060EE66E010EE66E2A
:10296000E66EA9EC10F0146E050EE15E1450F3CF84
:10297000B6F4F4CFB7F40501FE690401776B786B08
:10298000796B7A6B0CD0010EE66EE66E3BEC10F0C4
:10299000E552E5520401010E7B6F0501FE69E55227
:1029A000E552E7CFD9FF120055EC1DF0000909E010
:1029B00004018D51EA6ABC0FE96E040EEA22EF04AD
:1029C00010E104018D5183EC21F0F3CF14F0F4CF2A
:1029D00015F0141E151E14500401BA171550BB171C
:1029E0002AD08D5183EC21F00401BA51F314146EF6
:1029F000BB51F414156E145015101FE161EC1DF05D
:102A0000F3CF14F0F4CF15F0F350F41014E00401F8
:102A10008D5183EC21F0F3500401BA13F450BB1331
:102A2000A291A283A285A297280EAC6FAD6B040180
:102A3000010E7B6F02D01EDF01D0FDDD0501FE51CE
:102A4000120004017D51040A01E17BD0070A6CE009
:102A5000010A23E0030A18E0010A01E0AAD091C4A8
:102A6000C2F492C4C1F493C4C0F494C4BFF496C435
:102A7000BEF497C4BDF404017B6B776B786B796B04
:102A80007A6B0401010E7D6FBD51BE1101E195D03D
:102A9000BD07000EBE5B020E7D6FB651B71102E19D
:102AA000000E08D0B6C4E9FFB7C4EAFFEF50800BB0
:102AB00001E0010E000901E081D0000EE66E060E75
:102AC000E66EBFC4E6FFC0C4E6FFC1C4E6FFC2C4F1
:102AD000E6FF6AEC1DF0146E060EE15E145001086C
:102AE00010E0640E04017F5D02E27F2B67D00401D9
:102AF000010E7B6F0401A281A283A295A297AC6B09
:102B0000AD6B0401BF2B000EC023C123C2230401FF
:102B1000776B020E786F796B7A6B0401000EB26FDF
:102B2000060EB36F030E7D6F040177517811791192
:102B30007A1104E10401010E7D6F40D00401040EFE
:102B40007D6FB651B71102E1000E08D0B6C4E9FF9F
:102B5000B7C4EAFFEF50800B01E0010E00092EE13F
:102B6000400EE66EB2C4E6FFB3C4E6FF010EE66EA9
:102B7000E66EA9EC10F0146E050EE15E1450F3CF72
:102B8000B6F4F4CFB7F40401030E7D6F400E885FF6
:102B9000000E895B8A5B8B5B400E0401775F000E41
:102BA000785B795B7A5B400E0401B227000EB32399
:102BB00005D00401020E7B6F04017D6B7D51120074
:102BC00004017E51020A01E1AAD0060A6DE0070A5B
:102BD00026E0020A14E0010A01E0DDD091C4C2F44B
:102BE00092C4C1F493C4C0F494C4BFF496C4BEF4B8
:102BF00097C4BDF404017B6B0401010E7C6FBD51D1
:102C0000BE1101E1CCD0030E7E6F000EB26F060E36
:102C1000B36F0401776B020E786F796B7A6BD88093
:102C2000000E04017755000E7855000E7955000E00
:102C30007A5528E20401B451B51102E1000E08D022
:102C4000B4C4E9FFB5C4EAFFEF50800B01E0010E08
:102C5000000901E0A5D0400EE66EB2C4E6FFB3C4A1
:102C6000E6FFE66A010EE66EA9EC10F0146E050EA2
:102C7000E15E1450F3CFB4F4F4CFB5F40401040EC4
:102C80007E6F12D081EC1FF000090BE00401010EF1
:102C90007B6F0401A291A283A295A297270EAC6F2D
:102CA000AD6B0401020E75D0B451B51102E1000EF6
:102CB00008D0B4C4E9FFB5C4EAFFEF50800B01E0CF
:102CC000010E00096DE1B4C4E9FFB5C4EAFFEE529C
:102CD000EFCF14F0156A166A176A1450885F155002
:102CE000895B16508A5B17508B5BB4C4E9FFB5C48F
:102CF000EAFFEE52EFCF14F0156A166A176A145005
:102D00000401775F1550785B1650795B17507A5B3A
:102D1000400E0401B227000EB323030E3AD0040183
:102D20007B512EE10401BF51C011C111C21102E15A
:102D3000010E01D0000EE66E000EE66E060EE66E87
:102D4000BFC4E6FFC0C4E6FFC1C4E6FFC2C4E6FFDD
:102D5000BAEC1DF0146E070EE15E1450010810E08D
:102D6000640E04017F5D02E27F2B1AD00401010E84
:102D70007B6F0401A281A283A295A297AC6BAD6B7D
:102D80000401BF2B000EC023C123C223BD07BE5BBD
:102D9000010E7E6F05D00401020E7B6F04017E6B75
:102DA0007E5112000401A091A093A095A097A08944
:102DB000A08BA08DA09FA16BA291A293A295A29798
:102DC000A29BA29DA29FA36BA46BA56BA66B0A0EF0
:102DD000A76FA86BA96BAA6BAB6BAC6BAD6BAE6B43
:082DE000AF6BB06BB16B120088
:082DE800DACFE4FFE2CFDAFFCD
:102DF000E9CFE4FFEACFE4FFF6CFE4FFF7CFE4FF4B
:102E0000F8CFE4FFF5CFE4FFF3CFE4FFF4CFE4FF26
:102E1000FACFE4FFFBCFE4FF00EE00F0140EE8046D
:102E200003E3EECFE4FFFBD700EE14F0080EE80456
:102E300003E3EECFE4FFFBD7E652B2EC08F0E55235
:102E400000EE1BF0080EE80403E3E5CFEDFFFBD72F
:102E500000EE13F0140EE80403E3E5CFEDFFFBD71B
:102E6000E5CFFBFFE5CFFAFFE5CFF4FFE5CFF3FFBA
:102E7000E5CFF5FFE5CFF8FFE5CFF7FFE5CFF6FFAC
:102E8000E5CFEAFFE5CFE9FFE5CFDAFF1100D8CFC4
:102E9000E4FFE0CFE4FFE46EDACFE4FFE9CFE4FF44
:102EA000EACFE4FFE6529EAA17D0ACA205D0AC98B8
:102EB000AFCF10F5AC8802D0AFCF10F50101D951DA
:102EC000EA6A000FE96E050EEA2210C5EFFFD92B62
:102ED000D9510F0801E2D96BE552E5CFEAFFE5CF02
:102EE000E9FFE5CFDAFFE550E5CFE0FFE5CFD8FF1A
:102EF000100004D880EC11F0FED9FED7D9CFE6FF40
:102F0000E1CFD9FF020EE1260F0EC112580EDE6E80
:102F1000020EDD6E9B8CDFCF14F0DF06010EDBCFDF
:102F200015F001E2DB0614501510F5E10F01FC0E5F
:102F3000486F49690CD822EC08F0020EE15C02E20D
:102F4000E16AE552E16EE552E7CFD9FF1200D9CF31
:102F5000E6FFE1CFD9FFE6521FD8DF6ADF50146EDB
:102F6000156A410E145C000E155809E2DF50EA6A3A
:102F7000890FE96E010EEA22EF6ADF2AEFD701011D
:102F8000436B446B466B476BCC6BCB6BCA6BE552A8
:102F9000E552E7CFD9FF1200D9CFE6FFE1CFD9FF45
:102FA000E652948E949C240EAD6E900EAC6E710E13
:102FB000B06E020E7F6E9D8A9F9AF28C380E7E6EE6
:102FC000AF50DF6EE552E552E7CFD9FF1200D9CFFF
:102FD000E6FFE1CFD9FFFE0EDB50AE6EE552E7CF44
:102FE000D9FF1200D9CFE6FFE1CFD9FF220EE126AB
:102FF000D880800E05015155840E52551E0E535532
:10300000000E545501E259D151C5D9F552C5DAF532
:1030100053C5DBF554C5DCF5186A1B0E196EB70EE7
:103020001A6E1B6A18C006F019C007F0086E1BC0A4
:1030300009F0D9C50BF0DAC50CF0DBC50DF0DCC525
:103040000EF02FEC21F006C014F007C015F008C0F8
:1030500016F009C017F01406000E155A165A175A22
:1030600014C0DFFF010E15C0DBFF020E16C0DBFF30
:10307000030E17C0DBFF010E186E196A1A6A1B6A6D
:10308000D9CFE9FFDACFEAFFEE501826EE50192229
:10309000EE501A22EE501B22146A1B0E156EB70E4C
:1030A000166E176A14C006F015C007F0086E17C038
:1030B00009F018C00BF019C00CF01AC00DF01BC0BD
:1030C0000EF02FEC21F0100E06C0DBFF110E07C032
:1030D000DBFF120E08C0DBFF130E09C0DBFFD95067
:1030E000100FE96EDACFEAFF0501D951EE5C146EDC
:1030F000DA51EE58156EDB51EE58166EDC51EE5873
:10310000176E080E14C0DBFF090E15C0DBFF0A0E98
:1031100016C0DBFF0B0E17C0DBFF146A1B0E156E0B
:10312000B70E166E176A14C006F015C007F0086EC9
:1031300017C009F0D9C50BF0DAC50CF0DBC50DF0EE
:10314000DCC50EF02FEC21F0040E06C0DBFF050EEF
:1031500007C0DBFF060E08C0DBFF070E09C0DBFF60
:10316000010E186E196A1A6A1B6AD950040FE96EAB
:10317000DACFEAFFEE501826EE501922EE501A224E
:10318000EE501B22146A1B0E156EB70E166E176AD0
:1031900014C006F015C007F0086E17C009F018C07B
:1031A0000BF019C00CF01AC00DF01BC00EF02FEC84
:1031B00021F0140E06C0DBFF150E07C0DBFF160E54
:1031C00008C0DBFF170E09C0DBFFD950140FE96EF2
:1031D000DACFEAFFEE500501D95D146EEE50DA59F0
:1031E000156EEE50DB59166EEE50DC59176E0C0E54
:1031F00014C0DBFF0D0E15C0DBFF0E0E16C0DBFF8B
:103200000F0E17C0DBFF0C0EDBCF14F00D0EDBCF63
:1032100015F00E0EDBCF16F00F0EDBCF17F0D950E6
:10322000080FE96EDACFEAFFEE50145CEE50155845
:10323000EE501658EE50175836E2D9CFE9FFDACFE4
:10324000EAFF040EDBCFEEFF050EDBCFEEFF060E2E
:10325000DBCFEEFF070EDBCFEEFFD950140FE96E88
:10326000DACFEAFF100EEECFDBFF110EEECFDBFF61
:10327000120EEECFDBFF130EEECFDBFFD9500C0F9B
:10328000E96EDACFEAFF080EEECFDBFF090EEECFD4
:10329000DBFF0A0EEECFDBFF0B0EEECFDBFF2D0EBA
:1032A000F36E210E03D0200EF36E180EF3CFDBFF6A
:1032B000DF50B06E010EDB507F6E220EE15C02E249
:1032C000E16AE552E16EE552E7CFD9FF1200D9CFAE
:1032D000E6FFE1CFD9FFE652ACA205D0AC98AF50E3
:1032E000DF6EAC8802D0AF50DF6EDF50E552E552A2
:1032F000E7CFD9FF1200D9CFE6FFE1CFD9FF030E08
:10330000E126DBD8200E0001E76E6019E8AE02D09E
:10331000E73402D0E750605D01E2C5D06550020B92
:1033200001E0C1D00101CB5114E0CA5113E1050104
:10333000E15110E11C0EE66E430EE66E000EE66EE5
:103340005CEC1CF0E552E552E5520101010ECA6F3A
:1033500001D0CA6B0101DB5115E1400EE66E000E93
:10336000E66E010EE66EA1EC1BF0E552E552E55269
:103370000101446FE850000805E20101010EDB6F16
:103380000101456B0101DB5115E09E50100B12E06D
:1033900001014551EA6A000FE96E010EEA22EF5081
:1033A000E66E15DEE5520101452B4451455D02E113
:1033B0000101DB6B0101DA51D95D27E03F0E01010C
:1033C000435D23E20101DA51EA6A000FE96E050E5E
:1033D000EA22EF50E66E01014351EA6A890FE96E75
:1033E000010EEA22E552E750EF6E432B0101DA2B82
:1033F000DA510F0801E2DA6B01014351EA6A890FE1
:10340000E96E010EEA22EF6AD5D70101415142115E
:1034100032E0010EDB6A020EDB6A3F0E435D29E2F9
:103420004151421126E0010EDBCFE9FF020EDBCF56
:10343000EAFF110EE926050EEA22EF50E66E43512F
:10344000EA6A890FE96E010EEA22E552E750EF6E53
:10345000432B010EDB2A020E01E3DB2A4107000E9B
:10346000425B4351EA6A890FE96E010EEA22EF6A74
:10347000D4D7416B426B0501E15111E10101435188
:1034800000080DE243C1E6FF890EE66E010EE66E0E
:1034900001EC1CF0E552E552E5520101436BABEC47
:1034A0001CF00AEC12F0030EE15C02E2E16AE55264
:1034B000E16EE552E7CFD9FF12000101E151E211BF
:1034C00004E1100EE16F270EE26FE107000EE25BF0
:1034D00065A204D0E151E2111DE11200000160512A
:1034E00001E11200600501E11200020E605D01E1E0
:1034F0001200040E605D01E11200100E605D04E137
:103500000101E151E2111200200E605D03E10101B1
:10351000E151E2111200120012000101CB0508E195
:10352000CC5102E0CC071200CB6B640ECC6F1200C2
:10353000CC5101E0CC0712001200E6EC11F01CEFB8
:103540001BF012001E0EE66E010EE66E04EC10F08B
:10355000E552E55298EC11F06EEF1BF00001890581
:1035600020E100018A051DE1A098D6DF65920001E7
:103570008A6B0101100ECD6F0E0ECE6FCD07000EBF
:10358000CE5BCD51CE11FAE16584080ECD6F070EEA
:10359000CE6FCD07000ECE5BCD51CE11FAE1659412
:1035A000A0881200D9CFE6FFE1CFD9FFFD0EDBCF17
:1035B00008F0FE0EDBCF09F0050E081801E10950F6
:1035C00036E0E868081802E17F0E09182FE0030EC4
:1035D000081801E1095028E0020E081801E109501D
:1035E00021E0010E081801E109501AE0740E0818D4
:1035F00001E1095013E0750E081801E109500CE0D3
:10360000730E081801E1095005E0720E08180FE169
:1036100009500DD082DF0BD07EDF09D07DDF07D0CF
:1036200091DF05D08EDF03D088DF01D085DF010E6A
:08363000E552E7CFD9FF1200BB
:08363800040140511F0B0108C1
:1036400001E012004051600BE842E842E842E842E3
:10365000E842010801E01200440503E0440501E0EE
:1036600012004151220A35E0030A28E0010A15E060
:10367000210A0DE0010A01E012000001F30E796F4A
:10368000050E7A6F080E7D6F7E6B7C8125D0000160
:10369000F30E796F050E7A6F1FD046C482F047C4CF
:1036A00083F00001510E7F6F050E806FE40E846F72
:1036B0002F0E856F000E866F818F12000001D90ECC
:1036C000796F050E7A6F070E7D6F7E6BC10E7C6F72
:1036D000120042C4EEF500017C8F12000501D96B87
:1036E0004B0EDA6FDB6BDC6BDD6BDE6B080EDF6FB6
:1036F000E06B1A0EE66E020EE66E04EC10F0E55278
:10370000E5521E0EE66E030EE66E04EC10F0E55276
:10371000E552400EE66E590EE66E050EE66EE66A5E
:10372000030EE66EA9EC10F0146E050EE15E145067
:10373000F3CFEAF5F4CFEBF50501EC6BED6BE16B44
:103740001200D9CFE6FFE1CFD9FF0501E06BEA51C6
:10375000EB1102E1000E08D0EAC5E9FFEBC5EAFF74
:10376000EF50800B01E0010E000945E1FC0EDBCFBC
:1037700014F0EAC5E9FFEBC5EAFFEE52EF50D8803E
:10378000145408E2EAC5E9FFEBC5EAFFEE52FC0E6D
:10379000EFCFDBFFE06BFC0EDB50E05D19E2E051A8
:1037A000EA6A590FE96E050EEA22EF50E66EE05123
:1037B000E76EFD0EDBCFE9FFFE0EDBCFEAFFE75041
:1037C000E926000EEA22E552E750EF6EE02BE3D740
:1037D000400EE66E590EE66E050EE66EE66A030EC4
:1037E000E66EA9EC10F0146E050EE15E1450F3CFF6
:1037F000EAF5F4CFEBF50501E051E552E7CFD9FF4B
:103800001200D9CFE6FFE1CFD9FFA0980501E15121
:103810000CE1FD0EDBCFE2F5FE0EDBCFE3F5FC0E97
:10382000DBCFE8F5010EE96FE16FA088E552E7CF45
:10383000D9FF1200D9CFE6FFE1CFD9FF030EE12671
:10384000A0980501E1512DE1DF6AFD0EDBCF08F004
:10385000FE0EDBCF09F0DE5208C0DEFF09C0DDFF3F
:10386000DD52DF2ADF50146E156AFF0E141802E1D4
:1038700015500BE0010EDBCFE9FFDB2A020EDBCF98
:10388000EAFF01E3DB2AEF50ECE1FD0EDBCFE2F5CE
:10389000FE0EDBCFE3F5DF040501E86F010EE96FF3
:1038A000E16FA088030EE15C02E2E16AE552E16E9D
:1038B000E552E7CFD9FF1200D9CFE6FFE1CFD9FF1C
:1038C000040EE126A0980501E1513AE1DF6AD950E2
:1038D000FC0FE96EFF0EDA20EA6E010EEECFDBFF81
:1038E000020EEECFDBFF030EEECFDBFFDF2ADF5051
:1038F000146E156AFF0E141802E1155012E0D9502B
:10390000010FE96EDACFEAFFEFCFF6FFEE2AEFCF35
:10391000F7FF000EEE22EFCFF8FFEE220800F55081
:10392000E5E1FC0EDBCFE2F5FD0EDBCFE3F5FE0EAD
:10393000DBCFE4F5DFCFE8F50501E96B010EE16FC0
:10394000A088040EE15C02E2E16AE552E16EE55214
:10395000E7CFD9FF1200D9CFE6FFE1CFD9FF020EA2
:10396000E126A0980501EC51ED1102E1000E08D00E
:10397000ECC5E9FFEDC5EAFFEF50800B01E0010E59
:10398000000906E1030EE15D01E1E16BE15102E1B5
:10399000A08881D0020EE15D16E1E66A000EE66EB7
:1039A000E66A010EE66E030EE66EA9EC10F0146EE8
:1039B000050EE15E1450F3CFECF5F4CFEDF5050103
:1039C000030EE16F67D0E10565E1400E146E156AE4
:1039D000E851145C000E155803E2400EDF6E02D071
:1039E000E8C5DFFFDF50E85DE86F990EE56F050E73
:1039F000E66F010EDFCFDBFFE95119E1010EDB506D
:103A00002BE0E2C5F6FFE3C5F7FFE4C5F8FF0800C9
:103A1000F550E5C5E9FFE6C5EAFFEF6EE52B000EC0
:103A2000E623E22BE323E423010EDB06E7D7010EB6
:103A3000DB5012E0E2C5E9FFE3C5EAFFEF50E5C560
:103A4000E9FFE6C5EAFFEF6EE52B000EE623E22B69
:103A5000E323010EDB06EBD70501E85107E1400E39
:103A6000DF5C02E1020E01D0030EE16FDFCFE6FF63
:103A7000990EE66E050EE66E010EE66E030EE66E1C
:103A8000A9EC10F0146E050EE15E1450F3CFECF5C6
:103A9000F4CFEDF5A088020EE15C02E2E16AE552A6
:0A3AA000E16EE552E7CFD9FF1200F6
:063AAA00010CF36A020E9C
:103AB000F46E12003F0E066E076A086A096A120069
:103AC000010C0101E36BE30E146E010E14C0F3FF51
:103AD000F46E1200D9CFE6FFE1CFD9FFE150FB0F22
:103AE000E96EFF0EDA20EA6E400EEE5C000EEE5834
:103AF000000EEE58000EEE5802E3000E37D0E66AD4
:103B0000020EE66E000E176E780E186E000E196E1D
:103B1000FB0EDBCF06F0FC0EDBCF07F0FD0EDBCF9C
:103B200008F0FE0EDBCF09F00B6A020E0C6E0D6A78
:103B30000E6AF7EC20F017500224146E1850032080
:103B4000156E19500420166E14C0E6FF15C0E6FF6E
:103B5000E66EF90EDBCFE6FFFA0EDBCFE6FF22ECD6
:103B600020F01A6E070EE15E1A50010EE552E7CF03
:103B7000D9FF1200D9CFE6FFE1CFD9FF0E0EE12623
:103B8000D950FB0FE96EFF0EDA20EA6E400EEE5CB4
:103B9000000EEE58000EEE58000EEE5802E3000E36
:103BA00072D1000E176E780E186E000E196EFB0E95
:103BB000DBCF06F0FC0EDBCF07F0FD0EDBCF08F00D
:103BC000FE0EDBCF09F00B6A020E0C6E0D6A0E6A58
:103BD000F7EC20F017500224146E18500320156ED5
:103BE00019500420166E14C0DFFF010E15C0DBFF54
:103BF000020E16C0DBFF060EDB6A070EDB6A060E3E
:103C0000DBCF14F0070EDBCF15F0000E145C020EB4
:103C1000155801E336D1030EDB6A040EDB6A050E8C
:103C2000DB6A040EDBCF14F0050EDBCF15F0000EBF
:103C3000145C040E15584CE2060EDBCF15F0070E8F
:103C4000DBCF16F0176AD9CFE9FFDACFEAFFEE50E3
:103C50001524F36EEE501620F46EEE501720F86E19
:103C6000F4CFF7FFF3CFF6FF0800F5CF14F0060E00
:103C7000DBCF18F0070EDBCF19F0F90EDB5018245C
:103C8000E96EFA0EDB501920EA6EEF50145C15E075
:103C9000010EF36E030EF3CFDBFF040EDBCF14F047
:103CA000050EDBCF15F0D950060FE96EDACFEAFF2B
:103CB0001450EE5E1550ED5A0BD0060EDB2A070E9F
:103CC00001E3DB2A040EDB2A050E01E3DB2AA9D778
:103CD000030EDB0401E0D4D0060EDBCF19F0070E93
:103CE000DBCF1AF01B6AD9CFE9FFDACFEAFFEE503B
:103CF0001924166EEE501A20176EEE501B20186E07
:103D0000000E1614146EFC0E1714156E0C0E14C053
:103D1000DBFF0D0E15C0DBFFE66A040EE66E0C0E2F
:103D2000DBCF14F00D0EDBCF15F0166A14C0E6FFE2
:103D300015C0E6FF16C0E6FF000EE66E080EE66E42
:103D400022EC20F0176E070EE15E17500C0EDBCF51
:103D500014F00D0EDBCF15F0166A14C0E6FF15C087
:103D6000E6FF16C0E6FF9BD8E552E552E552060E87
:103D7000DBCF19F0070EDBCF1AF01B6AD9CFE9FFB2
:103D8000DACFEAFFEE501924166EEE501A20176EA5
:103D9000EE501B20186EFF0E1614146E030E17142F
:103DA000156E0C0E14C0DBFF0D0E15C0DBFFE66AAE
:103DB000020EE66EF90EDBCFE6FFFA0EDBCFE6FF72
:103DC0000C0EDBCF14F00D0EDBCF15F0000E142619
:103DD000080E152214C0E6FF15C0E6FFF7EC1FF031
:103DE000166E060EE15E1650100EF36E0A0EF3CF3D
:103DF000DBFF0B0EDB6AD950080FE96EDACFEAFF62
:103E0000000EEE6E080EED6E0A0EDBCFF3FFDB0642
:103E1000F350000835E2040EDB6A050EDB6A040E7F
:103E2000DBCF14F0050EDBCF15F0400E145C000E56
:103E3000155817E2080EDBCFE9FFDB2A090EDBCFAE
:103E4000EAFF01E3DB2AEF50F56E0D00060EDB2AD8
:103E5000070E01E3DB2A040EDB2A050E01E3DB2A51
:103E6000DED70B0EDB2A0A00840EA66EB50EE66EB8
:103E70002DD8E552F62A000EF722000EF822C4D7FC
:103E8000BED6010E00D0146E0E0EE15C02E2E16AB5
:103E9000E552E16E1450E552E7CFD9FF1200D9CFB9
:103EA000E6FFE1CFD9FFFC0EDBCFF6FFFD0EDBCF47
:103EB000F7FFFE0EDBCFF8FF940EA66EB50EE66E92
:103EC00005D8E552E552E7CFD9FF1200D9CFE6FF7A
:103ED000E1CFD9FFE652FE0EDB50B50802E0A69412
:103EE0000BD0F250DF6EF29E550EA76EAA0EA76E93
:103EF000A682A694DFBEF28EE552E552E7CFD9FF47
:043F00001200000C9F
:0C3F04001201000200000008D804570061
:103F100001000102000109025900020102C0320938
:103F20000400000208065000070581024000010756
:103F3000050102400001080B010102020100090411
:103F40000100030202010005240010010424020202
:103F5000052406010105240100010705820308006C
:103F60000207050302400000070583024000000429
:103F700003090434034D006900630072006F00639D
:103F8000006800690070002000540065006300684C
:103F9000006E006F006C006F006700790020004920
:103FA000006E0063002E003A034D0069006300724A
:103FB000006F006300680069007000200043006F1C
:103FC000006D0070006F00730069007400650020D0
:103FD0000044006500760069006300650000000091
:0D3FE00000163F006F3F00733F00A73F0039
:013FED00FFD4
:023FEE00D9CF29
:103FF000E6FFDACFE6FFFA0EE3CFD9FFFB0EE3CF01
:10400000DAFFFC0EE3CFE9FFFD0EE3CFEAFFE9CFD5
:10401000F3FFEACFF4FFF80EE35003E1F90EE350AB
:1040200008E0F80EE30602E2F90EE306DECFEEFF4B
:10403000F2D7FF0EE3CFDAFFE552FF0EE3CFD9FF51
:10404000E5521200FB0EE3CFF6FFFC0EE3CFF7FFC5
:10405000FD0EE3CFF8FFFE0EE3CFE9FFFF0EE3CF47
:10406000EAFFE9CFF3FFEACFF4FFF90EE35003E1F3
:10407000FA0EE35009E0F90EE30602E2FA0EE30657
:104080000900F5CFEEFFF1D71200FE0EE3CFE9FFF6
:10409000FF0EE3CFEAFFE9CFF3FFEACFF4FFFB0E19
:1040A000E35003E1FC0EE35009E0FB0EE30602E2FD
:0E40B000FC0EE306FD0EE350EE6EF1D712009B
:0240BE001E0ED4
:1040C000F66E100EF76E000EF86E01010900F55045
:1040D000D46F0900F550D56F03E1D46701D03DD00E
:1040E0000900F550CF6F0900F550D06F0900F55069
:1040F000D16F09000900F550E96E0900F550EA6E2C
:10410000090009000900F550D26F0900F550D36F7E
:1041100009000900F6CFD6F1F7CFD7F1F8CFD8F1E3
:10412000CFC1F6FFD0C1F7FFD1C1F8FF0101D253D3
:1041300002E1D35307E00900F550EE6ED207F8E232
:10414000D307F9D7D6C1F6FFD7C1F7FFD8C1F8FF1B
:0C4150000101D407000ED55BBFD71200A0
:04415C0009C013F093
:1041600008C012F007C011F007500C02F4CF05F0A0
:10417000F3CF04F008500D02F4CF07F0F3CF06F0B0
:104180000C02F3500526F4500622E86A072211506B
:104190000D02F3500526F4500622E86A0722095062
:1041A0000C02F3500626F450072209500D02086A4B
:1041B000E86A0822F3500726F450082211500E0234
:1041C000F3500626F4500722096AE86A08220922F9
:1041D00012500E02F3500726F4500822E86A092212
:0E41E00013500E02F3500826F4500922000C72
:0241EE00065079
:1041F0000B02F3CF02F0F4CF03F00C02F3500326CE
:10420000000EF420046E06500D02F3500426000E3A
:10421000F420056E06500E02F350052607500B02DF
:10422000F3500326F4500422000E052207500C021E
:10423000F3500426F450052207500D02F3500526D2
:1042400008500B02F3500426F450052208500C02CB
:0E425000F350052609500B02F350052612000C
:02425E00056AEF
:10426000046A036A026A200EE76ED89006360736A3
:104270000836093602360336043605360B50025C22
:104280000C5003580D5004580E50055809E30B50BC
:10429000025E0C50035A0D50045A0E50055A062A5D
:0642A000E72EE4D7120036
:0A42A60000800402200000004D69B2
:1042B00063726F6368704D6173732053746F7261C2
:0A42C00067652020202030303031E7
:0642CA00C00EF36E00EED1
:1042D00000F00E0E01D81200EA6002D0EE6AFCD7A0
:0A42E000F350E9601200EE6AFCD70B
:0642EA001DEE00F02DEEB8
:1042F00000F0F86A019C5FEC20F003EC08F079EC28
:0643000017F0FBD71200CC
:0A430600F36AF46AF32A0F0B05E0D6
:0C431000D890F336F436E804FBE112000C
:04431C0042757474FE
:104320006F6E2050726573736564202D2D200D0A09
:01433000008C
:0343310000000089
:107800000000000000000000000000000000000078
:107810000000000000000000000000000000000068
:107820000000000000000000000000000000000058
:107830000000000000000000000000000000000048
:107840000000000000000000000000000000000038
:107850000000000000000000000000000000000028
:107860000000000000000000000000000000000018
:107870000000000000000000000000000000000008
:1078800000000000000000000000000000000000F8
:1078900000000000000000000000000000000000E8
:1078A00000000000000000000000000000000000D8
:1078B00000000000000000000000000000000000C8
:1078C00000000000000000000000000000000000B8
:1078D00000000000000000000000000000000000A8
:1078E0000000000000000000000000000000000098
:1078F0000000000000000000000000000000000088
:107900000000000000000000000000000000000077
:107910000000000000000000000000000000000067
:107920000000000000000000000000000000000057
:107930000000000000000000000000000000000047
:107940000000000000000000000000000000000037
:107950000000000000000000000000000000000027
:107960000000000000000000000000000000000017
:107970000000000000000000000000000000000007
:1079800000000000000000000000000000000000F7
:1079900000000000000000000000000000000000E7
:1079A00000000000000000000000000000000000D7
:1079B0000000000000000000F58B16EA00008001C6
:1079C00001000107FFE601000000100000000000B8
:1079D00000000000000000000000000000000000A7
:1079E0000000000000000000000000000000000097
:1079F000000000000000000000000000000055AA88
:107A0000EB3C904D53444F53352E300002010100A2
:107A10000110000000F801003F00FF00010000001D
:107A200040000000000029326794C44E4F204E41B0
:107A30004D45202020204641543136202020000092
:107A40000000000000000000000000000000000036
:107A50000000000000000000000000000000000026
:107A60000000000000000000000000000000000016
:107A70000000000000000000000000000000000006
:107A800000000000000000000000000000000000F6
:107A900000000000000000000000000000000000E6
:107AA00000000000000000000000000000000000D6
:107AB00000000000000000000000000000000000C6
:107AC00000000000000000000000000000000000B6
:107AD00000000000000000000000000000000000A6
:107AE0000000000000000000000000000000000096
:107AF0000000000000000000000000000000000086
:107B00000000000000000000000000000000000075
:107B10000000000000000000000000000000000065
:107B20000000000000000000000000000000000055
:107B30000000000000000000000000000000000045
:107B40000000000000000000000000000000000035
:107B50000000000000000000000000000000000025
:107B60000000000000000000000000000000000015
:107B70000000000000000000000000000000000005
:107B800000000000000000000000000000000000F5
:107B900000000000000000000000000000000000E5
:107BA00000000000000000000000000000000000D5
:107BB00000000000000000000000000000000000C5
:107BC00000000000000000000000000000000000B5
:107BD00000000000000000000000000000000000A5
:107BE0000000000000000000000000000000000095
:107BF000000000000000000000000000000055AA86
:107C0000F80F00FF0F00000000000000000000005F
:107C10000000000000000000000000000000000064
:107C20000000000000000000000000000000000054
:107C30000000000000000000000000000000000044
:107C40000000000000000000000000000000000034
:107C50000000000000000000000000000000000024
:107C60000000000000000000000000000000000014
:107C70000000000000000000000000000000000004
:107C800000000000000000000000000000000000F4
:107C900000000000000000000000000000000000E4
:107CA00000000000000000000000000000000000D4
:107CB00000000000000000000000000000000000C4
:107CC00000000000000000000000000000000000B4
:107CD00000000000000000000000000000000000A4
:107CE0000000000000000000000000000000000094
:107CF0000000000000000000000000000000000084
:107D00000000000000000000000000000000000073
:107D10000000000000000000000000000000000063
:107D20000000000000000000000000000000000053
:107D30000000000000000000000000000000000043
:107D40000000000000000000000000000000000033
:107D50000000000000000000000000000000000023
:107D60000000000000000000000000000000000013
:107D70000000000000000000000000000000000003
:107D800000000000000000000000000000000000F3
:107D900000000000000000000000000000000000E3
:107DA00000000000000000000000000000000000D3
:107DB00000000000000000000000000000000000C3
:107DC00000000000000000000000000000000000B3
:107DD00000000000000000000000000000000000A3
:107DE0000000000000000000000000000000000093
:107DF0000000000000000000000000000000000083
:107E00004472697665204E616D65200800000000AF
:107E1000001100110000000000110000000000002F
:107E200046494C45202020205458542000062878EC
:107E3000DE38DE3800000477DE380200040000007F
:107E40000000000000000000000000000000000032
:107E50000000000000000000000000000000000022
:107E60000000000000000000000000000000000012
:107E70000000000000000000000000000000000002
:107E800000000000000000000000000000000000F2
:107E900000000000000000000000000000000000E2
:107EA00000000000000000000000000000000000D2
:107EB00000000000000000000000000000000000C2
:107EC00000000000000000000000000000000000B2
:107ED00000000000000000000000000000000000A2
:107EE0000000000000000000000000000000000092
:107EF0000000000000000000000000000000000082
:107F00000000000000000000000000000000000071
:107F10000000000000000000000000000000000061
:107F20000000000000000000000000000000000051
:107F30000000000000000000000000000000000041
:107F40000000000000000000000000000000000031
:107F50000000000000000000000000000000000021
:107F60000000000000000000000000000000000011
:107F70000000000000000000000000000000000001
:107F800000000000000000000000000000000000F1
:107F900000000000000000000000000000000000E1
:107FA00000000000000000000000000000000000D1
:107FB00000000000000000000000000000000000C1
:107FC00000000000000000000000000000000000B1
:107FD00000000000000000000000000000000000A1
:107FE0000000000000000000000000000000000091
:107FF0000000000000000000000000000000000081
:1080000044617461000000000000000000000000F6
:108010000000000000000000000000000000000060
:108020000000000000000000000000000000000050
:108030000000000000000000000000000000000040
:108040000000000000000000000000000000000030
:01FFF800AA5E
:01FFF900F710
:01FFFA001DE9
:01FFFB00FF06
:01FFFC0063A1
:01FFFD00F80B
:01FFFE008181
:01FFFF00F110
:00000001FF
